:020000040800F2
:10000000008001205D2600084D24000855240008CA
:100010005D240008652400086D240008000000002D
:10002000000000000000000000000000752400082F
:100030008324000800000000912400089F24000889
:10004000AD260008AD260008AD260008AD26000844
:10005000AD260008AD260008AD260008AD26000834
:10006000AD260008AD260008AD260008AD26000824
:10007000AD260008AD260008AD260008AD26000814
:10008000AD260008AD260008AD260008AD26000804
:10009000AD260008AD260008AD260008AD260008F4
:1000A000AD260008AD260008AD260008AD260008E4
:1000B000AD260008AD260008AD260008AD260008D4
:1000C000AD260008AD260008AD260008AD260008C4
:1000D000AD260008AD260008AD260008AD260008B4
:1000E000AD260008AD260008AD260008AD260008A4
:1000F000AD260008AD260008AD260008AD26000894
:10010000AD260008AD260008AD260008AD26000883
:10011000AD260008AD260008AD260008AD26000873
:10012000AD260008AD260008AD260008AD26000863
:10013000AD260008AD260008AD260008AD26000853
:10014000AD260008AD260008AD260008AD26000843
:10015000AD260008AD260008AD260008AD26000833
:10016000AD260008AD260008AD260008AD26000823
:10017000AD260008AD260008AD26000800000000EE
:08018000AD260008AD260008C1
:1001900010B5054C237833B9044B13B10448AFF3C1
:1001A00000800123237010BDD40100200000000056
:1001B00060A6000808B5034B1BB103490348AFF321
:1001C000008008BD00000000D801002060A60008E3
:1001D00001F0FF01102A2BDB10F0070F08D010F8F8
:1001E000013B013A8B422DD010F0070F42B3F6D1FC
:1001F000F0B441EA012141EA014122F007047FF015
:1002000000070023F0E80256083C85EA010586EA6B
:10021000010685FA47F5A3FA87F586FA47F6A5FAA7
:1002200087F68EB9EED1F0BC01F0FF0102F00702B3
:1002300032B110F8013B013A83EA010313B1F8D15E
:100240000020704701387047002D06BF354603383F
:10025000073815F0010F07D1013015F4807F02BF78
:10026000013015F4C03F0130F0BC0138704700BFC9
:10027000034613F8012B002AFBD1181A01387047E6
:1002800081F0004102E000BF83F0004330B54FEA47
:1002900041044FEA430594EA050F08BF90EA020FB4
:1002A0001FBF54EA000C55EA020C7FEA645C7FEA47
:1002B000655C00F0E2804FEA5454D4EB5555B8BF6A
:1002C0006D420CDD2C4480EA020281EA030382EADB
:1002D000000083EA010180EA020281EA0303362D6D
:1002E00088BF30BD11F0004F4FEA01314FF4801C40
:1002F0004CEA113102D0404261EB410113F0004F52
:100300004FEA03334CEA133302D0524263EB430308
:1003100094EA050F00F0A780A4F10104D5F1200EA6
:100320000DDB02FA0EFC22FA05F2801841F1000101
:1003300003FA0EF2801843FA05F359410EE0A5F1D5
:1003400020050EF1200E012A03FA0EFC28BF4CF006
:10035000020C43FA05F3C01851EBE37101F00045BC
:1003600007D54FF0000EDCF1000C7EEB00006EEBC9
:100370000101B1F5801F1BD3B1F5001F0CD3490853
:100380005FEA30004FEA3C0C04F101044FEA4452AA
:1003900012F5800F80F09A80BCF1004F08BF5FEA31
:1003A000500C50F1000041EB045141EA050130BD11
:1003B0005FEA4C0C404141EB0101013C28BFB1F523
:1003C000801FE9D291F0000F04BF01460020B1FA6E
:1003D00081F308BF2033A3F10B03B3F120020CDA41
:1003E0000C3208DD02F1140CC2F10C0201FA0CF01F
:1003F00021FA02F10CE002F11402D8BFC2F1200C84
:1004000001FA02F120FA0CFCDCBF41EA0C01904039
:10041000E41AA2BF01EB0451294330BD6FEA040482
:100420001F3C1CDA0C340EDC04F11404C4F120026D
:1004300020FA04F001FA02F340EA030021FA04F37F
:1004400045EA030130BDC4F10C04C4F1200220FAD6
:1004500002F001FA04F340EA0300294630BD21FA14
:1004600004F0294630BD94F0000F83F4801306BFDA
:1004700081F480110134013D4EE77FEA645C18BFCE
:100480007FEA655C29D094EA050F08BF90EA020F65
:1004900005D054EA000C04BF1946104630BD91EA5D
:1004A000030F1EBF0021002030BD5FEA545C05D160
:1004B0004000494128BF41F0004130BD14F580049F
:1004C0003CBF01F5801130BD01F0004545F0FE4113
:1004D00041F470014FF0000030BD7FEA645C1ABF48
:1004E000194610467FEA655C1CBF0B46024650EA7F
:1004F000013406BF52EA033591EA030F41F40021AB
:1005000030BD00BF90F0000F04BF0021704730B530
:100510004FF4806404F132044FF000054FF0000105
:1005200050E700BF90F0000F04BF0021704730B5C6
:100530004FF4806404F1320410F0004548BF40429B
:100540004FF000013EE700BF42004FEAE2014FEAF0
:1005500031014FEA02701FBF12F07F4393F07F4FCB
:1005600081F06051704732F07F4208BF704793F0CE
:100570007F4F04BF41F40021704730B54FF46074E1
:1005800001F0004521F000411CE700BF50EA0102E4
:1005900008BF704730B54FF000050AE050EA01028D
:1005A00008BF704730B511F0004502D5404261EBFD
:1005B00041014FF4806404F132045FEA915C3FF43E
:1005C000D8AE4FF003025FEADC0C18BF03325FEADB
:1005D000DC0C18BF033202EBDC02C2F1200300FA8C
:1005E00003FC20FA02F001FA03FE40EA0E0021FAB1
:1005F00002F11444BDE600BF70B54FF0FF0C4CF49F
:10060000E06C1CEA11541DBF1CEA135594EA0C0F50
:1006100095EA0C0F00F0DEF82C4481EA030621EA8B
:100620004C5123EA4C5350EA013518BF52EA0335C6
:1006300041F4801143F4801338D0A0FB02CE4FF078
:100640000005E1FB02E506F00042E0FB03E54FF0A8
:100650000006E1FB03569CF0000F18BF4EF0010EA0
:10066000A4F1FF04B6F5007F64F5407404D25FEA9C
:100670004E0E6D4146EB060642EAC62141EA55514F
:100680004FEAC52040EA5E504FEACE2EB4F1FD0C91
:1006900088BFBCF5E06F1ED8BEF1004F08BF5FEA0F
:1006A000500E50F1000041EB045170BD06F00046C1
:1006B00046EA010140EA020081EA0301B4EB5C046E
:1006C000C2BFD4EB0C0541EA045170BD41F4801166
:1006D0004FF0000E013C00F3AB8014F1360FDEBF8B
:1006E000002001F0004170BDC4F10004203C35DA67
:1006F0000C341BDC04F11404C4F1200500FA05F3EA
:1007000020FA04F001FA05F240EA020001F000428A
:1007100021F0004110EBD37021FA04F642EB060100
:100720005EEA430E08BF20EAD37070BDC4F10C042A
:10073000C4F1200500FA04F320FA05F001FA04F2EE
:1007400040EA020001F0004110EBD37041F10001DA
:100750005EEA430E08BF20EAD37070BDC4F12005E5
:1007600000FA05F24EEA020E20FA04F301FA05F24D
:1007700043EA020321FA04F001F0004121FA04F2F5
:1007800020EA020000EBD3705EEA430E08BF20EAC5
:10079000D37070BD94F0000F0FD101F000464000FF
:1007A00041EB010111F4801F08BF013CF7D041EA81
:1007B000060195F0000F18BF704703F00046520085
:1007C00043EB030313F4801F08BF013DF7D043EA56
:1007D0000603704794EA0C0F0CEA135518BF95EA0C
:1007E0000C0F0CD050EA410618BF52EA4306D1D193
:1007F00081EA030101F000414FF0000070BD50EAB2
:10080000410606BF1046194652EA430619D094EA3B
:100810000C0F02D150EA013613D195EA0C0F05D125
:1008200052EA03361CBF104619460AD181EA030179
:1008300001F0004141F0FE4141F470014FF0000031
:1008400070BD41F0FE4141F4780170BD70B54FF0CC
:10085000FF0C4CF4E06C1CEA11541DBF1CEA13554C
:1008600094EA0C0F95EA0C0F00F0A7F8A4EB05042E
:1008700081EA030E52EA03354FEA013100F0888025
:100880004FEA03334FF0805545EA131343EA1263EE
:100890004FEA022245EA111545EA10654FEA0026A3
:1008A0000EF000419D4208BF964244F1FD0404F55C
:1008B000407402D25B084FEA3202B61A65EB0305B8
:1008C0005B084FEA32024FF480104FF4002CB6EB75
:1008D000020E75EB030E22BFB61A754640EA0C00F5
:1008E0005B084FEA3202B6EB020E75EB030E22BF35
:1008F000B61A754640EA5C005B084FEA3202B6EB76
:10090000020E75EB030E22BFB61A754640EA9C0034
:100910005B084FEA3202B6EB020E75EB030E22BF04
:10092000B61A754640EADC0055EA060E18D04FEAC2
:10093000051545EA16754FEA06164FEAC30343EA62
:1009400052734FEAC2025FEA1C1CC0D111F4801F2F
:100950000BD141EA00014FF000004FF0004CB6E728
:1009600011F4801F04BF01430020B4F1FD0C88BFC7
:10097000BCF5E06F3FF6AFAEB5EB030C04BFB6EBD2
:10098000020C5FEA500C50F1000041EB045170BDC5
:100990000EF0004E4EEA113114EB5C04C2BFD4EBF2
:1009A0000C0541EA045170BD41F480114FF0000E76
:1009B000013C90E645EA060E8DE60CEA135594EAF2
:1009C0000C0F08BF95EA0C0F3FF43BAF94EA0C0FF5
:1009D0000AD150EA01347FF434AF95EA0C0F7FF46A
:1009E00025AF104619462CE795EA0C0F06D152EABE
:1009F00003353FF4FDAE1046194622E750EA4106A2
:100A000018BF52EA43067FF4C5AE50EA41047FF4B2
:100A10000DAF52EA43057FF4EBAE12E74FF0FF3C17
:100A200006E000BF4FF0010C02E000BF4FF0010CE8
:100A30004DF804CD4FEA410C7FEA6C5C4FEA430C61
:100A400018BF7FEA6C5C1BD001B050EA410C0CBFB0
:100A500052EA430C91EA030F02BF90EA020F002012
:100A6000704710F1000F91EA030F58BF994208BF79
:100A700090422CBFD8176FEAE37040F00100704736
:100A80004FEA410C7FEA6C5C02D150EA013C07D18D
:100A90004FEA430C7FEA6C5CD6D152EA033CD3D0D8
:100AA0005DF8040B704700BF8446104662468C46D2
:100AB0001946634600E000BF01B5FFF7B7FF002805
:100AC00048BF10F1000F01BD4DF808EDFFF7F4FF2E
:100AD0000CBF012000205DF808FB00BF4DF808EDB9
:100AE000FFF7EAFF34BF012000205DF808FB00BFDC
:100AF0004DF808EDFFF7E0FF94BF012000205DF8FE
:100B000008FB00BF4DF808EDFFF7CEFF94BF0120B2
:100B100000205DF808FB00BF4DF808EDFFF7C4FFAB
:100B200034BF012000205DF808FB00BF4FEA410CF4
:100B30007FEA6C5C02D150EA013C0AD14FEA430CD7
:100B40007FEA6C5C02D152EA033C02D14FF0000014
:100B500070474FF0010070474FEA410212F5001252
:100B600015D211D56FF47873B3EB625212D94FEAF4
:100B7000C12343F0004343EA505311F0004F23FADE
:100B800002F018BF404270474FF00000704750EA33
:100B9000013005D111F0004008BF6FF000407047F0
:100BA0004FF00000704700BF4A0011D212F500124A
:100BB00011D20DD56FF47873B3EB62520ED44FEAB5
:100BC000C12343F0004343EA505323FA02F0704735
:100BD0004FF00000704750EA013002D14FF0FF3073
:100BE00070474FF0000070474FEA4102B2F1E04316
:100BF00024BFB3F5001CDCF1FE5C0DD901F0004C04
:100C00004FEAC0024CEA5070B2F1004F40EB830053
:100C100008BF20F00100704711F0804F21D113F17F
:100C20003872BCBF01F00040704741F480114FEAB8
:100C30005252C2F11802C2F1200C10FA0CF320FA41
:100C400002F018BF40F001004FEAC1234FEAD3235E
:100C500003FA0CFC40EA0C0023FA02F34FEA4303C8
:100C6000CCE77FEA625307D150EA01331EBF4FF051
:100C7000FE4040F44000704701F0004040F0FE406C
:100C800040F40000704700BF7BB972B90029BEBFB5
:100C900000204FF0004106E008BF00281CBF6FF0A5
:100CA00000414FF0FF3000F0EBB9ADF1080C6DE9F9
:100CB00004CE002909DB002B1ADB00F083F8DDF8F5
:100CC00004E0DDE9022304B07047404261EB4101DA
:100CD000002B1BDB00F076F8DDF804E0DDE90223F1
:100CE00004B0404261EB4101524263EB4303704761
:100CF000524263EB430300F065F8DDF804E0DDE900
:100D0000022304B0404261EB41017047524263EB61
:100D1000430300F057F8DDF804E0DDE9022304B0F6
:100D2000524263EB4303704753B94AB9002908BFE5
:100D300000281CBF4FF0FF314FF0FF3000F0A0B98A
:100D4000ADF1080C6DE904CE00F03CF8DDF804E0EC
:100D5000DDE9022304B0704738B5002200230446C1
:100D60000D46FFF7BBFE28B920462946BDE83840AE
:100D700000F00AB8204605F1004100F005F84042B5
:100D800061EB410138BD00BFD0B50C4B00220646D7
:100D90000F46FFF731FCFFF707FF0446FFF7B2FBF2
:100DA000074B0022FFF728FC02460B463046394627
:100DB000FFF76AFAFFF7F8FE2146D0BD0000F03DCC
:100DC0000000F0412DE9F047089D0C46002B4ED164
:100DD00094468C458646B2FA82F262D94AB1C2F193
:100DE0002003914020FA03F30CFA02FC194300FAA5
:100DF00002FE4FEA1C471FFA8CF6B1FBF7F44FEAEC
:100E00001E4307FB141143EA014304FB06F1994218
:100E10000AD91CEB030304F1FF3080F012819942E0
:100E200040F20F81023C6344591A1FFA8EF3B1FB62
:100E3000F7F007FB101143EA014300FB06F69E4260
:100E40000AD91CEB030300F1FF3180F0FC809E42C5
:100E500040F2F980634402389B1B40EA04400021C1
:100E60001DB1D3400022C5E90032BDE8F0878B42B6
:100E700005D90DB1C5E9000100210846F5E7B3FA2F
:100E800083F1002946D1A34202D39042C0F0F08002
:100E9000861A64EB03030120002DE6D0C5E9006348
:100EA000E3E7002A40F09080A1EB0C044FEA1C48D5
:100EB0001FFA8CF70121B4FBF8F64FEA1E4308FB3A
:100EC000164443EA044307FB06F0984208D91CEB9A
:100ED000030306F1FF3402D2984200F2CD80264689
:100EE0001C1A1FFA8EF3B4FBF8F008FB104443EA17
:100EF000044300FB07F79F4208D91CEB030300F1F2
:100F0000FF3402D29F4200F2B0802046DB1B40EA51
:100F10000640A5E7C1F120068B4022FA06F71F43E1
:100F200020FA06FC04FA01F343EA0C03F44000FA49
:100F300001F8380C4FEA1349B4FBF0FE1FFA87FCA6
:100F400000FB1E4449EA04440EFB0CF9A14502FAD9
:100F500001F20AD93C190EF1FF3A80F08480A145D4
:100F600040F28180AEF1020E3C44A4EB09041FFA6A
:100F700083F9B4FBF0F300FB134449EA044403FB98
:100F80000CFCA44507D93C1903F1FF3067D2A445F6
:100F900065D9023B3C4443EA0E40A0FB0293A4EB1C
:100FA0000C049C42CE469C4651D34ED055B1B8EB72
:100FB0000E0364EB0C0404FA06F6CB401E43CC404F
:100FC000C5E90064002150E7C2F1200320FA03F1D3
:100FD0000CFA02FC24FA03F394400C434FEA1C4839
:100FE00000FA02FE1FFA8CF7B3FBF8F008FB103191
:100FF000230C43EA014300FB07F1994208D91CEB9B
:10100000030300F1FF362CD299422AD902386344F7
:101010005B1AA4B2B3FBF8F108FB113344EA0344B2
:1010200001FB07F3A34208D91CEB040401F1FF36CE
:1010300013D2A34211D902396444E41A41EA0041AF
:1010400039E70446F0E6084606E7C845AED2B9EBF4
:10105000020E63EB070C0138A8E73146EDE70346C3
:1010600099E73046D4E7D6467FE7634402384DE738
:101070000646234608460FE7023E634430E700BFBA
:10108000704700BF80B483B000AF78607B680322F4
:101090001A707B6800225A707B6803229A707B6802
:1010A0000322DA707B6803221A717B6803225A716B
:1010B00000BF0C37BD465DF8047B704780B58AB031
:1010C00004AFF8600B467A60FB72FB689B8C5B0098
:1010D000FB82FB68986AFB7A9AB2F98A41F28833FC
:1010E00002930223019307F114030093012301F0FB
:1010F000D7FF0346002B0BD17B7D1B021AB23B7D31
:101100001BB213431BB29AB27B681A80012300E022
:10111000002318461837BD4680BD90B58BB004AF8C
:10112000F8607A601A460B46FB721346BB72FB6886
:101130009B8C5B00FB82FB68986AFB7A9AB2BB7A55
:101140009BB2F98A41F28834029401937B68009340
:10115000012301F0A5FF0346002B01D1002300E08D
:10116000012318461C37BD4690BD80B582B000AF44
:1011700078607B681A4688217868FFF79FFF0346EE
:10118000002B6FD07B6802331A468A217868FFF7FC
:1011900095FF0346002B65D07B6804331A468C21EB
:1011A0007868FFF78BFF0346002B5BD07B68063324
:1011B0001A468E217868FFF781FF0346002B51D035
:1011C0007B6808331A4690217868FFF777FF03465B
:1011D000002B47D07B680A331A4692217868FFF7C4
:1011E0006DFF0346002B3DD07B680C331A469421DB
:1011F0007868FFF763FF0346002B33D07B680E331C
:101200001A4696217868FFF759FF0346002B29D02C
:101210007B6810331A4698217868FFF74FFF034622
:10122000002B1FD07B6812331A469A217868FFF78B
:1012300045FF0346002B15D07B6814331A469C21CA
:101240007868FFF73BFF0346002B0BD07B68163313
:101250001A469E217868FFF731FF0346002B01D024
:10126000012300E0002318460837BD4680BD80B545
:1012700084B000AF78607B6803F118020123A121DC
:101280007868FFF74AFF0346002B4BD17B681A337F
:101290001A46E1217868FFF711FF0346002B41D081
:1012A0007B6803F11C020123E3217868FFF735FF17
:1012B0000346002B36D107F10E031A46E421786865
:1012C000FFF7FCFE0346002B2CD007F10C031A4657
:1012D000E5217868FFF7F2FE0346002B22D07B68F9
:1012E00003F122020123E7217868FFF716FF034686
:1012F000002B17D1FB891B011BB203F47F631AB2C9
:10130000FB891B121BB203F00F031BB213431AB26B
:101310007B68DA83BB891B099BB21AB27B681A848B
:10132000012300E0002318461037BD4680BD80B57C
:1013300088B004AF78600B46FB701346BB707B68C7
:101340009B8C5B00FB817B68986AFB789AB2F98979
:1013500042F21073029301230193BB1C00930123FB
:1013600001F08AFD0346002B01D1002300E0012398
:1013700018461037BD4680BD80B584B000AF786098
:1013800039607B689B8C762B05D07B689B8C772B98
:1013900001D0002399E07B6803F132020123D021C0
:1013A0007868FFF7BAFE0346002B01D000238CE0DB
:1013B0007B6893F83230582B06D07B6893F8323034
:1013C000602B01D0002380E0B622E0217868FFF78F
:1013D000AEFF0346002B01D0002376E007F10C029C
:1013E0000123F3217868FFF798FE0346002BF5D11F
:1013F0003B7B03F00103002BF0D17868FFF7B5FECB
:10140000034683F00103DBB2002B00D101E000238F
:101410005BE07B6893F83230602B0AD17868FFF785
:1014200026FF034683F00103DBB2002B01D000232B
:101430004BE03B685B795B015AB23B685B789B0091
:101440005BB213435BB2FB73FB7B1A46F5217868F2
:10145000FFF76DFF0346002B01D0002335E03B680A
:101460001B78012B02D13B6800221A703B68DB78A5
:101470005B015AB23B689B789B005BB213435AB244
:101480003B681B785BB213435BB2BB737B6893F81A
:101490003230602B0DD13B681B797B737B7B1A4606
:1014A000F2217868FFF743FF0346002B01D00023A9
:1014B0000BE0BB7B1A46F4217868FFF738FF034640
:1014C000002B01D0002300E0012318461037BD4651
:1014D00080BD80B487B000AFF860B9607A60BB6847
:1014E000DA10FB681B885B00D31AFA68B2F9022095
:1014F00002FB03F3DB127B61BB681B11FA681288E5
:101500009B1ABA681211F9680988521A02FB03F390
:101510001B13FA68B2F9042002FB03F39B133B612F
:101520007A693B691A447B681A607B681A681346BB
:101530009B00134480331B1218461C37BD465DF8D0
:10154000047B70472DE9B04FCCB000AFC7F8140151
:10155000C7F81011C7F80C21D7F80C31DA171C4660
:101560001546B4F5FA3A45F1FF3BC7E94AABD7F85F
:101570002C21D7F8283103FB02F1D7F82C21D7F81A
:10158000283102FB03F3CA18D7F82831A3FB0389DB
:1015900002EB09039946D7F81431B3F910301BB2A6
:1015A000DA17C7F8B830C7F8BC20D7E92E010346D0
:1015B00003FB09F20B4608FB03F313440246A8FBA6
:1015C0000212C7F8C4200A46C7F8C020D7F8C420C2
:1015D0001344C7F8C430D7E93034C7E94834C7E901
:1015E0004834D7F81431B3F90E301BB2DA17C7F804
:1015F000B030C7F8B420D7F82831D7E92C452A46AF
:1016000002FB03F2D7F82C31214601FB03F31A4405
:10161000D7F828312146A3FB0113C7F804310B4644
:10162000C7F80031D7F80431D318C7F804314FF0A8
:1016300000004FF00001D7E940452B4659042346EE
:1016400041EAD33123465804D7E9482314183C64AF
:101650004B417B64D7E91034C7E94834D7F81431DB
:10166000B3F90C301BB2DA17C7F8A830C7F8AC20B2
:101670004FF000004FF00001D7F8A830D90000204B
:10168000D7E948231418BC634B41FB63D7E90E34F8
:10169000C7E94834D7F82C21D7F8283103FB02F1E9
:1016A000D7F82C21D7F8283102FB03F3CA18D7F852
:1016B0002831A3FB0313C7F8FC300B46C7F8F830FA
:1016C000D7F8FC30D318C7F8FC30D7F81431B3F989
:1016D0000A301BB2DA17C7F8A030C7F8A420D7E940
:1016E0003E452B46D7E92889424602FB03F24B468A
:1016F000214601FB03F3134422464146A2FB01129B
:10170000C7F8F4200A46C7F8F020D7F8F4201344AD
:10171000C7F8F4304FF000004FF00001D7E93C4526
:101720002346180A2B4640EA03602B461912D7F8C5
:101730001431B3F908301BB2DA17C7F89830C7F87C
:101740009C20D7F82831D7E926894A4602FB03F2C4
:10175000D7F82C31444604FB03F31A44D7F8283158
:101760004446A3FB0443C7F8EC302346C7F8E830EF
:10177000D7F8EC30D318C7F8EC304FF000024FF038
:101780000003D7E93A894C462303444643EA1453FD
:101790004446220384183C6341EB03037B63D7E98F
:1017A0000C34C7E94A34D7E94A2303F50041C7F8A6
:1017B0009410C7F89020D7F81431DB889BB2002230
:1017C000C7F88830C7F88C20D7E924452B46D7E9DD
:1017D0002289424602FB03F24B46214601FB03F3FA
:1017E000134422464146A2FB0112C7F8E4200A46F0
:1017F000C7F8E020D7F8E4201344C7F8E4304FF0EE
:1018000000024FF00003D7E9384529464A1029461F
:10181000CB17C7E94A23D7E94A23134301D1002351
:1018200048E1D7F81031C3F58013DA17BB62FA62CA
:10183000D7E90A34C7E94634D7F818315B10C7F83E
:101840008430D7F81831DB07C7F88030D7E9482350
:10185000D7E920452146891AB967294661EB030378
:10186000FB67D7E91E4522462B46911839625B413A
:101870007B62D7E9082321465118B96129464B41BB
:10188000FB614FF000024FF00003D7E9068949469B
:101890008B01414643EA916341468A0141468918DA
:1018A0003961494643EB010179614FF000024FF085
:1018B0000003D7E9048949468B00414643EA917306
:1018C00041468A0010461946034622469B18BB60D3
:1018D0000B462A4642EB0303FB604FF000024FF039
:1018E0000003D7E9028949468B00414643EA9173D8
:1018F00041468A0010461946034622469B183B671C
:101900002B460A4642EB03037B67D7E94A23D7E914
:101910001C01FFF7B9F902460B46C7E94623D7F881
:101920001431B3F916301BB2DA17BB66FA66D7E981
:1019300046234FF000004FF00001500B40EAC34037
:101940005913D7E91A452B4600FB03F2234603FB44
:1019500001F313442246A2FB0012C7F8DC200A461A
:10196000C7F8D820D7F8DC201344C7F8DC30D7E913
:1019700046234FF000004FF00001500B40EAC340F7
:101980005913D7E936452B4600FB03F2234603FBE8
:1019900001F313442246A2FB0012C7F8D4200A46E2
:1019A000C7F8D020D7F8D4201344C7F8D4304FF06C
:1019B00000024FF00003D7E9344521464A0E29467C
:1019C00042EAC11229464B16C7E94A23D7F8143117
:1019D000B3F914301BB2DA173B667A66D7F81831C0
:1019E000D7E918452A4602FB03F2D7F81C312146F5
:1019F00001FB03F31344D7F818212146A2FB01127F
:101A0000C7F8CC200A46C7F8C820D7F8CC20134422
:101A1000C7F8CC304FF000024FF00003D7E9324551
:101A20002146CA0C294642EA41322946CB14C7E96D
:101A30004823D7E94601D7E94A238418BC6541EB1E
:101A40000303FB65D7E94823D7E9164521468918E2
:101A50003965294643EB010179654FF000004FF0ED
:101A60000001D7E914452346180A2B4640EA0360D3
:101A70002B461912D7F81431B3F912301BB2DA170A
:101A8000BB64FA644FF000024FF00003D7E91289FB
:101A90004C462301444643EA147344462201841809
:101AA0003C6041EB03037B60D7E90034C7E946346F
:101AB000D7F81831184607F59877BD46BDE8B08FBE
:101AC00080B487B000AFF860B9607A607B68A3F536
:101AD00096337B61BB689A03FB68B3F91E301B0524
:101AE000D21AFB68B3F9203019467B6901FB03F376
:101AF000D31A03F58043DB13FA6892F922201146CA
:101B00007A6901FB02F29212F968097F0846796945
:101B100000FB01F1C91201F5004101FB02F2921232
:101B200002F50012F968B1F91A1001FB02F202F590
:101B30000052921302FB03F37B617B69DB137A692A
:101B4000D21302FB03F3DB11FA68127E02FB03F3EC
:101B50001B117A69D31A7B617B6923EAE3737B618A
:101B60007B69B3F1C85FA8BF4FF0C8537B617B6945
:101B70001B1318461C37BD465DF8047B704780B5C3
:101B80008CB000AFF860B9607A603B60FB6893F896
:101B90003230602B07D03B68002B02D03B6800221C
:101BA0001A6000233B603B68002B01D0082300E053
:101BB0000623FB62FB6ADBB207F11802F721F86823
:101BC000FFF7ABFA0346002B01D0002338E03B7E41
:101BD0001A037B7E1B011343BA7E1209D2B2134350
:101BE000BB62FB7E1A033B7F1B0113437A7F120902
:101BF000D2B213437B6207F114031A46796AF8687C
:101C0000FFF767FC0246BB681A607B691A46B96A2F
:101C1000F868FFF797FC02467B681A603B68002B68
:101C20000DD0BB7F1B02FA7F13433B627B691A46D0
:101C3000396AF868FFF744FF02463B681A600123DF
:101C400018463037BD4680BD80B588B000AFF8601B
:101C5000B9607A603B603B68002B02D007F1140347
:101C600000E0002307F1180207F11C01F868FFF7F4
:101C700086FF0346002B28D0FB6907EE903AB8EEAA
:101C8000E77ADFED146AC7EE267ABB68C3ED007A07
:101C9000BB6907EE903AB8EE677ADFED0F6AC7EEE0
:101CA000267A7B68C3ED007A3B68002B0BD07B69FA
:101CB00007EE903AB8EE677ADFED086AC7EE267A4B
:101CC0003B68C3ED007A012300E00023184620376B
:101CD000BD4680BD0000C842000080430000804433
:101CE000B0B584B002AF00F0E3FC00F01FF900F0E3
:101CF0001FFA00F0EDF900F06BF900F0A9F903F01C
:101D000047FF7548FFF7BEF9744B76229A84734BF0
:101D1000734A9A6213E07349734804F0A5FF0346BF
:101D20009AB2724B1A80714B1A884FF47A736E49CB
:101D30006F4803F097F94FF4FA6000F035FD6649FB
:101D40006648FFF719FB034683F00103DBB2002B63
:101D5000E1D1624B93F83230602B0CBF012300239A
:101D6000FB71FB79002B01D0624B00E0624B1A46FD
:101D700062495D4804F078FF03469AB25B4B1A80D3
:101D80005A4B1A884FF47A735749594803F06AF945
:101D9000642000F009FD13E05949534804F064FF42
:101DA00003469AB2514B1A80504B1A884FF47A73FB
:101DB0004D494F4803F056F94FF4FA6000F0F4FC37
:101DC000504B514A51494548FFF73EFF034683F0C7
:101DD0000103DBB2002BDFD14B4B1B681846FEF72B
:101DE000B3FB04460D46494B1B681846FEF7ACFB97
:101DF00002460B46CDE9002322462B4644493A4889
:101E000004F032FF03469AB2384B1A80374B1A88D7
:101E10004FF47A733449364803F024F9FB79002BE8
:101E200017D0384B1B681846FEF78EFB02460B4650
:101E300038492D4804F018FF03469AB22B4B1A80FC
:101E40002A4B1A884FF47A732749294803F00AF974
:101E50000FE03149244804F007FF03469AB2234BB0
:101E60001A80224B1A884FF47A731F49204803F0D6
:101E7000F9F80521052004F041F8234B1B681846AA
:101E8000FEF762FB02460B462449254804F0ECFEAF
:101E9000244B012200920ECB214804F009F81421B2
:101EA000052004F02BF8194B1B681846FEF74CFB75
:101EB00002460B461C491A4804F0D6FE194B012273
:101EC00000920ECB164803F0F3FF03F0E3FE4FF44D
:101ED000FA6000F069FC5BE74C030020200300205F
:101EE000F001002078A600086403002060030020B1
:101EF0009802002098A60008A0A60008A8A600083E
:101F0000BCA600085C0300205403002058030020F6
:101F1000E4A6000808A700081CA7000820A70008DE
:101F20006404002078AD000830A7000880B596B0A2
:101F300000AF07F1140344220021184605F028FEE3
:101F40003B4600221A605A609A60DA601A614FF4C8
:101F5000007001F027FD0346002B01D000F04EF980
:101F600002237B614FF480733B6210237B62022368
:101F7000FB6302233B6401237B640A23BB640723C6
:101F8000FB6402233B6502237B6507F114031846BB
:101F900001F05EFD0346002B01D000F02FF90F2366
:101FA0003B6003237B600023BB600023FB600023B6
:101FB0003B613B460421184602F026F90346002BFC
:101FC00001D000F01BF900BF5837BD4680BD0000AE
:101FD00080B500AF1B4B1C4A1A601A4B1B4A5A6053
:101FE000184B00229A60174B0122DA60154B002231
:101FF0001A61144B00225A61124B00229A61114B54
:102000000022DA610F4B00221A620E4800F098FE9F
:102010000346002B01D000F0F1F80021094801F03F
:102020001BFC0346002B01D000F0E8F80021054816
:1020300001F05DFC0346002B01D000F0DFF800BF8B
:1020400080BD00BFF001002000540040E49CD1108E
:1020500080B500AF1B4B1C4A1A601A4B1B4A5A60D2
:10206000184B00229A60174B0122DA60154B0022B0
:102070001A61144B00225A61124B00229A61114BD3
:102080000022DA610F4B00221A620E4800F058FE5F
:102090000346002B01D000F0B1F80021094801F0FF
:1020A000DBFB0346002B01D000F0A8F80021054817
:1020B00001F01DFC0346002B01D000F09FF800BF8B
:1020C00080BD00BF4402002000580040E49CD110B5
:1020D00080B500AF144B154A1A60134B4FF4E13230
:1020E0005A60114B00229A600F4B0022DA600E4BAF
:1020F00000221A610C4B0C225A610B4B00229A6190
:10210000094B0022DA61084B00221A62064B0022BA
:102110005A62054802F058FF0346002B01D000F038
:102120006DF800BF80BD00BF980200200044004051
:1021300080B58AB000AF07F1140300221A605A601C
:102140009A60DA601A612B4BDB6C2A4A43F0040375
:10215000D364284BDB6C03F004033B613B69254BE4
:10216000DB6C244A43F08003D364224BDB6C03F026
:102170008003FB60FB681F4BDB6C1E4A43F00103CE
:10218000D3641C4BDB6C03F00103BB60BB68194BD1
:10219000DB6C184A43F00203D364164BDB6C03F08C
:1021A00002037B607B68002220214FF0904000F00A
:1021B000AFFD4FF400537B614FF40413BB61002368
:1021C000FB6107F1140319460B4800F0F7FB2023CD
:1021D0007B610123BB610023FB6100233B6207F1AC
:1021E000140319464FF0904000F0E8FB00BF283779
:1021F000BD4680BD001002400008004880B400AF1A
:1022000072B600BF00BFFDE780B483B000AF0F4BD4
:102210001B6E0E4A43F0010313660C4B1B6E03F05A
:1022200001037B607B68094B9B6D084A43F0805338
:102230009365064B9B6D03F080533B603B6800BF8A
:102240000C37BD465DF8047B704700BF00100240AC
:1022500080B5AEB000AF786007F1A40300221A6029
:102260005A609A60DA601A6107F11C038822002123
:10227000184605F08DFC7B681B68424A93423BD1AF
:102280004023FB610023FB6607F11C03184602F0A4
:10229000DFF90346002B01D0FFF7B0FF3A4BDB6CB0
:1022A000394A43F00203D364374BDB6C03F002037B
:1022B000BB61BB69C023C7F8A4301223C7F8A8309C
:1022C0000023C7F8AC300323C7F8B0300423C7F8A5
:1022D000B43007F1A40319462C4800F06FFB2A4BD9
:1022E0009B6D294A43F400139365274B9B6D03F4C0
:1022F00000137B617B6940E07B681B68244A934242
:102300003BD18023FB6100233B6707F11C03184688
:1023100002F09EF90346002B01D0FFF76FFF1A4B26
:10232000DB6C194A43F00203D364174BDB6C03F0F8
:1023300002033B613B694FF44063C7F8A4301223AA
:10234000C7F8A8300023C7F8AC300323C7F8B03073
:102350000423C7F8B43007F1A40319460B4800F072
:102360002DFB094B9B6D084A43F480039365064B94
:102370009B6D03F48003FB60FB6800BFB837BD466C
:1023800080BD00BF0054004000100240000400481F
:102390000058004080B5ACB000AF786007F19C03F6
:1023A00000221A605A609A60DA601A6107F1140319
:1023B00088220021184605F0EBFB7B681B68214A48
:1023C00093423BD102237B6100233B6507F1140359
:1023D000184602F03DF90346002B01D0FFF70EFF2F
:1023E000194B9B6D184A43F400339365164B9B6D54
:1023F00003F400333B613B69134BDB6C124A43F03F
:102400000103D364104BDB6C03F00103FB60FB683A
:102410000C23C7F89C300223C7F8A0300023C7F86C
:10242000A4300323C7F8A8300723C7F8AC3007F15E
:102430009C0319464FF0904000F0C0FA00BFB0373F
:10244000BD4680BD004400400010024080B400AF93
:1024500000BFFDE780B400AF00BFFDE780B400AF70
:1024600000BFFDE780B400AF00BFFDE780B400AF60
:1024700000BFFDE780B400AF00BFBD465DF8047B40
:10248000704780B400AF00BFBD465DF8047B704765
:1024900080B400AF00BFBD465DF8047B704780B5D7
:1024A00000AF00F061F900BF80BD80B400AF012330
:1024B0001846BD465DF8047B704780B582B000AF1A
:1024C0007860396005F070FB034616221A604FF001
:1024D000FF3318460837BD4680BD80B582B000AFD7
:1024E00078604FF0FF317868FFF7E7FF00BFFDE746
:1024F00080B586B000AFF860B9607A6000237B6178
:102500000AE0AFF300800146BB685A1CBA60CAB249
:102510001A707B6901337B617A697B689A42F0DBD0
:102520007B6818461837BD4680BD80B586B000AFC1
:10253000F860B9607A6000237B6109E0BB685A1CCF
:10254000BA601B781846AFF300807B6901337B616A
:102550007A697B689A42F1DB7B6818461837BD467A
:1025600080BD80B483B000AF78604FF0FF33184671
:102570000C37BD465DF8047B704780B483B000AF74
:10258000786039603B684FF400525A600023184667
:102590000C37BD465DF8047B704780B483B000AF54
:1025A0007860012318460C37BD465DF8047B704700
:1025B00080B485B000AFF860B9607A600023184637
:1025C0001437BD465DF8047B7047000080B586B0C7
:1025D00000AF7860144A154BD31A7B617B693B616D
:1025E000134B1B68002B02D1114B124A1A60104B7F
:1025F0001A687B6813443A699A4207D205F0D4FA04
:1026000003460C221A604FF0FF3309E0084B1B68A9
:10261000FB60074B1A687B681344054A1360FB682C
:1026200018461837BD4680BD008001200004000018
:1026300074040020D009002080B400AF064BD3F80A
:102640008830054A43F47003C2F8883000BFBD46A5
:102650005DF8047B704700BF00ED00E0DFF834D088
:10266000FFF7EAFF0C480D490D4A002302E0D45859
:10267000C4500433C4188C42F9D30A4A0A4C0023CC
:1026800001E013600432A242FBD305F093FAFFF796
:1026900027FBFEE70080012000000020D40100207D
:1026A000BCB10008D4010020D0090020FEE70000E2
:1026B00080B582B000AF0023FB710C4B1B680B4A46
:1026C00043F480731360032000F044F9002000F00D
:1026D0000FF80346002B02D00123FB7101E0FFF746
:1026E00093FDFB7918460837BD4680BD00200240A7
:1026F00080B584B000AF78600023FB73174B1B7864
:10270000002B23D0164B1A68144B1B7819464FF434
:102710007A73B3FBF1F3B2FBF3F3184600F041F91F
:102720000346002B0FD17B680F2B09D80022796854
:102730004FF0FF3000F019F90A4A7B68136007E098
:102740000123FB7304E00123FB7301E00123FB730E
:10275000FB7B18461037BD4680BD00BF0800002037
:10276000000000200400002080B400AF064B1B785E
:102770001A46064B1B681344044A136000BFBD464B
:102780005DF8047B704700BF08000020780400203B
:1027900080B400AF034B1B681846BD465DF8047B50
:1027A000704700BF7804002080B584B000AF786027
:1027B000FFF7EEFFB8607B68FB60FB68B3F1FF3F9B
:1027C00005D00A4B1B781A46FB681344FB6000BF18
:1027D000FFF7DEFF0246BB68D31AFA689A42F7D8C1
:1027E00000BF00BF1037BD4680BD00BF08000020FD
:1027F00080B485B000AF78607B6803F00703FB60AE
:102800000C4BDB68BB60BA684FF6FF031340BB603C
:10281000FB681A02BB68134343F0BF6343F4003301
:10282000BB60044ABB68D36000BF1437BD465DF887
:10283000047B704700ED00E080B400AF044BDB6820
:102840001B0A03F007031846BD465DF8047B70477A
:1028500000ED00E080B483B000AF03463960FB7147
:1028600097F90730002B0ADB3B68DAB20C4997F97D
:1028700007301201D2B20B4483F800230AE03B6810
:10288000DAB20849FB7903F00F03043B1201D2B21C
:102890000B441A7600BF0C37BD465DF8047B7047C9
:1028A00000E100E000ED00E080B489B000AFF86026
:1028B000B9607A60FB6803F00703FB61FB69C3F151
:1028C0000703042B28BF0423BB61FB690433062BD9
:1028D00002D9FB69033B00E000237B614FF0FF322C
:1028E000BB6902FA03F3DA43BB681A407B699A407A
:1028F0004FF0FF317B6901FA03F3D9437B680B404A
:10290000134318462437BD465DF8047B704700002A
:1029100080B582B000AF78607B68013BB3F1807F07
:1029200001D301230FE00A4A7B68013B53600F216A
:102930004FF0FF30FFF78EFF054B00229A60044BEB
:1029400007221A60002318460837BD4680BD00BF25
:1029500010E000E080B582B000AF78607868FFF7E3
:1029600047FF00BF0837BD4680BD80B586B000AFC9
:102970000346B9607A60FB7300237B61FFF75CFF5D
:1029800078617A68B9687869FFF78EFF024697F92F
:102990000F3011461846FFF75DFF00BF1837BD46E0
:1029A00080BD80B582B000AF78607868FFF7B0FF77
:1029B000034618460837BD4680BD000080B487B086
:1029C00000AF7860396000237B617FE13B681A6863
:1029D00001217B6901FA03F31340FB60FB68002BC4
:1029E00000F071813B685B6803F00303012B05D0A5
:1029F0003B685B6803F00303022B30D17B689B6864
:102A00003B617B695B00032202FA03F3DB433A6913
:102A100013403B613B68DA687B695B0002FA03F3B1
:102A20003A6913433B617B683A699A607B685B68EB
:102A30003B6101227B6902FA03F3DB433A691340ED
:102A40003B613B685B681B0903F001027B6902FA8A
:102A500003F33A6913433B617B683A695A603B6808
:102A60005B6803F00303032B18D17B68DB6A3B61CF
:102A700001227B6902FA03F3DB433A6913403B61AD
:102A80003B685B68DB0803F001027B6902FA03F331
:102A90003A6913433B617B683A69DA623B685B6879
:102AA00003F00303032B17D07B68DB683B617B6972
:102AB0005B00032202FA03F3DB433A6913403B61F4
:102AC0003B689A687B695B0002FA03F33A69134337
:102AD0003B617B683A69DA603B685B6803F003033B
:102AE000022B23D17B69DA087B68083253F8223045
:102AF0003B617B6903F007039B000F2202FA03F39B
:102B0000DB433A6913403B613B681A697B6903F018
:102B100007039B0002FA03F33A6913433B617B69A5
:102B2000DA087B680832396943F822107B681B6831
:102B30003B617B695B00032202FA03F3DB433A69E2
:102B400013403B613B685B6803F003027B695B00F9
:102B500002FA03F33A6913433B617B683A691A60EE
:102B60003B685B6803F44033002B00F0AC805F4BA4
:102B70001B6E5E4A43F0010313665C4B1B6E03F051
:102B80000103BB60BB685A4A7B699B08023352F859
:102B900023303B617B6903F003039B000F2202FAA1
:102BA00003F3DB433A6913403B617B68B3F1904F19
:102BB00025D07B684F4A93421FD07B684E4A934290
:102BC00019D07B684D4A934213D07B684C4A93429C
:102BD0000DD07B684B4A934207D07B684A4A9342A8
:102BE00001D106230CE007230AE0052308E00423B3
:102BF00006E0032304E0022302E0012300E00023B7
:102C00007A6902F00302920093403A6913433B61F0
:102C100037497B699B0802333A6941F823203B4BD3
:102C20009B683B61FB68DB433A6913403B613B684F
:102C30005B6803F48013002B03D03A69FB681343ED
:102C40003B61324A3B699360304BDB683B61FB6818
:102C5000DB433A6913403B613B685B6803F4001354
:102C6000002B03D03A69FB6813433B61274A3B6959
:102C7000D360264B5B683B61FB68DB433A691340DA
:102C80003B613B685B6803F40033002B03D03A6977
:102C9000FB6813433B611D4A3B6953601B4B1B6838
:102CA0003B61FB68DB433A6913403B613B685B680F
:102CB00003F48033002B03D03A69FB6813433B6174
:102CC000124A3B6913607B6901337B613B681A6878
:102CD0007B6922FA03F3002B7FF478AE00BF00BFBC
:102CE0001C37BD465DF8047B704700BF00100240F2
:102CF000000001400004004800080048000C0048A3
:102D0000001000480014004800180048000401406A
:102D100080B483B000AF78600B467B8013467B7035
:102D20007B78002B03D07A887B689A6102E07A88EE
:102D30007B689A6200BF0C37BD465DF8047B704724
:102D400080B582B000AF78607B68002B01D1012391
:102D50008DE07B6893F84130DBB2002B06D17B68B5
:102D6000002283F840207868FFF772FA7B682422FB
:102D700083F841207B681B681A687B681B6822F017
:102D800001021A607B685A687B681B6822F07062D7
:102D90001A617B681B689A687B681B6822F4004292
:102DA0009A607B68DB68012B07D17B689A687B6837
:102DB0001B6842F400429A6006E07B689A687B6870
:102DC0001B6842F404429A607B68DB68022B08D1DE
:102DD0007B681B685A687B681B6842F400625A6013
:102DE00007E07B681B685A687B681B6822F40062F6
:102DF0005A607B681B685B687A68126843F00073EE
:102E000043F4004353607B681B68DA687B681B6887
:102E100022F40042DA607B681A697B685B6942EAE7
:102E200003017B689B691A027B681B680A43DA60AE
:102E30007B68D9697B681A6A7B681B680A431A60D9
:102E40007B681B681A687B681B6842F001021A6085
:102E50007B6800225A647B68202283F841207B68CB
:102E600000221A637B68002283F842200023184660
:102E70000837BD4680BD000080B588B002AFF8605D
:102E8000084611461A4603467B810B463B81134692
:102E9000FB80FB6893F84130DBB2202B40F0F980D7
:102EA0003B6A002B02D0BB8C002B05D1FB684FF492
:102EB00000725A640123EDE0FB6893F84030012B67
:102EC00001D10223E6E0FB68012283F84020FFF7EE
:102ED0005FFC78617B690093192301224FF4004164
:102EE000F86800F0C3FA0346002B01D00123D1E0BB
:102EF000FB68212283F84120FB68402283F84220AE
:102F0000FB6800225A64FB683A6A5A62FB68BA8C12
:102F10005A85FB6800225A63F8883A8979897B6967
:102F20000193BB6A00930346F86800F0D3F90346A7
:102F3000002B05D0FB68002283F840200123A9E084
:102F4000FB685B8D9BB2FF2B0ED9FB68FF221A85B5
:102F5000FB681B8DDAB27989002300934FF08073F0
:102F6000F86800F047FC0FE0FB685B8D9AB2FB68E5
:102F70001A85FB681B8DDAB27989002300934FF024
:102F80000073F86800F036FC7A69B96AF86800F0F6
:102F9000C6FA0346002B01D001237BE0FB685B6A85
:102FA0001A78FB681B689A62FB685B6A5A1CFB68AC
:102FB0005A62FB685B8D9BB2013B9AB2FB685A85F3
:102FC000FB681B8D013B9AB2FB681A85FB685B8D21
:102FD0009BB2002B34D0FB681B8D002B30D17B695A
:102FE0000093BB6A00228021F86800F03FFA034694
:102FF000002B01D001234DE0FB685B8D9BB2FF2BC2
:103000000ED9FB68FF221A85FB681B8DDAB279891D
:10301000002300934FF08073F86800F0EBFB0FE0A3
:10302000FB685B8D9AB2FB681A85FB681B8DDAB270
:103030007989002300934FF00073F86800F0DAFB01
:10304000FB685B8D9BB2002B9ED17A69B96AF868E8
:1030500000F0ACFA0346002B01D001231AE0FB6814
:103060001B682022DA61FB681B685968FB681A68D4
:103070000A4B0B405360FB68202283F84120FB6819
:10308000002283F84220FB68002283F840200023BE
:1030900000E0022318461837BD4680BD00E800FE58
:1030A00080B588B002AFF860084611461A4603465C
:1030B0007B810B463B811346FB80FB6893F84130D4
:1030C000DBB2202B40F0FD803B6A002B02D0BB8C92
:1030D000002B05D1FB684FF400725A640123F1E024
:1030E000FB6893F84030012B01D10223EAE0FB6832
:1030F000012283F84020FFF74BFB78617B69009346
:10310000192301224FF40041F86800F0AFF903469B
:10311000002B01D00123D5E0FB68222283F8412057
:10312000FB68402283F84220FB6800225A64FB6857
:103130003A6A5A62FB68BA8C5A85FB6800225A6365
:10314000F8883A8979897B690193BB6A00930346C1
:10315000F86800F013F90346002B05D0FB68002245
:1031600083F840200123ADE0FB685B8D9BB2FF2B11
:103170000ED9FB6801221A85FB681B8DDAB27989AA
:10318000524B00934FF08073F86800F033FB0FE070
:10319000FB685B8D9AB2FB681A85FB681B8DDAB2FF
:1031A00079894A4B00934FF00073F86800F022FBD6
:1031B0007B690093BB6A00220421F86800F056F98D
:1031C0000346002B01D001237CE0FB681B685A6A90
:1031D000FB685B6AD2B21A70FB685B6A5A1CFB68B8
:1031E0005A62FB681B8D013B9AB2FB681A85FB682B
:1031F0005B8D9BB2013B9AB2FB685A85FB685B8D85
:103200009BB2002B34D0FB681B8D002B30D17B6927
:103210000093BB6A00228021F86800F027F903467A
:10322000002B01D001234DE0FB685B8D9BB2FF2B8F
:103230000ED9FB6801221A85FB681B8DDAB27989E9
:10324000002300934FF08073F86800F0D3FA0FE08A
:10325000FB685B8D9AB2FB681A85FB681B8DDAB23E
:103260007989002300934FF00073F86800F0C2FAE8
:10327000FB685B8D9BB2002B9AD17A69B96AF868BA
:1032800000F094F90346002B01D001231AE0FB68FB
:103290001B682022DA61FB681B685968FB681A68A2
:1032A0000B4B0B405360FB68202283F84120FB68E6
:1032B000002283F84220FB68002283F8402000238C
:1032C00000E0022318461837BD4680BD0024008068
:1032D00000E800FE80B586B002AFF86008461146EF
:1032E0001A4603467B810B463B811346FB80FB88D5
:1032F000DAB27989204B00934FF08073F86800F0C0
:1033000079FAFA69B969F86800F009F90346002BFF
:1033100001D001232CE0FB88012B05D13B89DAB2D7
:10332000FB681B689A6215E03B891B0A9BB2DAB204
:10333000FB681B689A62FA69B969F86800F0EFF8EF
:103340000346002B01D0012312E03B89DAB2FB686F
:103350001B689A62FB690093BB6900228021F868B0
:1033600000F084F80346002B01D0012300E0002385
:1033700018461037BD4680BD0020008080B586B05D
:1033800002AFF860084611461A4603467B810B4699
:103390003B811346FB80FB88DAB27989204B00938E
:1033A0000023F86800F026FAFA69B969F86800F0B5
:1033B000B6F80346002B01D001232CE0FB88012B3B
:1033C00005D13B89DAB2FB681B689A6215E03B893C
:1033D0001B0A9BB2DAB2FB681B689A62FA69B96988
:1033E000F86800F09CF80346002B01D0012312E09E
:1033F0003B89DAB2FB681B689A62FB690093BB6980
:1034000000224021F86800F031F80346002B01D07B
:10341000012300E0002318461037BD4680BD00BFE1
:103420000020008080B483B000AF78607B681B68A8
:103430009B6903F00203022B03D17B681B68002207
:103440009A627B681B689B6903F00103012B07D01C
:103450007B681B689A697B681B6842F001029A616D
:1034600000BF0C37BD465DF8047B704780B584B063
:1034700000AFF860B9603B601346FB713BE0BA698E
:103480003968F86800F0D6F80346002B01D0012314
:1034900041E03B68B3F1FF3F2DD0FFF779F90246D9
:1034A000BB69D31A3A689A4202D33B68002B22D1F7
:1034B000FB681B689A69BB681340BA689A420CBFE4
:1034C00001230023DBB21A46FB799A4213D1FB6831
:1034D0005B6C43F02002FB685A64FB68202283F88F
:1034E0004120FB68002283F84220FB68002283F819
:1034F000402001230FE0FB681B689A69BB681340FA
:10350000BA689A420CBF01230023DBB21A46FB794A
:103510009A42B4D0002318461037BD4680BD80B50E
:1035200084B000AFF860B9607A6033E07A68B96857
:10353000F86800F07FF80346002B01D0012331E04A
:10354000BB68B3F1FF3F25D0FFF722F902467B6845
:10355000D31ABA689A4202D3BB68002B1AD1FB680F
:103560001B689B6903F00203022B13D0FB685B6CA2
:1035700043F02002FB685A64FB68202283F8412054
:10358000FB68002283F84220FB68002283F8402079
:10359000012307E0FB681B689B6903F00203022B11
:1035A000C4D1002318461037BD4680BD80B584B015
:1035B00000AFF860B9607A602FE07A68B968F8689F
:1035C00000F038F80346002B01D001232DE0FFF76F
:1035D000DFF802467B68D31ABA689A4202D3BB6806
:1035E000002B1AD1FB681B689B6903F02003202B7A
:1035F00013D0FB685B6C43F02002FB685A64FB68E5
:10360000202283F84120FB68002283F84220FB68D7
:10361000002283F84020012307E0FB681B689B69B8
:1036200003F02003202BC8D1002318461037BD46D5
:1036300080BD000080B58AB000AFF860B9607A60E4
:10364000002387F82730FB681B689B69BB61002358
:103650003B627B68FB61BB6903F01003002B68D001
:10366000FB681B681022DA6149E0BB68B3F1FF3FD9
:1036700045D0FFF78DF80246FB69D31ABA689A4223
:1036800002D3BB68002B3AD1FB681B685B6803F46C
:1036900080437B61FB6893F84230FB74FB681B68D6
:1036A0009B6903F40043B3F5004F21D17B69B3F567
:1036B000804F1DD0FB7C202B1AD0FB681B685A68FA
:1036C000FB681B6842F480425A60FFF761F8F861BA
:1036D0000EE0FFF75DF80246FB69D31A192B07D9F4
:1036E0003B6A43F020033B62012387F8273006E062
:1036F000FB681B689B6903F02003202BE9D1FB6862
:103700001B689B6903F02003202B03D097F8273018
:10371000002BAAD097F82730002B03D1FB681B6839
:103720002022DA613B6A43F004033B62012387F8FD
:103730002730FB681B689B69BB61BB6903F480731E
:10374000002B0BD03B6A43F001033B62FB681B6814
:103750004FF48072DA61012387F82730BB6903F4E4
:103760008063002B0BD03B6A43F008033B62FB688D
:103770001B684FF48062DA61012387F82730BB6948
:1037800003F40073002B0BD03B6A43F002033B624F
:10379000FB681B684FF40072DA61012387F8273059
:1037A00097F82730002B1CD0F868FFF73BFEFB682A
:1037B0001B685968FB681A680D4B0B405360FB6827
:1037C0005A6C3B6A1A43FB685A64FB68202283F8F0
:1037D0004120FB68002283F84220FB68002283F826
:1037E000402097F8273018462837BD4680BD00BFD7
:1037F00000E800FE80B487B000AFF8607B600B4645
:103800007B8113467B727B89C3F309027B7A1B049D
:1038100003F47F031A437B681A433B6A134323F084
:1038200000437B61FB681B685A683B6A5B0D03F4CD
:103830008061084B0B43DB4302EA0301FB681B6812
:103840007A690A435A6000BF1C37BD465DF8047BA5
:10385000704700BFFF63FF0380B483B000AF7860A0
:1038600039607B6893F84130DBB2202B38D17B681C
:1038700093F84030012B01D1022332E07B68012212
:1038800083F840207B68242283F841207B681B68F2
:103890001A687B681B6822F001021A607B681B684B
:1038A0001A687B681B6822F480521A607B681B6868
:1038B00019687B681B683A680A431A607B681B6852
:1038C0001A687B681B6842F001021A607B6820223C
:1038D00083F841207B68002283F84020002300E029
:1038E000022318460C37BD465DF8047B704780B450
:1038F00085B000AF786039607B6893F84130DBB207
:10390000202B39D17B6893F84030012B01D1022361
:1039100033E07B68012283F840207B68242283F80F
:1039200041207B681B681A687B681B6822F00102D3
:103930001A607B681B681B68FB60FB6823F470637C
:10394000FB603B681B02FA681343FB607B681B68E3
:10395000FA681A607B681B681A687B681B6842F00B
:1039600001021A607B68202283F841207B680022D4
:1039700083F84020002300E0022318461437BD4698
:103980005DF8047B7047000080B400AF044B1B68F7
:1039900003F4C0631846BD465DF8047B704700BF62
:1039A0000070004080B485B000AF78607B68B3F5EC
:1039B000007F30D1234B1B6803F4C063B3F5007F55
:1039C00038D0204B1B6823F4C0631E4A43F40073B5
:1039D00013601D4B1B68322202FB03F31B4AA2FB40
:1039E00003239B0C0133FB6002E0FB68013BFB609F
:1039F000144B5B6903F48063B3F5806F02D1FB68FD
:103A0000002BF2D10F4B5B6903F48063B3F5806F39
:103A100010D103230FE00B4B1B6803F4C063B3F515
:103A2000806F07D0074B1B6823F4C063054A43F43B
:103A300080631360002318461437BD465DF8047B8D
:103A4000704700BF007000400000002083DE1B4371
:103A500080B588B000AF78607B68002B01D101236E
:103A6000CAE3974B9B6803F00C03BB61944BDB6884
:103A700003F003037B617B681B6803F01003002BDA
:103A800000F0E480BB69002B07D0BB690C2B40F031
:103A90008B807B69012B40F08780894B1B6803F08A
:103AA0000203002B05D07B689B69002B01D1012309
:103AB000A2E37B681A6A824B1B6803F00803002BA1
:103AC00004D07F4B1B6803F0F00305E07C4BD3F878
:103AD00094301B0903F0F003934223D27B681B6AE6
:103AE000184600F055FD0346002B01D0012383E367
:103AF000734B1B68724A43F008031360704B1B68DA
:103B000023F0F0027B681B6A6D4913430B606C4B1A
:103B10005B6823F47F427B68DB691B0268491343BF
:103B20004B6025E0664B1B68654A43F00803136051
:103B3000634B1B6823F0F0027B681B6A60491343E8
:103B40000B605F4B5B6823F47F427B68DB691B0281
:103B50005B4913434B60BB69002B09D17B681B6A2F
:103B6000184600F015FD0346002B01D0012343E366
:103B700000F04AFC0246524B9B681B0903F00F03FE
:103B80005049CB5C03F01F0322FA03F34E4A136043
:103B90004E4B1B681846FEF7ABFD0346FB73FB7BE1
:103BA000002B52D0FB7B27E37B689B69002B32D034
:103BB000434B1B68424A43F001031360FEF7E8FDE4
:103BC000386108E0FEF7E4FD02463B69D31A022B98
:103BD00001D9032310E33A4B1B6803F00203002BC7
:103BE000F0D0374B1B68364A43F008031360344B60
:103BF0001B6823F0F0027B681B6A314913430B609A
:103C00002F4B5B6823F47F427B68DB691B022C49E6
:103C100013434B601AE02A4B1B68294A23F0010327
:103C20001360FEF7B5FD386108E0FEF7B1FD02460E
:103C30003B69D31A022B01D90323DDE2204B1B6819
:103C400003F00203002BF0D100E000BF7B681B688B
:103C500003F00103002B74D0BB69082B05D0BB69AE
:103C60000C2B0ED17B69032B0BD1154B1B6803F476
:103C70000033002B64D07B685B68002B60D101238C
:103C8000BAE27B685B68B3F5803F06D10C4B1B68DA
:103C90000B4A43F48033136026E07B685B68B3F51E
:103CA000A02F15D1064B1B68054A43F480231360EF
:103CB000034B1B68024A43F48033136014E000BFD7
:103CC0000010024040A7000800000020040000206F
:103CD000A04B1B689F4A23F4803313609D4B1B68E5
:103CE0009C4A23F4802313607B685B68002B13D00D
:103CF000FEF74EFD386108E0FEF74AFD02463B69DB
:103D0000D31A642B01D9032376E2924B1B6803F488
:103D10000033002BF0D014E0FEF73AFD386108E0E4
:103D2000FEF736FD02463B69D31A642B01D9032303
:103D300062E2884B1B6803F40033002BF0D100E0F3
:103D400000BF7B681B6803F00203002B60D0BB69D7
:103D5000042B05D0BB690C2B19D17B69022B16D122
:103D60007C4B1B6803F48063002B05D07B68DB6809
:103D7000002B01D101233FE2764B5B6823F0F85220
:103D80007B681B691B06734913434B6040E07B68EB
:103D9000DB68002B23D06F4B1B686E4A43F48073A3
:103DA0001360FEF7F5FC386108E0FEF7F1FC02460F
:103DB0003B69D31A022B01D903231DE2654B1B6813
:103DC00003F48063002BF0D0624B5B6823F0F85261
:103DD0007B681B691B065F4913434B6018E05D4B12
:103DE0001B685C4A23F480731360FEF7D1FC3861D2
:103DF00008E0FEF7CDFC02463B69D31A022B01D93D
:103E00000323F9E1534B1B6803F48063002BF0D1CB
:103E10007B681B6803F00803002B3CD07B685B6960
:103E2000002B1CD04B4BD3F894304A4A43F001038B
:103E3000C2F89430FEF7ACFC386108E0FEF7A8FC4D
:103E400002463B69D31A022B01D90323D4E1414B2B
:103E5000D3F8943003F00203002BEFD01BE03D4B6E
:103E6000D3F894303B4A23F00103C2F89430FEF7B4
:103E70008FFC386108E0FEF78BFC02463B69D31AE1
:103E8000022B01D90323B7E1324BD3F8943003F06E
:103E90000203002BEFD17B681B6803F00403002BA7
:103EA00000F0A6800023FB772A4B9B6D03F0805324
:103EB000002B0DD1274B9B6D264A43F08053936511
:103EC000244B9B6D03F08053BB60BB680123FB77E1
:103ED000214B1B6803F48073002B18D11E4B1B6809
:103EE0001D4A43F480731360FEF752FC386108E00A
:103EF000FEF74EFC02463B69D31A022B01D903237D
:103F00007AE1154B1B6803F48073002BF0D07B68BB
:103F10009B68012B08D10F4BD3F890300D4A43F02A
:103F20000103C2F8903029E07B689B68052B15D10E
:103F3000084BD3F89030074A43F00403C2F890309E
:103F4000044BD3F89030034A43F00103C2F8903099
:103F500014E000BF00100240007000409C4BD3F8FA
:103F600090309B4A23F00103C2F89030984BD3F86D
:103F70009030974A23F00403C2F890307B689B6826
:103F8000002B16D0FEF704FC38610AE0FEF700FCB7
:103F900002463B69D31A41F28832934201D9032386
:103FA0002AE18B4BD3F8903003F00203002BEDD0C5
:103FB00015E0FEF7EDFB38610AE0FEF7E9FB02468B
:103FC0003B69D31A41F28832934201D9032313E1AA
:103FD0007F4BD3F8903003F00203002BEDD1FB7F31
:103FE000012B05D17A4B9B6D794A23F08053936561
:103FF0007B689B6A002B00F0FE807B689B6A022B2B
:1040000040F0D080724BDB687B617B6903F0030278
:104010007B68DB6A9A4230D17B6903F070027B686F
:104020001B6B013B1B019A4227D17B6903F4FE42C3
:104030007B685B6B1B029A421FD17B6903F40033E0
:104040007A68926B072A14BF01220022D2B29342EF
:1040500013D17B6903F4C0027B68DB6B5B08013B17
:104060005B059A4209D17B6903F0C0627B681B6CD7
:104070005B08013B5B069A426ED0BB690C2B69D092
:10408000534B1B6803F08063002B05D1504B1B681A
:1040900003F08053002B01D00123ADE04C4B1B6893
:1040A0004B4A23F080731360FEF772FB386108E01F
:1040B000FEF76EFB02463B69D31A022B01D903239C
:1040C0009AE0434B1B6803F00073002BF0D1404B88
:1040D000DA68404B13407A68D16A7A68126B013A09
:1040E000120111437A68526B120211437A68D26B43
:1040F0005208013A520511437A68126C5208013A8B
:10410000520611437A68926B120952040A433049ED
:104110001343CB602E4B1B682D4A43F08073136012
:104120002B4BDB682A4A43F08073D360FEF730FBE9
:10413000386108E0FEF72CFB02463B69D31A022BDC
:1041400001D9032358E0224B1B6803F00073002BB6
:10415000F0D050E001234FE01D4B1B6803F00073CB
:10416000002B48D11A4B1B68194A43F08073136027
:10417000174BDB68164A43F08073D360FEF708FBE9
:10418000386108E0FEF704FB02463B69D31A022BB4
:1041900001D9032330E00E4B1B6803F00073002BA2
:1041A000F0D028E0BB690C2B23D0094B1B68084AD0
:1041B00023F080731360FEF7EBFA38610CE0FEF732
:1041C000E7FA02463B69D31A022B05D9032313E011
:1041D000001002408C809DF9094B1B6803F00073AE
:1041E000002BECD1064BDA680549064B1340CB6037
:1041F00001E0012300E0002318462037BD4680BDC2
:1042000000100240FCFFEEFE80B584B000AF786085
:1042100039607B68002B01D10123E7E0754B1B68F7
:1042200003F007033A689A4210D9724B1B6823F0D7
:10423000070270493B6813430B606E4B1B6803F029
:1042400007033A689A4201D00123CFE07B681B68DC
:1042500003F00203002B10D07B689A68664B9B68C2
:1042600003F0F0039A4208D9634B9B6823F0F002F5
:104270007B689B68604913438B607B681B6803F015
:104280000103002B4CD07B685B68032B07D15A4B92
:104290001B6803F00073002B21D10123A6E07B688B
:1042A0005B68022B07D1544B1B6803F40033002BCF
:1042B00015D101239AE07B685B68002B07D14E4B38
:1042C0001B6803F00203002B09D101238EE04A4B47
:1042D0001B6803F48063002B01D1012386E0464B69
:1042E0009B6823F003027B685B68434913438B6040
:1042F000FEF74EFAF8600AE0FEF74AFA0246FB685B
:10430000D31A41F28832934201D903236EE03A4B2B
:104310009B6803F00C027B685B689B009A42EBD1C0
:104320007B681B6803F00203002B10D07B689A683F
:10433000314B9B6803F0F0039A4208D22E4B9B68E6
:1043400023F0F0027B689B682B4913438B60294B59
:104350001B6803F007033A689A4210D2254B1B688A
:1043600023F0070223493B6813430B60214B1B6872
:1043700003F007033A689A4201D0012336E07B68D4
:104380001B6803F00403002B08D01B4B9B6823F42D
:10439000E0627B68DB68184913438B607B681B68AD
:1043A00003F00803002B09D0134B9B6823F46052E1
:1043B0007B681B69DB00104913438B6000F024F815
:1043C00002460D4B9B681B0903F00F030B49CB5CA6
:1043D00003F01F0322FA03F3094A1360094B1B6819
:1043E0001846FEF785F90346FB72FB7A184610372C
:1043F000BD4680BD002002400010024040A70008DA
:10440000000000200400002080B489B000AF002329
:10441000FB610023BB613E4B9B6803F00C033B61D7
:104420003B4BDB6803F00303FB603B69002B05D0CB
:104430003B690C2B21D1FB68012B1ED1344B1B682F
:1044400003F00803002B07D1314BD3F894301B0A3B
:1044500003F00F03FB6105E02D4B1B681B0903F004
:104460000F03FB612B4AFB6952F82330FB613B6968
:10447000002B0DD1FB69BB610AE03B69042B02D123
:10448000254BBB6104E03B69082B01D1234BBB6189
:104490003B690C2B34D11E4BDB6803F00303BB607C
:1044A000BB68022B03D0BB68032B03D005E01A4B7B
:1044B0007B6105E0194B7B6102E0FB697B6100BF1A
:1044C000134BDB681B0903F0070301337B60104BC0
:1044D000DB681B0A03F07F037A6903FB02F27B6847
:1044E000B2FBF3F37B610A4BDB685B0E03F0030363
:1044F00001335B003B607A693B68B2FBF3F3BB615D
:10450000BB6918462437BD465DF8047B704700BF81
:104510000010024058A700080024F40000127A009E
:1045200080B400AF034B1B681846BD465DF8047BA2
:10453000704700BF0000002080B500AFFFF7F0FF1C
:104540000246064B9B681B0A03F007030449CB5C39
:1045500003F01F0322FA03F3184680BD0010024047
:1045600050A7000880B500AFFFF7DAFF0246064B00
:104570009B68DB0A03F007030449CB5C03F01F03CD
:1045800022FA03F3184680BD0010024050A700082D
:1045900080B586B000AF786000233B612A4B9B6DED
:1045A00003F08053002B03D0FFF7EEF9786114E09D
:1045B000254B9B6D244A43F080539365224B9B6DA2
:1045C00003F08053FB60FB68FFF7DEF978611E4B58
:1045D0009B6D1D4A23F0805393657B69B3F5007F83
:1045E0000BD17B68802B19D97B68A02B02D90223C1
:1045F0003B6113E001233B6110E07B68802B02D913
:1046000003233B610AE07B68802B02D102233B61DC
:1046100004E07B68702B01D101233B610B4B1B68CD
:1046200023F0070209493B6913430B60074B1B68E2
:1046300003F007033A699A4201D0012300E0002306
:1046400018461837BD4680BD0010024000200240C9
:1046500080B586B000AF78600023FB740023BB7484
:104660007B681B6803F40063002B41D07B685B6EA2
:10467000B3F5400F2AD0B3F5400F24D8B3F5000F9F
:1046800008D0B3F5000F1ED8002B0AD0B3F5800F69
:1046900010D018E0864BDB68854A43F48033D36042
:1046A00015E07B6804330021184600F0BBFA03468E
:1046B000FB740CE07B6820330021184600F0A6FB59
:1046C0000346FB7403E00123FB7400E000BFFB7CA6
:1046D000002B0BD1764BD3F8883023F440027B6853
:1046E0005B6E73491343C1F8883001E0FB7CBB74F7
:1046F0007B681B6803F48053002B41D07B689B6E62
:10470000B3F1407F2AD0B3F1407F24D8B3F1007FCA
:1047100008D0B3F1007F1ED8002B0AD0B3F1807F00
:1047200010D018E0624BDB68614A43F48033D360F9
:1047300015E07B6804330021184600F073FA034645
:10474000FB740CE07B6820330021184600F05EFB10
:104750000346FB7403E00123FB7400E000BFFB7C15
:10476000002B0BD1524BD3F8883023F040727B687A
:104770009B6E4F491343C1F8883001E0FB7CBB744A
:104780007B681B6803F40033002B00F0A08000233B
:104790007B74474B9B6D03F08053002B01D10123A9
:1047A00000E00023002B0DD0414B9B6D404A43F0AD
:1047B000805393653E4B9B6D03F08053BB60BB6899
:1047C00001237B743B4B1B683A4A43F480731360AC
:1047D000FDF7DEFFF86009E0FDF7DAFF0246FB684F
:1047E000D31A022B02D90323FB7405E0314B1B685B
:1047F00003F48073002BEFD0FB7C002B5CD12C4B9F
:10480000D3F8903003F440737B617B69002B1FD099
:104810007B68D3F884307A699A4219D0244BD3F854
:10482000903023F440737B61214BD3F89030204AC1
:1048300043F48033C2F890301D4BD3F890301C4ABB
:1048400023F48033C2F89030194A7B69C2F8903063
:104850007B6903F00103002B16D0FDF799FFF86088
:104860000BE0FDF795FF0246FB68D31A41F2883250
:10487000934202D90323FB7406E00D4BD3F890302A
:1048800003F00203002BECD0FB7C002B0CD1084B77
:10489000D3F8903023F440727B68D3F88430044915
:1048A0001343C1F8903009E0FB7CBB7406E000BF05
:1048B0000010024000700040FB7CBB747B7C012B2D
:1048C00005D19E4B9B6D9D4A23F0805393657B6879
:1048D0001B6803F00103002B0AD0984BD3F88830F3
:1048E00023F003027B689B6B94491343C1F8883023
:1048F0007B681B6803F00203002B0AD08F4BD3F8B0
:10490000883023F00C027B68DB6B8C491343C1F8C1
:1049100088307B681B6803F00403002B0AD0874BA8
:10492000D3F8883023F030027B681B6C8349134333
:10493000C1F888307B681B6803F00803002B0AD09D
:104940007E4BD3F8883023F0C0027B685B6C7B49D8
:104950001343C1F888307B681B6803F01003002BF9
:104960000AD0764BD3F8883023F440727B689B6C76
:1049700072491343C1F888307B681B6803F0200339
:10498000002B0AD06D4BD3F8883023F440627B684B
:10499000DB6C6A491343C1F888307B681B6803F4F9
:1049A0000073002B0AD0654BD3F8883023F44022E3
:1049B0007B68DB6D61491343C1F888307B681B68F5
:1049C00003F48063002B0AD05C4BD3F8883023F4C7
:1049D00040127B681B6E59491343C1F888307B68CD
:1049E0001B6803F04003002B0AD0544BD3F88830E7
:1049F00023F440527B681B6D50491343C1F8883043
:104A00007B681B6803F08003002B0AD04B4BD3F864
:104A1000883023F440427B685B6D48491343C1F8FA
:104A200088307B681B6803F48073002B0AD0434BEB
:104A3000D3F8883023F440327B689B6D3F491343A1
:104A4000C1F888307B681B6803F40053002B28D022
:104A50003A4BD3F8883023F040627B68DB6E3749ED
:104A60001343C1F888307B68DB6EB3F1006F06D169
:104A7000324BDB68314A43F48013D36011E07B682A
:104A8000DB6EB3F1806F0CD17B68043301211846D3
:104A900000F0C8F80346FB74FB7C002B01D0FB7CC4
:104AA000BB747B681B6803F40023002B28D0234BC6
:104AB000D3F8883023F040627B681B6F1F49134393
:104AC000C1F888307B681B6FB3F1006F06D11B4BB8
:104AD000DB681A4A43F48013D36011E07B681B6FD4
:104AE000B3F1806F0CD17B6804330121184600F0CC
:104AF00099F80346FB74FB7C002B01D0FB7CBB7454
:104B00007B681B6803F48023002B2BD00B4BD3F85E
:104B1000883023F040627B685B6F08491343C1F81B
:104B200088307B685B6FB3F1006F09D1034BDB68A2
:104B3000024A43F48013D36014E000BF0010024027
:104B40007B685B6FB3F1806F0CD17B68043301210C
:104B5000184600F067F80346FB74FB7C002B01D07D
:104B6000FB7CBB747B681B6803F48043002B2FD055
:104B70002B4BD3F8883023F040527B689B6F284939
:104B80001343C1F888307B689B6FB3F1805F0DD110
:104B90007B6804330221184600F044F80346FB7496
:104BA000FB7C002B14D0FB7CBB7411E07B689B6FFB
:104BB000B3F1005F0CD17B6820330221184600F06E
:104BC00025F90346FB74FB7C002B01D0FB7CBB74F6
:104BD0007B681B6803F40043002B0AD0104BD3F80A
:104BE000883023F080427B68DB6F0D491343C1F8A6
:104BF00088307B681B6803F48033002B0BD0084B94
:104C0000D3F8883023F000427B68D3F88030044921
:104C10001343C1F88830BB7C18461837BD4680BDA9
:104C20000010024080B584B000AF78603960002386
:104C3000FB73754BDB6803F00303002B18D0724B3A
:104C4000DB6803F003027B681B689A420DD17B6826
:104C50001B68002B09D06C4BDB681B0903F00703B2
:104C60005A1C7B685B689A4247D00123FB7344E07F
:104C70007B681B68032B18D0032B25D8012B02D08F
:104C8000022B09D020E0604B1B6803F00203002BCD
:104C90001DD10123FB731AE05B4B1B6803F4806397
:104CA000002B16D10123FB7313E0574B1B6803F451
:104CB0000033002B0FD1544B1B6803F48023002BCF
:104CC00009D10123FB7306E00123FB7304E000BF5D
:104CD00002E000BF00E000BFFB7B002B0DD14A4B80
:104CE000DB6823F073027B6819687B685B68013BB3
:104CF0001B010B4344491343CB60FB7B002B7DD14D
:104D0000414B1B68404A23F080631360FDF740FD70
:104D1000B86009E0FDF73CFD0246BB68D31A022BE0
:104D200002D90323FB7305E0374B1B6803F00063D4
:104D3000002BEFD1FB7B002B60D13B68002B11D106
:104D4000314B1B6923F41F3323F440737A68926854
:104D500011027A68D268120952040A432A4913439D
:104D60000B6127E03B68012B12D1274B1B6923F411
:104D7000C00323F4FE437A68926811027A681269CC
:104D80005208013A52050A431F4913430B6111E0CF
:104D90001D4B1B6923F0C06323F4FE437A689268BD
:104DA00011027A6852695208013A52060A431649BA
:104DB00013430B61144B1B68134A43F08063136069
:104DC000FDF7E6FCB86009E0FDF7E2FC0246BB68CF
:104DD000D31A022B02D90323FB7305E00A4B1B688D
:104DE00003F00063002BEFD0FB7B002B06D1064BBA
:104DF0001A697B689B69044913430B61FB7B184666
:104E00001037BD4680BD00BF0010024080B584B0A1
:104E100000AF786039600023FB736A4BDB6803F0F6
:104E20000303002B18D0674BDB6803F003027B6899
:104E30001B689A420DD17B681B68002B09D0614B1F
:104E4000DB681B0903F007035A1C7B685B689A4206
:104E500047D00123FB7344E07B681B68032B18D009
:104E6000032B25D8012B02D0022B09D020E0554B73
:104E70001B6803F00203002B1DD10123FB731AE012
:104E8000504B1B6803F48063002B16D10123FB7386
:104E900013E04C4B1B6803F40033002B0FD1494B3C
:104EA0001B6803F48023002B09D10123FB7306E068
:104EB0000123FB7304E000BF02E000BF00E000BF7D
:104EC000FB7B002B0DD13F4BDB6823F073027B682B
:104ED00019687B685B68013B1B010B43394913432D
:104EE000CB60FB7B002B67D1364B1B68354A23F028
:104EF00080531360FDF74CFCB86009E0FDF748FCF7
:104F00000246BB68D31A022B02D90323FB7305E0C8
:104F10002C4B1B6803F00053002BEFD1FB7B002BC5
:104F20004AD13B68002B11D1264B5B6923F41F3318
:104F300023F440737A68926811027A68D268120981
:104F400052040A431F4913434B6111E01D4B5B6937
:104F500023F0C06323F4FE437A68926811027A68F2
:104F600012695208013A52060A43164913434B612B
:104F7000144B1B68134A43F080531360FDF708FC81
:104F8000B86009E0FDF704FC0246BB68D31A022BA7
:104F900002D90323FB7305E00A4B1B6803F000539F
:104FA000002BEFD0FB7B002B06D1064B5A697B68A8
:104FB0005B69044913434B61FB7B18461037BD46C0
:104FC00080BD00BF0010024080B582B000AF7860A5
:104FD0007B68002B01D1012340E07B68DB6F002B55
:104FE00006D17B68002283F878207868FDF7D2F933
:104FF0007B682422DA677B681B681A687B681B68F9
:1050000022F001021A607B685B6A002B02D078688C
:1050100000F06AFB786800F0AFF80346012B01D17D
:1050200001231BE07B681B685A687B681B6822F4BD
:1050300090425A607B681B689A687B681B6822F004
:105040002A029A607B681B681A687B681B6842F0BA
:1050500001021A60786800F0E9FB03461846083739
:10506000BD4680BD80B58AB002AFF860B9603B60D4
:105070001346FB80FB68DB6F202B77D1BB68002BCE
:1050800002D0FB88002B01D1012370E0FB680022D5
:10509000C3F88420FB682122DA67FDF779FB786189
:1050A000FB68FA88A3F85020FB68FA88A3F852201E
:1050B000FB689B68B3F5805F08D1FB681B69002B18
:1050C00004D10023FB61BB68BB6103E0BB68FB61EB
:1050D0000023BB612FE03B6800937B6900228021A5
:1050E000F86800F04BFC0346002B04D0FB6820223C
:1050F000DA6703233BE0FB69002B0BD1BB691A88FD
:10510000FB681B68C2F3080292B21A85BB690233BE
:10511000BB6107E0FB691A78FB681B681A85FB69AD
:105120000133FB61FB68B3F852309BB2013B9AB28A
:10513000FB68A3F85220FB68B3F852309BB2002BF7
:10514000C9D13B6800937B6900224021F86800F0D8
:1051500015FC0346002B04D0FB682022DA670323EA
:1051600005E0FB682022DA67002300E002231846EE
:105170002037BD4680BD00002DE9B04F8AB000AF9A
:10518000F860002387F82230FB689A68FB681B6987
:105190001A43FB685B691A43FB68DB6913437B6254
:1051A000FB681B681A68A44B1340FA681268796A96
:1051B0000B431360FB681B685B6823F44051FB687A
:1051C000DA68FB681B680A435A60FB689B697B626C
:1051D000FB681B68994A934204D0FB681B6A7A6A91
:1051E00013437B62FB681B689B6823F43061FB6898
:1051F0001B687A6A0A439A60FB681B68904A93426C
:1052000026D1904BD3F8883003F00303032B1BD82F
:1052100001A252F823F000BF2952000839520008B9
:105220003152000841520008012387F8233016E16B
:10523000022387F8233012E1042387F823300EE19C
:10524000082387F823300AE1102387F8233006E18A
:10525000FB681B687C4A934238D17A4BD3F888307C
:1052600003F00C030C2B2DD801A252F823F000BF41
:10527000A5520008C5520008C5520008C5520008D2
:10528000B5520008C5520008C5520008C5520008B2
:10529000AD520008C5520008C5520008C5520008AA
:1052A000BD520008002387F82330D8E0022387F896
:1052B0002330D4E0042387F82330D0E0082387F894
:1052C0002330CCE0102387F82330C8E0FB681B684C
:1052D0005E4A934225D15B4BD3F8883003F030030C
:1052E000302B16D0302B18D8202B0AD0202B14D8D6
:1052F000002B02D0102B08D00FE0002387F82330BA
:10530000ADE0022387F82330A9E0042387F8233097
:10531000A5E0082387F82330A1E0102387F8233085
:105320009DE0FB681B684A4A934225D1454BD3F860
:10533000883003F0C003C02B16D0C02B18D8802BA8
:105340000AD0802B14D8002B02D0402B08D00FE0BD
:10535000002387F8233082E0022387F823307EE0A1
:10536000042387F823307AE0082387F8233076E097
:10537000102387F8233072E0FB681B68354A93429C
:105380002AD1304BD3F8883003F44073B3F5407F13
:105390001AD0B3F5407F1BD8B3F5007F0CD0B3F51E
:1053A000007F15D8002B03D0B3F5807F08D00FE025
:1053B000002387F8233052E0022387F823304EE0A1
:1053C000042387F823304AE0082387F8233046E097
:1053D000102387F8233042E0FB681B68174A93428A
:1053E0003AD1184BD3F8883003F44063B3F5406FDB
:1053F0001AD0B3F5406F1BD8B3F5006F0CD0B3F5DE
:10540000006F15D8002B03D0B3F5806F08D00FE0E4
:10541000002387F8233022E0022387F823301EE0A0
:10542000042387F823301AE0082387F8233016E096
:10543000102387F8233012E0F369FFEF008000406B
:105440000038014000100240004400400048004085
:10545000004C004000500040102387F82330FB68C8
:105460001B689F4A93427AD197F82330082B24D89F
:1054700001A252F823F000BF9D540008BB5400085D
:10548000A5540008BB540008AB540008BB540008E6
:10549000BB540008BB540008B3540008FFF74CF895
:1054A000F86110E08F4BFB610DE0FEF7ADFFF86196
:1054B00009E04FF40043FB6105E00023FB61012399
:1054C00087F8223000BFFB69002B00F0FB80FB68EF
:1054D0005A6813465B001344FA699A4205D3FB6885
:1054E0005B681B03FA699A4203D9012387F82230CB
:1054F000E8E0FB6900221C4615464FF000024FF021
:1055000000032B0243EA14632202F9684968490840
:1055100000208846814612EB080A43EB090BFB6822
:105520005B6800223B607A60D7E900235046594609
:10553000FBF7FAFB02460B461346BB61BB69B3F5AA
:10554000407F08D3BB69B3F5801F04D2FB681B689A
:10555000BA69DA60B6E0012387F82230B2E0FB686E
:10556000DB69B3F5004F5ED197F82330082B28D8BC
:1055700001A252F823F000BF9D550008A555000870
:10558000AD550008C3550008B3550008C3550008C1
:10559000C3550008C3550008BB550008FEF7CCFFF3
:1055A000F86114E0FEF7DEFFF86110E04D4BFB619F
:1055B0000DE0FEF729FFF86109E04FF40043FB61BD
:1055C00005E00023FB61012387F8223000BFFB695F
:1055D000002B77D0FB695A00FB685B685B081A44B4
:1055E000FB685B68B2FBF3F3BB61BB690F2B16D999
:1055F000BB69B3F5803F12D2BB699BB223F00F03A6
:10560000FB82BB695B089BB203F007039AB2FB8A7B
:105610001343FB82FB681B68FA8ADA6052E00123BD
:1056200087F822304EE097F82330082B27D801A2C4
:1056300052F823F0595600086156000869560008D0
:105640007F5600086F5600087F5600087F560008F6
:105650007F56000877560008FEF76EFFF86114E0E9
:10566000FEF780FFF86110E01E4BFB610DE0FEF7D6
:10567000CBFEF86109E04FF40043FB6105E0002335
:10568000FB61012387F8223000BFFB69002B19D092
:10569000FB685B685A08FB691A44FB685B68B2FBED
:1056A000F3F3BB61BB690F2B09D9BB69B3F5803F2D
:1056B00005D2BB699AB2FB681B68DA6002E001237D
:1056C00087F82230FB6800229A66FB680022DA66BF
:1056D00097F8223018462837BD46BDE8B08F00BF86
:1056E000008000400024F40080B483B000AF7860F4
:1056F0007B685B6A03F00803002B0AD07B681B6899
:105700005B6823F400417B685A6B7B681B680A4323
:105710005A607B685B6A03F00103002B0AD07B6848
:105720001B685B6823F400317B689A6A7B681B689E
:105730000A435A607B685B6A03F00203002B0AD0BD
:105740007B681B685B6823F480317B68DA6A7B685E
:105750001B680A435A607B685B6A03F00403002BF2
:105760000AD07B681B685B6823F480217B681A6B16
:105770007B681B680A435A607B685B6A03F010030E
:10578000002B0AD07B681B689B6823F480517B68E0
:105790009A6B7B681B680A439A607B685B6A03F0BC
:1057A0002003002B0AD07B681B689B6823F4005100
:1057B0007B68DA6B7B681B680A439A607B685B6A6C
:1057C00003F04003002B1AD07B681B685B6823F44E
:1057D00080117B681A6C7B681B680A435A607B687F
:1057E0001B6CB3F5801F0AD17B681B685B6823F4D0
:1057F000C0017B685A6C7B681B680A435A607B68EF
:105800005B6A03F08003002B0AD07B681B685B682F
:1058100023F400217B689A6C7B681B680A435A60FA
:1058200000BF0C37BD465DF8047B704780B598B06B
:1058300002AF78607B680022C3F88420FCF7A8FFE1
:1058400078657B681B681B6803F00803082B2ED162
:105850006FF07E4300937B6D00224FF40011786857
:1058600000F08CF80346002B21D07B681B68BB63DB
:10587000BB6B53E8003F7B637B6B23F080033B658E
:105880007B681B681A463B6D7B643A64396C7A6CA2
:1058900041E80023FB63FB6B002BE6D17B682022F1
:1058A000DA677B68002283F87820032362E07B6854
:1058B0001B681B6803F00403042B49D16FF07E437F
:1058C00000937B6D00224FF48001786800F056F859
:1058D0000346002B3CD07B681B687B627B6A53E8E5
:1058E000003F3B623B6A23F49073FB647B681B6858
:1058F0001A46FB6C3B63FA62F96A3A6B41E8002393
:10590000BB62BB6A002BE6D17B681B6808333B6136
:105910003B6953E8003FFB60FB6823F00103BB6475
:105920007B681B680833BA6CFA61BB61B969FA69B4
:1059300041E800237B617B69002BE5D17B68202255
:10594000C3F880207B68002283F87820032311E0CD
:105950007B682022DA677B682022C3F880207B687E
:1059600000221A667B6800225A667B68002283F850
:105970007820002318465837BD4680BD80B584B0D6
:1059800000AFF860B9603B601346FB714FE0BB6944
:10599000B3F1FF3F4BD0FCF7FBFE02463B68D31A46
:1059A000BA699A4202D3BB69002B01D103234EE0AE
:1059B000FB681B681B6803F00403002B37D0BB682F
:1059C000802B34D0BB68402B31D0FB681B68DB696F
:1059D00003F00803082B10D1FB681B6808221A6229
:1059E000F86800F038F8FB680822C3F88420FB68E8
:1059F000002283F87820012329E0FB681B68DB691B
:105A000003F40063B3F5006F11D1FB681B684FF41A
:105A100000621A62F86800F01EF8FB682022C3F8E2
:105A20008420FB68002283F8782003230FE0FB68C2
:105A30001B68DA69BB681340BA689A420CBF01233D
:105A40000023DBB21A46FB799A42A0D00023184605
:105A50001037BD4680BD80B495B000AF78607B68DC
:105A60001B687B637B6B53E8003F3B633B6B23F41A
:105A70009073FB647B681B681A46FB6C3B64FA639B
:105A8000F96B3A6C41E80023BB63BB6B002BE6D19A
:105A90007B681B6808333B623B6A53E8003FFB614D
:105AA000FB6923F00103BB647B681B680833BA6C95
:105AB000FA62BB62B96AFA6A41E800237B627B6AD8
:105AC000002BE5D17B681B6E012B18D17B681B680E
:105AD000FB60FB6853E8003FBB60BB6823F010032A
