:020000040800F2
:1000000000000824251600082D14000835140008E7
:100010003D140008451400084D14000800000000BD
:10002000000000000000000000000000551400085F
:100030006314000800000000711400087F14000819
:100040007516000875160008751600087516000864
:100050007516000875160008751600087516000854
:100060007516000875160008751600087516000844
:100070007516000875160008751600087516000834
:100080007516000875160008751600087516000824
:100090007516000875160008751600087516000814
:1000A0007516000875160008751600087516000804
:1000B00075160008751600087516000875160008F4
:1000C00075160008751600087516000875160008E4
:1000D00075160008751600087516000875160008D4
:1000E0008B14000875160008000000007516000843
:1000F00075160008751600087516000875160008B4
:1001000075160008751600087516000875160008A3
:100110007516000875160008751600087516000893
:100120007516000875160008751600087516000883
:100130007516000875160008751600087516000873
:100140007516000875160008000000000000000089
:100150007516000875160008751600087516000853
:100160007516000875160008751600087516000843
:100170007516000875160008751600087516000833
:100180007516000875160008751600087516000823
:100190007516000875160008751600087516000813
:1001A0007516000875160008751600087516000803
:1001B00075160008751600087516000875160008F3
:1001C00075160008751600087516000875160008E3
:1001D00075160008751600087516000875160008D3
:1001E00075160008751600087516000875160008C3
:1001F00075160008751600087516000875160008B3
:1002000075160008751600087516000875160008A2
:100210007516000875160008751600087516000892
:100220007516000875160008751600080000000015
:100230007516000875160008751600087516000872
:100240007516000875160008751600087516000862
:100250007516000875160008751600087516000852
:100260007516000875160008751600087516000842
:100270007516000875160008751600087516000832
:1002800075160008751600087516000800000000B5
:08029000751600087516000840
:1002A00010B5054C237833B9044B13B10448AFF3B0
:1002B00000800123237010BDF40100240000000021
:1002C00094AA000808B5034B1BB103490348AFF3D8
:1002D000008008BD00000000F801002494AA000876
:1002E00001F0FF01102A2BDB10F0070F08D010F8E7
:1002F000013B013A8B422DD010F0070F42B3F6D1EB
:10030000F0B441EA012141EA014122F007047FF003
:1003100000070023F0E80256083C85EA010586EA5A
:10032000010685FA47F5A3FA87F586FA47F6A5FA96
:1003300087F68EB9EED1F0BC01F0FF0102F00702A2
:1003400032B110F8013B013A83EA010313B1F8D14D
:100350000020704701387047002D06BF354603382E
:10036000073815F0010F07D1013015F4807F02BF67
:10037000013015F4C03F0130F0BC0138704700BFB8
:10038000034613F8012B002AFBD1181A01387047D5
:1003900081F0004102E000BF83F0004330B54FEA36
:1003A00041044FEA430594EA050F08BF90EA020FA3
:1003B0001FBF54EA000C55EA020C7FEA645C7FEA36
:1003C000655C00F0E2804FEA5454D4EB5555B8BF59
:1003D0006D420CDD2C4480EA020281EA030382EACA
:1003E000000083EA010180EA020281EA0303362D5C
:1003F00088BF30BD11F0004F4FEA01314FF4801C2F
:100400004CEA113102D0404261EB410113F0004F40
:100410004FEA03334CEA133302D0524263EB4303F7
:1004200094EA050F00F0A780A4F10104D5F1200E95
:100430000DDB02FA0EFC22FA05F2801841F10001F0
:1004400003FA0EF2801843FA05F359410EE0A5F1C4
:1004500020050EF1200E012A03FA0EFC28BF4CF0F5
:10046000020C43FA05F3C01851EBE37101F00045AB
:1004700007D54FF0000EDCF1000C7EEB00006EEBB8
:100480000101B1F5801F1BD3B1F5001F0CD3490842
:100490005FEA30004FEA3C0C04F101044FEA445299
:1004A00012F5800F80F09A80BCF1004F08BF5FEA20
:1004B000500C50F1000041EB045141EA050130BD00
:1004C0005FEA4C0C404141EB0101013C28BFB1F512
:1004D000801FE9D291F0000F04BF01460020B1FA5D
:1004E00081F308BF2033A3F10B03B3F120020CDA30
:1004F0000C3208DD02F1140CC2F10C0201FA0CF00E
:1005000021FA02F10CE002F11402D8BFC2F1200C72
:1005100001FA02F120FA0CFCDCBF41EA0C01904028
:10052000E41AA2BF01EB0451294330BD6FEA040471
:100530001F3C1CDA0C340EDC04F11404C4F120025C
:1005400020FA04F001FA02F340EA030021FA04F36E
:1005500045EA030130BDC4F10C04C4F1200220FAC5
:1005600002F001FA04F340EA0300294630BD21FA03
:1005700004F0294630BD94F0000F83F4801306BFC9
:1005800081F480110134013D4EE77FEA645C18BFBD
:100590007FEA655C29D094EA050F08BF90EA020F54
:1005A00005D054EA000C04BF1946104630BD91EA4C
:1005B000030F1EBF0021002030BD5FEA545C05D14F
:1005C0004000494128BF41F0004130BD14F580048E
:1005D0003CBF01F5801130BD01F0004545F0FE4102
:1005E00041F470014FF0000030BD7FEA645C1ABF37
:1005F000194610467FEA655C1CBF0B46024650EA6E
:10060000013406BF52EA033591EA030F41F4002199
:1006100030BD00BF90F0000F04BF0021704730B51F
:100620004FF4806404F132044FF000054FF00001F4
:1006300050E700BF90F0000F04BF0021704730B5B5
:100640004FF4806404F1320410F0004548BF40428A
:100650004FF000013EE700BF42004FEAE2014FEADF
:1006600031014FEA02701FBF12F07F4393F07F4FBA
:1006700081F06051704732F07F4208BF704793F0BD
:100680007F4F04BF41F40021704730B54FF46074D0
:1006900001F0004521F000411CE700BF50EA0102D3
:1006A00008BF704730B54FF000050AE050EA01027C
:1006B00008BF704730B511F0004502D5404261EBEC
:1006C00041014FF4806404F132045FEA915C3FF42D
:1006D000D8AE4FF003025FEADC0C18BF03325FEACA
:1006E000DC0C18BF033202EBDC02C2F1200300FA7B
:1006F00003FC20FA02F001FA03FE40EA0E0021FAA0
:1007000002F11444BDE600BF53B94AB9002908BF3D
:1007100000281CBF4FF0FF314FF0FF3000F0A2B9AE
:10072000ADF1080C6DE904CE00F03EF8DDF804E010
:10073000DDE9022304B0704708B502460B4643ECDE
:10074000172BB5EEC07BF1EE10FA03D4BDE80840DC
:1007500000F00AB8B1EE477B51EC170B00F004F83B
:10076000404261EB410108BD9FED0B6B41EC170B63
:100770009FED0B5B27EE066BBCEEC66BB8EE464BEF
:10078000A4EE457BFCEEC77B16EE101A17EE900A1E
:10079000704700BFAFF30080000000000000F03D94
:1007A000000000000000F0412DE9F047089D0C46D4
:1007B000002B4ED194468C458646B2FA82F262D91D
:1007C0004AB1C2F12003914020FA03F30CFA02FC73
:1007D000194300FA02FE4FEA1C471FFA8CF6B1FBE0
:1007E000F7F44FEA1E4307FB141143EA014304FBED
:1007F00006F199420AD91CEB030304F1FF3080F0A3
:100800001281994240F20F81023C6344591A1FFA47
:100810008EF3B1FBF7F007FB101143EA014300FB35
:1008200006F69E420AD91CEB030300F1FF3180F06B
:10083000FC809E4240F2F980634402389B1B40EAF0
:10084000044000211DB1D3400022C5E90032BDE8BB
:10085000F0878B4205D90DB1C5E90001002108469A
:10086000F5E7B3FA83F1002946D1A34202D39042BF
:10087000C0F0F080861A64EB03030120002DE6D05F
:10088000C5E90063E3E7002A40F09080A1EB0C0487
:100890004FEA1C481FFA8CF70121B4FBF8F64FEA27
:1008A0001E4308FB164443EA044307FB06F0984244
:1008B00008D91CEB030306F1FF3402D2984200F280
:1008C000CD8026461C1A1FFA8EF3B4FBF8F008FB05
:1008D000104443EA044300FB07F79F4208D91CEB8E
:1008E000030300F1FF3402D29F4200F2B0802046A1
:1008F000DB1B40EA0640A5E7C1F120068B4022FA47
:1009000006F71F4320FA06FC04FA01F343EA0C033E
:10091000F44000FA01F8380C4FEA1349B4FBF0FE3A
:100920001FFA87FC00FB1E4449EA04440EFB0CF945
:10093000A14502FA01F20AD93C190EF1FF3A80F002
:100940008480A14540F28180AEF1020E3C44A4EBCC
:1009500009041FFA83F9B4FBF0F300FB134449EADE
:10096000044403FB0CFCA44507D93C1903F1FF30F8
:1009700067D2A44565D9023B3C4443EA0E40A0FB44
:100980000293A4EB0C049C42CE469C4651D34ED01D
:1009900055B1B8EB0E0364EB0C0404FA06F6CB4039
:1009A0001E43CC40C5E90064002150E7C2F120039A
:1009B00020FA03F10CFA02FC24FA03F394400C43EE
:1009C0004FEA1C4800FA02FE1FFA8CF7B3FBF8F05E
:1009D00008FB1031230C43EA014300FB07F1994265
:1009E00008D91CEB030300F1FF362CD299422AD917
:1009F000023863445B1AA4B2B3FBF8F108FB11336D
:100A000044EA034401FB07F3A34208D91CEB0404A6
:100A100001F1FF3613D2A34211D902396444E41A1A
:100A200041EA004139E70446F0E6084606E7C845D2
:100A3000AED2B9EB020E63EB070C0138A8E73146E2
:100A4000EDE7034699E73046D4E7D6467FE76344AF
:100A500002384DE70646234608460FE7023E634448
:100A600030E700BF704700BF80B400AF3D4BD3F804
:100A700088303C4A43F47003C2F88830394B1B6914
:100A8000384A43F010031361374B1B6803F00F0320
:100A9000062B07D8344B1B6823F00F03324A43F070
:100AA00007031360314B1B68304A43F001031360A6
:100AB0002E4B00221A612D4B1A682C492C4B1340E7
:100AC0000B60294B1B6803F00803002B07D0264B53
:100AD0001B6823F00F03244A43F007031360234BE2
:100AE00000229A61214B0022DA61204B00221A6217
:100AF0001E4B204A9A621D4B1F4ADA621B4B1F4A4B
:100B00001A631A4B00225A63184B1C4A9A63174BFC
:100B10000022DA63154B194A1A64144B00225A64F6
:100B2000124B1B68114A23F4802313600F4B0022E1
:100B30001A66134B5B6A124A43F480435362114BAB
:100B40001A68114B1340B3F1005F02D20F4B012220
:100B50001A600F4B43F2D2021A6000BFBD465DF827
:100B6000047B704700ED00E0002000520044025872
:100B70007FEDF6EA000202020000FF01800201019F
:100B8000C00000580010005C0000FFFF0881005109
:100B90000040005280B58CB000AF4FF6FF73FB628F
:100BA00000BF584B1B6803F40043002B04D0FB6AC2
:100BB0005A1EFA62002BF4DCFB6A002B01DA00F00B
:100BC000A7FA00F091FF00F0A9F84E4BD3F8E030FF
:100BD0004C4A43F00073C2F8E0304A4BD3F8E0309F
:100BE00003F000733B603B68002001F09DFB002197
:100BF000002001F0B3FB4FF6FF73FB6200BF414BD7
:100C00001B6803F40043002B04D1FB6A5A1EFA62EE
:100C1000002BF4DCFB6A002B01DA00F079FA00F01B
:100C2000BFF900F0E5F800F023F900F06DF90020BD
:100C300000F022FD012000F01FFD022000F01CFD4D
:100C40000121002000F0E2FD2F4B4FF4E1321A6049
:100C50002D4B00225A602C4B00221A812A4B002275
:100C60005A81294B00229A812749002000F05EFE1C
:100C70000346002B01D000F04BFA244A07F1180379
:100C800092E8030018600433198007F11E03002264
:100C90001A605A609A609A811D4A3B1D07CA03C3B5
:100CA0001A7007F10D0300221A605A60C3F807207A
:100CB00007F118031846FFF763FB03469AB207F1E2
:100CC00018014FF0FF33134804F04CFB3B1D18464E
:100CD000FFF756FB03469AB2391D4FF0FF330E481B
:100CE00004F040FB4FF4FA7000F090FF002000F099
:100CF00063FD4FF4FA7000F089FF002000F032FD30
:100D000000BFD5E70044025810020024B0AA000832
:100D1000C4AA0008740200240803002480B59CB013
:100D200000AF07F124034C220021184606F09DFB7A
:100D30003B1D20220021184606F097FB042001F0FD
:100D400055FC00233B60284BDB6A274A23F0010354
:100D5000D362254BDB6A03F001033B60234B9B69A5
:100D600023F44043214A43F4804393611F4B9B6922
:100D700003F440433B603B6800BF1C4B9B6903F49A
:100D80000053B3F5005FF8D102237B6209233B6374
:100D900040237B630023BB6407F12403184601F062
:100DA0007FFC0346002B01D000F0B2F93F237B60AB
:100DB0000023BB600023FB6000233B6100237B61B9
:100DC0004023BB610023FB6100233B623B1D0021EC
:100DD000184602F0BFF80346002B01D000F098F946
:100DE00000BF7037BD4680BD00040058004802585F
:100DF00080B500AF1B4B1C4A1A601A4B1B4A5A6045
:100E0000184B00229A60174B0122DA60154B002222
:100E10001A61144B00225A61124B00229A61114B45
:100E20000022DA610F4B00221A620E4801F0AAFA82
:100E30000346002B01D000F06BF90021094801F0B6
:100E40003DFB0346002B01D000F062F9002105486C
:100E500001F07FFB0346002B01D000F059F900BFE1
:100E600080BD00BF20020024005800405B3D3000E0
:100E700080B500AF224B234A1A60214B4FF4E13278
:100E80005A601F4B00229A601D4B0022DA601C4BF7
:100E900000221A611A4B0C225A61194B00229A61E6
:100EA000174B0022DA61164B00221A62144B002203
:100EB0005A62134B00229A62114804F003FA034667
:100EC000002B01D000F024F900210D4805F099FA1B
:100ED0000346002B01D000F01BF90021084805F063
:100EE000CEFA0346002B01D000F012F9044805F0B9
:100EF0004FFA0346002B01D000F00AF900BF80BD75
:100F000074020024004C004080B500AF224B234AFD
:100F10001A60214B4FF4E1325A601F4B00229A6055
:100F20001D4B0022DA601C4B00221A611A4B0C2266
:100F30005A61194B00229A61174B0022DA61164B55
:100F400000221A62144B00225A62134B00229A624A
:100F5000114804F0B7F90346002B01D000F0D8F88F
:100F600000210D4805F04DFA0346002B01D000F09A
:100F7000CFF80021084805F082FA0346002B01D083
:100F800000F0C6F8044805F003FA0346002B01D030
:100F900000F0BEF800BF80BD0803002400440040FC
:100FA00080B58AB000AF07F1140300221A605A60BE
:100FB0009A60DA601A61514BD3F8E0304F4A43F03F
:100FC0000403C2F8E0304D4BD3F8E03003F00403E3
:100FD0003B613B69494BD3F8E030484A43F0010399
:100FE000C2F8E030454BD3F8E03003F00103FB607A
:100FF000FB68424BD3F8E030404A43F00203C2F8AA
:10100000E0303E4BD3F8E03003F00203BB60BB6836
:101010003A4BD3F8E030394A43F00803C2F8E030E5
:10102000364BD3F8E03003F008037B607B68334B2A
:10103000D3F8E030314A43F04003C2F8E0302F4BA0
:10104000D3F8E03003F040033B603B6832237B6120
:101050000223BB610023FB6100233B620B237B6205
:1010600007F114031946264800F094FF86237B619C
:101070000223BB610023FB6100233B620B237B62E5
:1010800007F1140319461F4800F084FF4FF4005382
:101090007B610223BB610023FB6100233B620B23C6
:1010A0007B6207F114031946174800F073FF4FF4F1
:1010B000C8537B610223BB610023FB6100233B62B9
:1010C0000A237B6207F1140319460E4800F062FF01
:1010D0004FF420537B610223BB610023FB6100239B
:1010E0003B620B237B6207F114031946074800F0AB
:1010F00051FF00BF2837BD4680BD00BF00440258E5
:101100000008025800000258000402580018025853
:1011100080B400AF72B600BF00BFFDE780B483B0FB
:1011200000AF0A4BD3F8F430084A43F00203C2F888
:10113000F430064BD3F8F43003F002037B607B6895
:1011400000BF0C37BD465DF8047B70470044025871
:1011500080B5BAB000AF786007F1D40300221A60FE
:101160005A609A60DA601A6107F11003C022002108
:10117000184606F07AF97B681B68274A934246D1E5
:101180004FF008024FF00003C7E904230023C7F81B
:10119000943007F11003184602F068FA0346002B5A
:1011A00001D0FFF7B5FF1D4BD3F8E0301B4A43F0E9
:1011B0000203C2F8E030194BD3F8E03003F0020329
:1011C000FB60FB684FF44063C7F8D4301223C7F8C4
:1011D000D8300023C7F8DC300023C7F8E030042300
:1011E000C7F8E43007F1D40319460D4800F0D2FEE9
:1011F0000A4BD3F8E830094A43F48003C2F8E830D8
:10120000064BD3F8E83003F48003BB60BB6800BF33
:10121000E837BD4680BD00BF00580040004402587A
:101220000004025880B5BEB000AF786007F1E40357
:1012300000221A605A609A60DA601A6107F120038E
:10124000C0220021184606F010F97B681B68714A1D
:1012500093426BD14FF002024FF00003C7E908231D
:101260000323C7F8983007F12003184602F0FEF96F
:101270000346002B01D0FFF74BFF674BD3F8E83054
:10128000654A43F40023C2F8E830634BD3F8E830F2
:1012900003F40023FB61FB695F4BD3F8E0305E4A47
:1012A00043F00103C2F8E0305B4BD3F8E03003F0C9
:1012B0000103BB61BB69584BD3F8E030564A43F099
:1012C0000403C2F8E030544BD3F8E03003F00403D9
:1012D0007B617B690123C7F8E4300223C7F8E8305B
:1012E0000023C7F8EC300023C7F8F0300823C7F814
:1012F000F43007F1E4031946484800F04BFE4FF480
:101300000063C7F8E4300223C7F8E8300023C7F8C9
:10131000EC300023C7F8F0300823C7F8F43007F1A9
:10132000E40319463E4800F035FE6EE07B681B681A
:101330003C4A934269D14FF002024FF00003C7E9E3
:1013400008230323C7F8983007F12003184602F05A
:101350008DF90346002B01D0FFF7DAFE2E4BD3F8B0
:10136000E8302D4A43F40033C2F8E8302A4BD3F872
:10137000E83003F400333B613B69274BD3F8E0309E
:10138000254A43F00103C2F8E030234BD3F8E030A4
:1013900003F00103FB60FB681F4BD3F8E0301E4AEB
:1013A00043F00803C2F8E0301B4BD3F8E03003F001
:1013B0000803BB60BB680823C7F8E4300223C7F802
:1013C000E8300023C7F8EC300023C7F8F0300723DB
:1013D000C7F8F43007F1E4031946104800F0DAFDCD
:1013E0002023C7F8E4300223C7F8E8300023C7F809
:1013F000EC300023C7F8F0300723C7F8F43007F1CA
:10140000E4031946084800F0C5FD00BFF837BD46A3
:1014100080BD00BF004C004000440258000002584C
:101420000008025800440040000C025880B400AF8D
:1014300000BFFDE780B400AF00BFFDE780B400AFA0
:1014400000BFFDE780B400AF00BFFDE780B400AF90
:1014500000BFFDE780B400AF00BFBD465DF8047B70
:10146000704780B400AF00BFBD465DF8047B704795
:1014700080B400AF00BFBD465DF8047B704780B507
:1014800000AF00F0A3FB00BF80BD80B500AF00201F
:1014900000F02EFA00BF80BD80B400AF01231846D3
:1014A000BD465DF8047B704780B582B000AF7860C0
:1014B000396006F02DF8034616221A604FF0FF330C
:1014C00018460837BD4680BD80B582B000AF786051
:1014D0004FF0FF317868FFF7E7FF00BFFDE780B509
:1014E00086B000AFF860B9607A6000237B610AE0E3
:1014F000AFF300800146BB685A1CBA60CAB21A70CA
:101500007B6901337B617A697B689A42F0DB7B6897
:1015100018461837BD4680BD80B586B000AFF8606C
:10152000B9607A6000237B6109E0BB685A1CBA602D
:101530001B78184600F05CFA7B6901337B617A699D
:101540007B689A42F1DB7B6818461837BD4680BD40
:1015500080B483B000AF78604FF0FF3318460C378B
:10156000BD465DF8047B704780B483B000AF7860FF
:1015700039603B684FF400525A60002318460C371C
:10158000BD465DF8047B704780B483B000AF7860DF
:10159000012318460C37BD465DF8047B704780B4C4
:1015A00085B000AFF860B9607A6000231846143740
:1015B000BD465DF8047B704780B586B000AF7860AB
:1015C000144A154BD31A7B617B693B61134B1B6833
:1015D000002B02D1114B124A1A60104B1A687B681B
:1015E00013443A699A4207D205F092FF03460C224F
:1015F0001A604FF0FF3309E0084B1B68FB60074B94
:101600001A687B681344054A1360FB68184618374C
:10161000BD4680BD00000824000400009C03002497
:1016200090050024DFF834D0FFF71EFA0C480D496E
:101630000D4A002302E0D458C4500433C4188C422D
:10164000F9D30A4A0A4C002301E013600432A24293
:10165000FBD305F063FFFFF79DFA704700000824F5
:1016600000000024F401002458AF0008F401002415
:1016700090050024FEE7000080B58CB000AF034663
:10168000FB710023FB62FB79002B09D0FB79012B56
:1016900006D0FB79022B03D06FF00103FB6255E00B
:1016A000FB79002B0FD12C4BD3F8E0302A4A43F0C2
:1016B0000203C2F8E030284BD3F8E03003F0020315
:1016C0007B617B6921E0FB79012B0FD1224BD3F8A1
:1016D000E030214A43F01003C2F8E0301E4BD3F84B
:1016E000E03003F010033B613B690EE01A4BD3F886
:1016F000E030194A43F00203C2F8E030164BD3F849
:10170000E03003F00203FB60FB68FB79134A32F818
:101710001330BB610123FB6100233B6203237B6227
:10172000FB790F4A52F8233007F118021146184688
:1017300000F030FCFB790A4A52F82300FB79074A93
:1017400032F813300022194600F0D4FDFB6A184627
:101750003037BD4680BD00BF00440258E8AA0008EB
:101760000C00002480B584B000AF0346FB71002359
:10177000FB60FB79002B09D0FB79012B06D0FB79AC
:10178000022B03D06FF00103FB600BE0FB79084AEA
:1017900052F82300FB79074A32F813300122194628
:1017A00000F0A8FDFB6818461037BD4680BD00BF9D
:1017B0000C000024E8AA000880B584B000AF0346FE
:1017C000FB710023FB60FB79002B09D0FB79012B17
:1017D00006D0FB79022B03D06FF00103FB600BE016
:1017E000FB79084A52F82300FB79074A32F8133094
:1017F0000022194600F07EFDFB6818461037BD46F2
:1018000080BD00BF0C000024E8AA000880B588B0A5
:1018100000AF03460A46FB711346BB712E4BD3F84B
:10182000E0302D4A43F00403C2F8E0302A4BD3F8ED
:10183000E03003F00403BB60BB684FF40053FB606F
:1018400002237B610223BB61BB79002B0CD10023F7
:101850003B61FB79214A52F8233007F10C02114613
:10186000184600F097FB31E04FF488133B61FB7999
:101870001A4A52F8233007F10C021146184600F0BC
:1018800089FBFB79DB00164A1A44FB79154951F8AC
:1018900023301946104600F02CFBFB79DB00104A80
:1018A0009818FB79104A52F823301A46002100F0AC
:1018B00001FB2820FB790D4A52F8233000221946FB
:1018C00000F0AFFA2823184600F0C5FA00231846A6
:1018D0002037BD4680BD00BF0044025818000024D8
:1018E000A0030024F0AA00081C000024200000240B
:1018F00080B582B000AF0346FB71FB79DB00044A80
:101900001344184600F00AFB00BF0837BD4680BDEF
:10191000A003002480B483B000AF0346FB7100BF76
:101920000C37BD465DF8047B7047000080B584B07D
:1019300000AF03463960FB710023FB60FB79002B8D
:1019400003D06FF00103FB6018E0FB79942202FBE7
:1019500003F30D4A1344184600F06EF8FB79942205
:1019600002FB03F3084A13443968184600F00EF8E6
:101970000346002B02D06FF00303FB60FB681846A0
:101980001037BD4680BD00BFA803002480B582B0DB
:1019900000AF78603960154B1A687B681A603B6845
:1019A0001A687B685A607B680C225A613B685B89C5
:1019B0001A467B681A613B685A687B689A603B6884
:1019C0001B891A467B68DA603B689B891A467B68EC
:1019D0009A617B684FF40042DA61786803F072FC28
:1019E000034618460837BD4680BD00BF08000024E6
:1019F00080B582B000AF7860094B1B781A469423FB
:101A000002FB03F3074A9818391D4FF47A73012239
:101A100003F0A8FC7B6818460837BD4680BD00BFB0
:101A20003C040024A803002480B500AF0020FFF789
:101A300071FF00BF80BD000080B58AB000AF786044
:101A4000274BD3F8E030264A43F00803C2F8E030D1
:101A5000234BD3F8E03003F008033B613B69204B94
:101A6000D3F8E0301E4A43F00803C2F8E0301C4BC4
:101A7000D3F8E03003F00803FB60FB68184BD3F8A1
:101A8000E830174A43F48023C2F8E830144BD3F807
:101A9000E83003F48023BB60BB684FF480737B6144
:101AA0000223BB6102233B620123FB6107237B62AC
:101AB00007F1140319460B4800F06CFA4FF4007359
:101AC0007B610223BB6107237B6207F11403194684
:101AD000044800F05FFA00BF2837BD4680BD00BF54
:101AE00000440258000C025880B582B000AF0320B9
:101AF00000F08CF901F0E4FB0246154B9B691B0AD0
:101B000003F00F031349CB5C03F01F0322FA03F326
:101B10007B600F4B9B6903F00F030E4AD35C03F00D
:101B20001F037A6822FA03F30B4A13600B4A7B689F
:101B30001360002000F014F80346002B01D00123AD
:101B400002E0FFF7EBFA002318460837BD4680BDD8
:101B500000440258D8AA0008040000240000002411
:101B600080B582B000AF7860154B1B78002B01D197
:101B7000012321E0134B1A68114B1B7819464FF4CF
:101B80007A73B3FBF1F3B2FBF3F3184600F071F98B
:101B90000346002B01D001230EE07B680F2B0AD8EF
:101BA000002279684FF0FF3000F03BF9064A7B686D
:101BB0001360002300E0012318460837BD4680BDAE
:101BC00028000024000000242400002480B400AF7A
:101BD000064B1B781A46064B1B681344044A1360D5
:101BE00000BFBD465DF8047B704700BF280000249D
:101BF0004004002480B400AF034B1B681846BD4668
:101C00005DF8047B704700BF4004002480B584B0B9
:101C100000AF7860FFF7EEFFB8607B68FB60FB68A1
:101C2000B3F1FF3F05D00A4B1B781A46FB681344FB
:101C3000FB6000BFFFF7DEFF0246BB68D31AFA68FD
:101C40009A42F7D800BF00BF1037BD4680BD00BF25
:101C50002800002480B400AF034B1B681B0C1846FF
:101C6000BD465DF8047B70470010005C80B485B011
:101C700000AF78607B6803F00703FB600B4BDB6809
:101C8000BB60BA684FF6FF031340BB60FB681A02E3
:101C9000BB681A43064B1343BB60044ABB68D3605E
:101CA00000BF1437BD465DF8047B704700ED00E0CF
:101CB0000000FA0580B400AF044BDB681B0A03F098
:101CC00007031846BD465DF8047B704700ED00E051
:101CD00080B483B000AF0346FB80B7F90630002B19
:101CE0000BDBFB8803F01F020749B7F906305B09DD
:101CF000012000FA02F241F8232000BF0C37BD4654
:101D00005DF8047B704700BF00E100E080B483B061
:101D100000AF03463960FB80B7F90630002B0ADBC1
:101D20003B68DAB20C49B7F906301201D2B20B4463
:101D300083F800230AE03B68DAB20849FB8803F025
:101D40000F03043B1201D2B20B441A7600BF0C37CA
:101D5000BD465DF8047B704700E100E000ED00E067
:101D600080B489B000AFF860B9607A60FB6803F0B6
:101D70000703FB61FB69C3F10703042B28BF04239E
:101D8000BB61FB690433062B02D9FB69033B00E00E
:101D900000237B614FF0FF32BB6902FA03F3DA43A1
:101DA000BB681A407B699A404FF0FF317B6901FAAA
:101DB00003F3D9437B680B40134318462437BD46D1
:101DC0005DF8047B7047000080B582B000AF78609A
:101DD0007B68013BB3F1807F01D301230FE00A4A06
:101DE0007B68013B53600F214FF0FF30FFF78EFF00
:101DF000054B00229A60044B07221A600023184604
:101E00000837BD4680BD00BF10E000E080B582B05D
:101E100000AF78607868FFF729FF00BF0837BD463C
:101E200080BD80B586B000AF0346B9607A60FB81A3
:101E3000FFF740FF78617A68B9687869FFF790FF2B
:101E40000246B7F90E3011461846FFF75FFF00BF94
:101E50001837BD4680BD80B582B000AF0346FB8019
:101E6000B7F906301846FFF733FF00BF0837BD4605
:101E700080BD80B582B000AF78607868FFF7A4FFBE
:101E8000034618460837BD4680BD000080B400AF49
:101E9000074B1B681B0903F00F03072B01D103231A
:101EA00000E001231846BD465DF8047B704700BF83
:101EB00000ED00E080B487B000AFF8600B467A60B8
:101EC000FB720023FB75FB68002B01D101230AE0A4
:101ED000FB7A002B03D1FB687A685A6002E0012389
:101EE000FB7500BFFB7D18461C37BD465DF8047BC3
:101EF000704780B483B000AF786039607B68002B96
:101F000001D1012303E07B683A681A600023184678
:101F10000C37BD465DF8047B7047000080B586B085
:101F200000AF78607B681B681B0C03F003033B6108
:101F30007B681B6803F01F03012202FA03F3FB60B6
:101F4000FFF7A4FF0346032B05D13B691A010F4B92
:101F500013447B6104E03B691A010D4B13447B6120
:101F60007B691B68FA681340BB60BB68002B09D013
:101F70007B69FA681A607B685B68002B02D07B681B
:101F80005B68984700BF1837BD4680BD8800005881
:101F9000C800005880B489B000AF78603960002371
:101FA000FB61894B7B6194E13B681A680121FB6905
:101FB00001FA03F313403B613B69002B00F086817B
:101FC0003B685B6803F00303012B05D03B685B684B
:101FD00003F00303022B30D17B689B68BB61FB6974
:101FE0005B00032202FA03F3DB43BA691340BB61CF
:101FF0003B68DA68FB695B0002FA03F3BA691343D2
:10200000BB617B68BA699A607B685B68BB610122CF
:10201000FB6902FA03F3DB43BA691340BB613B6817
:102020005B681B0903F00102FB6902FA03F3BA695A
:102030001343BB617B68BA695A603B685B6803F015
:102040000303032B17D07B68DB68BB61FB695B0074
:10205000032202FA03F3DB43BA691340BB613B6816
:102060009A68FB695B0002FA03F3BA691343BB6128
:102070007B68BA69DA603B685B6803F00303022B94
:1020800023D1FB69DA087B68083253F82230BB6140
:10209000FB6903F007039B000F2202FA03F3DB4303
:1020A000BA691340BB613B681A69FB6903F0070317
:1020B0009B0002FA03F3BA691343BB61FB69DA08B8
:1020C0007B680832B96943F822107B681B68BB61E2
:1020D000FB695B00032202FA03F3DB43BA69134096
:1020E000BB613B685B6803F00302FB695B0002FABB
:1020F00003F3BA691343BB617B68BA691A603B6832
:102100005B6803F44033002B00F0E0802F4BD3F8E2
:10211000F4302E4A43F00203C2F8F4302B4BD3F8CC
:10212000F43003F00203FB60FB68294AFB699B085B
:10213000023352F82330BB61FB6903F003039B00B9
:102140000F2202FA03F3DB43BA691340BB617B68D9
:10215000204A934252D07B681F4A934231D07B6819
:102160001E4A93422BD07B681D4A934225D07B6840
:102170001C4A93421FD07B681B4A934219D07B684C
:102180001A4A934213D07B68194A93420DD07B6858
:10219000184A934207D07B68174A934201D109231A
:1021A0002DE00A232BE0082329E0072327E006235C
:1021B00025E0052323E0042321E003231FE002237D
:1021C0001DE001231BE000BF8000005800440258BE
:1021D0000004005800000258000402580008025889
:1021E000000C02580010025800140258001802583F
:1021F000001C025800200258002402580023FA69EB
:1022000002F0030292009340BA691343BB6138495C
:10221000FB699B080233BA6941F823204FF0B043B1
:102220001B68BB613B69DB43BA691340BB613B6818
:102230005B6803F48013002B03D0BA693B69134336
:10224000BB614FF0B042BB6913604FF0B0435B68B5
:10225000BB613B69DB43BA691340BB613B685B68A8
:1022600003F40013002B03D0BA693B691343BB612D
:102270004FF0B042BB6953607B695B68BB613B69EF
:10228000DB43BA691340BB613B685B6803F400330E
:10229000002B03D0BA693B691343BB617B69BA6900
:1022A0005A607B691B68BB613B69DB43BA691340B9
:1022B000BB613B685B6803F48033002B03D0BA69D1
:1022C0003B691343BB617B69BA691A60FB690133DF
:1022D000FB613B681A68FB6922FA03F3002B7FF469
:1022E00063AE00BF00BF2437BD465DF8047B704776
:1022F0000004005880B483B000AF78600B467B8048
:1023000013467B707B78002B03D07A887B689A61B8
:1023100003E07B881A047B689A6100BF0C37BD46D6
:102320005DF8047B7047000080B483B000AF786034
:10233000084A7B68203352F82330074A934201D180
:10234000002300E0012318460C37BD465DF8047BEE
:10235000704700BF006402580003008080B483B05F
:1023600000AF7860396006493B6843F440727B688F
:1023700041F8232000BF0C37BD465DF8047B704751
:102380000064025880B582B000AF78607B68002B93
:1023900001D101238BE07B6893F84130DBB2002B45
:1023A00006D17B68002283F840207868FEF7D0FED3
:1023B0007B68242283F841207B681B681A687B684D
:1023C0001B6822F001021A607B685A687B681B68F0
:1023D00022F070621A617B681B689A687B681B68D0
:1023E00022F400429A607B68DB68012B07D17B688E
:1023F0009A687B681B6842F400429A6006E07B683A
:102400009A687B681B6842F404429A607B68DB68C8
:10241000022B08D17B681B685A687B681B6842F4F2
:1024200000625A6007E07B681B685A687B681B681B
:1024300022F400625A607B681B6859687B681A68DE
:102440001D4B0B4353607B681B68DA687B681B6815
:1024500022F40042DA607B681A697B685B6942EAB1
:1024600003017B689B691A027B681B680A43DA6078
:102470007B68D9697B681A6A7B681B680A431A60A3
:102480007B681B681A687B681B6842F001021A604F
:102490007B6800225A647B68202283F841207B6895
:1024A00000221A637B68002283F84220002318462A
:1024B0000837BD4680BD00BF0080000280B483B0F5
:1024C00000AF786039607B6893F84130DBB2202B35
:1024D00038D17B6893F84030012B01D1022332E0E0
:1024E0007B68012283F840207B68242283F8412006
:1024F0007B681B681A687B681B6822F001021A60FF
:102500007B681B681A687B681B6822F480521A601B
:102510007B681B6819687B681B683A680A431A6005
:102520007B681B681A687B681B6842F001021A60AE
:102530007B68202283F841207B68002283F84020BA
:10254000002300E0022318460C37BD465DF8047BEB
:10255000704780B485B000AF786039607B6893F8CD
:102560004130DBB2202B39D17B6893F84030012B0E
:1025700001D1022333E07B68012283F840207B688D
:10258000242283F841207B681B681A687B681B68DB
:1025900022F001021A607B681B681B68FB60FB6805
:1025A00023F47063FB603B681B02FA681343FB6013
:1025B0007B681B68FA681A607B681B681A687B680E
:1025C0001B6842F001021A607B68202283F84120D8
:1025D0007B68002283F84020002300E00223184695
:1025E0001437BD465DF8047B7047000080B584B0A9
:1025F00000AF7860294BDB6803F00703062B0AD095
:10260000264BDB6803F03F037A689A4201D001232E
:1026100040E000233EE0214BDB6823F03F021F49EE
:102620007B681343CB60FFF7E5FAF86009E0FFF73A
:10263000E1FA0246FB68D31AB3F57A7F01D9012388
:1026400028E0164B5B6803F40053B3F5005FEED14E
:102650007B681E2B08D07B682E2B05D07B681D2B3A
:1026600002D07B682D2B14D1FFF7C4FAF86009E083
:10267000FFF7C0FA0246FB68D31AB3F57A7F01D997
:10268000012307E0054BDB6803F48033B3F5803F9B
:10269000EED1002318461037BD4680BD00480258D1
:1026A00080B58CB000AF78607B68002B02D101232D
:1026B00000F048BC7B681B6803F00103002B00F0AE
:1026C0008880994B1B6903F03803FB62964B9B6A29
:1026D000BB62FB6A102B07D0FB6A182B11D1BB6AB7
:1026E00003F00303022B0CD18F4B1B6803F4003360
:1026F000002B6DD07B685B68002B69D1012300F053
:1027000021BC7B685B68B3F5803F06D1864B1B68B4
:10271000854A43F4803313602EE07B685B68002BAE
:102720000CD1814B1B68804A23F4803313607E4BAD
:102730001B687D4A23F4802313601DE07B685B687F
:10274000B3F5A02F0CD1784B1B68774A43F4802354
:102750001360754B1B68744A43F4803313600BE0BD
:10276000714B1B68704A23F4803313606E4B1B68F7
:102770006D4A23F4802313607B685B68002B13D0C1
:10278000FFF738FA786208E0FFF734FA02467B6A0E
:10279000D31A642B01D90323D4E3634B1B6803F4DE
:1027A0000033002BF0D014E0FFF724FA786208E041
:1027B000FFF720FA02467B6AD31A642B01D9032360
:1027C000C0E3594B1B6803F40033002BF0D100E049
:1027D00000BF7B681B6803F00203002B00F0CA8077
:1027E000514B1B6903F038033B624F4B9B6AFB6103
:1027F0003B6A002B07D03B6A182B56D1FB6903F0CC
:102800000303002B51D1484B1B6803F00403002B3A
:1028100005D07B68DB68002B01D1012392E3424B9A
:102820001B6823F019027B68DB683F4913430B6088
:10283000FFF7E0F9786208E0FFF7DCF902467B6A0F
:10284000D31A022B01D903237CE3374B1B6803F017
:102850000403002BF0D0FFF7FDF9034641F2030219
:10286000934217D87B681B69402B08D12E4B5B68BD
:1028700023F47C332C4A43F4003353607AE02A4B30
:102880005B6823F47C327B681B691B032649134376
:102890004B606FE0244B5B6823F0FE427B681B6952
:1028A0001B06214913434B6064E07B68DB68002B07
:1028B00047D01D4B1B6823F019027B68DB681A495F
:1028C00013430B60FFF796F9786208E0FFF792F97F
:1028D00002467B6AD31A022B01D9032332E3124B3F
:1028E0001B6803F00403002BF0D0FFF7B3F9034695
:1028F00041F20302934219D87B681B69402B08D12F
:10290000094B5B6823F47C33074A43F4003353607C
:1029100030E0054B5B6823F47C327B681B691B034A
:10292000014913434B6025E0004402589A4B5B6811
:1029300023F0FE427B681B691B06974913434B60DB
:1029400018E0954B1B68944A23F001031360FFF7CE
:1029500051F9786208E0FFF74DF902467B6AD31A15
:10296000022B01D90323EDE28B4B1B6803F0040318
:10297000002BF0D17B681B6803F01003002B00F0E4
:10298000A980854B1B6903F03803BB61824B9B6AAE
:102990007B61BB69082B07D0BB69182B3AD17B69D7
:1029A00003F00303012B35D17B4B1B6803F48073C9
:1029B000002B05D07B68DB69802B01D00123C1E2AD
:1029C000FFF748F9034641F20302934217D87B68A8
:1029D0001B6A202B08D1704B5B6823F0F8436E4ACA
:1029E00043F08043536075E06B4B5B6823F0F84223
:1029F0007B681B6A9B06684913434B606AE0664B21
:102A0000DB6823F07C527B681B6A1B066249134318
:102A1000CB605FE07B68DB69002B42D05E4B1B68BC
:102A20005D4A43F080031360FFF7E4F8786208E042
:102A3000FFF7E0F802467B6AD31A022B01D9032381
:102A400080E2554B1B6803F48073002BF0D0FFF736
:102A500001F9034641F20302934217D87B681B6ACF
:102A6000202B08D14C4B5B6823F0F8434A4A43F0D3
:102A7000804353602EE0484B5B6823F0F8427B684C
:102A80001B6A9B06444913434B6023E0424BDB68BF
:102A900023F07C527B681B6A1B063F491343CB60C3
:102AA00018E03D4B1B683C4A23F080031360FFF79E
:102AB000A1F8786208E0FFF79DF802467B6AD31A16
:102AC000022B01D903233DE2334B1B6803F48073CF
:102AD000002BF0D17B681B6803F00803002B36D075
:102AE0007B685B69002B19D02B4B5B6F2A4A43F044
:102AF00001035367FFF77EF8786208E0FFF77AF882
:102B000002467B6AD31A022B01D903231AE2224B15
:102B10005B6F03F00203002BF0D018E01E4B5B6FDD
:102B20001D4A23F001035367FFF764F8786208E059
:102B3000FFF760F802467B6AD31A022B01D9032300
:102B400000E2154B5B6F03F00203002BF0D17B68B2
:102B50001B6803F02003002B39D07B689B69002B96
:102B60001CD00D4B1B680C4A43F480531360FFF7D5
:102B700041F8786208E0FFF73DF802467B6AD31A15
:102B8000022B01D90323DDE1034B1B6803F400533F
:102B9000002BF0D01BE000BF004402589B4B1B6889
:102BA0009A4A23F480531360FFF724F8786208E010
:102BB000FFF720F802467B6AD31A022B01D90323C0
:102BC000C0E1924B1B6803F40053002BF0D17B68EB
:102BD0001B6803F00403002B00F081808C4B1B6802
:102BE0008B4A43F480731360FFF704F8786208E0BF
:102BF000FFF700F802467B6AD31A642B01D903233E
:102C0000A0E1834B1B6803F48073002BF0D07B683A
:102C10009B68012B06D17D4B1B6F7C4A43F001035F
:102C200013672DE07B689B68002B0CD1774B1B6FE3
:102C3000764A23F001031367744B1B6F734A23F02A
:102C4000040313671CE07B689B68052B0CD16F4B5A
:102C50001B6F6E4A43F0040313676C4B1B6F6B4A88
:102C600043F0010313670BE0684B1B6F674A23F0C7
:102C700001031367654B1B6F644A23F0040313675A
:102C80007B689B68002B15D0FEF7B4FF78620AE0E2
:102C9000FEF7B0FF02467B6AD31A41F288329342B4
:102CA00001D903234EE1594B1B6F03F00203002BA4
:102CB000EED014E0FEF79EFF78620AE0FEF79AFF7E
:102CC00002467B6AD31A41F28832934201D9032328
:102CD00038E14E4B1B6F03F00203002BEED17B68F3
:102CE0005B6A002B00F02D81484B1B6903F0380311
:102CF000182B00F0BD807B685B6A022B40F09E8041
:102D0000424B1B68414A23F080731360FEF772FF49
:102D1000786208E0FEF76EFF02467B6AD31A022B48
:102D200001D903230EE1394B1B6803F00073002B1C
:102D3000F0D1364B9A6A374B13407A68916A7A68B9
:102D4000D26A12010A43314913438B627B681B6BC1
:102D5000013BC3F308027B685B6B013B5B029BB2E8
:102D60001A437B689B6B013B1B0403F4FE031A436D
:102D70007B68DB6B013B1B0603F0FE4323491343D7
:102D80000B63224BDB6A214A23F00103D3621F4B02
:102D90005A6B214B13407A68926CD2001B49134343
:102DA0004B631A4BDB6A23F00C027B681B6C1749E0
:102DB0001343CB62154BDB6A23F002027B685B6C2A
:102DC00012491343CB62114BDB6A104A43F4803340
:102DD000D3620E4BDB6A0D4A43F40033D3620B4BD4
:102DE000DB6A0A4A43F48023D362084BDB6A074A52
:102DF00043F00103D362054B1B68044A43F0807320
:102E00001360FEF7F7FE786211E000BF004402583D
:102E1000004802580CFCFFFF0700FFFFFEF7EAFE28
:102E200002467B6AD31A022B01D903238AE0474B5F
:102E30001B6803F00073002BF0D082E0434B1B684B
:102E4000424A23F080731360FEF7D4FE786208E0F4
:102E5000FEF7D0FE02467B6AD31A022B01D9032368
:102E600070E03A4B1B6803F00073002BF0D168E070
:102E7000364B9B6A3B61354B1B6BFB607B685B6A27
:102E8000012B31D03B6903F003027B689B6A9A42B5
:102E90002AD13B691B0903F03F027B68DB6A9A4237
:102EA00022D1FB68C3F308027B681B6B013B9A428B
:102EB0001AD1FB685B0A03F07F027B685B6B013B06
:102EC0009A4211D1FB681B0C03F07F027B689B6B5D
:102ED000013B9A4208D1FB681B0E03F07F027B681E
:102EE000DB6B013B9A4201D001232BE0174B5B6B5C
:102EF000DB08C3F30C033B617B689B6C3A699A4225
:102F00001FD0124BDB6A114A23F00103D362FEF794
:102F100071FE786200BFFEF76DFE02467B6A934247
:102F2000F9D00A4B5A6B0A4B13407A68926CD20064
:102F3000064913434B63054BDB6A044A43F0010324
:102F4000D362002318463037BD4680BD0044025886
:102F50000700FFFF80B586B000AF786039607B68FE
:102F6000002B01D101239CE18A4B1B6803F00F0366
:102F70003A689A4210D9874B1B6823F00F028549A3
:102F80003B6813430B60834B1B6803F00F033A68E5
:102F90009A4201D0012384E17B681B6803F004039B
:102FA000002B10D07B681A697B4B9B6903F0700380
:102FB0009A4208D9784B9B6923F070027B681B69A1
:102FC000754913438B617B681B6803F00803002B72
:102FD00010D07B685A69704BDB6903F070039A422A
:102FE00008D96D4BDB6923F070027B685B696A4925
:102FF0001343CB617B681B6803F01003002B10D0D8
:103000007B689A69644BDB6903F4E0639A4208D9F0
:10301000614BDB6923F4E0627B689B695E49134383
:10302000CB617B681B6803F02003002B10D07B680A
:10303000DA69594B1B6A03F070039A4208D9564B60
:103040001B6A23F070027B68DB69534913430B62F0
:103050007B681B6803F00203002B10D07B68DA68E2
:103060004D4B9B6903F00F039A4208D94A4B9B6969
:1030700023F00F027B68DB68474913438B617B6851
:103080001B6803F00103002B55D0434B9B6923F4CD
:1030900070627B689B68404913438B617B685B6807
:1030A000022B07D13C4B1B6803F40033002B21D1CA
:1030B0000123F6E07B685B68032B07D1364B1B6866
:1030C00003F00073002B15D10123EAE07B685B68F5
:1030D000012B07D1304B1B6803F48073002B09D1FF
:1030E0000123DEE02C4B1B6803F00403002B01D10D
:1030F0000123D6E0284B1B6923F007027B685B683D
:10310000254913430B61FEF775FD78610AE0FEF770
:1031100071FD02467B69D31A41F28832934201D98C
:103120000323BEE01C4B1B6903F038027B685B681D
:10313000DB009A42EBD17B681B6803F00203002B93
:1031400010D07B68DA68144B9B6903F00F039A4236
:1031500008D2114B9B6923F00F027B68DB680E4994
:1031600013438B610B4B1B6803F00F033A689A42C1
:1031700014D2084B1B6823F00F0206493B68134327
:103180000B60044B1B6803F00F033A689A4205D0AA
:10319000012386E000200052004402587B681B682F
:1031A00003F00403002B10D07B681A693F4B9B6926
:1031B00003F070039A4208D23C4B9B6923F07002E3
:1031C0007B681B69394913438B617B681B6803F07B
:1031D0000803002B10D07B685A69344BDB6903F07D
:1031E00070039A4208D2314BDB6923F070027B688E
:1031F0005B692E491343CB617B681B6803F01003A6
:10320000002B10D07B689A69284BDB6903F4E063DC
:103210009A4208D2254BDB6923F4E0627B689B6904
:1032200022491343CB617B681B6803F02003002B0A
:1032300010D07B68DA691D4B1B6A03F070039A4259
:1032400008D21A4B1B6A23F070027B68DB691749AE
:1032500013430B6200F034F80246144B9B691B0ABF
:1032600003F00F031249CB5C03F01F0322FA03F3B0
:103270003B610E4B9B6903F00F030D4AD35C03F0D7
:103280001F033A6922FA03F30A4A13600A4A3B69A8
:1032900013600A4B1B681846FEF762FC0346FB737B
:1032A000FB7B18461837BD4680BD00BF004402585E
:1032B000D8AA0008040000240000002424000024F0
:1032C00080B489B000AFB34B1B6903F03803182BEF
:1032D00000F2558101A252F823F000BF41330008EB
:1032E0007F3500087F3500087F3500087F350008EE
:1032F0007F3500087F3500087F35000867330008F8
:103300007F3500087F3500087F3500087F350008CD
:103310007F3500087F3500087F3500086D330008D1
:103320007F3500087F3500087F3500087F350008AD
:103330007F3500087F3500087F35000873330008AB
:10334000944B1B6803F02003002B09D0914B1B68A2
:10335000DB0803F00303904A22FA03F3BB6111E197
:103360008D4BBB610EE18D4BBB610BE18C4BBB61A7
:1033700008E1884B9B6A03F003037B61854B9B6AE2
:103380001B0903F03F033B61824BDB6A03F001033F
:10339000FB60804B5B6BDB08C3F30C03FA6802FB3A
:1033A00003F307EE903AF8EE677AC7ED027A3B69CD
:1033B000002B00F0E1807B69022B00F083807B69A9
:1033C000022B00F2A1807B69002B03D07B69012BCB
:1033D00056D099E06F4B1B6803F02003002B2DD0D3
:1033E0006C4B1B68DB0803F003036B4A22FA03F300
:1033F0007B607B6807EE903AF8EE676A3B6907EE00
:10340000903AF8EE677A86EEA77A624B1B6BC3F3AD
:10341000080307EE903AF8EE676A97ED026ADFED6F
:10342000615AC6EE257A76EEA77AF7EE006A77EE55
:10343000A67A67EE277AC7ED077A87E03B6907EE41
:10344000903AF8EE677ADFED586A86EEA77A514B2C
:103450001B6BC3F3080307EE903AF8EE676A97ED2B
:10346000026ADFED505AC6EE257A76EEA77AF7EEBD
:10347000006A77EEA67A67EE277AC7ED077A65E0ED
:103480003B6907EE903AF8EE677ADFED486A86EE20
:10349000A77A404B1B6BC3F3080307EE903AF8EE94
:1034A000676A97ED026ADFED3F5AC6EE257A76EE3F
:1034B000A77AF7EE006A77EEA67A67EE277AC7ED6D
:1034C000077A43E03B6907EE903AF8EE677ADFED62
:1034D000386A86EEA77A2F4B1B6BC3F3080307EEFF
:1034E000903AF8EE676A97ED026ADFED2E5AC6EE63
:1034F000257A76EEA77AF7EE006A77EEA67A67EE7F
:10350000277AC7ED077A21E03B6907EE903AF8EE9B
:10351000677ADFED266A86EEA77A1E4B1B6BC3F334
:10352000080307EE903AF8EE676A97ED026ADFED5E
:103530001D5AC6EE257A76EEA77AF7EE006A77EE88
:10354000A67A67EE277AC7ED077A00BF114B1B6B8F
:103550005B0A03F07F0301333B603B6807EE903A60
:10356000B8EE677AD7ED076AC6EE877AFCEEE77A9F
:1035700017EE903ABB6105E00023BB6102E0074B08
:10358000BB6100BFBB6918462437BD465DF8047BAC
:10359000704700BF004402580090D00300093D006E
:1035A00040787D01000000460024744C0024744AD9
:1035B00020BCBE4B80B582B000AFFFF781FE024653
:1035C000104B9B691B0A03F00F030F49CB5C03F000
:1035D0001F0322FA03F37B600A4B9B6903F00F037E
:1035E000094AD35C03F01F037A6822FA03F3074AFF
:1035F0001360074A7B681360044B1B681846083742
:10360000BD4680BD00440258D8AA0008040000242A
:103610000000002480B500AFFFF7CCFF0246064B48
:10362000DB691B0903F007030449CB5C03F01F03AC
:1036300022FA03F3184680BD00440258D8AA0008B5
:1036400080B500AFFFF7B6FF0246064BDB691B0AE9
:1036500003F007030449CB5C03F01F0322FA03F3D2
:10366000184680BD00440258D8AA00082DE9B04F82
:10367000CAB000AFC7F81401002387F82731002330
:1036800087F82631D7F81431D3E9002302F000641B
:10369000002554EA050349D0D7F814319B6EB3F5E1
:1036A000401F2FD0B3F5401F28D8B3F5001F1AD004
:1036B000B3F5001F22D8002B03D0B3F5801F07D02D
:1036C0001CE0B84BDB6AB74A43F40033D3621AE01C
:1036D000D7F8143108330221184601F08FFC034655
:1036E00087F827310FE0D7F8143128330221184624
:1036F00001F036FD034687F8273104E0012387F8FF
:10370000273100E000BF97F82731002B0AD1A54BE5
:103710001B6D23F44011D7F814319B6EA14A0B4363
:10372000136503E097F8273187F82631D7F814316D
:10373000D3E9002302F480784FF0000958EA090326
:1037400047D0D7F814319B6D042B2AD801A252F828
:1037500023F000BF69370008773700088D3700086D
:10376000AB370008AB3700088E4BDB6A8D4A43F459
:103770000033D3621AE0D7F8143108330021184619
:1037800001F03CFC034687F827310FE0D7F81431ED
:1037900028330021184601F0E3FC034687F827315F
:1037A00004E0012387F8273100E000BF97F82731B4
:1037B000002B0AD17B4B1B6D23F00701D7F8143186
:1037C0009B6D784A0B43136503E097F8273187F820
:1037D0002631D7F81431D3E9002302F4007A4FF0F0
:1037E000000B5AEA0B034CD0D7F81431DB6DB3F55C
:1037F000807F30D0B3F5807F29D8C02B2DD0C02B4F
:1038000025D8802B18D0802B21D8002B02D0402B1C
:1038100007D01CE0634BDB6A624A43F40033D36297
:103820001CE0D7F8143108330021184601F0E6FBFC
:10383000034687F8273111E0D7F8143128330021E7
:10384000184601F08DFC034687F8273106E0012376
:1038500087F8273102E000BF00E000BF97F827316A
:10386000002B0AD14F4B1B6D23F4E071D7F81431B4
:10387000DB6D4C4A0B43136503E097F8273187F85B
:103880002631D7F81431D3E9002302F48063C7F856
:1038900008310023C7F80C31D7E942120B46134315
:1038A00053D0D7F81431D3F8A830B3F5000F35D082
:1038B000B3F5000F2ED8B3F5C00F31D0B3F5C00F5C
:1038C00028D8B3F5800F1AD0B3F5800F22D8002B7B
:1038D00003D0B3F5001F07D01CE0324BDB6A314A3E
:1038E00043F40033D3621CE0D7F8143108330021CD
:1038F000184601F083FB034687F8273111E0D7F81B
:10390000143128330021184601F02AFC034687F8B9
:10391000273106E0012387F8273102E000BF00E0ED
:1039200000BF97F82731002B0BD11E4B9B6D23F462
:103930006001D7F81431D3F8A8301A4A0B439365C5
:1039400003E097F8273187F82631D7F81431D3E907
:10395000002302F40063C7F800310023C7F80431E4
:10396000D7E940120B46134356D0D7F81431D3F899
:10397000AC30B3F1806F38D0B3F1806F31D8B3F190
:10398000407F34D0B3F1407F2BD8B3F1007F1DD0FE
:10399000B3F1007F25D8002B06D0B3F1807F0AD089
:1039A0001FE000BF00440258A24BDB6AA14A43F467
:1039B0000033D3621CE0D7F81431083300211846D5
:1039C00001F01CFB034687F8273111E0D7F81431CA
:1039D00028330021184601F0C3FB034687F827313E
:1039E00006E0012387F8273102E000BF00E000BFB6
:1039F00097F82731002B0BD18E4B9B6D23F0E061A4
:103A0000D7F81431D3F8AC308A4A0B43936503E0FE
:103A100097F8273187F82631D7F81431D3E90023F6
:103A200002F00073C7F8F8300023C7F8FC30D7E97C
:103A30003E120B4613433AD0D7F81431DB6C302BCF
:103A40001FD0302B19D8202B0CD0202B15D8002BB1
:103A500019D0102B11D1774BDB6A764A43F400332F
:103A6000D36211E0D7F8143108330221184601F06F
:103A7000C5FA034687F8273106E0012387F8273186
:103A800002E000BF00E000BF97F82731002B0AD109
:103A9000684BDB6C23F03001D7F81431DB6C654ADE
:103AA0000B43D36403E097F8273187F82631D7F822
:103AB0001431D3E9002302F48053C7F8F030002317
:103AC000C7F8F430D7E93C120B46134351D0D7F86E
:103AD00014311B6EB3F5804F35D0B3F5804F2ED81F
:103AE000B3F5405F31D0B3F5405F28D8B3F5005F40
:103AF0001AD0B3F5005F22D8002B03D0B3F5805F56
:103B000007D01CE04B4BDB6A4A4A43F40033D362D4
:103B10001CE0D7F8143108330021184601F06EFA82
:103B2000034687F8273111E0D7F8143128330021F4
:103B3000184601F015FB034687F8273106E00123FC
:103B400087F8273102E000BF00E000BF97F8273177
:103B5000002B0AD1374B1B6D23F4E041D7F8143109
:103B60001B6E344A0B43136503E097F8273187F83F
:103B70002631D7F81431D3E9002302F40053C7F8F3
:103B8000E8300023C7F8EC30D7E93A120B4613436C
:103B900056D0D7F814315B6EB3F5A02F33D0B3F500
:103BA000A02F2CD8B3F5802F2FD0B3F5802F26D897
:103BB000B3F5403F2BD0B3F5403F20D8B3F5003FDD
:103BC00012D0B3F5003F1AD8002B22D0B3F5803FB6
:103BD00015D1D7F8143108330121184601F00EFA37
:103BE000034687F8273115E0D7F81431283301212F
:103BF000184601F0B5FA034687F827310AE0012399
:103C000087F8273106E000BF04E000BF02E000BFF4
:103C100000E000BF97F82731002B0DD1054B1B6D3D
:103C200023F4E021D7F814315B6E024A0B4313658D
:103C300006E000BF0044025897F8273187F8263184
:103C4000D7F81431D3E9002302F48043C7F8E030F9
:103C50000023C7F8E430D7E938120B46134355D098
:103C6000D7F81431D3F8B030B3F1A04F33D0B3F15B
:103C7000A04F2CD8B3F1804F2FD0B3F1804F26D86E
:103C8000B3F1405F2BD0B3F1405F20D8B3F1005FB8
:103C900012D0B3F1005F1AD8002B22D0B3F1805FAD
:103CA00015D1D7F8143108330121184601F0A6F9CF
:103CB000034687F8273115E0D7F81431283301215E
:103CC000184601F04DFA034687F827310AE0012330
:103CD00087F8273106E000BF04E000BF02E000BF24
:103CE00000E000BF97F82731002B0BD1A34B9B6D51
:103CF00023F0E041D7F81431D3F8B0309F4A0B439A
:103D0000936503E097F8273187F82631D7F8143107
:103D1000D3E9002302F40043C7F8D8300023C7F8E2
:103D2000DC30D7E936120B46134337D0D7F81431BD
:103D30001B6FB3F1005F0ED0B3F1005F16D8002BFC
:103D400018D0B3F1805F11D18C4BDB6A8B4A43F4FE
:103D50000033D3620FE0D7F814310833012118463D
:103D600001F04CF9034687F8273104E0012387F876
:103D7000273100E000BF97F82731002B0AD17F4B95
:103D80001B6D23F04051D7F814311B6F7B4A0B4356
:103D9000136503E097F8273187F82631D7F81431F7
:103DA000D3E9002302F08073C7F8D0300023C7F8AE
:103DB000D430D7E934120B46134339D0D7F8143135
:103DC0009B6C032B1CD801A252F823F0093E00087B
:103DD000DD3D0008EB3D0008093E0008674BDB6A4B
:103DE000664A43F40033D3620FE0D7F81431083346
:103DF0000221184601F002F9034687F8273104E052
:103E0000012387F8273100E000BF97F82731002B06
:103E10000AD15A4BDB6C23F00301D7F814319B6CA9
:103E2000564A0B43D36403E097F8273187F82631CD
:103E3000D7F81431D3E9002302F48003C7F8C8305F
:103E40000023C7F8CC30D7E932120B46134300F0F9
:103E50009F804B4B1B684A4A43F480731360FDF705
:103E6000C9FEC7F820010BE0FDF7C4FE0246D7F8F3
:103E70002031D31A642B03D9032387F8273105E0B7
:103E80003F4B1B6803F48073002BEDD097F827316C
:103E9000002B79D1394B1A6FD7F81431D3F8B430DD
:103EA000534003F44073002B15D0344B1B6F23F4A5
:103EB0004073C7F81C31314B1B6F304A43F48033D9
:103EC00013672E4B1B6F2D4A23F4803313672B4A45
:103ED000D7F81C311367D7F81431D3F8B430B3F5E1
:103EE000807F18D1FDF786FEC7F820010DE0FDF7B1
:103EF00081FE0246D7F82031D21A41F288339A4225
:103F000003D9032387F8273105E01C4B1B6F03F00F
:103F10000203002BEBD097F82731002B29D1D7F8DB
:103F20001431D3F8B43003F44073B3F5407F0ED1AD
:103F3000124B1B6923F47C51D7F81431D3F8B430F9
:103F40001A09104B13400D4A0B43136105E00B4B4C
:103F50001B690A4A23F47C531361084B196FD7F885
:103F60001431D3F8B430C3F30B03044A0B43136783
:103F70000EE097F8273187F8263109E0004402580F
:103F800000480258CFFFFF0097F8273187F8263105
:103F9000D7F81431D3E9002302F00103C7F8C03089
:103FA0000023C7F8C430D7E930120B46134300F0A2
:103FB0008980D7F81431DB6F282B6BD801A252F817
:103FC00023F000BF9D400008954000089540000880
:103FD000954000089540000895400008954000086D
:103FE0009540000869400008954000089540000889
:103FF000954000089540000895400008954000084D
:10400000954000087F400008954000089540000852
:10401000954000089540000895400008954000082C
:10402000954000089D400008954000089540000814
:10403000954000089540000895400008954000080C
:10404000954000089D4000089540000895400008F4
:1040500095400008954000089540000895400008EC
:10406000954000089D400008D7F81431083301211D
:10407000184600F0C3FF034687F827310FE0D7F852
:10408000143128330121184601F06AF8034687F8F5
:10409000273104E0012387F8273100E000BF97F8BB
:1040A0002731002B0AD1BF4B5B6D23F03801D7F8C5
:1040B0001431DB6FBB4A0B43536503E097F827319C
:1040C00087F82631D7F81431D3E9002302F0020330
:1040D000C7F8B8300023C7F8BC30D7E92E120B461A
:1040E000134341D0D7F814319B6F052B24D801A27C
:1040F00052F823F0414100080D4100082341000817
:10410000414100084141000841410008D7F81431FD
:1041100008330121184600F071FF034687F8273164
:104120000FE0D7F8143128330121184601F018F8B0
:10413000034687F8273104E0012387F8273100E0A0
:1041400000BF97F82731002B0AD1964B5B6D23F007
:104150000701D7F814319B6F924A0B43536503E074
:1041600097F8273187F82631D7F81431D3E900239F
:1041700002F00403C7F8B0300023C7F8B430D7E921
:104180002C120B46134344D0D7F81431D3F8943093
:10419000052B25D801A252F823F000BFE941000801
:1041A000B5410008CB410008E9410008E941000899
:1041B000E9410008D7F8143108330121184600F00E
:1041C0001DFF034687F827310FE0D7F81431283355
:1041D0000121184600F0C4FF034687F8273104E0A8
:1041E000012387F8273100E000BF97F82731002B23
:1041F0000BD16C4B9B6D23F00701D7F81431D3F82A
:104200009430684A0B43936503E097F8273187F8A9
:104210002631D7F81431D3E9002302F02003C7F880
:10422000A8300023C7F8AC30D7E92A120B46134355
:1042300055D0D7F81431D3F89030B3F1A04F33D024
:10424000B3F1A04F2CD8B3F1804F2FD0B3F1804FF2
:1042500026D8B3F1405F2BD0B3F1405F20D8B3F143
:10426000005F12D0B3F1005F1AD8002B22D0B3F157
:10427000805F15D1D7F8143108330021184600F0BB
:10428000BDFE034687F8273115E0D7F814312833EF
:104290000221184600F064FF034687F827310AE040
:1042A000012387F8273106E000BF04E000BF02E0E9
:1042B00000BF00E000BF97F82731002B0BD1394B2E
:1042C0005B6D23F0E041D7F81431D3F89030354AD4
:1042D0000B43536503E097F8273187F82631D7F869
:1042E0001431D3E9002302F04003C7F8A0300023C3
:1042F000C7F8A430D7E928120B46134358D0D7F893
:104300001431D3F89C30B3F5A05F33D0B3F5A05F80
:104310002CD8B3F5805F2FD0B3F5805F26D8B3F5E6
:10432000406F2BD0B3F5406F20D8B3F5006F12D09B
:10433000B3F5006F1AD8002B22D0B3F5806F15D1DA
:10434000D7F8143108330021184600F057FE034611
:1043500087F8273115E0D7F81431283302211846A1
:1043600000F0FEFE034687F827310AE0012387F8B4
:10437000273106E000BF04E000BF02E000BF00E01C
:1043800000BF97F82731002B0ED1064B9B6D23F40D
:10439000E051D7F81431D3F89C30024A0B439365AF
:1043A00006E000BF0044025897F8273187F826310D
:1043B000D7F81431D3E9002302F08003C7F898300E
:1043C0000023C7F89C30D7E926120B46134355D07B
:1043D000D7F81431D3F8A030B3F5204F33D0B3F56C
:1043E000204F2CD8B3F5004F2FD0B3F5004F26D86F
:1043F000B3F5C04F2BD0B3F5C04F20D8B3F5804FE5
:1044000012D0B3F5804F1AD8002B22D0B3F5005F3D
:1044100015D1D7F8143108330021184600F0EEFD0D
:10442000034687F8273115E0D7F8143128330221E5
:10443000184600F095FE034687F827310AE001236D
:1044400087F8273106E000BF04E000BF02E000BFAC
:1044500000E000BF97F82731002B0BD1A14B9B6DDB
:1044600023F46041D7F81431D3F8A0309D4A0B43B0
:10447000936503E097F8273187F82631D7F8143190
:10448000D3E9002302F00803C7F890300023C7F8EF
:104490009430D7E924120B4613431ED0D7F81431B9
:1044A000D3F88430B3F5805F0CD1D7F814312833BA
:1044B0000221184600F054FE0346002B02D00123CF
:1044C00087F82631874B5B6D23F44051D7F81431C0
:1044D000D3F88430834A0B435365D7F81431D3E9BA
:1044E000002302F01003C7F888300023C7F88C308F
:1044F000D7E922120B4613431ED0D7F81431D3F854
:104500009830B3F5807F0CD1D7F8143128330221CD
:10451000184600F025FE0346002B02D0012387F841
:104520002631704B9B6D23F44071D7F81431D3F8CA
:1045300098306C4A0B439365D7F81431D3E90023C4
:1045400002F40023C7F880300023C7F88430D7E98D
:1045500020120B4613433ED0D7F81431D3F8A430C1
:10456000B3F5003F22D0B3F5003F1BD8002B03D09A
:10457000B3F5803F0BD015E0D7F814310833002194
:10458000184600F03BFD034687F827310FE0D7F8C7
:10459000143128330221184600F0E2FD034687F863
:1045A000273104E0012387F8273100E000BF97F8A6
:1045B0002731002B0BD14B4B9B6D23F44031D7F8A7
:1045C0001431D3F8A430474A0B43936503E097F8BE
:1045D000273187F82631D7F81431D3E9002302F4C4
:1045E0008023BB670023FB67D7E91E120B461343EA
:1045F0003BD0D7F81431D3F88830B3F5401F1FD023
:10460000B3F5401F18D8B3F5801F03D0B3F5001FD2
:1046100007D011E0334BDB6A324A43F40033D362F4
:104620000FE0D7F8143128330121184600F098FD27
:10463000034687F8273104E0012387F8273100E09B
:1046400000BF97F82731002B0BD1264B5B6D23F46D
:104650004011D7F81431D3F88830224A0B43536500
:1046600003E097F8273187F82631D7F81431D3E9DA
:10467000002302F480333B6700237B67D7E91C12D9
:104680000B46134334D0D7F814311B6D002B03D0E5
:10469000B3F5803F07D011E0124BDB6A114A43F4B7
:1046A0000033D3620EE0D7F81431083302211846E4
:1046B00000F0A4FC034687F8273103E0012387F8C4
:1046C000273100BF97F82731002B0DD1054BDB6C4C
:1046D00023F48031D7F814311B6D024A0B43D364A5
:1046E00006E000BF0044025897F8273187F82631CA
:1046F000D7F81431D3E9002302F00053BB6600233E
:10470000FB66D7E91A120B4613430CD0D7F81431C5
:1047100028330221184600F023FD0346002B02D067
:10472000012387F82631D7F81431D3E9002302F4A6
:1047300000333B6600237B66D7E918120B46134310
:1047400038D0D7F81431D3F88030B3F5407F18D083
:10475000B3F5407F11D8B3F5007F14D0B3F5007FD7
:104760000BD8002B11D0B3F5807F06D1C34BDB6A89
:10477000C24A43F40033D36208E0012387F82731AB
:1047800004E000BF02E000BF00E000BF97F827315F
:10479000002B0BD1B94B5B6D23F44071D7F814316A
:1047A000D3F88030B54A0B43536503E097F82731BF
:1047B00087F82631D7F81431D3E9002302F48013A7
:1047C000BB650023FB65D7E916120B46134309D0DE
:1047D000AA4B1B6D23F00041D7F814315B6FA74A39
:1047E0000B431365D7F81431D3E9002302F080534B
:1047F0003B6500237B65D7E914120B4613430AD0AF
:104800009E4B1B6923F48041D7F81431D3F8B8309C
:104810009A4A0B431361D7F81431D3E9002302F409
:104820000013BB640023FB64D7E912120B46134349
:1048300009D0924B1B6D23F08071D7F81431DB6ED9
:104840008E4A0B431365D7F81431D3E9002302F0E5
:1048500080433B6400237B64D7E910120B4613436B
:104860000ED0864B1B69854A23F400431361834BAA
:104870001969D7F81431D3F8BC30804A0B4313615F
:10488000D7F81431D3E9002302F00043BB630023BF
:10489000FB63D7E90E120B46134309D0774BDB6C51
:1048A00023F04051D7F814315B6D744A0B43D36445
:1048B000D7F81431D3E9002302F400033B6300234B
:1048C0007B63D7E90C120B4613430AD06B4B5B6D2D
:1048D00023F44001D7F81431D3F88C30674A0B43E6
:1048E0005365D7F81431D3E900230021B96203F0EE
:1048F0000103FB62D7E90A120B46134311D0D7F824
:10490000143108330021184600F078FB034687F87D
:10491000273197F82731002B03D097F8273187F8F4
:104920002631D7F81431D3E900230021396203F08E
:1049300002037B62D7E908120B46134311D0D7F864
:10494000143108330121184600F058FB034687F85C
:10495000273197F82731002B03D097F8273187F8B4
:104960002631D7F81431D3E900230021B96103F0CF
:104970000403FB61D7E906120B46134311D0D7F8A5
:10498000143108330221184600F038FB034687F83B
:10499000273197F82731002B03D097F8273187F874
:1049A0002631D7F81431D3E900230021396103F00F
:1049B00008037B61D7E904120B46134311D0D7F8E3
:1049C000143128330021184600F0CAFB034687F84B
:1049D000273197F82731002B03D097F8273187F834
:1049E0002631D7F81431D3E900230021B96003F050
:1049F0001003FB60D7E902120B46134311D0D7F81E
:104A0000143128330121184600F0AAFB034687F829
:104A1000273197F82731002B03D097F8273187F8F3
:104A20002631D7F81431D3E900230021396003F08F
:104A300020037B60D7E900120B46134311D0D7F84F
:104A4000143128330221184600F08AFB034687F808
:104A5000273197F82731002B03D097F8273187F8B3
:104A6000263197F82631002B01D1002300E00123E5
:104A7000184607F59477BD46BDE8B08F004402584C
:104A800080B500AFFEF796FD0246064B1B6A1B0978
:104A900003F007030449CB5C03F01F0322FA03F37E
:104AA000184680BD00440258D8AA000880B489B0D6
:104AB00000AF7860A14B9B6A03F00303BB619F4B7F
:104AC0009B6A1B0B03F03F037B619C4BDB6A1B095A
:104AD00003F001033B61994BDB6BDB08C3F30C0371
:104AE0003A6902FB03F307EE903AF8EE677AC7EDF6
:104AF000037A7B69002B00F01181BB69022B00F067
:104B00008380BB69022B00F2A180BB69002B03D01C
:104B1000BB69012B56D099E0884B1B6803F020033A
:104B2000002B2DD0854B1B68DB0803F00303844A60
:104B300022FA03F3BB60BB6807EE903AF8EE676AAF
:104B40007B6907EE903AF8EE677A86EEA77A7B4BA0
:104B50009B6BC3F3080307EE903AF8EE676A97ED94
:104B6000036ADFED785AC6EE257A76EEA77AF7EE7D
:104B7000006A77EEA67A67EE277AC7ED077A87E0B4
:104B80007B6907EE903AF8EE677ADFED6F6A86EEA2
:104B9000A77A6A4B9B6BC3F3080307EE903AF8EED3
:104BA000676A97ED036ADFED675AC6EE257A76EEFF
:104BB000A77AF7EE006A77EEA67A67EE277AC7ED56
:104BC000077A65E07B6907EE903AF8EE677ADFEDE9
:104BD0005F6A86EEA77A594B9B6BC3F3080307EE17
:104BE000903AF8EE676A97ED036ADFED565AC6EE23
:104BF000257A76EEA77AF7EE006A77EEA67A67EE68
:104C0000277AC7ED077A43E07B6907EE903AF8EE22
:104C1000677ADFED4F6A86EEA77A484B9B6BC3F34A
:104C2000080307EE903AF8EE676A97ED036ADFED46
:104C3000455AC6EE257A76EEA77AF7EE006A77EE49
:104C4000A67A67EE277AC7ED077A21E07B6907EE3F
:104C5000903AF8EE677ADFED3D6A86EEA77A374B39
:104C60009B6BC3F3080307EE903AF8EE676A97ED83
:104C7000036ADFED345AC6EE257A76EEA77AF7EEB0
:104C8000006A77EEA67A67EE277AC7ED077A00BF4B
:104C90002A4B9B6B5B0A03F07F0307EE903AF8EE1A
:104CA000677AB7EE007A37EE877AD7ED076AC6EEF5
:104CB000877AFCEEE77A17EE902A7B681A601F4B22
:104CC0009B6B1B0C03F07F0307EE903AF8EE677ABC
:104CD000B7EE007A37EE877AD7ED076AC6EE877AA5
:104CE000FCEEE77A17EE902A7B685A60134B9B6BB9
:104CF0001B0E03F07F0307EE903AF8EE677AB7EEEB
:104D0000007A37EE877AD7ED076AC6EE877AFCEE2F
:104D1000E77A17EE902A7B689A6008E07B680022A9
:104D20001A607B6800225A607B6800229A6000BF8C
:104D30002437BD465DF8047B704700BF004402582D
:104D40000090D003000000460024744C0024744AF4
:104D500020BCBE4B80B489B000AF7860A14B9B6A89
:104D600003F00303BB619F4B9B6A1B0D03F03F03E2
:104D70007B619C4BDB6A1B0A03F001033B61994B8F
:104D80005B6CDB08C3F30C033A6902FB03F307EE29
:104D9000903AF8EE677AC7ED037A7B69002B00F052
:104DA0001181BB69022B00F08380BB69022B00F2EA
:104DB000A180BB69002B03D0BB69012B56D099E0C1
:104DC000884B1B6803F02003002B2DD0854B1B68FC
:104DD000DB0803F00303844A22FA03F3BB60BB68D9
:104DE00007EE903AF8EE676A7B6907EE903AF8EEC4
:104DF000677A86EEA77A7B4B1B6CC3F3080307EE3A
:104E0000903AF8EE676A97ED036ADFED785AC6EEDE
:104E1000257A76EEA77AF7EE006A77EEA67A67EE45
:104E2000277AC7ED077A87E07B6907EE903AF8EEBC
:104E3000677ADFED6F6A86EEA77A6A4B1B6CC3F365
:104E4000080307EE903AF8EE676A97ED036ADFED24
:104E5000675AC6EE257A76EEA77AF7EE006A77EE05
:104E6000A67A67EE277AC7ED077A65E07B6907EED9
:104E7000903AF8EE677ADFED5F6A86EEA77A594BD3
:104E80001B6CC3F3080307EE903AF8EE676A97EDE0
:104E9000036ADFED565AC6EE257A76EEA77AF7EE6C
:104EA000006A77EEA67A67EE277AC7ED077A43E0C5
:104EB0007B6907EE903AF8EE677ADFED4F6A86EE8F
:104EC000A77A484B1B6CC3F3080307EE903AF8EE41
:104ED000676A97ED036ADFED455AC6EE257A76EEEE
:104EE000A77AF7EE006A77EEA67A67EE277AC7ED23
:104EF000077A21E07B6907EE903AF8EE677ADFEDFA
:104F00003D6A86EEA77A374B1B6CC3F3080307EEA6
:104F1000903AF8EE676A97ED036ADFED345AC6EE11
:104F2000257A76EEA77AF7EE006A77EEA67A67EE34
:104F3000277AC7ED077A00BF2A4B1B6C5B0A03F088
:104F40007F0307EE903AF8EE677AB7EE007A37EE15
:104F5000877AD7ED076AC6EE877AFCEEE77A17EE16
:104F6000902A7B681A601F4B1B6C1B0C03F07F039D
:104F700007EE903AF8EE677AB7EE007A37EE877A66
:104F8000D7ED076AC6EE877AFCEEE77A17EE902A2D
:104F90007B685A60134B1B6C1B0E03F07F0307EEFC
:104FA000903AF8EE677AB7EE007A37EE877AD7ED67
:104FB000076AC6EE877AFCEEE77A17EE902A7B68DE
:104FC0009A6008E07B6800221A607B6800225A60C1
:104FD0007B6800229A6000BF2437BD465DF8047BE1
:104FE000704700BF004402580090D0030000004604
:104FF0000024744C0024744A20BCBE4B80B584B09D
:1050000000AF786039600023FB73534B9B6A03F059
:105010000303032B01D1012399E04F4B1B684E4A38
:1050200023F080631360FCF7E5FDB86008E0FCF74F
:10503000E1FD0246BB68D31A022B01D9032386E0A7
:10504000454B1B6803F00063002BF0D1424B9B6A79
:1050500023F47C327B681B681B033F4913438B623C
:105060007B685B68013BC3F308027B689B68013B7C
:105070005B029BB21A437B68DB68013B1B0403F4B1
:10508000FE031A437B681B69013B1B0603F0FE43CA
:10509000314913438B63304BDB6A23F0C0027B68DA
:1050A0005B692D491343CB622B4BDB6A23F0200253
:1050B0007B689B6928491343CB62274BDB6A264AEE
:1050C00023F01003D362244BDA6B244B13407A682D
:1050D000D269D20020491343CB631F4BDB6A1E4ABF
:1050E00043F01003D3623B68002B06D11A4BDB6AF6
:1050F000194A43F40023D3620FE03B68012B06D129
:10510000154BDB6A144A43F48013D36205E0124B5B
:10511000DB6A114A43F40013D3620F4B1B680E4A3B
:1051200043F080631360FCF765FDB86008E0FCF7AE
:1051300061FD0246BB68D31A022B01D9032306E0A6
:10514000054B1B6803F00063002BF0D0FB7B184677
:105150001037BD4680BD00BF004402580700FFFF66
:1051600080B584B000AF786039600023FB73534B87
:105170009B6A03F00303032B01D1012399E04F4BFA
:105180001B684E4A23F080531360FCF733FDB86070
:1051900008E0FCF72FFD0246BB68D31A022B01D9A9
:1051A000032386E0454B1B6803F00053002BF0D12E
:1051B000424B9B6A23F07C727B681B681B053F494E
:1051C00013438B627B685B68013BC3F308027B6817
:1051D0009B68013B5B029BB21A437B68DB68013B27
:1051E0001B0403F4FE031A437B681B69013B1B0687
:1051F00003F0FE43314913430B64304BDB6A23F465
:1052000040627B685B692D491343CB622B4BDB6AA1
:1052100023F400727B689B6928491343CB62274BB8
:10522000DB6A264A23F48073D362244B5A6C244BE6
:1052300013407A68D269D200204913434B641F4B54
:10524000DB6A1E4A43F48073D3623B68002B06D1AD
:105250001A4BDB6A194A43F48003D3620FE03B68C0
:10526000012B06D1154BDB6A144A43F40003D362C9
:1052700005E0124BDB6A114A43F08073D3620F4B97
:105280001B680E4A43F080531360FCF7B3FCB86010
:1052900008E0FCF7AFFC0246BB68D31A022B01D929
:1052A000032306E0054B1B6803F00053002BF0D0EE
:1052B000FB7B18461037BD4680BD00BF0044025836
:1052C0000700FFFF80B582B000AF78607B68002BDD
:1052D00001D1012342E07B68D3F88830002B06D14E
:1052E0007B68002283F884207868FBF79BFF7B684B
:1052F0002422C3F888207B681B681A687B681B68B7
:1053000022F001021A607B689B6A002B02D0786849
:1053100000F01EFE786800F0B3F80346012B01D1BF
:1053200001231BE07B681B685A687B681B6822F4BA
:1053300090425A607B681B689A687B681B6822F001
:105340002A029A607B681B681A687B681B6842F0B7
:1053500001021A60786800F09DFE0346184608377F
:10536000BD4680BD80B58AB002AFF860B9603B60D1
:105370001346FB80FB68D3F88830202B7BD1BB68B9
:10538000002B02D0FB88002B01D1012374E0FB68C5
:105390000022C3F89020FB682122C3F88820FCF784
:1053A00029FC7861FB68FA88A3F85420FB68FA8826
:1053B000A3F85620FB689B68B3F5805F08D1FB68B3
:1053C0001B69002B04D10023FB61BB68BB6103E0B8
:1053D000BB68FB610023BB6130E03B6800937B69E5
:1053E00000228021F86800F0FFFE0346002B05D064
:1053F000FB682022C3F8882003233DE0FB69002BD3
:105400000BD1BB691B881A46FB681B68C2F30802F4
:105410009A62BB690233BB6107E0FB691A78FB68DB
:105420001B689A62FB690133FB61FB68B3F8563075
:105430009BB2013B9AB2FB68A3F85620FB68B3F815
:1054400056309BB2002BC8D13B6800937B69002289
:105450004021F86800F0C8FE0346002B05D0FB6829
:105460002022C3F88820032306E0FB682022C3F82B
:105470008820002300E0022318462037BD4680BD67
:105480002DE9B04F92B000AF7861002387F8423029
:105490007B699A687B691B691A437B695B691A435C
:1054A0007B69DB6913437B647B691B681A68BE4BAD
:1054B00013407A691268796C0B4313607B691B682F
:1054C0005B6823F440517B69DA687B691B680A4397
:1054D0005A607B699B697B647B691B68B34A934212
:1054E00004D07B691B6A7A6C13437B647B691B68FD
:1054F0009A68AF4B13407A691268796C0B439360DA
:105500007B691B68DB6A23F00F017B695A6A7B6940
:105510001B680A43DA627B691B68A64A934277D10B
:10552000A54B5B6D03F03803282B6DD801A252F810
:1055300023F000BFD9550008095600080956000895
:1055400009560008095600080956000809560008BF
:1055500009560008E15500080956000809560008D8
:10556000095600080956000809560008095600089F
:1055700009560008E95500080956000809560008B0
:10558000095600080956000809560008095600087F
:1055900009560008F1550008095600080956000888
:1055A000095600080956000809560008095600085F
:1055B00009560008F9550008095600080956000860
:1055C000095600080956000809560008095600083F
:1055D0000956000801560008012387F8433022E2EB
:1055E000042387F843301EE2082387F843301AE289
:1055F000102387F8433016E2202387F8433012E265
:10560000402387F843300EE2802387F843300AE2D4
:105610007B691B68694A934230D1674B5B6D03F02D
:105620000703052B26D801A252F823F0455600089F
:105630004D560008555600085D560008655600088E
:105640006D560008002387F84330ECE1042387F807
:105650004330E8E1082387F84330E4E1102387F87A
:105660004330E0E1202387F84330DCE1402387F832
:105670004330D8E1802387F84330D4E17B691B684D
:105680004F4A934230D14C4B5B6D03F00703052B1F
:1056900026D801A252F823F0B1560008B9560008E6
:1056A000C1560008C9560008D1560008D95600084E
:1056B000002387F84330B6E1042387F84330B2E192
:1056C000082387F84330AEE1102387F84330AAE17E
:1056D000202387F84330A6E1402387F84330A2E136
:1056E000802387F843309EE17B691B68354A9342EB
:1056F00030D1314B5B6D03F00703052B26D801A297
:1057000052F823F01D570008255700082D570008B0
:10571000355700083D57000845570008002387F813
:10572000433080E1042387F843307CE1082387F885
:10573000433078E1102387F8433074E1202387F861
:10574000433070E1402387F843306CE1802387F8D1
:10575000433068E17B691B681B4A934242D1164B78
:105760005B6D03F00703052B38D801A252F823F034
:10577000895700089157000899570008A157000859
:10578000CD570008D5570008002387F843304AE179
:10579000042387F8433046E1082387F8433042E189
:1057A000102387F843303EE1F369FFCF000C005827
:1057B000FFF4FF1100100140004402580044004073
:1057C00000480040004C004000500040202387F873
:1057D000433028E1402387F8433024E1802387F8D1
:1057E000433020E17B691B68CB4A934276D1CB4B97
:1057F0005B6D03F03803282B6CD801A252F823F01C
:10580000A5580008D5580008D5580008D5580008F4
:10581000D5580008D5580008D5580008D5580008B4
:10582000AD580008D5580008D5580008D5580008CC
:10583000D5580008D5580008D5580008D558000894
:10584000B5580008D5580008D5580008D5580008A4
:10585000D5580008D5580008D5580008D558000874
:10586000BD580008D5580008D5580008D55800087C
:10587000D5580008D5580008D5580008D558000854
:10588000C5580008D5580008D5580008D558000854
:10589000D5580008D5580008D5580008D558000834
:1058A000CD580008012387F84330BCE0042387F873
:1058B0004330B8E0082387F84330B4E0102387F87A
:1058C0004330B0E0202387F84330ACE0402387F832
:1058D0004330A8E0802387F84330A4E07B691B684D
:1058E0008F4A934230D18D4B5B6D03F00703052B3C
:1058F00026D801A252F823F01159000819590008BE
:10590000215900082959000831590008395900085F
:10591000002387F8433086E0042387F8433082E091
:10592000082387F843307EE0102387F843307AE07D
:10593000202387F8433076E0402387F8433072E035
:10594000802387F843306EE07B691B68754A934279
:1059500030D1724B5B6D03F00703052B26D801A2F3
:1059600052F823F07D590008855900088D59000828
:10597000955900089D590008A5590008002387F88B
:10598000433050E0042387F843304CE0082387F885
:10599000433048E0102387F8433044E0202387F861
:1059A000433040E0402387F843303CE0802387F8D1
:1059B000433038E07B691B685B4A934230D1574BD8
:1059C0009B6D03F00703052B26D801A252F823F0A4
:1059D000E9590008F1590008F9590008015A00086E
:1059E000095A0008115A0008022387F843301AE0C8
:1059F000042387F8433016E0082387F8433012E089
:105A0000102387F843300EE0202387F843300AE064
:105A1000402387F8433006E0802387F8433002E0D4
:105A2000802387F843307B691B683F4A934240F0EC
:105A3000F88097F84330202B46DC022BC0F282809E
:105A4000023B1E2B7ED801A252F823F0CF5A000849
:105A5000455B0008D75A0008455B0008455B000815
:105A6000455B0008E75A0008455B0008455B0008F5
:105A7000455B0008455B0008455B0008455B000886
:105A8000455B0008F75A0008455B0008455B0008C5
:105A9000455B0008455B0008455B0008455B000866
:105AA000455B0008455B0008455B0008455B000856
:105AB000455B0008455B0008455B0008455B000846
:105AC000455B0008375B0008402B37D03AE0FEF713
:105AD000D7FFF8633CE007F124031846FEF7E6FF22
