:020000040800F2
:1000000000000824D9100008E10E0008E90E0008DD
:10001000F10E0008F90E0008010F000800000000B2
:10002000000000000000000000000000090F0008B0
:10003000170F000800000000250F0008330F00080C
:1000400029110008291100082911000829110008A8
:100050002911000829110008291100082911000898
:100060002911000829110008291100082911000888
:100070002911000829110008291100082911000878
:100080002911000829110008291100082911000868
:100090002911000829110008291100082911000858
:1000A0002911000829110008291100082911000848
:1000B0002911000829110008291100082911000838
:1000C0002911000829110008291100082911000828
:1000D0002911000829110008291100082911000818
:1000E0003F0F000829110008000000002911000836
:1000F00029110008291100082911000829110008F8
:1001000029110008291100082911000829110008E7
:1001100029110008291100082911000829110008D7
:1001200029110008291100082911000829110008C7
:1001300029110008291100082911000829110008B7
:10014000291100082911000800000000000000002B
:100150002911000829110008291100082911000897
:100160002911000829110008291100082911000887
:100170002911000829110008291100082911000877
:100180002911000829110008291100082911000867
:100190002911000829110008291100082911000857
:1001A0002911000829110008291100082911000847
:1001B0002911000829110008291100082911000837
:1001C0002911000829110008291100082911000827
:1001D0002911000829110008291100082911000817
:1001E0002911000829110008291100082911000807
:1001F00029110008291100082911000829110008F7
:1002000029110008291100082911000829110008E6
:1002100029110008291100082911000829110008D6
:100220002911000829110008291100080000000008
:1002300029110008291100082911000829110008B6
:1002400029110008291100082911000829110008A6
:100250002911000829110008291100082911000896
:100260002911000829110008291100082911000886
:100270002911000829110008291100082911000876
:1002800029110008291100082911000800000000A8
:080290002911000829110008E2
:1002A00010B5054C237833B9044B13B10448AFF3B0
:1002B00000800123237010BDF40100240000000021
:1002C0001C89000808B5034B1BB103490348AFF371
:1002D000008008BD00000000F80100241C8900080F
:1002E00001F0FF01102A2BDB10F0070F08D010F8E7
:1002F000013B013A8B422DD010F0070F42B3F6D1EB
:10030000F0B441EA012141EA014122F007047FF003
:1003100000070023F0E80256083C85EA010586EA5A
:10032000010685FA47F5A3FA87F586FA47F6A5FA96
:1003300087F68EB9EED1F0BC01F0FF0102F00702A2
:1003400032B110F8013B013A83EA010313B1F8D14D
:100350000020704701387047002D06BF354603382E
:10036000073815F0010F07D1013015F4807F02BF67
:10037000013015F4C03F0130F0BC0138704700BFB8
:10038000034613F8012B002AFBD1181A01387047D5
:1003900081F0004102E000BF83F0004330B54FEA36
:1003A00041044FEA430594EA050F08BF90EA020FA3
:1003B0001FBF54EA000C55EA020C7FEA645C7FEA36
:1003C000655C00F0E2804FEA5454D4EB5555B8BF59
:1003D0006D420CDD2C4480EA020281EA030382EACA
:1003E000000083EA010180EA020281EA0303362D5C
:1003F00088BF30BD11F0004F4FEA01314FF4801C2F
:100400004CEA113102D0404261EB410113F0004F40
:100410004FEA03334CEA133302D0524263EB4303F7
:1004200094EA050F00F0A780A4F10104D5F1200E95
:100430000DDB02FA0EFC22FA05F2801841F10001F0
:1004400003FA0EF2801843FA05F359410EE0A5F1C4
:1004500020050EF1200E012A03FA0EFC28BF4CF0F5
:10046000020C43FA05F3C01851EBE37101F00045AB
:1004700007D54FF0000EDCF1000C7EEB00006EEBB8
:100480000101B1F5801F1BD3B1F5001F0CD3490842
:100490005FEA30004FEA3C0C04F101044FEA445299
:1004A00012F5800F80F09A80BCF1004F08BF5FEA20
:1004B000500C50F1000041EB045141EA050130BD00
:1004C0005FEA4C0C404141EB0101013C28BFB1F512
:1004D000801FE9D291F0000F04BF01460020B1FA5D
:1004E00081F308BF2033A3F10B03B3F120020CDA30
:1004F0000C3208DD02F1140CC2F10C0201FA0CF00E
:1005000021FA02F10CE002F11402D8BFC2F1200C72
:1005100001FA02F120FA0CFCDCBF41EA0C01904028
:10052000E41AA2BF01EB0451294330BD6FEA040471
:100530001F3C1CDA0C340EDC04F11404C4F120025C
:1005400020FA04F001FA02F340EA030021FA04F36E
:1005500045EA030130BDC4F10C04C4F1200220FAC5
:1005600002F001FA04F340EA0300294630BD21FA03
:1005700004F0294630BD94F0000F83F4801306BFC9
:1005800081F480110134013D4EE77FEA645C18BFBD
:100590007FEA655C29D094EA050F08BF90EA020F54
:1005A00005D054EA000C04BF1946104630BD91EA4C
:1005B000030F1EBF0021002030BD5FEA545C05D14F
:1005C0004000494128BF41F0004130BD14F580048E
:1005D0003CBF01F5801130BD01F0004545F0FE4102
:1005E00041F470014FF0000030BD7FEA645C1ABF37
:1005F000194610467FEA655C1CBF0B46024650EA6E
:10060000013406BF52EA033591EA030F41F4002199
:1006100030BD00BF90F0000F04BF0021704730B51F
:100620004FF4806404F132044FF000054FF00001F4
:1006300050E700BF90F0000F04BF0021704730B5B5
:100640004FF4806404F1320410F0004548BF40428A
:100650004FF000013EE700BF42004FEAE2014FEADF
:1006600031014FEA02701FBF12F07F4393F07F4FBA
:1006700081F06051704732F07F4208BF704793F0BD
:100680007F4F04BF41F40021704730B54FF46074D0
:1006900001F0004521F000411CE700BF50EA0102D3
:1006A00008BF704730B54FF000050AE050EA01027C
:1006B00008BF704730B511F0004502D5404261EBEC
:1006C00041014FF4806404F132045FEA915C3FF42D
:1006D000D8AE4FF003025FEADC0C18BF03325FEACA
:1006E000DC0C18BF033202EBDC02C2F1200300FA7B
:1006F00003FC20FA02F001FA03FE40EA0E0021FAA0
:1007000002F11444BDE600BF53B94AB9002908BF3D
:1007100000281CBF4FF0FF314FF0FF3000F0A2B9AE
:10072000ADF1080C6DE904CE00F03EF8DDF804E010
:10073000DDE9022304B0704708B502460B4643ECDE
:10074000172BB5EEC07BF1EE10FA03D4BDE80840DC
:1007500000F00AB8B1EE477B51EC170B00F004F83B
:10076000404261EB410108BD9FED0B6B41EC170B63
:100770009FED0B5B27EE066BBCEEC66BB8EE464BEF
:10078000A4EE457BFCEEC77B16EE101A17EE900A1E
:10079000704700BFAFF30080000000000000F03D94
:1007A000000000000000F0412DE9F047089D0C46D4
:1007B000002B4ED194468C458646B2FA82F262D91D
:1007C0004AB1C2F12003914020FA03F30CFA02FC73
:1007D000194300FA02FE4FEA1C471FFA8CF6B1FBE0
:1007E000F7F44FEA1E4307FB141143EA014304FBED
:1007F00006F199420AD91CEB030304F1FF3080F0A3
:100800001281994240F20F81023C6344591A1FFA47
:100810008EF3B1FBF7F007FB101143EA014300FB35
:1008200006F69E420AD91CEB030300F1FF3180F06B
:10083000FC809E4240F2F980634402389B1B40EAF0
:10084000044000211DB1D3400022C5E90032BDE8BB
:10085000F0878B4205D90DB1C5E90001002108469A
:10086000F5E7B3FA83F1002946D1A34202D39042BF
:10087000C0F0F080861A64EB03030120002DE6D05F
:10088000C5E90063E3E7002A40F09080A1EB0C0487
:100890004FEA1C481FFA8CF70121B4FBF8F64FEA27
:1008A0001E4308FB164443EA044307FB06F0984244
:1008B00008D91CEB030306F1FF3402D2984200F280
:1008C000CD8026461C1A1FFA8EF3B4FBF8F008FB05
:1008D000104443EA044300FB07F79F4208D91CEB8E
:1008E000030300F1FF3402D29F4200F2B0802046A1
:1008F000DB1B40EA0640A5E7C1F120068B4022FA47
:1009000006F71F4320FA06FC04FA01F343EA0C033E
:10091000F44000FA01F8380C4FEA1349B4FBF0FE3A
:100920001FFA87FC00FB1E4449EA04440EFB0CF945
:10093000A14502FA01F20AD93C190EF1FF3A80F002
:100940008480A14540F28180AEF1020E3C44A4EBCC
:1009500009041FFA83F9B4FBF0F300FB134449EADE
:10096000044403FB0CFCA44507D93C1903F1FF30F8
:1009700067D2A44565D9023B3C4443EA0E40A0FB44
:100980000293A4EB0C049C42CE469C4651D34ED01D
:1009900055B1B8EB0E0364EB0C0404FA06F6CB4039
:1009A0001E43CC40C5E90064002150E7C2F120039A
:1009B00020FA03F10CFA02FC24FA03F394400C43EE
:1009C0004FEA1C4800FA02FE1FFA8CF7B3FBF8F05E
:1009D00008FB1031230C43EA014300FB07F1994265
:1009E00008D91CEB030300F1FF362CD299422AD917
:1009F000023863445B1AA4B2B3FBF8F108FB11336D
:100A000044EA034401FB07F3A34208D91CEB0404A6
:100A100001F1FF3613D2A34211D902396444E41A1A
:100A200041EA004139E70446F0E6084606E7C845D2
:100A3000AED2B9EB020E63EB070C0138A8E73146E2
:100A4000EDE7034699E73046D4E7D6467FE76344AF
:100A500002384DE70646234608460FE7023E634448
:100A600030E700BF704700BF80B400AF3D4BD3F804
:100A700088303C4A43F47003C2F88830394B1B6914
:100A8000384A43F010031361374B1B6803F00F0320
:100A9000062B07D8344B1B6823F00F03324A43F070
:100AA00007031360314B1B68304A43F001031360A6
:100AB0002E4B00221A612D4B1A682C492C4B1340E7
:100AC0000B60294B1B6803F00803002B07D0264B53
:100AD0001B6823F00F03244A43F007031360234BE2
:100AE00000229A61214B0022DA61204B00221A6217
:100AF0001E4B204A9A621D4B1F4ADA621B4B1F4A4B
:100B00001A631A4B00225A63184B1C4A9A63174BFC
:100B10000022DA63154B194A1A64144B00225A64F6
:100B2000124B1B68114A23F4802313600F4B0022E1
:100B30001A66134B5B6A124A43F480435362114BAB
:100B40001A68114B1340B3F1005F02D20F4B012220
:100B50001A600F4B43F2D2021A6000BFBD465DF827
:100B6000047B704700ED00E0002000520044025872
:100B70007FEDF6EA000202020000FF01800201019F
:100B8000C00000580010005C0000FFFF0881005109
:100B90000040005280B582B000AF4FF6FF737B601B
:100BA00000BF344B1B6803F40043002B04D07B6868
:100BB0005A1E7A60002BF4DC7B68002B01DA00F00F
:100BC0006FF900F097FC00F059F82A4BD3F8E030A9
:100BD000284A43F00073C2F8E030264BD3F8E030E7
:100BE00003F000733B603B68002001F07FF80021B8
:100BF000002001F095F84FF6FF737B6000BF1D4B9E
:100C00001B6803F40043002B04D17B685A1E7A60F2
:100C1000002BF4DC7B68002B01DA00F041F900F0D6
:100C200097F8002000F082FA012000F07FFA0220FD
:100C300000F07CFA0121002000F0EEFA0E4B4FF498
:100C4000E1321A600C4B00225A600B4B00221A81D1
:100C5000094B00225A81084B00229A810649002044
:100C600000F06AFB0346002B02D000F019F900BF28
:100C700000BFFDE7004402581002002480B59CB07C
:100C800000AF07F124034C220021184605F034F987
:100C90003B1D20220021184605F02EF9042001F00A
:100CA00053F800233B60284BDB6A274A23F00103FB
:100CB000D362254BDB6A03F001033B60234B9B6946
:100CC00023F44043214A43F4804393611F4B9B69C3
:100CD00003F440433B603B6800BF1C4B9B6903F43B
:100CE0000053B3F5005FF8D102237B6201233B631D
:100CF00040237B630023BB6407F12403184601F003
:100D00007DF80346002B01D000F0CAF83F237B603A
:100D10000023BB600023FB6000233B6100237B6159
:100D20004023BB610023FB6100233B623B1D01218B
:100D3000184601F0BDFC0346002B01D000F0B0F8CE
:100D400000BF7037BD4680BD0004005800480258FF
:100D500080B58AB000AF07F1140300221A605A6010
:100D60009A60DA601A61494BD3F8E030474A43F0A1
:100D70000403C2F8E030454BD3F8E03003F004033D
:100D80003B613B69414BD3F8E030404A43F00103FB
:100D9000C2F8E0303D4BD3F8E03003F00103FB60D4
:100DA000FB683A4BD3F8E030384A43F00203C2F80C
:100DB000E030364BD3F8E03003F00203BB60BB6891
:100DC000324BD3F8E030314A43F04003C2F8E03010
:100DD0002E4BD3F8E03003F040037B607B68322376
:100DE0007B610223BB610023FB6100233B620B2379
:100DF0007B6207F114031946254800F0ADFD8623F8
:100E00007B610223BB610023FB6100233B620B2358
:100E10007B6207F1140319461E4800F09DFD4FF454
:100E200000537B610223BB610023FB6100233B6213
:100E30000B237B6207F114031946174800F08CFD61
:100E40004FF4C8537B610223BB610023FB61002385
:100E50003B620A237B6207F1140319460D4800F038
:100E60007BFD4FF420537B610223BB610023FB61B8
:100E700000233B620B237B6207F1140319460748EA
:100E800000F06AFD00BF2837BD4680BD004402580F
:100E900000080258000002580004025800180258C6
:100EA00080B400AF72B600BF00BFFDE780B483B06E
:100EB00000AF0A4BD3F8F430084A43F00203C2F8FB
:100EC000F430064BD3F8F43003F002037B607B6808
:100ED00000BF0C37BD465DF8047B704700440258E4
:100EE00080B400AF00BFFDE780B400AF00BFFDE7F6
:100EF00080B400AF00BFFDE780B400AF00BFFDE7E6
:100F000080B400AF00BFFDE780B400AF00BFBD46B6
:100F10005DF8047B704780B400AF00BFBD465DF84C
:100F2000047B704780B400AF00BFBD465DF8047B12
:100F3000704780B500AF00F04FFB00BF80BD80B5AB
:100F400000AF002000F0DAF900BF80BD80B400AF30
:100F500001231846BD465DF8047B704780B582B01A
:100F600000AF7860396004F0D3FF034616221A60A0
:100F70004FF0FF3318460837BD4680BD80B582B0BC
:100F800000AF78604FF0FF317868FFF7E7FF00BFF0
:100F9000FDE780B586B000AFF860B9607A600023E5
:100FA0007B610AE0AFF300800146BB685A1CBA605F
:100FB000CAB21A707B6901337B617A697B689A4295
:100FC000F0DB7B6818461837BD4680BD80B586B01B
:100FD00000AFF860B9607A6000237B6109E0BB680C
:100FE0005A1CBA601B78184600F008FA7B69013376
:100FF0007B617A697B689A42F1DB7B681846183717
:10100000BD4680BD80B483B000AF78604FF0FF3341
:1010100018460C37BD465DF8047B704780B483B03A
:1010200000AF786039603B684FF400525A6000238B
:1010300018460C37BD465DF8047B704780B483B01A
:1010400000AF7860012318460C37BD465DF8047B7D
:10105000704780B485B000AFF860B9607A60002353
:1010600018461437BD465DF8047B704780B586B0DE
:1010700000AF7860144A154BD31A7B617B693B61E2
:10108000134B1B68002B02D1114B124A1A60104BF4
:101090001A687B6813443A699A4207D204F038FF11
:1010A00003460C221A604FF0FF3309E0084B1B681F
:1010B000FB60074B1A687B681344054A1360FB68A2
:1010C00018461837BD4680BD000008240004000003
:1010D0002002002418040024DFF834D0FFF7C4FCF9
:1010E0000C480D490D4A002302E0D458C450043383
:1010F000C4188C42F9D30A4A0A4C002301E0136059
:101100000432A242FBD304F009FFFFF743FD70470E
:101110000000082400000024F4010024A48D00082D
:10112000F401002414040024FEE7000080B58CB014
:1011300000AF0346FB710023FB62FB79002B09D053
:10114000FB79012B06D0FB79022B03D06FF0010352
:10115000FB6255E0FB79002B0FD12C4BD3F8E0302C
:101160002A4A43F00203C2F8E030284BD3F8E030BB
:1011700003F002037B617B6921E0FB79012B0FD136
:10118000224BD3F8E030214A43F01003C2F8E0309C
:101190001E4BD3F8E03003F010033B613B690EE0D7
:1011A0001A4BD3F8E030194A43F00203C2F8E0309A
:1011B000164BD3F8E03003F00203FB60FB68FB79C9
:1011C000134A32F81330BB610123FB6100233B62F9
:1011D00003237B62FB790F4A52F8233007F1180290
:1011E0001146184600F0B8FBFB790A4A52F8230072
:1011F000FB79074A32F813300022194600F05CFDF3
:10120000FB6A18463037BD4680BD00BF0044025817
:10121000488900080C00002480B588B000AF034660
:101220000A46FB711346BB712E4BD3F8E0302D4AB2
:1012300043F00403C2F8E0302A4BD3F8E03003F067
:101240000403BB60BB684FF40053FB6002237B6167
:101250000223BB61BB79002B0CD100233B61FB79DE
:10126000214A52F8233007F10C021146184600F0CB
:1012700073FB31E04FF488133B61FB791A4A52F853
:10128000233007F10C021146184600F065FBFB798C
:10129000DB00164A1A44FB79154951F823301946E8
:1012A000104600F008FBFB79DB00104A9818FB7928
:1012B000104A52F823301A46002100F0DDFA2820A7
:1012C000FB790D4A52F823300022194600F08BFAC0
:1012D0002823184600F0A1FA002318462037BD46FF
:1012E00080BD00BF004402581800002424020024DE
:1012F000508900081C0000242000002480B582B022
:1013000000AF0346FB71FB79DB00044A1344184627
:1013100000F0E6FA00BF0837BD4680BD2402002475
:1013200080B483B000AF0346FB7100BF0C37BD46ED
:101330005DF8047B7047000080B584B000AF0346C1
:101340003960FB710023FB60FB79002B03D06FF049
:101350000103FB6018E0FB79942202FB03F30D4AC2
:101360001344184600F06EF8FB79942202FB03F355
:10137000084A13443968184600F00EF80346002B5B
:1013800002D06FF00303FB60FB6818461037BD46C0
:1013900080BD00BF2C02002480B582B000AF786011
:1013A0003960154B1A687B681A603B681A687B685D
:1013B0005A607B680C225A613B685B891A467B68DD
:1013C0001A613B685A687B689A603B681B891A46B9
:1013D0007B68DA603B689B891A467B689A617B6808
:1013E0004FF40042DA61786801F0ACFF034618461A
:1013F0000837BD4680BD00BF0800002480B582B01C
:1014000000AF7860094B1B781A46942302FB03F364
:10141000074A9818391D4FF47A73012201F0ECFF46
:101420007B6818460837BD4680BD00BFC002002457
:101430002C02002480B500AF0020FFF771FF00BF31
:1014400080BD000080B58AB000AF7860274BD3F82C
:10145000E030264A43F00803C2F8E030234BD3F8CB
:10146000E03003F008033B613B69204BD3F8E030E8
:101470001E4A43F00803C2F8E0301C4BD3F8E030BA
:1014800003F00803FB60FB68184BD3F8E830174AF9
:1014900043F48023C2F8E830144BD3F8E83003F467
:1014A0008023BB60BB684FF480737B610223BB6108
:1014B00002233B620123FB6107237B6207F11403D4
:1014C00019460B4800F048FA4FF400737B61022381
:1014D000BB6107237B6207F114031946044800F03F
:1014E0003BFA00BF2837BD4680BD00BF004402580C
:1014F000000C025880B582B000AF032000F068F9FC
:1015000001F08CFA0246154B9B691B0A03F00F038E
:101510001349CB5C03F01F0322FA03F37B600F4BEC
:101520009B6903F00F030E4AD35C03F01F037A6834
:1015300022FA03F30B4A13600B4A7B681360002006
:1015400000F014F80346002B01D0012302E0FFF75E
:10155000ADFC002318460837BD4680BD0044025844
:1015600038890008040000240000002480B582B0FF
:1015700000AF7860154B1B78002B01D1012321E0CF
:10158000134B1A68114B1B7819464FF47A73B3FB4F
:10159000F1F3B2FBF3F3184600F04DF90346002BCC
:1015A00001D001230EE07B680F2B0AD80022796856
:1015B0004FF0FF3000F017F9064A7B6813600023F4
:1015C00000E0012318460837BD4680BD28000024EE
:1015D000000000242400002480B400AF064B1B78D8
:1015E0001A46064B1B681344044A136000BFBD46ED
:1015F0005DF8047B704700BF28000024C40200246B
:1016000080B400AF034B1B681846BD465DF8047BF1
:10161000704700BFC402002480B400AF034B1B68B6
:101620001B0C1846BD465DF8047B70470010005C3B
:1016300080B485B000AF78607B6803F00703FB607F
:101640000B4BDB68BB60BA684FF6FF031340BB600F
:10165000FB681A02BB681A43064B1343BB60044A7B
:10166000BB68D36000BF1437BD465DF8047B70478C
:1016700000ED00E00000FA0580B400AF044BDB6829
:101680001B0A03F007031846BD465DF8047B70474C
:1016900000ED00E080B483B000AF0346FB80B7F9F3
:1016A0000630002B0BDBFB8803F01F020749B7F95C
:1016B00006305B09012000FA02F241F8232000BF46
:1016C0000C37BD465DF8047B704700BF00E100E0C9
:1016D00080B483B000AF03463960FB80B7F90630B1
:1016E000002B0ADB3B68DAB20C49B7F9063012016D
:1016F000D2B20B4483F800230AE03B68DAB208490F
:10170000FB8803F00F03043B1201D2B20B441A769C
:1017100000BF0C37BD465DF8047B704700E100E078
:1017200000ED00E080B489B000AFF860B9607A6085
:10173000FB6803F00703FB61FB69C3F10703042B9C
:1017400028BF0423BB61FB690433062B02D9FB6964
:10175000033B00E000237B614FF0FF32BB6902FADC
:1017600003F3DA43BB681A407B699A404FF0FF31BC
:101770007B6901FA03F3D9437B680B401343184696
:101780002437BD465DF8047B7047000080B582B009
:1017900000AF78607B68013BB3F1807F01D3012308
:1017A0000FE00A4A7B68013B53600F214FF0FF3086
:1017B000FFF78EFF054B00229A60044B07221A6048
:1017C000002318460837BD4680BD00BF10E000E08A
:1017D00080B582B000AF78607868FFF729FF00BF5E
:1017E0000837BD4680BD80B586B000AF0346B960FE
:1017F0007A60FB81FFF740FF78617A68B9687869A1
:10180000FFF790FF0246B7F90E3011461846FFF772
:101810005FFF00BF1837BD4680BD80B582B000AF06
:101820000346FB80B7F906301846FFF733FF00BFC9
:101830000837BD4680BD80B582B000AF786078685B
:10184000FFF7A4FF034618460837BD4680BD0000D9
:1018500080B400AF074B1B681B0903F00F03072B75
:1018600001D1032300E001231846BD465DF8047B47
:10187000704700BF00ED00E080B487B000AFF860B3
:101880000B467A60FB720023FB75FB68002B01D1CD
:1018900001230AE0FB7A002B03D1FB687A685A60C7
:1018A00002E00123FB7500BFFB7D18461C37BD46D7
:1018B0005DF8047B704780B483B000AF7860396016
:1018C0007B68002B01D1012303E07B683A681A6032
:1018D000002318460C37BD465DF8047B70470000B6
:1018E00080B586B000AF78607B681B681B0C03F086
:1018F00003033B617B681B6803F01F03012202FAAC
:1019000003F3FB60FFF7A4FF0346032B05D13B69FC
:101910001A010F4B13447B6104E03B691A010D4B24
:1019200013447B617B691B68FA681340BB60BB682A
:10193000002B09D07B69FA681A607B685B68002B12
:1019400002D07B685B68984700BF1837BD4680BDF2
:1019500088000058C800005880B489B000AF786093
:1019600039600023FB61894B7B6194E13B681A6815
:101970000121FB6901FA03F313403B613B69002B32
:1019800000F086813B685B6803F00303012B05D000
:101990003B685B6803F00303022B30D17B689B68D4
:1019A000BB61FB695B00032202FA03F3DB43BA6904
:1019B0001340BB613B68DA68FB695B0002FA03F322
:1019C000BA691343BB617B68BA699A607B685B68DC
:1019D000BB610122FB6902FA03F3DB43BA691340DE
:1019E000BB613B685B681B0903F00102FB6902FAFB
:1019F00003F3BA691343BB617B68BA695A603B68F9
:101A00005B6803F00303032B17D07B68DB68BB61C3
:101A1000FB695B00032202FA03F3DB43BA6913405C
:101A2000BB613B689A68FB695B0002FA03F3BA6921
:101A30001343BB617B68BA69DA603B685B6803F09B
:101A40000303022B23D1FB69DA087B68083253F8C1
:101A50002230BB61FB6903F007039B000F2202FAEF
:101A600003F3DB43BA691340BB613B681A69FB6946
:101A700003F007039B0002FA03F3BA691343BB6147
:101A8000FB69DA087B680832B96943F822107B6881
:101A90001B68BB61FB695B00032202FA03F3DB43B3
:101AA000BA691340BB613B685B6803F00302FB69E2
:101AB0005B0002FA03F3BA691343BB617B68BA693E
:101AC0001A603B685B6803F44033002B00F0E08051
:101AD0002F4BD3F8F4302E4A43F00203C2F8F4300F
:101AE0002B4BD3F8F43003F00203FB60FB68294A68
:101AF000FB699B08023352F82330BB61FB6903F09A
:101B000003039B000F2202FA03F3DB43BA6913407D
:101B1000BB617B68204A934252D07B681F4A934244
:101B200031D07B681E4A93422BD07B681D4A93427A
:101B300025D07B681C4A93421FD07B681B4A934286
:101B400019D07B681A4A934213D07B68194A934292
:101B50000DD07B68184A934207D07B68174A93429E
:101B600001D109232DE00A232BE0082329E00723D4
:101B700027E0062325E0052323E0042321E00323B7
:101B80001FE002231DE001231BE000BF800000587E
:101B90000044025800040058000002580004025893
:101BA00000080258000C0258001002580014025895
:101BB00000180258001C0258002002580024025845
:101BC0000023FA6902F0030292009340BA691343BA
:101BD000BB613849FB699B080233BA6941F823208D
:101BE0004FF0B0431B68BB613B69DB43BA691340EC
:101BF000BB613B685B6803F48013002B03D0BA69B8
:101C00003B691343BB614FF0B042BB6913604FF0B7
:101C1000B0435B68BB613B69DB43BA691340BB619E
:101C20003B685B6803F40013002B03D0BA693B697F
:101C30001343BB614FF0B042BB6953607B695B6883
:101C4000BB613B69DB43BA691340BB613B685B68BE
:101C500003F40033002B03D0BA693B691343BB6123
:101C60007B69BA695A607B691B68BB613B69DB436E
:101C7000BA691340BB613B685B6803F48033002B97
:101C800003D0BA693B691343BB617B69BA691A60C7
:101C9000FB690133FB613B681A68FB6922FA03F3B5
:101CA000002B7FF463AE00BF00BF2437BD465DF854
:101CB000047B70470004005880B483B000AF7860A4
:101CC0000B467B8013467B707B78002B03D07A8891
:101CD0007B689A6103E07B881A047B689A6100BF85
:101CE0000C37BD465DF8047B7047000080B483B0BC
:101CF00000AF7860084A7B68203352F82330074AE7
:101D0000934201D1002300E0012318460C37BD4661
:101D10005DF8047B704700BF006402580003008038
:101D200080B483B000AF7860396006493B6843F403
:101D300040727B6841F8232000BF0C37BD465DF838
:101D4000047B70470064025880B584B000AF7860AF
:101D5000294BDB6803F00703062B0AD0264BDB6810
:101D600003F03F037A689A4201D0012340E0002348
:101D70003EE0214BDB6823F03F021F497B681343A1
:101D8000CB60FFF73DFCF86009E0FFF739FC024645
:101D9000FB68D31AB3F57A7F01D9012328E0164BEB
:101DA0005B6803F40053B3F5005FEED17B681E2B34
:101DB00008D07B682E2B05D07B681D2B02D07B685A
:101DC0002D2B14D1FFF71CFCF86009E0FFF718FC7D
:101DD0000246FB68D31AB3F57A7F01D9012307E0E5
:101DE000054BDB6803F48033B3F5803FEED100236D
:101DF00018461037BD4680BD0048025880B58CB0EB
:101E000000AF78607B68002B02D1012300F048BC52
:101E10007B681B6803F00103002B00F08880994B5E
:101E20001B6903F03803FB62964B9B6ABB62FB6A3B
:101E3000102B07D0FB6A182B11D1BB6A03F00303E8
:101E4000022B0CD18F4B1B6803F40033002B6DD099
:101E50007B685B68002B69D1012300F021BC7B68A3
:101E60005B68B3F5803F06D1864B1B68854A43F417
:101E7000803313602EE07B685B68002B0CD1814BB4
:101E80001B68804A23F4803313607E4B1B687D4AB5
:101E900023F4802313601DE07B685B68B3F5A02FFB
:101EA0000CD1784B1B68774A43F480231360754B41
:101EB0001B68744A43F4803313600BE0714B1B685A
:101EC000704A23F4803313606E4B1B686D4A23F411
:101ED000802313607B685B68002B13D0FFF790FBB7
:101EE000786208E0FFF78CFB02467B6AD31A642B0A
:101EF00001D90323D4E3634B1B6803F40033002BA5
:101F0000F0D014E0FFF77CFB786208E0FFF778FB85
:101F100002467B6AD31A642B01D90323C0E3594BD1
:101F20001B6803F40033002BF0D100E000BF7B6896
:101F30001B6803F00203002B00F0CA80514B1B69A1
:101F400003F038033B624F4B9B6AFB613B6A002BFB
:101F500007D03B6A182B56D1FB6903F00303002B13
:101F600051D1484B1B6803F00403002B05D07B685C
:101F7000DB68002B01D1012392E3424B1B6823F065
:101F800019027B68DB683F4913430B60FFF738FB9E
:101F9000786208E0FFF734FB02467B6AD31A022B13
:101FA00001D903237CE3374B1B6803F00403002BA8
:101FB000F0D0FFF731FB034641F20302934217D8FA
:101FC0007B681B69402B08D12E4B5B6823F47C3364
:101FD0002C4A43F4003353607AE02A4B5B6823F4C5
:101FE0007C327B681B691B03264913434B606FE0FF
:101FF000244B5B6823F0FE427B681B691B0621496A
:1020000013434B6064E07B68DB68002B47D01D4BBB
:102010001B6823F019027B68DB681A4913430B60C5
:10202000FFF7EEFA786208E0FFF7EAFA02467B6A09
:10203000D31A022B01D9032332E3124B1B6803F09E
:102040000403002BF0D0FFF7E7FA034641F2030246
:10205000934219D87B681B69402B08D1094B5B68F8
:1020600023F47C33074A43F40033536030E0054BDC
:102070005B6823F47C327B681B691B0301491343B3
:102080004B6025E0004402589A4B5B6823F0FE4207
:102090007B681B691B06974913434B6018E0954BFF
:1020A0001B68944A23F001031360FFF7A9FA7862D2
:1020B00008E0FFF7A5FA02467B6AD31A022B01D982
:1020C0000323EDE28B4B1B6803F00403002BF0D1DC
:1020D0007B681B6803F01003002B00F0A980854B80
:1020E0001B6903F03803BB61824B9B6A7B61BB6950
:1020F000082B07D0BB69182B3AD17B6903F0030387
:10210000012B35D17B4B1B6803F48073002B05D06A
:102110007B68DB69802B01D00123C1E2FFF77CFAE9
:10212000034641F20302934217D87B681B6A202BB7
:1021300008D1704B5B6823F0F8436E4A43F080434C
:10214000536075E06B4B5B6823F0F8427B681B6A59
:102150009B06684913434B606AE0664BDB6823F0DB
:102160007C527B681B6A1B0662491343CB605FE0AD
:102170007B68DB69002B42D05E4B1B685D4A43F0F5
:1021800080031360FFF73CFA786208E0FFF738FA43
:1021900002467B6AD31A022B01D9032380E2554BF6
:1021A0001B6803F48073002BF0D0FFF735FA034669
:1021B00041F20302934217D87B681B6A202B08D197
:1021C0004C4B5B6823F0F8434A4A43F0804353602A
:1021D0002EE0484B5B6823F0F8427B681B6A9B0645
:1021E000444913434B6023E0424BDB6823F07C52AD
:1021F0007B681B6A1B063F491343CB6018E03D4BCD
:102200001B683C4A23F080031360FFF7F9F97862FA
:1022100008E0FFF7F5F902467B6AD31A022B01D9D1
:1022200003233DE2334B1B6803F48073002BF0D192
:102230007B681B6803F00803002B36D07B685B6962
:10224000002B19D02B4B5B6F2A4A43F001035367D5
:10225000FFF7D6F9786208E0FFF7D2F902467B6A09
:10226000D31A022B01D903231AE2224B5B6F03F02E
:102270000203002BF0D018E01E4B5B6F1D4A23F0C9
:1022800001035367FFF7BCF9786208E0FFF7B8F97C
:1022900002467B6AD31A022B01D9032300E2154BB5
:1022A0005B6F03F00203002BF0D17B681B6803F027
:1022B0002003002B39D07B689B69002B1CD00D4B71
:1022C0001B680C4A43F480531360FFF799F9786256
:1022D00008E0FFF795F902467B6AD31A022B01D971
:1022E0000323DDE1034B1B6803F40053002BF0D004
:1022F0001BE000BF004402589B4B1B689A4A23F422
:1023000080531360FFF77CF9786208E0FFF778F9F3
:1023100002467B6AD31A022B01D90323C0E1924BF8
:102320001B6803F40053002BF0D17B681B6803F09B
:102330000403002B00F081808C4B1B688B4A43F414
:1023400080731360FFF75CF9786208E0FFF758F9D3
:1023500002467B6AD31A642B01D90323A0E1834B85
:102360001B6803F48073002BF0D07B689B68012B03
:1023700006D17D4B1B6F7C4A43F0010313672DE0B0
:102380007B689B68002B0CD1774B1B6F764A23F040
:1023900001031367744B1B6F734A23F00403136725
:1023A0001CE07B689B68052B0CD16F4B1B6F6E4A42
:1023B00043F0040313676C4B1B6F6B4A43F001033C
:1023C00013670BE0684B1B6F674A23F00103136729
:1023D000654B1B6F644A23F0040313677B689B689B
:1023E000002B15D0FFF70CF978620AE0FFF708F927
:1023F00002467B6AD31A41F28832934201D9032301
:102400004EE1594B1B6F03F00203002BEED014E09A
:10241000FFF7F6F878620AE0FFF7F2F802467B6A07
:10242000D31A41F28832934201D9032338E14E4B4B
:102430001B6F03F00203002BEED17B685B6A002B5D
:1024400000F02D81484B1B6903F03803182B00F076
:10245000BD807B685B6A022B40F09E80424B1B680C
:10246000414A23F080731360FFF7CAF8786208E0EE
:10247000FFF7C6F802467B6AD31A022B01D9032361
:102480000EE1394B1B6803F00073002BF0D1364B83
:102490009A6A374B13407A68916A7A68D26A120155
:1024A0000A43314913438B627B681B6B013BC3F3C7
:1024B00008027B685B6B013B5B029BB21A437B6843
:1024C0009B6B013B1B0403F4FE031A437B68DB6B2D
:1024D000013B1B0603F0FE43234913430B63224BCE
:1024E000DB6A214A23F00103D3621F4B5A6B214B55
:1024F00013407A68926CD2001B4913434B631A4B0A
:10250000DB6A23F00C027B681B6C17491343CB6218
:10251000154BDB6A23F002027B685B6C12491343A4
:10252000CB62114BDB6A104A43F48033D3620E4B0B
:10253000DB6A0D4A43F40033D3620B4BDB6A0A4A71
:1025400043F48023D362084BDB6A074A43F001035C
:10255000D362054B1B68044A43F080731360FFF796
:102560004FF8786211E000BF00440258004802585A
:102570000CFCFFFF0700FFFFFFF742F802467B6AF3
:10258000D31A022B01D903238AE0474B1B6803F0BF
:102590000073002BF0D082E0434B1B68424A23F0CB
:1025A00080731360FFF72CF8786208E0FFF728F8D3
:1025B00002467B6AD31A022B01D9032370E03A4BFF
:1025C0001B6803F00073002BF0D168E0364B9B6A68
:1025D0003B61354B1B6BFB607B685B6A012B31D029
:1025E0003B6903F003027B689B6A9A422AD13B69EC
:1025F0001B0903F03F027B68DB6A9A4222D1FB6829
:10260000C3F308027B681B6B013B9A421AD1FB683B
:102610005B0A03F07F027B685B6B013B9A4211D13E
:10262000FB681B0C03F07F027B689B6B013B9A42AB
:1026300008D1FB681B0E03F07F027B68DB6B013B5C
:102640009A4201D001232BE0174B5B6BDB08C3F3ED
:102650000C033B617B689B6C3A699A421FD0124B1A
:10266000DB6A114A23F00103D362FEF7C9FF7862E7
:1026700000BFFEF7C5FF02467B6A9342F9D00A4BC2
:102680005A6B0A4B13407A68926CD2000649134386
:102690004B63054BDB6A044A43F00103D36200231A
:1026A00018463037BD4680BD004402580700FFFF82
:1026B00080B586B000AF786039607B68002B01D1AF
:1026C00001239CE18A4B1B6803F00F033A689A428E
:1026D00010D9874B1B6823F00F0285493B681343D1
:1026E0000B60834B1B6803F00F033A689A4201D0DA
:1026F000012384E17B681B6803F00403002B10D0E6
:102700007B681A697B4B9B6903F070039A4208D976
:10271000784B9B6923F070027B681B6975491343F2
:102720008B617B681B6803F00803002B10D07B686B
:102730005A69704BDB6903F070039A4208D96D4BFC
:10274000DB6923F070027B685B696A491343CB61E4
:102750007B681B6803F01003002B10D07B689A691C
:10276000644BDB6903F4E0639A4208D9614BDB698F
:1027700023F4E0627B689B695E491343CB617B680D
:102780001B6803F02003002B10D07B68DA69594BDB
:102790001B6A03F070039A4208D9564B1B6A23F058
:1027A00070027B68DB69534913430B627B681B68CB
:1027B00003F00203002B10D07B68DA684D4B9B6955
:1027C00003F00F039A4208D94A4B9B6923F00F028A
:1027D0007B68DB68474913438B617B681B6803F0A8
:1027E0000103002B55D0434B9B6923F470627B6837
:1027F0009B68404913438B617B685B68022B07D160
:102800003C4B1B6803F40033002B21D10123F6E07D
:102810007B685B68032B07D1364B1B6803F00073A2
:10282000002B15D10123EAE07B685B68012B07D1FF
:10283000304B1B6803F48073002B09D10123DEE0C9
:102840002C4B1B6803F00403002B01D10123D6E0BD
:10285000284B1B6923F007027B685B6825491343FB
:102860000B61FEF7CDFE78610AE0FEF7C9FE024675
:102870007B69D31A41F28832934201D90323BEE027
:102880001C4B1B6903F038027B685B68DB009A42D3
:10289000EBD17B681B6803F00203002B10D07B6830
:1028A000DA68144B9B6903F00F039A4208D2114B6C
:1028B0009B6923F00F027B68DB680E4913438B6131
:1028C0000B4B1B6803F00F033A689A4214D2084B73
:1028D0001B6823F00F0206493B6813430B60044B4F
:1028E0001B6803F00F033A689A4205D0012386E083
:1028F00000200052004402587B681B6803F0040368
:10290000002B10D07B681A693F4B9B6903F0700362
:102910009A4208D23C4B9B6923F070027B681B698A
:10292000394913438B617B681B6803F00803002B54
:1029300010D07B685A69344BDB6903F070039A420C
:1029400008D2314BDB6923F070027B685B692E494A
:102950001343CB617B681B6803F01003002B10D07E
:102960007B689A69284BDB6903F4E0639A4208D2DA
:10297000254BDB6923F4E0627B689B6922491343A2
:10298000CB617B681B6803F02003002B10D07B68B1
:10299000DA691D4B1B6A03F070039A4208D21A4B86
:1029A0001B6A23F070027B68DB69174913430B62D3
:1029B00000F034F80246144B9B691B0A03F00F0326
:1029C0001249CB5C03F01F0322FA03F33B610E4B69
:1029D0009B6903F00F030D4AD35C03F01F033A69B0
:1029E00022FA03F30A4A13600A4A3B6913600A4B4E
:1029F0001B681846FEF7BAFD0346FB73FB7B1846BF
:102A00001837BD4680BD00BF004402583889000811
:102A100004000024000000242400002480B489B0B5
:102A200000AFB34B1B6903F03803182B00F255813C
:102A300001A252F823F000BF9D2A0008DB2C0008F9
:102A4000DB2C0008DB2C0008DB2C0008DB2C00084A
:102A5000DB2C0008DB2C0008C32A0008DB2C000854
:102A6000DB2C0008DB2C0008DB2C0008DB2C00082A
:102A7000DB2C0008DB2C0008C92A0008DB2C00082E
:102A8000DB2C0008DB2C0008DB2C0008DB2C00080A
:102A9000DB2C0008DB2C0008CF2A0008944B1B68B5
:102AA00003F02003002B09D0914B1B68DB0803F0D7
:102AB0000303904A22FA03F3BB6111E18D4BBB6122
:102AC0000EE18D4BBB610BE18C4BBB6108E1884B88
:102AD0009B6A03F003037B61854B9B6A1B0903F030
:102AE0003F033B61824BDB6A03F00103FB60804BD9
:102AF0005B6BDB08C3F30C03FA6802FB03F307EE1E
:102B0000903AF8EE677AC7ED027A3B69002B00F045
:102B1000E1807B69022B00F083807B69022B00F24D
:102B2000A1807B69002B03D07B69012B56D099E0F3
:102B30006F4B1B6803F02003002B2DD06C4B1B68E0
:102B4000DB0803F003036B4A22FA03F37B607B6824
:102B500007EE903AF8EE676A3B6907EE903AF8EEB6
:102B6000677A86EEA77A624B1B6BC3F3080307EE06
:102B7000903AF8EE676A97ED026ADFED615AC6EEA9
:102B8000257A76EEA77AF7EE006A77EEA67A67EEF8
:102B9000277AC7ED077A87E03B6907EE903AF8EEAF
:102BA000677ADFED586A86EEA77A514B1B6BC3F349
:102BB000080307EE903AF8EE676A97ED026ADFEDD8
:102BC000505AC6EE257A76EEA77AF7EE006A77EECF
:102BD000A67A67EE277AC7ED077A65E03B6907EECC
:102BE000903AF8EE677ADFED486A86EEA77A404BB6
:102BF0001B6BC3F3080307EE903AF8EE676A97ED94
:102C0000026ADFED3F5AC6EE257A76EEA77AF7EE36
:102C1000006A77EEA67A67EE277AC7ED077A43E077
:102C20003B6907EE903AF8EE677ADFED386A86EE98
:102C3000A77A2F4B1B6BC3F3080307EE903AF8EE0D
:102C4000676A97ED026ADFED2E5AC6EE257A76EEB8
:102C5000A77AF7EE006A77EEA67A67EE277AC7EDD5
:102C6000077A21E03B6907EE903AF8EE677ADFEDEC
:102C7000266A86EEA77A1E4B1B6BC3F3080307EE8A
:102C8000903AF8EE676A97ED026ADFED1D5AC6EEDC
:102C9000257A76EEA77AF7EE006A77EEA67A67EEE7
:102CA000277AC7ED077A00BF114B1B6B5B0A03F055
:102CB0007F0301333B603B6807EE903AB8EE677ADA
:102CC000D7ED076AC6EE877AFCEEE77A17EE903A00
:102CD000BB6105E00023BB6102E0074BBB6100BFA5
:102CE000BB6918462437BD465DF8047B704700BFBA
:102CF000004402580090D00300093D0040787D0157
:102D0000000000460024744C0024744A20BCBE4BD2
:102D100080B582B000AFFFF781FE0246104B9B6981
:102D20001B0A03F00F030F49CB5C03F01F0322FAC9
:102D300003F37B600A4B9B6903F00F03094AD35CE2
:102D400003F01F037A6822FA03F3074A1360074A65
:102D50007B681360044B1B6818460837BD4680BD6E
:102D600000440258388900080400002400000024B0
:102D700080B500AFFFF7CCFF0246064BDB691B09AD
:102D800003F007030449CB5C03F01F0322FA03F3AB
:102D9000184680BD004402583889000880B500AF4D
:102DA000FFF7B6FF0246064BDB691B0A03F0070379
:102DB0000449CB5C03F01F0322FA03F3184680BDDD
:102DC000004402583889000880B500AFFFF7A0FF23
:102DD0000246064B1B6A1B0903F007030449CB5C40
:102DE00003F01F0322FA03F3184680BD0044025883
:102DF0003889000880B489B000AF7860A14B9B6A25
:102E000003F00303BB619F4B9B6A1B0B03F03F0363
:102E10007B619C4BDB6A1B0903F001033B61994B0F
:102E2000DB6BDB08C3F30C033A6902FB03F307EE29
:102E3000903AF8EE677AC7ED037A7B69002B00F0D1
:102E40001181BB69022B00F08380BB69022B00F269
:102E5000A180BB69002B03D0BB69012B56D099E040
:102E6000884B1B6803F02003002B2DD0854B1B687B
:102E7000DB0803F00303844A22FA03F3BB60BB6858
:102E800007EE903AF8EE676A7B6907EE903AF8EE43
:102E9000677A86EEA77A7B4B9B6BC3F3080307EE3A
:102EA000903AF8EE676A97ED036ADFED785AC6EE5E
:102EB000257A76EEA77AF7EE006A77EEA67A67EEC5
:102EC000277AC7ED077A87E07B6907EE903AF8EE3C
:102ED000677ADFED6F6A86EEA77A6A4B9B6BC3F366
:102EE000080307EE903AF8EE676A97ED036ADFEDA4
:102EF000675AC6EE257A76EEA77AF7EE006A77EE85
:102F0000A67A67EE277AC7ED077A65E07B6907EE58
:102F1000903AF8EE677ADFED5F6A86EEA77A594B52
:102F20009B6BC3F3080307EE903AF8EE676A97EDE0
:102F3000036ADFED565AC6EE257A76EEA77AF7EEEB
:102F4000006A77EEA67A67EE277AC7ED077A43E044
:102F50007B6907EE903AF8EE677ADFED4F6A86EE0E
:102F6000A77A484B9B6BC3F3080307EE903AF8EE41
:102F7000676A97ED036ADFED455AC6EE257A76EE6D
:102F8000A77AF7EE006A77EEA67A67EE277AC7EDA2
:102F9000077A21E07B6907EE903AF8EE677ADFED79
:102FA0003D6A86EEA77A374B9B6BC3F3080307EEA7
:102FB000903AF8EE676A97ED036ADFED345AC6EE91
:102FC000257A76EEA77AF7EE006A77EEA67A67EEB4
:102FD000277AC7ED077A00BF2A4B9B6B5B0A03F089
:102FE0007F0307EE903AF8EE677AB7EE007A37EE95
:102FF000877AD7ED076AC6EE877AFCEEE77A17EE96
:10300000902A7B681A601F4B9B6B1B0C03F07F039D
:1030100007EE903AF8EE677AB7EE007A37EE877AE5
:10302000D7ED076AC6EE877AFCEEE77A17EE902AAC
:103030007B685A60134B9B6B1B0E03F07F0307EEFC
:10304000903AF8EE677AB7EE007A37EE877AD7EDE6
:10305000076AC6EE877AFCEEE77A17EE902A7B685D
:103060009A6008E07B6800221A607B6800225A6040
:103070007B6800229A6000BF2437BD465DF8047B60
:10308000704700BF004402580090D0030000004683
:103090000024744C0024744A20BCBE4B80B489B018
:1030A00000AF7860A14B9B6A03F00303BB619F4BA9
:1030B0009B6A1B0D03F03F037B619C4BDB6A1B0A81
:1030C00003F001033B61994B5B6CDB08C3F30C031A
:1030D0003A6902FB03F307EE903AF8EE677AC7ED20
:1030E000037A7B69002B00F01181BB69022B00F091
:1030F0008380BB69022B00F2A180BB69002B03D047
:10310000BB69012B56D099E0884B1B6803F0200364
:10311000002B2DD0854B1B68DB0803F00303844A8A
:1031200022FA03F3BB60BB6807EE903AF8EE676AD9
:103130007B6907EE903AF8EE677A86EEA77A7B4BCA
:103140001B6CC3F3080307EE903AF8EE676A97ED3D
:10315000036ADFED785AC6EE257A76EEA77AF7EEA7
:10316000006A77EEA67A67EE277AC7ED077A87E0DE
:103170007B6907EE903AF8EE677ADFED6F6A86EECC
:10318000A77A6A4B1B6CC3F3080307EE903AF8EE7C
:10319000676A97ED036ADFED675AC6EE257A76EE29
:1031A000A77AF7EE006A77EEA67A67EE277AC7ED80
:1031B000077A65E07B6907EE903AF8EE677ADFED13
:1031C0005F6A86EEA77A594B1B6CC3F3080307EEC0
:1031D000903AF8EE676A97ED036ADFED565AC6EE4D
:1031E000257A76EEA77AF7EE006A77EEA67A67EE92
:1031F000277AC7ED077A43E07B6907EE903AF8EE4D
:10320000677ADFED4F6A86EEA77A484B1B6CC3F3F3
:10321000080307EE903AF8EE676A97ED036ADFED70
:10322000455AC6EE257A76EEA77AF7EE006A77EE73
:10323000A67A67EE277AC7ED077A21E07B6907EE69
:10324000903AF8EE677ADFED3D6A86EEA77A374B63
:103250001B6CC3F3080307EE903AF8EE676A97ED2C
:10326000036ADFED345AC6EE257A76EEA77AF7EEDA
:10327000006A77EEA67A67EE277AC7ED077A00BF75
:103280002A4B1B6C5B0A03F07F0307EE903AF8EEC3
:10329000677AB7EE007A37EE877AD7ED076AC6EE1F
:1032A000877AFCEEE77A17EE902A7B681A601F4B4C
:1032B0001B6C1B0C03F07F0307EE903AF8EE677A65
:1032C000B7EE007A37EE877AD7ED076AC6EE877ACF
:1032D000FCEEE77A17EE902A7B685A60134B1B6C62
:1032E0001B0E03F07F0307EE903AF8EE677AB7EE15
:1032F000007A37EE877AD7ED076AC6EE877AFCEE5A
:10330000E77A17EE902A7B689A6008E07B680022D3
:103310001A607B6800225A607B6800229A6000BFB6
:103320002437BD465DF8047B704700BF0044025857
:103330000090D003000000460024744C0024744A1E
:1033400020BCBE4B80B582B000AF78607B68002B9C
:1033500001D1012342E07B68D3F88830002B06D1ED
:103360007B68002283F88420786800F03BF87B6853
:103370002422C3F888207B681B681A687B681B6856
:1033800022F001021A607B689B6A002B02D07868E9
:1033900000F028FE786800F0BDF80346012B01D14B
:1033A00001231BE07B681B685A687B681B6822F45A
:1033B00090425A607B681B689A687B681B6822F0A1
:1033C0002A029A607B681B681A687B681B6842F057
:1033D00001021A60786800F0A7FE03461846083715
:1033E000BD4680BD80B483B000AF786000BF0C37AD
:1033F000BD465DF8047B704780B58AB002AFF860C7
:10340000B9603B601346FB80FB68D3F88830202B03
:103410007BD1BB68002B02D0FB88002B01D101239C
:1034200074E0FB680022C3F89020FB682122C3F8F7
:103430008820FEF7E5F87861FB68FA88A3F8542045
:10344000FB68FA88A3F85620FB689B68B3F5805F99
:1034500008D1FB681B69002B04D10023FB61BB680A
:10346000BB6103E0BB68FB610023BB6130E03B68EC
:1034700000937B6900228021F86800F0FFFE03467C
:10348000002B05D0FB682022C3F8882003233DE0F1
:10349000FB69002B0BD1BB691B881A46FB681B68B4
:1034A000C2F308029A62BB690233BB6107E0FB69A1
:1034B0001A78FB681B689A62FB690133FB61FB6841
:1034C000B3F856309BB2013B9AB2FB68A3F8562082
:1034D000FB68B3F856309BB2002BC8D13B68009311
:1034E0007B6900224021F86800F0C8FE0346002BEB
:1034F00005D0FB682022C3F88820032306E0FB6880
:103500002022C3F88820002300E002231846203739
:10351000BD4680BD2DE9B04F92B000AF7861002369
:1035200087F842307B699A687B691B691A437B691B
:103530005B691A437B69DB6913437B647B691B68A6
:103540001A68BE4B13407A691268796C0B4313609A
:103550007B691B685B6823F440517B69DA687B698F
:103560001B680A435A607B699B697B647B691B68A3
:10357000B34A934204D07B691B6A7A6C13437B6421
:103580007B691B689A68AF4B13407A691268796C43
:103590000B4393607B691B68DB6A23F00F017B6937
:1035A0005A6A7B691B680A43DA627B691B68A64A10
:1035B000934277D1A54B5B6D03F03803282B6DD870
:1035C00001A252F823F000BF6D3600089D360008B6
:1035D0009D3600089D3600089D3600089D3600087F
:1035E0009D3600089D360008753600089D36000897
:1035F0009D3600089D3600089D3600089D3600085F
:103600009D3600089D3600087D3600089D3600086E
:103610009D3600089D3600089D3600089D3600083E
:103620009D3600089D360008853600089D36000846
:103630009D3600089D3600089D3600089D3600081E
:103640009D3600089D3600088D3600089D3600081E
:103650009D3600089D3600089D3600089D360008FE
:103660009D3600089D36000895360008012387F82E
:10367000433022E2042387F843301EE2082387F810
:1036800043301AE2102387F8433016E2202387F8EC
:10369000433012E2402387F843300EE2802387F85C
:1036A00043300AE27B691B68694A934230D1674B19
:1036B0005B6D03F00703052B26D801A252F823F017
:1036C000D9360008E1360008E9360008F13600086E
:1036D000F936000801370008002387F84330ECE191
:1036E000042387F84330E8E1082387F84330E4E116
:1036F000102387F84330E0E1202387F84330DCE1F2
:10370000402387F84330D8E1802387F84330D4E161
:103710007B691B684F4A934230D14C4B5B6D03F081
:103720000703052B26D801A252F823F045370008DD
:103730004D370008553700085D3700086537000829
:103740006D370008002387F84330B6E1042387F87B
:103750004330B2E1082387F84330AEE1102387F805
:103760004330AAE1202387F84330A6E1402387F8BD
:103770004330A2E1802387F843309EE17B691B68D8
:10378000354A934230D1314B5B6D03F00703052B73
:1037900026D801A252F823F0B1370008B937000843
:1037A000C1370008C9370008D1370008D9370008E9
:1037B000002387F8433080E1042387F843307CE11D
:1037C000082387F8433078E1102387F8433074E109
:1037D000202387F8433070E1402387F843306CE1C1
:1037E000802387F8433068E17B691B681B4A93425A
:1037F00042D1164B5B6D03F00703052B38D801A2AD
:1038000052F823F01D380008253800082D3800082C
:10381000353800086138000869380008002387F847
:1038200043304AE1042387F8433046E1082387F810
:10383000433042E1102387F843303EE1F369FFCF84
:10384000000C0058FFF4FF11001001400044025822
:103850000044004000480040004C00400050004040
:10386000202387F8433028E1402387F8433024E1C0
:10387000802387F8433020E17B691B68CB4A934261
:1038800076D1CB4B5B6D03F03803282B6CD801A2AB
:1038900052F823F0393900086939000869390008FD
:1038A0006939000869390008693900086939000870
:1038B0006939000841390008693900086939000888
:1038C0006939000869390008693900086939000850
:1038D0006939000849390008693900086939000860
:1038E0006939000869390008693900086939000830
:1038F0006939000851390008693900086939000838
:10390000693900086939000869390008693900080F
:10391000693900085939000869390008693900080F
:1039200069390008693900086939000869390008EF
:103930006939000861390008012387F84330BCE089
:10394000042387F84330B8E0082387F84330B4E015
:10395000102387F84330B0E0202387F84330ACE0F1
:10396000402387F84330A8E0802387F84330A4E061
:103970007B691B688F4A934230D18D4B5B6D03F09E
:103980000703052B26D801A252F823F0A539000819
:10399000AD390008B5390008BD390008C53900083F
:1039A000CD390008002387F8433086E0042387F8E8
:1039B000433082E0082387F843307EE0102387F805
:1039C00043307AE0202387F8433076E0402387F8BD
:1039D000433072E0802387F843306EE07B691B68D8
:1039E000754A934230D1724B5B6D03F00703052B90
:1039F00026D801A252F823F0113A0008193A00081B
:103A0000213A0008293A0008313A0008393A0008FA
:103A1000002387F8433050E0042387F843304CE01C
:103A2000082387F8433048E0102387F8433044E008
:103A3000202387F8433040E0402387F843303CE0C0
:103A4000802387F8433038E07B691B685B4A9342E8
:103A500030D1574B9B6D03F00703052B26D801A2ED
:103A600052F823F07D3A0008853A00088D3A0008A4
:103A7000953A00089D3A0008A53A0008022387F805
:103A800043301AE0042387F8433016E0082387F810
:103A9000433012E0102387F843300EE0202387F8EC
:103AA00043300AE0402387F8433006E0802387F85C
:103AB000433002E0802387F843307B691B683F4A2C
:103AC000934240F0F88097F84330202B46DC022BDD
:103AD000C0F28280023B1E2B7ED801A252F823F056
:103AE000633B0008D93B00086B3B0008D93B00084A
:103AF000D93B0008D93B00087B3B0008D93B0008B4
:103B0000D93B0008D93B0008D93B0008D93B000845
:103B1000D93B0008D93B00088B3B0008D93B000883
:103B2000D93B0008D93B0008D93B0008D93B000825
:103B3000D93B0008D93B0008D93B0008D93B000815
:103B4000D93B0008D93B0008D93B0008D93B000805
:103B5000D93B0008D93B0008CB3B0008402B37D0AD
:103B60003AE0FFF731F9F8633CE007F12403184627
:103B7000FFF740F9BB6AFB6334E007F1180318460E
:103B8000FFF78CFAFB69FB632CE0094B1B6803F021
:103B90002003002B16D0064B1B68DB0803F0030341
:103BA000074A22FA03F3FB631CE000BF0014014044
:103BB0000044025800780040007C0040000C00588F
:103BC0000090D0039D4BFB630CE09D4BFB6309E031
:103BD0004FF40043FB6305E00023FB63012387F8F8
:103BE000423000BFFB6B002B00F0DE817B695B6A1B
:103BF000944A32F813301A46FB6BB3FBF2F33B6383
:103C00007B695A6813465B0013443A6B9A4205D3AA
:103C10007B695B681B033A6B9A4203D9012387F8DF
:103C20004230C1E1FB6B0022BB60FA607B695B6ADA
:103C3000844A32F813309BB200223B607A60D7E9A5
:103C40000023D7E90201FCF75FFD02460B46104650
:103C500019464FF000024FF000030B0243EA1063D5
:103C6000020279694968490800200C46054612EBB2
:103C7000040843EB05097B695B6800229A4693467A
:103C800052465B4640464946FCF73EFD02460B461F
:103C90001346BB63BB6BB3F5407F08D3BB6BB3F577
:103CA000801F04D27B691B68BA6BDA607CE1012358
:103CB00087F8423078E17B69DB69B3F5004F40F06B
:103CC000C58097F84330202B48DC002B7BDB202B72
:103CD00079D801A252F823F0633D00086B3D00083B
:103CE000C73D0008C73D0008733D0008C73D0008F8
:103CF000C73D0008C73D0008833D0008C73D0008D8
:103D0000C73D0008C73D0008C73D0008C73D000883
:103D1000C73D0008C73D0008933D0008C73D0008A7
:103D2000C73D0008C73D0008C73D0008C73D000863
:103D3000C73D0008C73D0008C73D0008C73D000853
:103D4000C73D0008C73D0008C73D0008C73D000843
:103D5000C73D0008C73D0008B93D0008402B2ED0E4
:103D600031E0FFF705F8F86333E0FFF717F8F86381
:103D70002FE007F124031846FFF73CF8BB6AFB630A
:103D800027E007F118031846FFF788F9FB69FB6382
:103D90001FE02D4B1B6803F02003002B09D02A4B9A
:103DA0001B68DB0803F00303244A22FA03F3FB63D6
:103DB0000FE0224BFB630CE0214BFB6309E04FF467
:103DC0000043FB6305E00023FB63012387F84230D7
:103DD00000BFFB6B002B00F0E7807B695B6A194A30
:103DE00032F813301A46FB6BB3FBF2F35A007B69CF
:103DF0005B685B081A447B695B68B2FBF3F3BB63E7
:103E0000BB6B0F2B16D9BB6BB3F5803F12D2BB6BCC
:103E10009BB223F00F03FB86BB6B5B089BB203F0E6
:103E200007039AB2FB8E1343FB867B691B68FA8EED
:103E3000DA60B9E0012387F84230B5E00090D003A2
:103E400000093D00548900080044025897F84330A7
:103E5000202B49DC002B7CDB202B7AD801A252F8E6
:103E600023F000BFEF3E0008F73E0008533F000874
:103E7000533F0008FF3E0008533F0008533F00082F
:103E8000533F00080F3F0008533F0008533F00080E
:103E9000533F0008533F0008533F0008533F0008BA
:103EA000533F00081F3F0008533F0008533F0008DE
:103EB000533F0008533F0008533F0008533F00089A
:103EC000533F0008533F0008533F0008533F00088A
:103ED000533F0008533F0008533F0008533F00087A
:103EE000533F0008453F0008402B2ED031E0FEF73D
:103EF0003FFFF86333E0FEF751FFF8632FE007F16F
:103F000024031846FEF776FFBB6AFB6327E007F140
:103F100018031846FFF7C2F8FB69FB631FE02D4B3F
:103F20001B6803F02003002B09D02A4B1B68DB0819
:103F300003F00303284A22FA03F3FB630FE0264B46
:103F4000FB630CE0254BFB6309E04FF40043FB638C
:103F500005E00023FB63012387F8423000BFFB6BC1
:103F6000002B21D07B695B6A1D4A32F813301A4658
:103F7000FB6BB3FBF2F27B695B685B081A447B69FD
:103F80005B68B2FBF3F3BB63BB6B0F2B09D9BB6B55
:103F9000B3F5803F05D2BB6B9AB27B691B68DA60D0
:103FA00002E0012387F842307B690122A3F86A20EE
:103FB0007B690122A3F868207B6900225A677B692C
:103FC00000229A6797F8423018464837BD46BDE848
:103FD000B08F00BF004402580090D00300093D009C
:103FE0005489000880B483B000AF78607B689B6A16
:103FF00003F00803002B0AD07B681B685B6823F47E
:1040000000417B689A6B7B681B680A435A607B6837
:104010009B6A03F00103002B0AD07B681B685B6876
:1040200023F400317B68DA6A7B681B680A435A60B4
:104030007B689B6A03F00203002B0AD07B681B6835
:104040005B6823F480317B681A6B7B681B680A43CA
:104050005A607B689B6A03F00403002B0AD07B68DC
:104060001B685B6823F480217B685A6B7B681B6844
:104070000A435A607B689B6A03F01003002B0AD046
:104080007B681B689B6823F480517B68DA6B7B68D4
:104090001B680A439A607B689B6A03F02003002B2D
:1040A0000AD07B681B689B6823F400517B681A6CFC
:1040B0007B681B680A439A607B689B6A03F0400335
:1040C000002B1AD07B681B685B6823F480117B6827
:1040D0005A6C7B681B680A435A607B685B6CB3F55B
:1040E000801F0AD17B681B685B6823F4C0017B6872
:1040F0009A6C7B681B680A435A607B689B6A03F072
:104100008003002B0AD07B681B685B6823F40021C6
:104110007B68DA6C7B681B680A435A6000BF0C3707
:10412000BD465DF8047B704780B598B002AF7860FB
:104130007B680022C3F89020FDF762FA78657B68FF
:104140001B681B6803F00803082B2FD16FF07E4318
:1041500000937B6D00224FF40011786800F08EF818
:104160000346002B22D07B681B68BB63BB6B53E804
:10417000003F7B637B6B23F080033B657B681B68A0
:104180001A463B6D7B643A64396C7A6C41E80023D3
:10419000FB63FB6B002BE6D17B682022C3F88820F1
:1041A0007B68002283F88420032363E07B681B681C
:1041B0001B6803F00403042B49D16FF07E43009386
:1041C0007B6D00224FF48001786800F057F80346B9
:1041D000002B3CD07B681B687B627B6A53E8003F06
:1041E0003B623B6A23F49073FB647B681B681A464E
:1041F000FB6C3B63FA62F96A3A6B41E80023BB62ED
:10420000BB6A002BE6D17B681B6808333B613B69C6
:1042100053E8003FFB60FB6823F00103BB647B684D
:104220001B680833BA6CFA61BB61B969FA6941E885
:1042300000237B617B69002BE5D17B682022C3F8DA
:104240008C207B68002283F88420032312E07B68A3
:104250002022C3F888207B682022C3F88C207B684A
:104260000022DA667B6800221A677B68002283F8E6
:104270008420002318465837BD4680BD80B584B0E1
:1042800000AFF860B9603B601346FB714FE0BB695B
:10429000B3F1FF3F4BD0FDF7B3F902463B68D31AA9
:1042A000BA699A4202D3BB69002B01D103234EE0C5
:1042B000FB681B681B6803F00403002B37D0BB6846
:1042C000802B34D0BB68402B31D0FB681B68DB6986
:1042D00003F00803082B10D1FB681B6808221A6240
:1042E000F86800F039F8FB680822C3F89020FB68F2
:1042F000002283F88420012329E0FB681B68DB6926
:1043000003F40063B3F5006F11D1FB681B684FF431
:1043100000621A62F86800F01FF8FB682022C3F8F8
:104320009020FB68002283F8842003230FE0FB68C1
:104330001B68DA69BB681340BA689A420CBF012354
:104340000023DBB21A46FB799A42A0D0002318461C
:104350001037BD4680BD000080B495B000AF7860D6
:104360007B681B687B637B6B53E8003F3B633B6B65
:1043700023F49073FB647B681B681A46FB6C3B64F8
:10438000FA63F96B3A6C41E80023BB63BB6B002B0B
:10439000E6D17B681B6808333B623B6A53E8003F09
:1043A000FB61FA691E4B1340BB647B681B680833D2
:1043B000BA6CFA62BB62B96AFA6A41E800237B62AE
:1043C0007B6A002BE5D17B68DB6E012B18D17B6803
:1043D0001B68FB60FB6853E8003FBB60BB6823F0D1
:1043E00010037B647B681B681A467B6CBB617A6137
:1043F0007969BA6941E800233B613B69002BE6D14A
:104400007B682022C3F88C207B680022DA667B68F8
:1044100000225A6700BF5437BD465DF8047B7047E1
:10442000FEFFFFEFF0B52DED028BB0EE408B85B0B7
:1044300017460D9D0C9E18EE902A25F02005002AA7
:10444000B6BF2D220022B1EE408B462D0C461A70CD
:1044500004D0452D00D10134022100E0032103AB3B
:10446000019302AB009322463346B0EE480B01F0B5
:1044700023FE472D14D1FB070AD50219B5EE408B58
:10448000F1EE10FA08BF03923021039B934219D337
:10449000039B0E9A1B1A136005B0BDEC028BF0BD96
:1044A000462D00EB0402E9D10378302B07D1B5EE9D
:1044B000408BF1EE10FA1CBFC4F101043460336884
:1044C0001A44DBE75C1C03941970DEE7F7B500299A
:1044D000BABF49422D232B2309290270437029DDDD
:1044E0000DF107031D460A271A46B1FBF7F607FB35
:1044F0001614303402F8014C0C46632C03F1FF33E0
:104500003146F1DC3031941E03F8011C411C234676
:10451000AB420AD30DF109039B1AAC4288BF0023BA
:1045200002330344181A03B0F0BD13F8016B01F80D
:10453000016FEDE7302330318370C170031DF1E767
:104540002DE9F04F8DB00C46DDF8588016461F4619
:10455000054601F0D9FCD0F800B05846FBF710FF33
:1045600000230A93D8F8003094F818902268059038
:10457000073323F0070303F10801C8F8001093ED97
:10458000000B9FED976BB0EEC07BB4EE467BF1EE77
:1045900010FA84ED120B24DDB5EEC00BF1EE10FA2B
:1045A00002D52D2384F843308F49904BB9F1470F42
:1045B00094BF8846984622F00402032323612260B8
:1045C0004FF0000A009733460BAA2146284600F018
:1045D000D1F9013040F089804FF0FF300DB0BDE8D7
:1045E000F08FB4EE400BF1EE10FA09D710EE903ACE
:1045F000002BBCBF2D2384F843307D497D4BD5E78C
:104600006368591C09F0DF0A39D10623636042F45C
:1046100080620023226003930AABCDE9019309ABCA
:10462000009361680DF123032846FFF7FBFEBAF102
:10463000470F0999804629D1C81C02DB636899425B
:1046400041DDA9F102095FFA89F901394A4604F10D
:1046500050000991FFF73AFF0A9A1318012A82467F
:10466000236102DC2268D20701D5013323619DF862
:104670002330002BA6D02D2384F84330A2E7BAF1D3
:10468000470FC4D1002BC2D10123BFE7B9F1650F99
:10469000DBD9B9F1660F18D1002963680BDD216100
:1046A00013B92268D00702D501330B442361A165F9
:1046B0004FF0000ADBE713B92268D20701D50233B5
:1046C000F4E70123F2E74FF067090A9B994205DB03
:1046D00023682161D807EAD54B1CE7E70029D4BF3E
:1046E000C1F1020201221344E0E723685A0507D40E
:1046F0002369424631462846B84701302AD16BE744
:10470000B9F1650F40F2E08094ED127BB5EE407B8D
:10471000F1EE10FA33D1384A012331462846B84722
:1047200001303FF459AFDDE90938434502DB236826
:10473000D8070FD5059B5A4631462846B847013061
:104740003FF44AAF4FF0000908F1FF3804F11A0AAC
:10475000C84509DC23689B0700F10781E0680B9BD3
:104760009842B8BF184639E70123524631462846D9
:10477000B84701303FF430AF09F10109E8E7099B80
:10478000002B3BDC1C4A012331462846B847013048
:104790003FF422AFDDE9093959EA030302D1236866
:1047A000D907D7D5059B5A4631462846B847013028
:1047B0003FF412AF4FF0000A04F11A0B099B5B4261
:1047C000534501DC4B4694E701235A4631462846BF
:1047D000B84701303FF400AF0AF1010AEEE700BF2D
:1047E000FFFFFFFFFFFFEF7F6C8900087089000863
:1047F00074890008788900087C890008A36DDDF8B9
:1048000028A05345A8BF5346002B994637DC002308
:10481000079329EAE97904F11A02A36D079906932F
:10482000A3EB09038B4231DC099B9A453BDC2368EF
:10483000DA0738D4099BAAEB0309069BAAEB03030A
:104840009945A8BF9946B9F1000F34DC4FF0000834
:1048500029EAE97904F11A0B099BAAEB0303A3EBFC
:10486000090343457FF776AF01235A463146284670
:10487000B84701303FF4B0AE08F10108ECE742461A
:1048800031462846B8470130C1D1A5E6012331465B
:1048900028460692B84701303FF49EAE079B069A21
:1048A00001330793B9E7059B5A4631462846B84776
:1048B0000130BFD190E6069A4B4642443146284625
:1048C000B8470130C2D187E6DDF82890B9F1010F71
:1048D00001DCDB0736D50123424631462846B8477E
:1048E00001303FF479AE059B5A4631462846B84719
:1048F00001303FF471AE94ED127BB5EE407BF1EEEA
:1049000010FA09F1FF3918D04B4608F1010231467F
:104910002846B84701300CD15EE601235A4631469D
:104920002846B84701303FF457AE08F10108C845A2
:10493000F3DB534604F15002DCE64FF0000804F1CB
:104940001A0BF4E701234246E1E701234A463146C8
:104950002846B84701303FF43FAE08F10108E3684C
:104960000B995B1A4345F0DCF8E64FF0000804F1C0
:104970001909F4E72DE9F047164698468A680B694D
:10498000DDF820909342B8BF1346336091F843207E
:1049900007460C460AB1013333602368990642BFCB
:1049A000336802333360256815F0060506D104F13B
:1049B000190AE36832689B1AAB4226DC94F843304C
:1049C0002268003B18BF012392062BD404F1430256
:1049D00041463846C84701301ED02368226903F09B
:1049E0000603042B02BFE5683368ED1AA3680CBF09
:1049F00025EAE57500259342C4BF9B1AED180026F1
:104A00001A34B5421AD1002008E00123524641462B
:104A10003846C847013003D14FF0FF30BDE8F0877A
:104A20000135C6E7E1185A1C302081F843002244C2
:104A300094F8451082F843100233C7E70123224659
:104A400041463846C8470130E6D00136D9E7000074
:104A50002DE9FF470F7E0C9E782F914680460C462D
:104A60009A4601F1430207D8622F0AD8002F00F0BE
:104A7000D280582F00F0B98004F1420684F84270C9
:104A80003AE0A7F16303152BF6D801A151F823F002
:104A9000E94A0008FD4A0008794A0008794A0008F6
:104AA000794A0008794A0008FD4A0008794A000856
:104AB000794A0008794A0008794A0008FD4B000845
:104AC000274B0008B74B0008794A0008794A0008CC
:104AD0001F4C0008794A0008274B0008794A000853
:104AE000794A0008BF4B000833681A1D1B68326002
:104AF00004F1420684F8423001239DE033682068C7
:104B0000191D3160060601D51D6803E04506FBD579
:104B1000B3F90050002D03DA2D236D4284F84330A1
:104B200059480A2311E021683368080653F8045BEA
:104B300002D4490648BFADB26F2F5348336014BF4B
:104B40000A230823002184F843106668A660002E1B
:104B5000A2BF216821F0040121600DB9002E4BD0C5
:104B60001646B5FBF3F103FB1157C75D06F8017D4F
:104B70002F46BB420D46F4D9082B0BD12368DF0723
:104B800008D5236961689942DEBF302306F8013CED
:104B900006F1FF36921B2261CDF800A04B4603AA16
:104BA00021464046FFF7E6FE01304AD14FF0FF3084
:104BB00004B0BDE8F087236843F020032360334846
:104BC000782784F84570236831681F0651F8045B24
:104BD00002D45F0648BFADB23160D90744BF43F08D
:104BE000200323601DB11023ACE72748E9E72368C1
:104BF00023F020032360F6E71646BDE733682568F7
:104C00006169181D30602E061B6801D5196002E02D
:104C10006806FBD51980002323611646BCE733687C
:104C20001A1D32601E68626800213046FBF758FB8F
:104C300008B1801B606063682361002384F84330FF
:104C4000AAE72369324649464046D0470130ADD0F5
:104C500023689B0713D4E068039B9842B8BF1846AB
:104C6000A6E70123324649464046D04701309DD051
:104C70000135E36803995B1AAB42F2DCEBE70025F0
:104C800004F11906F5E700BF7E8900088F89000846
:104C90002DE9F04F87B0174603938B685A1EB2F583
:104CA000AE7F81BF6FF4AE7503EB050B40F25D1371
:104CB0008B600B680A464FF0000543F4F06342F83E
:104CC0001C3BCDE9045580460C4698BF4FF0000BC5
:104CD00001921646AA46A9460295A26852B13B68BF
:104CE0001B784E2B64D8402B3CD8A3F12B01C8B2C3
:104CF0000E283AD9B9F1000F03D0236823F480734A
:104D000023600AF1FF3ABAF1010F00F21781019B0B
:104D10009E4200F20881012007B0BDE8F08FA3F1A8
:104D200061020D2AE6D801A151F822F0734E000865
:104D3000F54C0008F54C0008F54C0008D34E00086F
:104D4000AB4E0008F54C0008F54C0008814E0008F9
:104D5000F54C0008F54C0008F54C0008F54C00082F
:104D6000394E0008A3F14102DBE70E29C2D801A0A9
:104D700050F821F0294E0008F54C0008294E000893
:104D8000BF4E0008F54C0008D14D00080F4E00083A
:104D90000F4E00080F4E00080F4E00080F4E00087F
:104DA0000F4E00080F4E00080F4E00080F4E00086F
:104DB0006E2B09D8602BB2D8542B7BD0592B99D1AC
:104DC000072D97D108252CE0742B73D0792BF6E7AB
:104DD0002168C8051BD521F08001216009F1010976
:104DE000BBF1000F03D001320BF1FF3BA260A368BF
:104DF000013BA3602369013323617B68013B002BE6
:104E00007B6040F387803B6801333B6065E71AEBCA
:104E100005017FF46FAF226822F4C07222600D4654
:104E20008A4606F8013BE2E7226810067FF562AF8A
:104E300022F080022260F4E7BAF1000F0ED1B9F13E
:104E4000000F0ED1226802F4E061B1F5E06F08D1E5
:104E500022F4F06222604FF0010AE2E7BAF1020F99
:104E600055D0012D02D0042D7FF444AF0135EDB2B1
:104E7000D7E7BAF1010F7FF43DAF4FF0020AD0E758
:104E80007DB9B9F1000F7FF438AF226802F4E06118
:104E9000B1F5E06F40F0018122F4F062226001255B
:104EA000BFE7032DE2D0052DDEE7022D7FF422AF10
:104EB0000325B6E7062D7FF41DAF0725B1E722686D
:104EC00091057FF517AF22F420722260CDF808908B
:104ED000A7E7226802F4A061B1F5806F06D0500503
:104EE0007FF508AFB9F1000F00F0D780910558BFEA
:104EF000029922F4F06258BFA9EB010142F4C0729A
:104F000058BFCDE9041622604FF0000989E74FF041
:104F1000030A86E7D4F8803139464046984700288E
:104F20003FF4DBAEE6E6D4F87C3116F8011D3A46D4
:104F3000404698472369013B2361E8E66B1E062B38
:104F400024D8022D36D8019B9E427FF6E4AED4F8D9
:104F50007C3116F8011D3A46404698472369013BCB
:104F60002361F0E7D4F87C311BF8011D3A46404636
:104F700098472369013B23610AF1FF3A5FFA8AFAF5
:104F8000BAF1020FEED1033DEDB2761B2368DA05CC
:104F900030D55B0511D5019B9E427FF6BCAED4F89F
:104FA0007C3116F8011D3A46404698472369013B7B
:104FB0002361F0E7AA46B346DEE716F8011C236931
:104FC000652903F1FF3306F1FF3523610CD0452934
:104FD0000AD0D4F87C313A4640469847236916F8FF
:104FE000021C013BB51E2361D4F87C313A46404691
:104FF00098472E46226812F0100201D000208BE65E
:105000003270236803F4C063B3F5806F1AD1029B3A
:105010004B45A3EB090221D101990022404600F043
:10502000B9FE039B21681B6811F0020F03F1040213
:105030001FD003990A601B6883ED000BE3680133FE
:10504000E360DBE7049B002BE6D005990A230131DE
:10505000404600F01FFF049B059EC21A04F26F1326
:105060009E4228BF04F5B7760D49304600F01CF883
:10507000D2E711F0040F03990A60DCD1B4EE400BC3
:10508000F1EE10FA1D6805D7064800F085FF85EDA2
:10509000000AD3E7B7EEC00BF9E74FF0000930E69E
:1050A000A0890008938D00080EB400B59CB01DAB1C
:1050B000029006906FF00041094807910491094958
:1050C00053F8042B05910068019302A902F0DEF861
:1050D000029B00221A701CB05DF804EB03B070470D
:1050E000A40100240802FFFF002310B50446C0E914
:1050F0000033C0E90433836081814366C2818361E8
:10510000194608225C3000F0F7FE0D4B63620D4B30
:10511000A3620D4BE3620D4B23630D4B24629C4253
:1051200006D003F16802944202D0D0339C4205D1EC
:1051300004F15800BDE8104000F014BF10BD00BFDE
:10514000CB800008ED800008258100084981000817
:10515000C8020024024A0349034800F09DBE00BF74
:105160002C00002405770008A801002441680C4B9E
:10517000994210B5044601D002F0C4FAA168094B67
:10518000994202D0204602F0BDFAE168064B9942EE
:1051900004D02046BDE8104002F0B4BA10BD00BFF4
:1051A000C8020024300300249803002410B50B4BE0
:1051B0000B4C0C4A1A60204600220421FFF794FF92
:1051C00004F1680001220921FFF78EFF04F1D000ED
:1051D0000222BDE810401221FFF786BF0004002420
:1051E000C802002455510008014800F0BCBE00BFB1
:1051F00005040024014800F0B7BE00BF05040024E8
:1052000010B50446FFF7F0FF236A1BB1BDE810405C
:10521000FFF7F0BF044B2362044B1B68002BF5D152
:10522000FFF7C4FFF2E700BF6D510008000400243F
:1052300070B504460D46164645EC104B02F00AFECA
:105240007EB1C5F30A53C3F16B03002B09DD1B05C7
:1052500003F17F51002001F5401141EC170B20EEC6
:10526000070B70BD000000002DE9F04F2DED0A8BFB
:1052700097B088460E920022129205904FF0000AD5
:105280004FF0000B0A46119211782B294CD039D8D7
:105290000D2933D8082933D800293CD000220892A0
:1052A000119D2A78302A40F0B5806A7802F0DF023A
:1052B000582A70D10293089B019312AB00938B4A3A
:1052C000059813AB11A901F0B5FC10F00F060446C8
:1052D00005D0062E2AD101350023119508930E9B87
:1052E000002B40F02F85089B4BEC10ABCBB1B1EEFF
:1052F000400B17B0BDEC0A8BBDE8F08F2029CDD153
:105300000132C0E72D29C9D101210891511C119109
:105310005278002AC4D10E9BCDF84480002B40F077
:105320000F854BEC10ABE4E70021EEE7129A3AB19F
:10533000352114A802F085FE1299059802F056FA5C
:10534000731E139A042B06D8DFE803F014031D2004
:105350001400DDE914ABE30548BF4BF0004B2BF024
:1053600000431B0D1B05002BB9D100F0D1FD2223FA
:105370000360B4E7DDE914A302F2334223F480139F
:1053800043EA025BE7E7DFF86CB1E4E76FF0004B5C
:105390004FF0FF3ADFE7119B5A1C11925B78302BDC
:1053A000F9D0002B9BD0012300260793119B0A9371
:1053B000B14635460A2211980478A4F13003D9B2D7
:1053C000092929D94A49012200F084FD78B3002037
:1053D00022462B4607460690652A01D0452A17D15A
:1053E0001BB9079B034396D00023DDF8448008F1E6
:1053F0000102119298F801202B2A6BD02D2A71D02E
:105400004FF0000EA2F13004092C79D9CDF8448078
:10541000002494E00023C7E7082D00F10100D4BF69
:1054200002FB093902FB063601351190C3E7119BD7
:105430005A1C11925A7875B307462B46A2F13001D7
:10544000092913D901210691C6E7119B5A1C119213
:105450005A780130302AF8D0A2F13103082B00F23B
:105460007684119B0A93074600200346303A00F1E8
:10547000010123D00F4400EB030C19460A246145B7
:105480000BD15C1C0344082B044411DC0A2303FBEE
:105490000929002113E02846DCE7082901F1010170
:1054A00002DC04FB09F9EAE71029D8BF6643E6E706
:1054B0000F2BEEDC0A2303FB0626EAE71C46119BB2
:1054C0005A1C11925A7808462346B7E70123002751
:1054D000069386E74FF0000E08F10202119298F849
:1054E00002208FE74FF0010EF6E700BFBC890008ED
:1054F000A58900080000F07F119A541C119452787D
:10550000302AF9D0A2F13104082C81D8A2F1300C54
:10551000119A0992119A511C11915278A2F13004FA
:10552000092C38D9099C0C1B082C44F61F6402DC9A
:105530006445A8BF6446BEF1000F00D06442002B52
:105540004ED1079B18437FF4CAAE069B002B7FF415
:10555000E2AE692A27D024DC492A24D04E2A7FF4DF
:10556000DAAE974911A801F087FD00283FF4D3AEC9
:10557000119B1B78282B2DD1924914AA11A801F058
:105580008FFD052826D1159BDDF850A043F0FF4B79
:105590004BF4E00BA3E60A2404FB0C2CACF1300C1A
:1055A000B8E76E2ADBE7884911A801F065FD0028FD
:1055B0003FF4B1AE119B8549013B11A8119301F055
:1055C0005BFD10B9119B01331193DFF814B24FF05A
:1055D000000A84E67E4800F0D7FC5BEC10AB7EE668
:1055E00007EE909AE21BB8EE677B002D08BF1D46C0
:1055F000102B09921A46A8BF1022092B5BEC17AB9F
:1056000015DCE11B00293FF46AAEA4EB070172DD53
:10561000162959DC6F4B099A03EBC20393ED007B0B
:105620004BEC16AB27EE067B5BEC17AB57E66949F4
:1056300001EBC20111ED125B06EE906A0F2BB8EE82
:10564000666BA7EE056B5BEC16ABDADD9A1AE11B15
:105650000A44002A40F3948012F00F000AD05D49FA
:1056600001EBC00191ED007B4BEC16AB27EE067B06
:105670005BEC17AB32F00F0273D0B2F59A7F47DDC7
:105680000024254607942646059ADFF854B12223C4
:1056900013604FF0000A079B002B3FF420AE1299D5
:1056A000059802F0A3F80598314602F09FF8059896
:1056B000294602F09BF80799059802F097F805989B
:1056C000214602F093F80AE6C3F12501E01B81426E
:1056D000BCDB404AC3F10F0302EBC30191ED007B39
:1056E00009994BEC16ABCB1A02EBC30227EE067BF3
:1056F00092ED006B96E71631A8DB364B3C1B03EBB3
:10570000C40494ED007B4BEC16AB86EE077B8BE775
:1057100000204BEC17AB304E12110146012A23DC5E
:1057200008B15BEC17AB2C4A2C4802EBC10292ED9E
:10573000007BABF1547B4BEC16AB294A27EE067B82
:1057400017EE901A0A4082425BEC17AB98D8A0F58E
:105750008010824286BFDFF88CB04FF0FF3A01F133
:10576000547B0022069276E012F0010F04D096EDF1
:10577000006B012027EE067B013152100836CDE781
:10578000EFD0524212F00F000AD0124901EBC001D3
:1057900091ED007B4BEC16AB86EE077B5BEC17AB19
:1057A0001211DED01F2A1FDD00242546079426464D
:1057B000059A22234FF0000A4FF0000B13606AE7AE
:1057C00079890008A889000871890008048B0008FD
:1057D000938D0008908C0008688C00080000A07C65
:1057E0000000F07FFFFFEF7F12F0100118BF6A2169
:1057F00006914BEC17ABB0490020D60704D591EDCC
:10580000006B012027EE067B521001F10801F4D154
:1058100008B15BEC17AB069AB2B1CBF30A51C1F1F8
:105820006B02002A58460FDD1F2A55DD342ADEBFE1
:105830004FF0FF32C1F14B018A404FF0000ACCBF5C
:105840004FF05C7B02EA000B4BEC17ABB5EE407BF4
:10585000F1EE10FAA8D00A990598CDF800902A46E2
:1058600002F02CF8079000283FF40AAF099B3F1B79
:10587000002BB4BF3B4600230A93099B9FED8ABBD4
:1058800023EAE37300240D932546079B0598596886
:1058900001F06CFF064600283FF4F6AE079B1A693C
:1058A0004BEC19AB023203F10C0192000C3000F00A
:1058B0005CFBB0EE490B059814AA13A902F03AFB61
:1058C000129000283FF4E0AE0598012102F08CF818
:1058D000054640B90025D7E64FF0FF3101FA02F244
:1058E00002EA0A0AB0E7139F149A002FABBF0A9B83
:1058F0000D9BDDF83480DDF82890ACBF07EB030981
:10590000A3EB0708069BFF1A1744C2F136036B4A44
:10591000013F974251DAD11B1F29A3EB01034FF03E
:1059200001023EDC8A400C9200220B9209EB030735
:105930009844069BB94598444B46A8BF3B4643450F
:10594000A8BF4346002BC2BFFF1AA8EB0308A9EB70
:1059500003090A9B002B16DD294605981A4602F01A
:1059600003F905460028B5D00146129A059802F0C1
:1059700051F80F9000283FF487AE1299059801F076
:1059800035FF0F9B1293002F1BDC099B002B21DDA1
:1059900031460D9A059802F0E7F80646D0B9002680
:1059A00072E6C7F17F4707F57F0707F57B47E237C8
:1059B00002FA07F10B910C92B8E700220B92012238
:1059C000F9E7129905983A4602F028F91290002852
:1059D000DBD159E6B8F1000F07DD314605984246A4
:1059E00002F01CF906460028D9D0B9F1000F08DDF5
:1059F000294605984A4602F011F9054600283FF469
:105A000043AE12990598324602F090F904460028F8
:105A10003FF43AAE0023D0F80C80C360294602F070
:105A200069F900284EDA58EA0A0874D1CBF3130357
:105A3000002B70D12BF000431B0D1B05B3F1D66F6B
:105A400069D9636913B92369012B64DD21460122F9
:105A5000059802F0E3F82946044602F04BF90028C5
:105A600059DD2BF00043069A1B0D1B05002A70D050
:105A7000B3F1D66F6DD8B3F15C7F7FF699AE9FED31
:105A80000C7B4BEC16AB0E4B26EE077B17EE902AE9
:105A900013405BEC17AB002B7FF401AE059A222379
:105AA0001360FCE5AFF300800000C0FFFFFFDF41A3
:105AB0000000000000005039D089000802FCFFFF00
:105AC0000000F07FD9465DD1CBF31303B8F1000F8E
:105AD0002AD0AB4A93422AD1069B5246FBB1A94B2E
