:020000040800F2
:100000000080012015140008391300083B13000874
:100010003D1300083F1300084113000800000000D2
:100020000000000000000000000000000143000884
:10003000431300080000000091430008472D00080A
:1000400065140008651400086514000865140008AC
:10005000651400086514000865140008651400089C
:10006000651400086514000865140008651400088C
:10007000651400086514000865140008651400087C
:10008000651400086514000865140008651400086C
:10009000651400086514000865140008651400085C
:1000A000651400086514000865140008651400084C
:1000B000651400086514000865140008651400083C
:1000C000651400086514000865140008651400082C
:1000D000651400086514000865140008651400081C
:1000E000651400086514000865140008651400080C
:1000F00065140008651400086514000865140008FC
:1001000065140008651400086514000865140008EB
:1001100065140008651400084513000865140008FC
:1001200065140008651400086514000865140008CB
:1001300065140008651400086514000865140008BB
:1001400065140008651400086514000865140008AB
:10015000651400086514000865140008651400089B
:10016000651400086514000865140008651400088B
:1001700065140008651400086514000800000000FC
:08018000651400086514000875
:1001900010B5054C237833B9044B13B10448AFF3C1
:1001A00000800123237010BDD80100200000000052
:1001B000148F000808B5034B1BB103490348AFF384
:1001C000008008BD00000000DC010020148F000842
:1001D00001F0FF01102A2BDB10F0070F08D010F8F8
:1001E000013B013A8B422DD010F0070F42B3F6D1FC
:1001F000F0B441EA012141EA014122F007047FF015
:1002000000070023F0E80256083C85EA010586EA6B
:10021000010685FA47F5A3FA87F586FA47F6A5FAA7
:1002200087F68EB9EED1F0BC01F0FF0102F00702B3
:1002300032B110F8013B013A83EA010313B1F8D15E
:100240000020704701387047002D06BF354603383F
:10025000073815F0010F07D1013015F4807F02BF78
:10026000013015F4C03F0130F0BC0138704700BFC9
:10027000034613F8012B002AFBD1181A01387047E6
:1002800081F0004102E000BF83F0004330B54FEA47
:1002900041044FEA430594EA050F08BF90EA020FB4
:1002A0001FBF54EA000C55EA020C7FEA645C7FEA47
:1002B000655C00F0E2804FEA5454D4EB5555B8BF6A
:1002C0006D420CDD2C4480EA020281EA030382EADB
:1002D000000083EA010180EA020281EA0303362D6D
:1002E00088BF30BD11F0004F4FEA01314FF4801C40
:1002F0004CEA113102D0404261EB410113F0004F52
:100300004FEA03334CEA133302D0524263EB430308
:1003100094EA050F00F0A780A4F10104D5F1200EA6
:100320000DDB02FA0EFC22FA05F2801841F1000101
:1003300003FA0EF2801843FA05F359410EE0A5F1D5
:1003400020050EF1200E012A03FA0EFC28BF4CF006
:10035000020C43FA05F3C01851EBE37101F00045BC
:1003600007D54FF0000EDCF1000C7EEB00006EEBC9
:100370000101B1F5801F1BD3B1F5001F0CD3490853
:100380005FEA30004FEA3C0C04F101044FEA4452AA
:1003900012F5800F80F09A80BCF1004F08BF5FEA31
:1003A000500C50F1000041EB045141EA050130BD11
:1003B0005FEA4C0C404141EB0101013C28BFB1F523
:1003C000801FE9D291F0000F04BF01460020B1FA6E
:1003D00081F308BF2033A3F10B03B3F120020CDA41
:1003E0000C3208DD02F1140CC2F10C0201FA0CF01F
:1003F00021FA02F10CE002F11402D8BFC2F1200C84
:1004000001FA02F120FA0CFCDCBF41EA0C01904039
:10041000E41AA2BF01EB0451294330BD6FEA040482
:100420001F3C1CDA0C340EDC04F11404C4F120026D
:1004300020FA04F001FA02F340EA030021FA04F37F
:1004400045EA030130BDC4F10C04C4F1200220FAD6
:1004500002F001FA04F340EA0300294630BD21FA14
:1004600004F0294630BD94F0000F83F4801306BFDA
:1004700081F480110134013D4EE77FEA645C18BFCE
:100480007FEA655C29D094EA050F08BF90EA020F65
:1004900005D054EA000C04BF1946104630BD91EA5D
:1004A000030F1EBF0021002030BD5FEA545C05D160
:1004B0004000494128BF41F0004130BD14F580049F
:1004C0003CBF01F5801130BD01F0004545F0FE4113
:1004D00041F470014FF0000030BD7FEA645C1ABF48
:1004E000194610467FEA655C1CBF0B46024650EA7F
:1004F000013406BF52EA033591EA030F41F40021AB
:1005000030BD00BF90F0000F04BF0021704730B530
:100510004FF4806404F132044FF000054FF0000105
:1005200050E700BF90F0000F04BF0021704730B5C6
:100530004FF4806404F1320410F0004548BF40429B
:100540004FF000013EE700BF42004FEAE2014FEAF0
:1005500031014FEA02701FBF12F07F4393F07F4FCB
:1005600081F06051704732F07F4208BF704793F0CE
:100570007F4F04BF41F40021704730B54FF46074E1
:1005800001F0004521F000411CE700BF50EA0102E4
:1005900008BF704730B54FF000050AE050EA01028D
:1005A00008BF704730B511F0004502D5404261EBFD
:1005B00041014FF4806404F132045FEA915C3FF43E
:1005C000D8AE4FF003025FEADC0C18BF03325FEADB
:1005D000DC0C18BF033202EBDC02C2F1200300FA8C
:1005E00003FC20FA02F001FA03FE40EA0E0021FAB1
:1005F00002F11444BDE600BF70B54FF0FF0C4CF49F
:10060000E06C1CEA11541DBF1CEA135594EA0C0F50
:1006100095EA0C0F00F0DEF82C4481EA030621EA8B
:100620004C5123EA4C5350EA013518BF52EA0335C6
:1006300041F4801143F4801338D0A0FB02CE4FF078
:100640000005E1FB02E506F00042E0FB03E54FF0A8
:100650000006E1FB03569CF0000F18BF4EF0010EA0
:10066000A4F1FF04B6F5007F64F5407404D25FEA9C
:100670004E0E6D4146EB060642EAC62141EA55514F
:100680004FEAC52040EA5E504FEACE2EB4F1FD0C91
:1006900088BFBCF5E06F1ED8BEF1004F08BF5FEA0F
:1006A000500E50F1000041EB045170BD06F00046C1
:1006B00046EA010140EA020081EA0301B4EB5C046E
:1006C000C2BFD4EB0C0541EA045170BD41F4801166
:1006D0004FF0000E013C00F3AB8014F1360FDEBF8B
:1006E000002001F0004170BDC4F10004203C35DA67
:1006F0000C341BDC04F11404C4F1200500FA05F3EA
:1007000020FA04F001FA05F240EA020001F000428A
:1007100021F0004110EBD37021FA04F642EB060100
:100720005EEA430E08BF20EAD37070BDC4F10C042A
:10073000C4F1200500FA04F320FA05F001FA04F2EE
:1007400040EA020001F0004110EBD37041F10001DA
:100750005EEA430E08BF20EAD37070BDC4F12005E5
:1007600000FA05F24EEA020E20FA04F301FA05F24D
:1007700043EA020321FA04F001F0004121FA04F2F5
:1007800020EA020000EBD3705EEA430E08BF20EAC5
:10079000D37070BD94F0000F0FD101F000464000FF
:1007A00041EB010111F4801F08BF013CF7D041EA81
:1007B000060195F0000F18BF704703F00046520085
:1007C00043EB030313F4801F08BF013DF7D043EA56
:1007D0000603704794EA0C0F0CEA135518BF95EA0C
:1007E0000C0F0CD050EA410618BF52EA4306D1D193
:1007F00081EA030101F000414FF0000070BD50EAB2
:10080000410606BF1046194652EA430619D094EA3B
:100810000C0F02D150EA013613D195EA0C0F05D125
:1008200052EA03361CBF104619460AD181EA030179
:1008300001F0004141F0FE4141F470014FF0000031
:1008400070BD41F0FE4141F4780170BD70B54FF0CC
:10085000FF0C4CF4E06C1CEA11541DBF1CEA13554C
:1008600094EA0C0F95EA0C0F00F0A7F8A4EB05042E
:1008700081EA030E52EA03354FEA013100F0888025
:100880004FEA03334FF0805545EA131343EA1263EE
:100890004FEA022245EA111545EA10654FEA0026A3
:1008A0000EF000419D4208BF964244F1FD0404F55C
:1008B000407402D25B084FEA3202B61A65EB0305B8
:1008C0005B084FEA32024FF480104FF4002CB6EB75
:1008D000020E75EB030E22BFB61A754640EA0C00F5
:1008E0005B084FEA3202B6EB020E75EB030E22BF35
:1008F000B61A754640EA5C005B084FEA3202B6EB76
:10090000020E75EB030E22BFB61A754640EA9C0034
:100910005B084FEA3202B6EB020E75EB030E22BF04
:10092000B61A754640EADC0055EA060E18D04FEAC2
:10093000051545EA16754FEA06164FEAC30343EA62
:1009400052734FEAC2025FEA1C1CC0D111F4801F2F
:100950000BD141EA00014FF000004FF0004CB6E728
:1009600011F4801F04BF01430020B4F1FD0C88BFC7
:10097000BCF5E06F3FF6AFAEB5EB030C04BFB6EBD2
:10098000020C5FEA500C50F1000041EB045170BDC5
:100990000EF0004E4EEA113114EB5C04C2BFD4EBF2
:1009A0000C0541EA045170BD41F480114FF0000E76
:1009B000013C90E645EA060E8DE60CEA135594EAF2
:1009C0000C0F08BF95EA0C0F3FF43BAF94EA0C0FF5
:1009D0000AD150EA01347FF434AF95EA0C0F7FF46A
:1009E00025AF104619462CE795EA0C0F06D152EABE
:1009F00003353FF4FDAE1046194622E750EA4106A2
:100A000018BF52EA43067FF4C5AE50EA41047FF4B2
:100A10000DAF52EA43057FF4EBAE12E74FF0FF3C17
:100A200006E000BF4FF0010C02E000BF4FF0010CE8
:100A30004DF804CD4FEA410C7FEA6C5C4FEA430C61
:100A400018BF7FEA6C5C1BD001B050EA410C0CBFB0
:100A500052EA430C91EA030F02BF90EA020F002012
:100A6000704710F1000F91EA030F58BF994208BF79
:100A700090422CBFD8176FEAE37040F00100704736
:100A80004FEA410C7FEA6C5C02D150EA013C07D18D
:100A90004FEA430C7FEA6C5CD6D152EA033CD3D0D8
:100AA0005DF8040B704700BF8446104662468C46D2
:100AB0001946634600E000BF01B5FFF7B7FF002805
:100AC00048BF10F1000F01BD4DF808EDFFF7F4FF2E
:100AD0000CBF012000205DF808FB00BF4DF808EDB9
:100AE000FFF7EAFF34BF012000205DF808FB00BFDC
:100AF0004DF808EDFFF7E0FF94BF012000205DF8FE
:100B000008FB00BF4DF808EDFFF7CEFF94BF0120B2
:100B100000205DF808FB00BF4DF808EDFFF7C4FFAB
:100B200034BF012000205DF808FB00BF4FEA410CF4
:100B30007FEA6C5C02D150EA013C0AD14FEA430CD7
:100B40007FEA6C5C02D152EA033C02D14FF0000014
:100B500070474FF0010070474FEA410212F5001252
:100B600015D211D56FF47873B3EB625212D94FEAF4
:100B7000C12343F0004343EA505311F0004F23FADE
:100B800002F018BF404270474FF00000704750EA33
:100B9000013005D111F0004008BF6FF000407047F0
:100BA0004FF00000704700BF4A0011D212F500124A
:100BB00011D20DD56FF47873B3EB62520ED44FEAB5
:100BC000C12343F0004343EA505323FA02F0704735
:100BD0004FF00000704750EA013002D14FF0FF3073
:100BE00070474FF0000070474FEA4102B2F1E04316
:100BF00024BFB3F5001CDCF1FE5C0DD901F0004C04
:100C00004FEAC0024CEA5070B2F1004F40EB830053
:100C100008BF20F00100704711F0804F21D113F17F
:100C20003872BCBF01F00040704741F480114FEAB8
:100C30005252C2F11802C2F1200C10FA0CF320FA41
:100C400002F018BF40F001004FEAC1234FEAD3235E
:100C500003FA0CFC40EA0C0023FA02F34FEA4303C8
:100C6000CCE77FEA625307D150EA01331EBF4FF051
:100C7000FE4040F44000704701F0004040F0FE406C
:100C800040F40000704700BF53B94AB9002908BFBB
:100C900000281CBF4FF0FF314FF0FF3000F0A0B92B
:100CA000ADF1080C6DE904CE00F03CF8DDF804E08D
:100CB000DDE9022304B0704738B500220023044662
:100CC0000D46FFF70BFF28B920462946BDE83840FE
:100CD00000F00AB8204605F1004100F005F8404256
:100CE00061EB410138BD00BFD0B50C4B0022064678
:100CF0000F46FFF781FCFFF757FF0446FFF702FCA2
:100D0000074B0022FFF778FC02460B463046394677
:100D1000FFF7BAFAFFF748FF2146D0BD0000F03DCB
:100D20000000F0412DE9F047089D0C46002B4ED104
:100D300094468C458646B2FA82F262D94AB1C2F133
:100D40002003914020FA03F30CFA02FC194300FA45
:100D500002FE4FEA1C471FFA8CF6B1FBF7F44FEA8C
:100D60001E4307FB141143EA014304FB06F19942B9
:100D70000AD91CEB030304F1FF3080F01281994281
:100D800040F20F81023C6344591A1FFA8EF3B1FB03
:100D9000F7F007FB101143EA014300FB06F69E4201
:100DA0000AD91CEB030300F1FF3180F0FC809E4266
:100DB00040F2F980634402389B1B40EA0440002162
:100DC0001DB1D3400022C5E90032BDE8F0878B4257
:100DD00005D90DB1C5E9000100210846F5E7B3FAD0
:100DE00083F1002946D1A34202D39042C0F0F080A3
:100DF000861A64EB03030120002DE6D0C5E90063E9
:100E0000E3E7002A40F09080A1EB0C044FEA1C4875
:100E10001FFA8CF70121B4FBF8F64FEA1E4308FBDA
:100E2000164443EA044307FB06F0984208D91CEB3A
:100E3000030306F1FF3402D2984200F2CD80264629
:100E40001C1A1FFA8EF3B4FBF8F008FB104443EAB7
:100E5000044300FB07F79F4208D91CEB030300F192
:100E6000FF3402D29F4200F2B0802046DB1B40EAF2
:100E70000640A5E7C1F120068B4022FA06F71F4382
:100E800020FA06FC04FA01F343EA0C03F44000FAEA
:100E900001F8380C4FEA1349B4FBF0FE1FFA87FC47
:100EA00000FB1E4449EA04440EFB0CF9A14502FA7A
:100EB00001F20AD93C190EF1FF3A80F08480A14575
:100EC00040F28180AEF1020E3C44A4EB09041FFA0B
:100ED00083F9B4FBF0F300FB134449EA044403FB39
:100EE0000CFCA44507D93C1903F1FF3067D2A44597
:100EF00065D9023B3C4443EA0E40A0FB0293A4EBBD
:100F00000C049C42CE469C4651D34ED055B1B8EB12
:100F10000E0364EB0C0404FA06F6CB401E43CC40EF
:100F2000C5E90064002150E7C2F1200320FA03F173
:100F30000CFA02FC24FA03F394400C434FEA1C48D9
:100F400000FA02FE1FFA8CF7B3FBF8F008FB103131
:100F5000230C43EA014300FB07F1994208D91CEB3B
:100F6000030300F1FF362CD299422AD90238634498
:100F70005B1AA4B2B3FBF8F108FB113344EA034453
:100F800001FB07F3A34208D91CEB040401F1FF366F
:100F900013D2A34211D902396444E41A41EA004150
:100FA00039E70446F0E6084606E7C845AED2B9EB95
:100FB000020E63EB070C0138A8E73146EDE7034664
:100FC00099E73046D4E7D6467FE7634402384DE7D9
:100FD0000646234608460FE7023E634430E700BF5B
:100FE000704700BF4FF06043D3F8802ED1070AD579
:100FF000D3F8002ED20701D4704700BF1A68002A28
:10100000FBD0C0B21870704700B597B044220021E1
:1010100005A805F0A7F914220021684605F0A2F9F9
:101020004FF4007000F082FB08B172B6FEE71022A8
:101030004FF480710120CDE908120A220223CDE984
:101040001102072205A8CDE90F33CDE9132305933B
:10105000159300F031FC08B172B6FEE7CDE902004D
:101060000F220323049004216846CDE9002300F0F9
:10107000A1FE08B172B6FEE717B05DF804FB0000F0
:1010800000B58BB000F0F0F9FFF7BEFF142200218D
:101090000DEB020005F066F9344BDA6C42F0040205
:1010A000DA64DA6C02F004020192019ADA6C42F01E
:1010B0008002DA64DA6C02F080020292029ADA6C40
:1010C00042F00102DA64DA6C02F001020392039A40
:1010D000DA6C42F00202DA64DB6C03F00203049380
:1010E000002220214FF090400024049B00F010FBD0
:1010F0004FF400524FF404131D48079405A9CDE99D
:10110000052300F02BFA01232021CDE905134FF030
:10111000904005A9CDE9074400F020FA1548DFF812
:1011200078C004614FF4E133C0E900C30C23C0E987
:101130000244C0E90534C0E90744446201F0D5FD2A
:1011400008B172B6FEE701F00BFE0B4A0B490C48E2
:1011500001F032FE0B4B0C4A18600C490C4801F0B0
:101160002BFE0C4B186001F00DFEFEE70010024054
:1011700000080048FC0100208C8F0008308F000818
:10118000AD110008F8010020688F0008458F0008A5
:10119000BF110008F40100200044004008B5FFF72B
:1011A00021FFBDE808400A20FFF71CBF08B5C4B204
:1011B0002046FFF7F3FF012001F045FEF8E708B5F0
:1011C000FFF7F4FF0268034B9A4201D100F062B9C5
:1011D000704700BF0010004072B6FEE70D4B1A6E5C
:1011E00042F001021A661A6E82B002F00102009209
:1011F000009A9A6D42F080529A659B6D03F080537D
:101200000193019B00220F216FF0010002B000F05A
:1012100065B900BF0010024010B5AAB00446142200
:10122000002103A805F09EF88822002108A805F0F7
:1012300099F82268174B9A4229D1022308A80893EB
:1012400000F0A4FF08B1FFF7C7FF134B9A6D42F4FB
:1012500000329A659A6D02F400320192019ADA6CBA
:1012600042F00102DA64DB6C03F001030293029B9B
:101270000C2202230021CDE903230323CDE905132A
:101280004FF09040072303A9079300F067F92AB0B5
:1012900010BD00BF0044004000100240214B70B55B
:1012A0009A6D42F010029A659B6D88B003F01003AE
:1012B0000293054601A903A8029B00F049FE069B84
:1012C0004BBB00F021FE184E184B336040F2E73361
:1012D000F360174BB0FBF3F3013B73603046002320
:1012E0003361B360B36101F093FA044680B93046CC
:1012F00001F044F9044658B9362000F021F90F2DC9
:101300000DD822462946362000F0E8F8094B1D602A
:10131000204608B070BD00F0F7FD4000D3E701247F
:10132000F6E700BF001002408402002000100040D9
:1013300040420F0008000020FEE7FEE7FEE7FEE760
:10134000FEE77047014801F057B900BF8402002052
:101350000120704708B505F067F8162303604FF0C9
:10136000FF3008BD08B505F05FF816230360FEE7FF
:1013700070B50D4614460E46731B9C4201DC204698
:1013800070BDAFF3008006F8010BF5E770B50D46B0
:1013900014460E46731B9C4201DC204670BD16F8B5
:1013A000010BAFF30080F5E74FF0FF3070474FF4CB
:1013B00000534B60002070470120704700207047A9
:1013C0000B4A116810B5034609B90A491160106843
:1013D00009490A4C0344091B8B4206D905F024F83D
:1013E0000C2303604FF0FF3010BD1360FCE700BF1B
:1013F000D0020020C01D0020008001200004000059
:10140000034AD2F8883043F47003C2F8883070473A
:1014100000ED00E0DFF834D0FFF7F2FF0C480D4993
:101420000D4A002302E0D458C4500433C4188C423F
:10143000F9D30A4A0A4C002301E013600432A242A5
:10144000FBD304F0F7FFFFF71BFEFEE7008001204F
:1014500000000020D801002044940008D80100209A
:10146000C01D0020FEE70000094A136843F48073A2
:1014700010B50320136000F01FF80F20FFF70EFFD8
:10148000044618B9FFF7AAFE204610BD0124FBE769
:1014900000200240034A044B11681B780B44136080
:1014A000704700BFD402002004000020014B1868E0
:1014B000704700BFD40200200749CA6822F4E062E6
:1014C0000302120403F4E063120C134343F0BF63FE
:1014D00043F40033CB60704700ED00E0164B30B5AD
:1014E000DC68C4F30224C4F10703251D042B28BFC4
:1014F0000423062D4FF0FF358CBF033C002405FA72
:1015000003F321EA0303A54022EA0502A3400028D1
:1015100043EA0203ACBF00F16040084A4FEA0313FC
:10152000B8BF00F00F00DBB2AABF00F56140135452
:1015300080F8003330BD00BF00ED00E014ED00E0A6
:10154000002807DB044A4109012300F01F00834003
:1015500042F82130704700BF00E100E02DE9F74F6D
:10156000DFF8A891674C00230A6832FA03F502D12C
:1015700003B0BDE8F08F012505FA03F818EA02026E
:1015800000F0B1804D68032705F003064FEA430ED3
:1015900007FA0EFC771E012F6FEA0C0C34D887680F
:1015A00007EA0C0ACF6807FA0EF747EA0A078760CE
:1015B000476827EA0808C5F300179F4047EA08076D
:1015C0004760C76807EA0C088F6807FA0EF747EA12
:1015D0000807022EC76022D14FEAD30800EB880823
:1015E00003F0070AD8F820704FEA8A0A4FF00F0B71
:1015F0000BFA0AFB27EA0B0B0F6907FA0AF747EA0F
:101600000B07C8F820700AE0032EDAD1C76A27EA70
:101610000808C5F3C0079F4047EA0807C762076884
:1016200006FA0EF607EA0C073E4315F4403F066043
:1016300059D0D9F8606046F00106C9F86060D9F861
:10164000606023F0030707F1804706F0010607F505
:101650008037019603F0030C019EBE684FEA8C0CA4
:101660004FF00F0E0EFA0CFEB0F1904F26EA0E0E60
:101670003BD0254EB0423AD006F58066B04238D015
:1016800006F58066B04236D006F58066B04234D0AA
:1016900006F58066B04232D006F58066B04214BFCF
:1016A0000726062606FA0CF646EA0E06BE60A6686F
:1016B000D74315F4801F0CBF3E401643A660E66872
:1016C00015F4001F0CBF3E401643E660666815F433
:1016D000003F0CBF3E40164366602668ED0354BFD2
:1016E0003E401643266001333EE70026DAE7012636
:1016F000D8E70226D6E70326D4E70426D2E7052654
:10170000D0E700BF00040140000400480010024080
:101710000AB181617047816270470000024B18680E
:1017200000F4C060704700BF00700040174A1368A3
:10173000B0F5007F03F4C0631BD1B3F5007F1BD06D
:10174000136823F4C06343F400731360104B1B68E9
:1017500032214B430F49B3FBF1F301335169490582
:1017600000D523B953695B0506D503207047013BBB
:10177000F4E7B3F5806F01D100207047136823F4BC
:10178000C06343F480631360F6E700BF007000405D
:101790000000002040420F0037B51E4DAB6DDA004F
:1017A000044618D5FFF7BAFFB0F5007F23D1802C8F
:1017B00029D9A12C34BF0124022417490A6822F038
:1017C000070222430A60086800F00700001B18BFE8
:1017D000012003B030BDAB6D43F08053AB65AB6D02
:1017E00003F080530193019BFFF798FFAB6D23F04B
:1017F0008053AB65D8E7802C07D808D0A4F17003DC
:101800005C425C41D9E70024D7E70324D5E70224F2
:10181000D3E700BF0010024000200240224B9A682C
:10182000D96812F00C0205D00C2A15D101F0030181
:10183000012918D119681D48090755BFD3F894101C
:101840001968C1F30321C1F3031150F821004AB311
:101850000C2A09D000207047042A22D0082A1448F4
:1018600018BF002070470020DA6802F00302022A45
:1018700015D00F49032A08BF0846D968DA68C2F3B1
:1018800006224243D868C0F34160C1F3021101301F
:1018900001314000B2FBF1F2B2FBF0F070470548B5
:1018A000EBE70448704700BF00100240B08F00080B
:1018B00000127A000024F4002DE9F743054618B918
:1018C000012003B0BDE8F083924C0368A668E76886
:1018D000D80606F00C0607F003073DD51EB10C2E06
:1018E00066D1012F64D12368990702D5AB69002B1B
:1018F000E6D02368286A1A0756BFD4F894302368C4
:101900001B0903F0F00398423BD9FFF745FF00287D
:10191000D6D1236843F00803236023682A6A23F0A2
:10192000F003134323606368EA6923F47F4343EAC7
:1019300002236360FFF772FFA368774AC3F30313C0
:10194000D35C03F01F03D840744B1860744B1868C5
:10195000FFF7A4FC0028B4D12B68D9075FD42B680B
:101960009A0700F19E802B68190700F1DB802B6835
:101970005A0700F10181AB6A002B40F06A81002018
:101980009FE7236843F008032360236823F0F003F4
:10199000034323606368EA6923F47F4343EA022335
:1019A0006360002EC6D1FFF7F7FE0028C2D087E79C
:1019B000AB691BB3236843F001032360FFF776FD97
:1019C000804623689B0711D5236843F008032360F2
:1019D00023682A6A23F0F003134323606368EA69EB
:1019E00023F47F4343EA02236360B5E7FFF75EFD1C
:1019F000A0EB08000228E4D9032062E7236823F063
:101A000001032360FFF752FD804623689807A3D5A2
:101A1000FFF74CFDA0EB08000228F6D9ECE7082EF2
:101A200003D00C2E08D1032F06D123689B0396D533
:101A30006B68002B93D143E76B68B3F5803F10D1FF
:101A4000236843F480332360FFF730FD804623682A
:101A5000980384D4FFF72AFDA0EB08006428F6D988
:101A6000CAE7B3F5A02F04D1236843F48023236091
:101A7000E6E7226822F480322260226822F4802283
:101A80002260002BE0D1FFF711FD80462368990307
:101A90007FF565AFFFF70AFDA0EB08006428F5D9D4
:101AA000AAE7042E03D00C2E10D1022F0ED12368EA
:101AB0005A0503D5EB68002B3FF402AF63682A692F
:101AC00023F0F85343EA026363604CE7EB687BB1B1
:101AD000236843F480732360FFF7E8FC074623681C
:101AE0005B05EBD4FFF7E2FCC01B0228F7D983E7C4
:101AF000236823F480732360FFF7D8FC074623682C
:101B000058057FF530AFFFF7D1FCC01B0228F6D98E
:101B100072E700BF00100240E88F000800000020BC
:101B2000080000206B699BB1D4F8943043F00103A6
:101B3000C4F89430FFF7BAFC0746D4F894309B07FA
:101B40003FF515AFFFF7B2FCC01B0228F5D953E7EC
:101B5000D4F8943023F00103C4F89430FFF7A6FCC6
:101B60000746D4F8943098077FF501AFFFF79EFC45
:101B7000C01B0228F5D93FE7A36DD90029D4A36D76
:101B800043F08053A365A36D03F080530193019B41
:101B90004FF00108844F3B68DA051DD5AB68012B77
:101BA0002BD1D4F8903043F00103C4F89030FFF704
:101BB0007DFC41F288390746D4F89030980742D529
:101BC000B8F1000F3FF4D7AEA36D23F08053A365A7
:101BD000D1E64FF00008DDE73B6843F480733B60DB
:101BE000FFF764FC81463B68DB05D7D4FFF75EFC5A
:101BF000A0EB09000228F6D9FEE6052B06D1D4F8A1
:101C0000903043F00403C4F89030CAE7D4F8902031
:101C100022F00102C4F89020D4F8902022F00402AF
:101C2000C4F89020002BC2D1FFF740FC41F2883964
:101C30000746D4F890309907C2D5FFF737FCC01B90
:101C40004845F6D9D8E6FFF731FCC01B4845B3D963
:101C5000D2E6022B40F08F80E368EA6A03F00301CA
:101C6000914224D1296B03F070020139B2EB011FBC
:101C70001DD1696B03F4FE42B2EB012F17D1AA6BA1
:101C8000073A03F4003118BF012291420FD1EA6BE9
:101C9000520803F4C001013AB1EB425F07D12A6C4C
:101CA000520803F0C063013AB3EB426F4AD00C2EE6
:101CB0003FF406AE23685A013FF502AE2368DB000D
:101CC0003FF5FEAD236823F080732360FFF7EEFB42
:101CD000064623689F012FD4E268344B1340EA6A1A
:101CE00013436A6B43EA02232A6B013A43EA021365
:101CF000AA6B120943EA4243EA6B5208013A43EAEB
:101D000042532A6C5208013A43EA4263E360236873
:101D100043F080732360E36843F08073E360FFF770
:101D2000C5FB0546236898013FF529AEFFF7BEFBCA
:101D3000401B0228F6D95FE6FFF7B8FB801B02289C
:101D4000C7D959E6236899013FF519AE236843F0D6
:101D500080732360E36843F08073E360FFF7A6FBC2
:101D6000054623689A013FF50AAEFFF79FFB401B2B
:101D70000228F6D940E60C2E3FF4A2AD236823F0EA
:101D800080732360FFF792FB054623689B0104D410
:101D9000E268074B1340E360F1E5FFF787FB401B68
:101DA0000228F2D928E600BF007000408C809DF91F
:101DB000FCFFEEFE2DE9F0410D46044610B901206E
:101DC000BDE8F0814B4A136803F007038B422CD324
:101DD0002168880734D4C9073FD421688A0768D4AA
:101DE000444A136803F00703AB426FD811F0040FA5
:101DF000414D77D10B0706D5AB68226923F46053B8
:101E000043EAC203AB60FFF709FDAB683B4AC3F38B
:101E10000313BDE8F041D35C03F01F03D840384BF7
:101E20001860384B1868FFF739BA136823F00703B6
:101E30000B431360136803F007038B42BFD1C7E75E
:101E40002D4AA068936803F0F003984281BF93681D
:101E500023F0F00303439360BDE76268264E032A34
:101E600033681AD113F0007FA9D0B36823F00303BD
:101E70001343B360FFF71AFB41F288380746B36893
:101E8000626803F00C03B3EB820FA6D0FFF70EFBE2
:101E9000C01B4045F3D9032092E7022A02D113F474
:101EA000003FE1E712B913F0020FDDE713F4806F92
:101EB000DAE7114AA068936803F0F00398423FBF45
:101EC000936823F0F0030343936089E7136823F0DA
:101ED00007032B431360136803F00703AB427FF43F
:101EE0006EAF83E7AB68E26823F4E0631343AB6053
:101EF00080E700BF0020024000100240E88F000889
:101F00000000002008000020054B064A9B68C3F330
:101F10000223D35C044A106803F01F03D8407047C3
:101F200000100240E08F000800000020054B064A28
:101F30009B68C3F3C223D35C044A106803F01F03F9
:101F4000D840704700100240E08F000800000020D9
:101F50000F2303600B4B9A6802F0030242609A68F9
:101F600002F0F00282609A6802F4E062C2609B684C
:101F7000DB0803F4E0630361034B1B6803F0070312
:101F80000B6070470010024000200240F8B5414C41
:101F9000E3689B0705460E46006828D0E36803F017
:101FA000030383423AD1002B38D0E3686A68C3F355
:101FB00002130133934231D1236823F080632360FD
:101FC000FFF774FA074623681A0130D4AA68120290
:101FD000A6B3012E23694CD1296923F4C003490813
:101FE00023F4FE430139134343EA415330E002280E
:101FF00010D0032814D0012810D123689F071CD5C6
:10200000E3686A6823F07303013A034343EA021367
:10201000E360D1E7236813F4806FF1D101200CE075
:1020200023689903ECD4236813F4802FF5E7FFF7B6
:102030003DFAC01B0228C6D90320F8BD2369E96810
:1020400023F41F3323F440730909134343EA414344
:102050002361236843F080632360FFF727FA064675
:1020600023681B0110D52369AA691343236100204B
:10207000E3E7696923F0C063490823F4FE430139AB
:10208000134343EA4163E3E7FFF710FA801B02289A
:10209000E6D9D1E700100240F8B53B4CE3689B0756
:1020A00005460E46006826D0E36803F0030383422A
:1020B00038D1002B36D0E3686A68C3F302130133CA
:1020C00093422FD1236823F080532360FFF7EEF96A
:1020D000074623689A002ED4A968090296B363695B
:1020E0002A6923F0C063520823F4FE43013A0B43EC
:1020F00043EA426330E0022810D0032814D00128BC
:1021000010D123689F071CD5E3686A6823F0730326
:10211000013A034343EA0213E360D3E7236813F46D
:10212000806FF1D101200CE023689903ECD423687F
:1021300013F4802FF5E7FFF7B9F9C01B0228C8D9BF
:102140000320F8BD6369EA6823F41F3323F4407366
:1021500012090B4343EA42436361236843F080530F
:102160002360FFF7A3F9064623689B0005D5636942
:102170006A69134363610020E3E7FFF797F9801B67
:102180000228F1D9DCE700BF0010024003682DE906
:10219000F3471D05044628D5416EB1F5000F26D042
:1021A00017D851B3B1F5800F2ED001252368D8047C
:1021B0000DD5A16EB1F1007F00F0478129D800292B
:1021C00000F04981B1F1807F00F04A8101252F465E
:1021D0002FE0B1F5400FE8D1AB4A616ED2F88830FC
:1021E00023F440030B43C2F888300025DEE7A64AFB
:1021F000D36843F48033D360EEE70430FFF7C6FEC4
:1022000005460028D2D1E7E700212030FFF744FF40
:10221000F6E7B1F1407FD9D12F46002F40F026815B
:10222000994AA16ED2F8883023F040730B43C2F86C
:102230008830236899033AD5934EB36DDA0000F1E4
:102240001781B36D43F08053B365B36D03F08053D2
:102250000193019B4FF00108DFF83092D9F800306C
:1022600043F48073C9F80030FFF720F98246D9F8AB
:102270000030DB0540F1FF808FB9D6F89020D4F80C
:10228000843012F4407240F00381D6F89030D4F8D4
:10229000842023F440731343C6F890302F46B8F1DE
:1022A000000F03D0B36D23F08053B3653D46236820
:1022B000DA0708D57449A06BD1F8882022F0030210
:1022C0000243C1F888209F0708D56F49E06BD1F819
:1022D000882022F00C020243C1F888205E0708D54E
:1022E0006949206CD1F8882022F030020243C1F8FD
:1022F0008820180708D56449606CD1F8882022F03E
:10230000C0020243C1F88820D90608D55E49A06CF6
:10231000D1F8882022F440720243C1F888209A063E
:1023200008D55949E06CD1F8882022F44062024374
:10233000C1F888209F0508D55349E06DD1F8882061
:1023400022F440220243C1F888205E0508D54E4998
:10235000206ED1F8882022F440120243C1F8882070
:10236000580608D54849206DD1F8882022F44052FB
:102370000243C1F88820190608D54349606DD1F899
:10238000882022F440420243C1F88820DA0508D5AB
:102390003D49A06DD1F8882022F440320243C1F8B3
:1023A00088209F0410D5384AE16ED2F8883023F097
:1023B00040630B43B1F1006FC2F8883040F08F806A
:1023C000D36843F48013D3602F4623681E0310D5CF
:1023D0002D4A216FD2F8883023F040630B43B1F1CE
:1023E000006FC2F8883040F08780D36843F48013D0
:1023F000D3603E4623685D030FD5234A616FD2F850
:10240000883023F040630B43B1F1006FC2F888308D
:102410007FD1D36843F48013D360354623685804D2
:1024200040F186801849A26FD1F8883023F04053DC
:102430001343B2F1805FC1F8883076D10221201DAC
:10244000FFF7A4FD002873D073E00F4AD36843F46C
:102450008033D360E0E6201DFFF798FD0746DCE6F9
:10246000002104F12000FFF717FEF7E73D46E0E604
:102470004FF00008F0E6FFF719F8A0EB0A00022879
:102480007FF6F5AE03270AE7001002400070004017
:102490009A4211D0D6F89030D6F8902042F480328B
:1024A000C6F89020D6F8902023F4407322F48032AE
:1024B000C6F89020C6F89030D8077FF5E6AEFEF754
:1024C000F5FF41F288390746D6F8903099073FF575
:1024D000DCAEFEF7EBFFC01B4845F5D9D2E7B1F102
:1024E000806F7FF471AF0121201DFFF74FFD07467C
:1024F00000283FF469AF68E7B1F1806F7FF479AFEE
:102500000121201DFFF742FD064600283FF471AF70
:1025100070E7B1F1806F80D10121201DFFF736FDFA
:10252000054600283FF479AF78E7B2F1005F1BD091
:1025300028462268110408D50E49E56FD1F8883085
:1025400023F080432B43C1F88830D30309D5094ACF
:10255000D4F88010D2F8883023F000430B43C2F83F
:10256000883002B0BDE8F087022104F12000FFF7B7
:1025700093FD67E7001002407047000090F83D307F
:10258000012B2FD1022380F83D300368DA6842F036
:102590000102DA60144A934216D0B3F1804F13D08F
:1025A000A2F5943293420FD002F5806293420BD091
:1025B00002F58062934207D002F59432934203D031
:1025C00002F54062934207D19968084A0A40062AF8
:1025D00006D0B2F5803F03D01A6842F001021A60BB
:1025E0000020704701207047002C014007000100C7
:1025F0007047704770477047036870B5DD681E69A3
:10260000B20704460DD5A9070BD56FF002021A6177
:10261000012202779B699A0775D0FFF7EAFF002332
:102620002377730710D568070ED523686FF004026F
:102630001A61022222779B6913F4407F204668D0FA
:10264000FFF7D7FF0023237731070FD52A070DD5D2
:1026500023686FF008021A6104222277DB699B0766
:1026600020465CD0FFF7C5FF00232377F10610D585
:10267000EA060ED523686FF010021A61082222774D
:10268000DB6913F4407F20464FD0FFF7B2FF0023F1
:102690002377F30708D5E80706D523686FF0010212
:1026A0001A612046FEF78EFD16F4025F08D0290657
:1026B00006D523686FF402521A61204600F0D9F85B
:1026C000F20508D52B0606D523686FF480721A61CF
:1026D000204600F0CFF8700608D5690606D52368B5
:1026E0006FF040021A612046FFF785FFB20622D53F
:1026F000AB0620D523686FF0200220461A61BDE8A2
:10270000704000F0B5B8FFF773FF2046FFF772FF87
:1027100085E7FFF76DFF2046FFF76CFF92E7FFF7B5
:1027200067FF2046FFF766FF9EE7FFF761FF204641
:10273000FFF760FFABE770BD334A0368904212D0E9
:10274000B0F1804F0FD0A2F5943290420BD002F539
:102750008062904207D002F58062904203D002F579
:102760009432904219D14A6823F070031343264AE9
:1027700090421DD0B0F1804F1AD0A2F59432904211
:1027800016D002F58062904212D002F5806290422B
:102790000ED002F5943290420AD01C4A904207D0E3
:1027A00002F58062904203D002F58062904203D12C
:1027B000CA6823F4407313434A6923F08003134328
:1027C00003608B68C3620B6883620F4B98420FD023
:1027D00003F5006398420BD003F54063984207D09D
:1027E00003F58063984203D003F58063984201D1DA
:1027F0000B690363012343610369DB0742BF03697C
:1028000023F0010303617047002C014000400140A8
:1028100010B5044650B390F83D3003F0FF021BB9E9
:1028200080F83C20FFF7A8FE0223206884F83D30A2
:10283000211DFFF781FF012384F84830002084F830
:102840003E3084F83F3084F8403084F8413084F8DA
:10285000423084F8433084F8443084F8453084F8BA
:10286000463084F8473084F83D3010BD0120FCE745
:10287000704770477047026852E8003F23F4907336
:1028800042E8003102680029F5D102F1080353E85B
:10289000003F23F0010302F1080C4CE8003100294D
:1028A000F3D1036E012B07D152E8003F23F0100350
:1028B00042E800310029F7D12023C0F880300023FE
:1028C000036683667047000038B5044603682169D3
:1028D000A2681D68C0690A4361690A437E490243D0
:1028E00029400A431A605A68E16822F440520A43B8
:1028F0005A607A4AA16993421CBF226A11439A68BE
:1029000022F430620A439A60754A934213D1754BA0
:10291000D3F8883003F00303022B00F0B880032BB8
:102920001ED0012B40F0BB80B0F5004F40F0A680D8
:10293000FEF774FFB8E06C4A934218D1694BD3F8A4
:10294000883003F00C03082B00F0A18006D8002B80
:1029500000F09780042BE7D0012053E00C2BFBD133
:10296000B0F5004F00F0A2804FF4004077E05F4ADE
:1029700093420ED15B4BD3F8883003F03003202B09
:1029800000F0858003D8002B7BD0102BE3E7302BA1
:10299000E5E7574A93420DD1524BD3F8883003F004
:1029A000C003802B73D003D8002B6AD0402BD2E712
:1029B000C02BD4E74F4A934210D14A4BD3F888300A
:1029C00003F44073B3F5007F61D004D8002B58D0D6
:1029D000B3F5807FBFE7B3F5407FC0E73F4A93423E
:1029E000BAD1404BD3F8883003F44063B3F5006F9D
:1029F00015D00BD883B1B3F5806FADD1FEF70EFFC4
:102A000070B900200023C4E91A3338BDB3F5406F14
:102A1000A2D14FF4004003E0FFF776FAF0E7364822
:102A2000626802EB4203834296D8B0EB023F93D830
:102A3000510800238C464FF480751946E0FB05C110
:102A40006046FEF721F92D4BA0F540729A4283D8DB
:102A50002368D860D5E7FFF757FA0028D1D062681D
:102A600000EB5203B3FBF2F34FF6EF72A3F1100148
:102A700091423FF671AF2268D360C2E7FEF7CEFE07
:102A8000EBE7B0F5004FE6D1FFF73EFA0CE0B0F50A
:102A9000004F1948E3D109E0FFF748FADDE7B0F548
:102AA000004FF9D1FFF742FA0028AAD06268530814
:102AB00003EB4003B3FBF2F34FF6EF72A3F1100107
:102AC00091423FF649AF23F00F02216892B2C3F35F
:102AD00042031343CB6094E7F369FFEF00800040AB
:102AE000003801400010024000440040004800400F
:102AF000004C0040005000400024F400FFFC0F0098
:102B0000436A1A0710B506D50168446B4A6822F477
:102B1000004222434A60DC0706D50168846A4A689D
:102B200022F4003222434A60990706D50168C46A3C
:102B30004A6822F4803222434A605A0706D5016867
:102B4000046B4A6822F4802222434A60DC0606D5E0
:102B50000168846B8A6822F4805222438A60990655
:102B600006D50168C46B8A6822F4005222438A6049
:102B70005A060FD50168046C4A6822F48012224379
:102B8000B4F5801F4A6005D14A68446C22F4C00243
:102B900022434A601B0606D50268816C536823F401
:102BA00000230B43536010BD2DE9F843DDF820905E
:102BB00004460D46174698462268D36935EA030352
:102BC0000CBF01230023BB4201D0002022E0B9F159
:102BD000FF3FF2D0FEF76AFCA0EB0800484529D879
:102BE000B9F1000F26D021680B685A07E4D5802D73
:102BF000E2D0402DE0D0CE6916F008060CD00825B2
:102C000020460D62FFF737FE0023C4F8845084F895
:102C100078300120BDE8F883CB691B05CCD54FF493
:102C200000630B622046FFF726FE2023C4F88430A1
:102C300084F878600320EDE773B504460026C0F8F9
:102C40008460FEF733FC23681B681A0705461BD512
:102C50006FF07E430093324603464FF40011204646
:102C6000FFF7A2FF80B1226852E8003F23F0800303
:102C700042E800310029F6D12023E3670320002336
:102C800084F8783002B070BD23681B685B0724D5D8
:102C90006FF07E43009300222B464FF480012046C4
:102CA000FFF782FFC8B1226852E8003F23F4907317
:102CB00042E8003122680029F5D102F1080353E807
:102CC000003F23F0010302F1080040E80031002931
:102CD000F3D12023C4F88030D0E720230020E3671D
:102CE000C4F8803020666066C9E710B5044640B37A
:102CF000C36F1BB980F87830FEF78EFA2268242360
:102D0000E367136823F001031360636A13B120467D
:102D1000FFF7F6FE2046FFF7D7FD012811D0236804
:102D20005A6822F490425A609A6822F02A029A6005
:102D30001A6842F0010220461A60BDE81040FFF711
:102D40007BBF012010BD08B54FF0E0231B6901F0E7
:102D500047F8012803D0BDE8084001F04BBB08BD8F
:102D6000EFF305832BB9064B186828B901221A60C6
:102D700070476FF0050070474FF0FF30704700BF9D
:102D8000280A002010B5EFF305845CB9084B1A68D7
:102D9000012A0AD1074AD47702221A6000F08EFD78
:102DA000204610BD6FF00500FBE74FF0FF30F8E75D
:102DB000280A002000ED00E0F0B587B0144600229C
:102DC0000B460592EFF30582CAB9C0B16CB3A56991
:102DD000002D08BF1825691E3729AC462AD861681E
:102DE000C90727D466696EB1B208D4E9027E2168AA
:102DF00057B1BEF1A70F02D9246904B1E6B905980D
:102E000007B0F0BD8022F0E7BEF1000FF7D12469D2
:102E1000002CF4D105ACCDE900C492B200F020FD45
:102E200001281CBF00230593E9E721464FF0180C49
:102E30008022EFE71046E3E7CDE90147009500F077
:102E4000D7FC0590DBE708B5EFF3058222B908B19E
:102E500000F09CFE002008BD6FF00500FBE70000BD
:102E6000034B0360034B0B6080231360704700BF6C
:102E70008009002080070020034B0360034B0B6098
:102E80004FF4807313607047D8060020D8020020EA
:102E900000F108034FF0FF32C0E9022343600361F1
:102EA00000230360704700230361704743684B6051
:102EB0009A688A6051609960036808610133036011
:102EC000704730B50C68631C0AD103695A684A60C0
:102ED00091608B605960036808610133036030BD05
:102EE00000F10802134652681568A542FAD9EDE7C9
:102EF000D0E9011203698A6051605968814208BFB4
:102F00005A60002202611A68013A1A601868704714
:102F100010B5044601F006FAA46B01F023FAB4FAE6
:102F200084F0400910BD70B51646026C856B0446EE
:102F300042B906689EB9806800F062FFA66001355C
:102F4000A56370BD6EB9406803F09BFA6368226C9C
:102F50001344A2686360934224BF23686360002027
:102F6000EDE7C06803F08DFA226CE36851429B1ACA
:102F70002268E36093423EBFA3685B18E360022EC1
:102F8000EDD10DB1013DEAE72846D8E7034610B47C
:102F90001A6C08466AB1DC68996814448C4228BFF0
:102FA0001968DC6028BFD960D9685DF8044B03F06C
:102FB00068BA5DF8044B704770B5044601F0B2F989
:102FC00094F8455004F124066DB2002D14DCFF2363
:102FD00084F8453001F0C6F901F0A4F994F84450A2
:102FE00004F110066DB2002D12DCFF2384F844308A
:102FF000BDE8704001F0B6B9636A002BE7D03046F7
:1030000000F060FE08B100F0E5FE013D6DB2DCE7C6
:103010002369002BE9D0304600F054FE08B100F0DF
:10302000D9FE013D6DB2DEE738B50D46044640B924
:103030004FF0500383F31188BFF36F8FBFF34F8FAF
:10304000FEE701F06FF9D4E90F31226862604B436B
:10305000D0185B1A1A44A060FF230020A063E2602E
:1030600084F8443084F84530A5B9236973B104F17C
:10307000100000F027FE48B14FF0E0234FF08052DF
:10308000C3F8042DBFF34F8FBFF36F8F01F06AF9C0
:10309000012038BD04F11000FFF7FAFE04F124000E
:1030A000FFF7F6FEF2E737B50D461C4640B94FF084
:1030B000500383F31188BFF36F8FBFF34F8FFEE789
:1030C00043B94FF0500383F31188BFF36F8FBFF301
:1030D0004F8FFEE74AB191B94FF0500383F3118847
:1030E000BFF36F8FBFF34F8FFEE741B14FF0500337
:1030F00083F31188BFF36F8FBFF34F8FFEE7502329
:103100000193019B502B08D04FF0500383F311889B
:10311000BFF36F8FBFF34F8FFEE70121002D08BF74
:103120002246C4E90F0584F8461022602046019B20
:10313000FFF77AFF9DF8183084F84C30204603B032
:1031400030BD2DE9FF410F4601921E46044640B9AD
:103150004FF0500383F31188BFF36F8FBFF34F8F8E
:10316000FEE751B9036C43B14FF0500383F311886C
:10317000BFF36F8FBFF34F8FFEE7022E0BD1E36BD0
:10318000012B08D04FF0500383F31188BFF36F8FEA
:10319000BFF34F8FFEE700F023FE054630B3002556
:1031A0004FF0000801F0BEF8A26BE36B9A4201D326
:1031B000022E27D1324639462046FFF7B4FE636A15
:1031C0001BB104F1240000F07DFD48B14FF0E02375
:1031D0004FF08052C3F8042DBFF34F8FBFF36F8FB2
:1031E00001F0C0F8012004B0BDE8F081019B002B84
:1031F000D6D04FF0500383F31188BFF36F8FBFF326
:103200004F8FFEE7019B1BB901F0ACF80020EAE705
:1032100015B902A800F096FD01F0A4F800F09EFB9D
:1032200001F080F894F84430FF2B08BF84F8448004
:1032300094F84530FF2B08BF84F8458001F092F8E0
:1032400001A902A800F08AFD38BB01F06BF8A26B5F
:10325000E36B9A420ED101F085F8019904F1100058
:1032600000F0F8FC2046FFF7A7FE00F01BFC48B179
:10327000012597E701F076F82046FFF79DFE00F064
:1032800011FCF5E74FF0E0234FF08052C3F8042D16
:10329000BFF34F8FBFF36F8FEAE72046FFF78CFE37
:1032A00000F000FCB2E72DE9F843894617461E46B8
:1032B000044640B94FF0500383F31188BFF36F8F7A
:1032C000BFF34F8FFEE751B9036C43B14FF050038A
:1032D00083F31188BFF36F8FBFF34F8FFEE7022E8A
:1032E0000BD1E36B012B08D04FF0500383F311880F
:1032F000BFF36F8FBFF34F8FFEE701F025F9EFF3B8
:1033000011884FF0500383F31188BFF36F8FBFF321
:103310004F8FA26BE36B9A4201D3022E1ED194F819
:103320004550A36B6DB2324649462046FFF7FBFD80
:103330006B1C0ED1636A3BB104F1240000F0C2FCA7
:1033400010B10FB101233B60012088F31188BDE863
:10335000F88301356DB284F84550F5E70020F4E7B5
:103360002DE9FF410E460192044640B94FF050034B
:1033700083F31188BFF36F8FBFF34F8FFEE751B90F
:10338000036C43B14FF0500383F31188BFF36F8F89
:10339000BFF34F8FFEE700F023FD054618B300256D
:1033A0004FF0000800F0BEFFA76B47B33146204640
:1033B000013FFFF7EBFDA763236973B104F1100030
:1033C00000F080FC48B14FF0E0234FF08052C3F88A
:1033D000042DBFF34F8FBFF36F8F00F0C3FF0120A9
:1033E00004B0BDE8F081019B002BD9D04FF0500311
:1033F00083F31188BFF36F8FBFF34F8FFEE7019BFD
:103400001BB900F0AFFF0020EAE715B902A800F0F1
:1034100099FC00F0A7FF00F0A1FA00F083FF94F8F8
:103420004430FF2B08BF84F8448094F84530FF2BCC
:1034300008BF84F8458000F095FF01A902A800F0BC
:103440008DFC00BB2046FFF763FDB0B1019904F18C
:10345000240000F0FFFB2046FFF7AEFD00F022FB4A
:1034600048B94FF0E0234FF08052C3F8042DBFF36A
:103470004F8FBFF36F8F012594E72046FFF79CFD28
:1034800000F010FBF7E72046FFF796FD00F00AFB7F
:103490002046FFF73DFD0028EDD0B4E730B5074AE0
:1034A000002352F8335002EBC3041DB942F8331025
:1034B000606030BD0133082BF3D1FAE72C0A0020FD
:1034C00070B504460D46164600F02CFF94F84430C3
:1034D000FF2B04BF002384F8443094F84530FF2BC1
:1034E00004BF002384F8453000F03CFFA36B2BB9E8
:1034F0003246294604F1240000F0C6FB2046BDE810
:103500007040FFF759BD00002DE9F041044600F07E
:1035100009FF304B304E1A68304F01321A6035685F
:10352000002D4BD134601B68012B1FD1B84640469B
:103530000135FFF7ADFC382D08F11408F7D1DFF89D
:10354000C480274D4046FFF7A3FC2846FFF7A0FCA8
:103550002448FFF79DFC2448FFF79AFC2348FFF717
:1035600097FC234BC3F80080224B1D60224A13684E
:1035700001331360214A63641168E36A14208B42AB
:1035800000FB037004F1040188BF1360FFF78EFC99
:1035900000F0E8FE1A4B1B6873B13368DA6AE36A1D
:1035A0009A4209D24FF0E0234FF08052C3F8042D25
:1035B000BFF34F8FBFF36F8FBDE8F081104B1A68D8
:1035C000E36A002AD2D13268D26A9A4298BF346044
:1035D000CCE700BF900A0020640F0020040B0020FD
:1035E000DC0A0020C00A0020AC0A0020940A002057
:1035F000D80A0020D40A0020740A0020880A00207B
:10360000840A0020F00A0020F8B5154B154D1C68FF
:103610000646286804300F46FFF76AFC731C07D182
:1036200037B129681048BDE8F8400431FFF73EBCC7
:103630002B68A4195C6007D30C4B18682968BDE897
:10364000F8400431FFF73DBC094B18682968043184
:10365000FFF737FC074B1A68A24288BF1C60F8BD11
:103660008C0A0020640F0020940A0020D40A002055
:10367000D80A0020700A0020064A13681968064B11
:1036800019B94FF0FF321A6070471268D268D268D9
:103690005268F8E7D80A0020700A002010B50446E6
:1036A000543002F06BFE94F8A5303BB9206B01F06A
:1036B00037F82046BDE8104001F032B8012BF8D0B1
:1036C000022B08D04FF0500383F31188BFF36F8FA4
:1036D000BFF34F8FFEE710BD80B5134C134F144D51
:1036E000236873B9134B1B68012BF8D94FF0E02303
:1036F0004FF08052C3F8042DBFF34F8FBFF36F8F8D
:10370000EDE700F00FFEFB68DE68301DFFF7F0FB11
:103710002B68013B2B602368013B236000F022FEF5
:103720003046FFF7BBFFDBE7A80A0020AC0A002009
:10373000900A0020040B00202DE9F047DDE90994F0
:103740009600324607460D46206BA521984602F0AA
:1037500009FE236B043E1E4426F00706002D41D0CF
:103760006B1E04F133020F3513F8011F02F8011F1D
:1037700009B1AB42F8D1002384F84330089D372DBE
:1037800028BF37254FF0000AE562E564201DC4F824
:1037900050A0FFF788FBC5F1380504F11800FFF7CA
:1037A00082FBC4F8A0A04C2251462461A56164624A
:1037B00084F8A4A004F1540002F0D4FD0B4BA365DF
:1037C00003F16802D033E26523664246394630464B
:1037D00000F07EFD2060B9F1000F01D0C9F8004073
:1037E000BDE8F08784F83450C8E700BF741C00209F
:1037F00070B586B0DDE90B5445B94FF0500383F343
:103800001188BFF36F8FBFF34F8FFEE744B94FF0BE
:10381000500383F31188BFF36F8FBFF34F8FFEE721
:10382000A8260596059EA82E08D04FF0500383F3D6
:103830001188BFF36F8FBFF34F8FFEE7256302251B
:1038400084F8A55004AD01950A9D02940095059E4B
:10385000FFF772FF2046FFF757FE049806B070BDD1
:103860002DE9F043074685B09000884616469946F4
:1038700000F0BEFE054620B94FF0FF3005B0BDE8B0
:10388000F083A82000F0B4FE044698B1002380F82D
:10389000A5300D9B056301930C9B0290009332466B
:1038A0004B4641463846FFF747FF2046FFF72CFEC0
:1038B0000120E3E7284600F033FFDDE710B588B0CC
:1038C000002407AA06A905A8CDE90544FFF7C8FA10
:1038D000059B0293069B079A19491A48CDE90043B4
:1038E0002346FFF785FF40B300F01EFB012819D1E6
:1038F0004FF0500383F31188BFF36F8FBFF34F8FE7
:10390000114B124A1B6854331360114B4FF0FF32B6
:103910001A60104B1860104B1C6008B0BDE81040D6
:1039200000F090BD013008D14FF0500383F31188AF
:10393000BFF36F8FBFF34F8FFEE708B010BD00BF1E
:10394000F88F0008D9360008640F00208801002095
:10395000700A0020840A00208C0A0020024A1368A2
:1039600001331360704700BF6C0A0020014B1868D8
:10397000704700BF8C0A00203F4B1B682DE9F74FB2
:10398000002B72D13D4B1C6801341C60BCB93C4B10
:103990001A68126842B14FF0500383F31188BFF3E5
:1039A0006F8FBFF34F8FFEE7364A196810681860B3
:1039B0001160354A136801331360FFF75DFE334D24
:1039C000334E2B68334F9C424FF0000B12D23A68B3
:1039D000D26A14214A43B258022A2F4A126828BFD9
:1039E0004FF0010B002A18BF4FF0010B584603B0EF
:1039F000BDE8F08FDFF88890DFF8A4A0D9F80020A8
:103A000012681AB94FF0FF322A60E0E7D9F80020B7
:103A1000D268D2F80C80D8F804108C4201D2296008
:103A2000D5E708F1040318460193FFF761FAD8F8C7
:103A3000281019B108F11800FFF75AFAD8F82C002D
:103A4000DAF800101423884288BFCAF800000199F0
:103A500003FB0060FFF72AFA3868D8F82C10C26A16
:103A6000914228BF4FF0010BC8E70C4A136801339D
:103A700013604FF0000BB9E76C0A00208C0A00209D
:103A8000D80A0020D40A0020780A0020700A0020FA
:103A9000040B0020640F00207C0A0020800A002014
:103AA000880A00202DE9F041304C236843B94FF0DB
:103AB000500383F31188BFF36F8FBFF34F8FFEE77F
:103AC00000F030FC2368013B236024682CB1002403
:103AD00000F048FC2046BDE8F081254B1B68002B18
:103AE000F5D0244D244EDFF8A0801DE0EB68DC68A3
:103AF000271D04F11800FFF7FBF93846FFF7F8F926
:103B0000E36A32681420934200FB0380394688BF81
:103B10003360FFF7CBF9194BE26A1B68DB6A9A4204
:103B200002D3174B01221A602B68002BDED10CB197
:103B3000FFF7A2FD134D2C6844B1114E0127FFF78A
:103B40001BFF00B13760013CF9D12C600C4B1B68A6
:103B5000002BBCD04FF0E0234FF08052C3F8042D6F
:103B6000BFF34F8FBFF36F8F0124B1E76C0A0020C2
:103B7000900A0020C00A0020880A0020640F00205C
:103B80007C0A0020800A0020040B002008B550B9F0
:103B90004FF0E0234FF08052C3F8042DBFF34F8F56
:103BA000BFF36F8F08BD0A4B196841B14FF0500346
:103BB00083F31188BFF36F8FBFF34F8FFEE7FFF7DB
:103BC000CDFEFFF721FDFFF76DFF0028E0D0E9E70C
:103BD0006C0A0020194B1A68194B70B512B10122FA
:103BE0001A6070BD174D1A602A681749142606FB23
:103BF00002F3C818CC58ACB1446808336468446018
:103C00000B449C4204BF63684360142303FB02110E
:103C10004B68D9680D4B19602A601B680C4A5433F5
:103C20001360DEE742B94FF0500383F31188BFF30E
:103C30006F8FBFF34F8FFEE7013AD8E76C0A002081
:103C40007C0A0020880A0020040B0020640F00205A
:103C50008801002010B50C4640B94FF0500383F3A3
:103C60001188BFF36F8FBFF34F8FFEE7054B1968C5
:103C70001831FFF726F920460121BDE81040FFF773
:103C8000C3BC00BF640F002038B50D46144640B9D0
:103C90004FF0500383F31188BFF36F8FBFF34F8F43
:103CA000FEE7074B19681831FFF700F9002C214691
:103CB0000CBF28464FF0FF30BDE83840FFF7A4BCEA
:103CC000640F002038B5C368DC6844B94FF0500376
:103CD00083F31188BFF36F8FBFF34F8FFEE704F1BB
:103CE00018052846FFF704F9104B1B68DBB9251DA2
:103CF0002846FFF7FDF80E4AE36A11688B4288BF39
:103D000013600C4A1420294600FB0320FFF7CEF86D
:103D1000094BE26A1B68DB6A9A4283BF074B0120AA
:103D20001860002038BD06482946EFE76C0A0020DD
:103D3000880A0020040B0020640F00207C0A002069
:103D4000C00A0020034B1B680360034B1B684360E1
:103D5000704700BF780A00208C0A002070B50C461E
:103D6000054640B94FF0500383F31188BFF36F8FBE
:103D7000BFF34F8FFEE741B94FF0500383F3118833
:103D8000BFF36F8FBFF34F8FFEE700F0CBFA0F4BFF
:103D9000196823685A1C10D00D482E6800686A689C
:103DA000864201D08A420FD9881A83420AD95B1A07
:103DB000134423602846FFF7C5FF002400F0D2FA21
:103DC000204670BD002323600124F7E78C0A002001
:103DD000780A0020014B01221A6070477C0A0020FB
:103DE000054B1B6833B1054B1868B0FA80F04009E9
:103DF0004000704701207047840A00206C0A0020B0
:103E000038B508B9002038BD1B4B1C68844208D067
:103E10004FF0500383F31188BFF36F8FBFF34F8FC1
:103E2000FEE7236D43B94FF0500383F31188BFF3CE
:103E30006F8FBFF34F8FFEE7E16AE26C013B914267
:103E40002365DFD0002BDDD1251D2846FFF750F874
:103E5000E36CE362C3F13802A261084A11688B4245
:103E600088BF1360064A142000FB03202946FFF791
:103E70001DF80120C7E700BF640F0020880A00205A
:103E8000040B0020914208B5416000610AD8D21AA3
:103E900083699A420DD2084B011D1868FFF711F88B
:103EA000002008BD9A4201D2994202D2034B011D63
:103EB000F3E70120F5E700BF641000206810002040
:103EC000F7B5114C00F02EFA2568BDB90F4F104E12
:103ED0003846FEF7DDFF3046FEF7DAFF0D4B0E4A9F
:103EE0001F600E4B10211E600A200D4B0095FFF73E
:103EF000DAF8206010B10B49FFF7D0FA03B0BDE843
:103F0000F04000F02FBA00BF6010002080100020A9
:103F10006C10002068100020B80F002064100020F2
:103F2000680F0020FD8F000810B588B0FFF7C8FFAC
:103F3000124B1B68B3B1002407AA06A905A8CDE956
:103F40000544FEF799FF059B0293069B019302230C
:103F50000093079A0A490B482346FFF749FC0A4B8E
:103F6000186040B94FF0500383F31188BFF36F8F8F
:103F7000BFF34F8FFEE7012008B010BD6010002096
:103F800002900008894000085C1000207FB51646AA
:103F900004461A4640B94FF0500383F31188BFF32B
:103FA0006F8FBFF34F8FFEE70D4D286880B1052955
:103FB000CDE9001602940DDCFFF712FF0023022862
:103FC00008BF089A286818BF1A466946FFF7B9F86B
:103FD00004B070BD00236946FFF765F9F8E700BF3C
:103FE000601000202DE9F347DFF898800646FFF7C0
:103FF000BDFCD8F800308342054609D91F4F3B6805
:104000001A686AB91E4A116839601360012300E01A
:10401000002328463360C8F8005002B0BDE8F0879E
:10402000DB68DC68D3F8009004F1040A5046FEF720
:104030005FFF236A2046984794F828305B07DED557
:10404000A3694B44994506D23868636024615146A0
:10405000FEF737FFD3E7002300934A461946204670
:10406000FFF794FF0028CAD14FF0500383F3118863
:10407000BFF36F8FBFF34F8FFEE700BF68100020C4
:1040800064100020581000202DE9F0436E4D6F4E53
:1040900089B02B68D3F80080B8F1000F35D0DB6809
:1040A000D3F800800024FFF759FC04A8FFF79AFF1B
:1040B000049B8146002B69D1002C4CD1404550D344
:1040C000FFF7F0FC2B68DB68DF68381DFEF710FF98
:1040D00097F8283058071AD5B96943464A464144EB
:1040E0003846FFF7CFFEB0B1009423464246214642
:1040F0003846FFF74BFF70B94FF0500383F3118838
:10410000BFF36F8FBFF34F8FFEE70124CBE723F0A0
:10411000010387F828303B6A384698473068002208
:1041200004A9FFF71DF90028B3D0049B0698002BC3
:104130002FDB069C6369002B32D103A8FFF752FFE7
:10414000049B0246092BE9D8DFE803F02E2E2E57F8
:104150005E762E2E575E3E4B1B681C68B4FA84F4C4
:10416000640930682246A8EB0901FFF7A9F9FFF7B7
:1041700099FC0028D2D14FF0E0234FF08052C3F8D1
:10418000042DBFF34F8FBFF36F8FC7E7FFF78AFC94
:10419000C4E7059B07999847049B002BBEDBC8E743
:1041A000201DFEF7A5FEC8E794F82830A16943F06A
:1041B000010384F82830059B20461944FFF762FE6E
:1041C0000028ABD0236A2046984794F82830590736
:1041D000A4D5A269059900230A44009319462046F4
:1041E000FFF7D4FE002899D14FF0500383F31188D4
:1041F000BFF36F8FBFF34F8FFEE794F8283023F0A3
:10420000010384F8283089E794F8283043F001034B
:1042100084F828300599A16141B94FF0500383F328
:104220001188BFF36F8FBFF34F8FFEE70346014442
:104230002046FFF727FE71E794F828309A07DED46E
:10424000204600F06DFA69E7681000206010002039
:104250006410002008480068006880F308884FF068
:10426000000080F3148862B661B6BFF34F8FBFF3CE
:104270006F8F00DF00BF000008ED00E0DFF80C00EA
:10428000016841F4700101607047000088ED00E0B2
:1042900082B0002301930D4B1B68013308D04FF00F
:1042A000500383F31188BFF36F8FBFF34F8FFEE787
:1042B0004FF0500383F31188BFF36F8FBFF34F8F1D
:1042C000019B002BFCD002B0704700BF0C00002007
:1042D0004FF0807340F8043C074B40F80C3C21F051
:1042E00001016FF0020340F8081C40F8202C40F850
:1042F000243C4438704700BF914200080000000091
:10430000074B19680868B0E8F04F80F30988BFF3DD
:104310006F8F4FF0000080F311887047AFF300807B
:10432000640F00204FF0500383F31188BFF36F8FA9
:10433000BFF34F8F0A4A13680133012B13600ED16C
:104340004FF0E023D3F8043DDBB243B14FF050030C
:1043500083F31188BFF36F8FBFF34F8FFEE7704772
:104360000C000020084A136843B94FF0500383F350
:104370001188BFF36F8FBFF34F8FFEE7013B1360D0
:104380000BB983F3118870470C0000200000000077
:10439000EFF30980BFF36F8F154B1A681EF0100FF3
:1043A00008BF20ED108A20E9F04F10602DE90900C8
:1043B0004FF0500080F31188BFF34F8FBFF36F8F22
:1043C000FFF708FC4FF0000080F3118809BC196862
:1043D0000868B0E8F04F1EF0100F08BFB0EC108A6C
:1043E00080F30988BFF36F8F704700BFAFF3008081
:1043F000640F002008B54FF0500383F31188BFF31A
:104400006F8FBFF34F8FFFF7B7FA28B14FF0E0235C
:104410004FF08052C3F8042D002383F3118808BDA8
:104420004FF0E022002313619361054B4FF47A7142
:104430001B68B3FBF1F3013B536107231361704722
:10444000000000204FF0E02337B5D3F8001D384AB4
:10445000914208D14FF0500383F31188BFF36F8F5F
:10446000BFF34F8FFEE7D3F8002D324B9A4208D1AD
:104470004FF0500383F31188BFF36F8FBFF34F8F5B
:10448000FEE72D4B1A78D2B20192FF221A701B78E8
:104490002A4ADBB28DF803309DF8033003F0500355
:1044A0001370274A072313609DF803101368090649
:1044B0000AD4032B11D04FF0500383F31188BFF3BC
:1044C0006F8FBFF34F8FFEE7013B13609DF8033002
:1044D0005B00DBB28DF80330E6E74FF44073136006
:1044E000019B154A4FF0E024DBB21370D4F8203D55
:1044F00043F47003C4F8203DD4F8203D43F07043EA
:10450000C4F8203DFFF78CFF0E4B00251D60FFF720
:10451000B5FED4F8343F43F04043C4F8343FFFF7CE
:1045200099FEFFF757FBFFF7B3FE284603B030BDF7
:1045300071C20F4170C20F4100E400E098100020EA
:10454000941000200C000020EFF305830F2B0ED9F0
:10455000114A9B5C114A12789A4208D94FF05003D5
:1045600083F31188BFF36F8FBFF34F8FFEE74FF0D8
:10457000E0230B4AD3F80C3D126803F4E063934246
:1045800008D94FF0500383F31188BFF36F8FBFF347
:104590004F8FFEE7704700BFF0E300E09810002067
:1045A0009410002010B5104B1A461B688342FBD3B1
:1045B00054681119884201BF4168104609195160B9
:1045C000446801198B420CD1084909688B4203D019
:1045D00059682144416019680160904218BF106019
:1045E00010BD1946F8E700BFB4100020B01000203D
:1045F0002DE9F0410446FFF7B1F94249424D0B68FD
:104600000BBB424A56071FBFD01D20F0070002F621
:10461000B832131A0CBF40F6B833024613443C4E6E
:10462000083B23F00703002070603260C3E90000FC
:10463000981AC2E900300B60364B1860364B186090
:104640004FF000432B602E68264255D1002C46D0F7
:1046500004F1080360071CBF23F007030833002B95
:104660004AD02D4F3C689C4246D3294A1568686859
:10467000984204D2D5F800C0BCF1000F15D10968EA
:10468000A94239D02968D2F800801160C21A102AD4
:1046900012D9E81841070BD04FF0500383F311886B
:1046A000BFF36F8FBFF34F8FFEE72A466546DEE705
:1046B00042606B60FFF776FF6A681649A41A1643DA
:1046C000164A08683C6000232B6013686E608442C1
:1046D00003F1010338BF0C60136008F10804FFF711
:1046E000E1F963070AD04FF0500383F31188BFF359
:1046F0006F8FBFF34F8FFEE70024F0E72046BDE841
:10470000F08100BFB01000209C100020BC100020E1
:10471000B4100020A8100020AC100020A41000202D
:1047200010B5044690B31A4A50F8043C126813427C
:1047300008D14FF0500383F31188BFF36F8FBFF39D
:104740004F8FFEE750F8081C41B14FF0500383F340
:104750001188BFF36F8FBFF34F8FFEE723EA020389
:1047600040F8043CFFF7FAF80A4A54F8043C116890
:10477000A4F108000B441360FFF714FF064A136806
:10478000BDE8104001331360FFF78CB910BD00BFC6
:104790009C100020AC100020A01000202DE9FF4745
:1047A00057EC106B002F0C4619463B46BBBF07F178
:1047B00000431F4600232D230B700D9BDDF830A016
:1047C000914623F02008BCBF32461646B8F1460F8A
:1047D00005D0B8F1450F00D10134022100E00321DA
:1047E00003AB019302AB009347EC106B5346224698
:1047F00001F0EEFEB8F1470F054619D119F0010F8F
:104800000ED000EB04090022002330463946FCF7A5
:104810005BF908B1CDF80C903022039B4B451ED3B9
:10482000039B0E9A5B1B2846136004B0BDE8F0871B
:10483000B8F1460F00EB0409E5D10378302B0AD11B
:104840000022002330463946FCF73EF918B9C4F17E
:104850000104CAF80040DAF800309944D3E7591C43
:1048600003911A70D9E7F7B50029BABF49422D2341
:104870002B2309290270437029DD0DF107031D4622
:104880000A271A46B1FBF7F607FB1614303402F874
:10489000014C0C46632C03F1FF333146F1DC30311F
:1048A000941E03F8011C411C2346AB420AD30DF1B0
:1048B00009039B1AAC4288BF002302330344181A31
:1048C00003B0F0BD13F8016B01F8016FEDE7302381
:1048D00030318370C170031DF1E700002DE9F04F06
:1048E0008DB00C46DDF8588016461F46054601F08F
:1048F00041FD036804931846FBF7BAFC00230A93B2
:10490000D8F800300590073323F0070303F10802BD
:1049100094F818A0D4F800B0C8F80020D3E90089B2
:1049200029F000430793CDF81880C4E91289DDE926
:1049300006019C4B4FF0FF32FCF7F8F870BBDDE945
:104940000601984B4FF0FF32FCF7D2F830BB002243
:10495000002340464946FCF7C1F810B12D2384F8E6
:104960004330914A914BBAF1470F94BF9046984615
:10497000032323612BF0040323604FF00009009709
:1049800033460BAA2146284600F0D2F9013040F008
:104990008D804FF0FF300DB0BDE8F08F42464B46A2
:1049A00040464946FCF7C2F840B14B46002BBCBF1D
:1049B0002D2384F843307E4A7E4BD4E763680AF0A7
:1049C000DF0206925A1C3BD1062363604BF48062DF
:1049D0000023226003930AABCDE901A309AB009346
:1049E000616849EC108B0DF123032846FFF7D6FED2
:1049F000069B0999472B804629D1C81C02DB6368B6
:104A0000994241DDAAF1020A5FFA8AFA0139524657
:104A100004F150000991FFF726FF0A9A1318012AA2
:104A20008146236102DC2268D20701D5013323616C
:104A30009DF82330002BA2D02D2384F843309EE72D
:104A4000069A472AC2D1002BC0D10123BDE7BAF193
:104A5000650FDBD9BAF1660F18D1002963680BDD49
:104A6000216113B92268D00702D501330B442361B9
:104A7000A1654FF00009DBE713B92268D20701D521
:104A80000233F4E70123F2E74FF0670A0A9B9942E9
:104A900005DB23682161D807EAD54B1CE7E700292D
:104AA000D4BFC1F1020201221344E0E723685A0592
:104AB00007D42369424631462846B84701302BD1F6
:104AC00067E7BAF1650F40F2DD80D4E912010022F8
:104AD0000023FBF7F9FF002833D0374A0123314682
:104AE0002846B84701303FF454AFDDE90938434563
:104AF00002DB2368D8070FD5DDE9042331462846B9
:104B0000B84701303FF445AF4FF0000908F1FF38D6
:104B100004F11A0AC84509DC23689B0700F10381E8
:104B2000E0680B9B9842B8BF184634E70123524611
:104B300031462846B84701303FF42BAF09F101094F
:104B4000E8E7099B002B39DC1B4A01233146284644
:104B5000B84701303FF41DAFDDE9093959EA0303D5
:104B600002D12368D907D7D5DDE904233146284689
:104B7000B84701303FF40DAF4FF0000A04F11A0BB3
:104B8000099B5B42534501DC4B4693E701235A46A0
:104B900031462846B84701303FF4FBAE0AF1010A1E
:104BA000EEE700BFFFFFEF7F0A9000080E900008BD
:104BB00012900008169000081A900008A36DDDF806
:104BC00028A05345A8BF5346002B994636DC4FF02A
:104BD000000B29EAE97904F11A02A36D0693A3EB0D
:104BE00009035B4531DC099B9A453ADC2368DA0707
:104BF00037D4099BAAEB0309069BAAEB030399454B
:104C0000A8BF9946B9F1000F33DC4FF0000829EA3C
:104C1000E97904F11A0B099BAAEB0303A3EB09033F
:104C200043457FF779AF01235A4631462846B847B6
:104C300001303FF4AEAE08F10108ECE742463146E0
:104C40002846B8470130C2D1A3E6012331462846A1
:104C50000692B84701303FF49CAE069A0BF1010B67
:104C6000BBE7DDE9042331462846B8470130C0D10F
:104C70008FE6069A4B46424431462846B8470130F3
:104C8000C3D186E6DDF828A0BAF1010F01DCDB070D
:104C900036D50123424631462846B84701303FF415
:104CA00078AEDDE9042331462846B84701303FF4A9
:104CB00070AED4E91201002200230AF1FF3AFBF79B
:104CC00003FFC0B9534608F1010231462846B847F0
:104CD00001300CD15DE601235A4631462846B847DB
:104CE00001303FF456AE08F10108D045F3DB4B46E6
:104CF00004F15002DFE64FF0000804F11A0BF4E76C
:104D000001234246E1E701234A4631462846B84797
:104D100001303FF43EAE08F10108E3680B995B1ADD
:104D20004345F0DCFCE64FF0000804F11909F4E714
:104D30002DE9F047164698468A680B69DDF8209001
:104D40009342B8BF1346336091F8432007460C46A0
:104D50000AB1013333602368990642BF33680233D6
:104D60003360256815F0060506D104F1190AE368D9
:104D700032689B1AAB4226DC94F843302268003B31
:104D800018BF012392062BD404F143024146384652
:104D9000C84701301ED02368226903F00603042BA4
:104DA00002BFE5683368ED1AA3680CBF25EAE57514
:104DB00000259342C4BF9B1AED1800261A34B54251
:104DC0001AD1002008E00123524641463846C84720
:104DD000013003D14FF0FF30BDE8F0870135C6E761
:104DE000E1185A1C302081F84300224494F8451001
:104DF00082F843100233C7E7012322464146384672
:104E0000C8470130E6D00136D9E700002DE9FF4759
:104E10000F7E0C9E782F914680460C469A4601F1F3
:104E2000430207D8622F0AD8002F00F0D280582FF3
:104E300000F0B98004F1420684F842703AE0A7F12C
:104E40006303152BF6D801A151F823F0A54E0008F5
:104E5000B94E0008354E0008354E0008354E0008A2
:104E6000354E0008B94E0008354E0008354E000892
:104E7000354E0008354E0008B94F0008E34E0008D3
:104E8000734F0008354E0008354E0008DB4F000810
:104E9000354E0008E34E0008354E0008354E000838
:104EA0007B4F000833681A1D1B68326004F142060C
:104EB00084F8423001239DE033682068191D316079
:104EC000060601D51D6803E04506FBD5B3F9005081
:104ED000002D03DA2D236D4284F8433059480A230C
:104EE00011E021683368080653F8045B02D44906D0
:104EF00048BFADB26F2F5348336014BF0A23082355
:104F0000002184F843106668A660002EA2BF2168C5
:104F100021F0040121600DB9002E4BD01646B5FBDF
:104F2000F3F103FB1157C75D06F8017D2F46BB4225
:104F30000D46F4D9082B0BD12368DF0708D5236968
:104F400061689942DEBF302306F8013C06F1FF3666
:104F5000921B2261CDF800A04B4603AA2146404691
:104F6000FFF7E6FE01304AD14FF0FF3004B0BDE854
:104F7000F087236843F0200323603348782784F8C0
:104F80004570236831681F0651F8045B02D45F0640
:104F900048BFADB23160D90744BF43F0200323605E
:104FA0001DB11023ACE72748E9E7236823F020036D
:104FB0002360F6E71646BDE7336825686169181D6A
:104FC00030602E061B6801D5196002E06806FBD52B
:104FD0001980002323611646BCE733681A1D32602E
:104FE0001E68626800213046FBF7F2F808B1801BAA
:104FF000606063682361002384F84330AAE7236973
:10500000324649464046D0470130ADD023689B0721
:1050100013D4E068039B9842B8BF1846A6E7012363
:10502000324649464046D04701309DD00135E368BD
:1050300003995B1AAB42F2DCEBE7002504F1190699
:10504000F5E700BF1C9000082D9000082DE9F04FF7
:1050500087B0174603938B685A1EB2F5AE7F81BFA7
:105060006FF4AE7503EB050B40F25D138B600B68BC
:105070000A464FF0000543F4F06342F81C3BCDE9CB
:10508000045580460C4698BF4FF0000B019216461F
:10509000AA46A9460295A26852B13B681B784E2BDE
:1050A00064D8402B3CD8A3F12B01C8B20E283AD9C2
:1050B000B9F1000F03D0236823F4807323600AF151
:1050C000FF3ABAF1010F00F21781019B9E4200F2F4
:1050D0000881012007B0BDE8F08FA3F161020D2A1D
:1050E000E6D801A151F822F02F520008B150000873
:1050F000B1500008B15000088F52000867520008F4
:10510000B1500008B15000083D520008B1500008ED
:10511000B1500008B1500008B1500008F551000826
:10512000A3F14102DBE70E29C2D801A050F821F01B
:10513000E5510008B1500008E55100087B52000815
:10514000B15000088D510008CB510008CB51000828
:10515000CB510008CB510008CB510008CB510008BF
:10516000CB510008CB510008CB5100086E2B09D859
:10517000602BB2D8542B7BD0592B99D1072D97D1C6
:1051800008252CE0742B73D0792BF6E72168C8052D
:105190001BD521F08001216009F10109BBF1000F4D
:1051A00003D001320BF1FF3BA260A368013BA36077
:1051B0002369013323617B68013B002B7B6040F353
:1051C00087803B6801333B6065E71AEB05017FF49C
:1051D0006FAF226822F4C07222600D468A4606F83C
:1051E000013BE2E7226810067FF562AF22F0800201
:1051F0002260F4E7BAF1000F0ED1B9F1000F0ED121
:10520000226802F4E061B1F5E06F08D122F4F062A7
:1052100022604FF0010AE2E7BAF1020F55D0012DEA
:1052200002D0042D7FF444AF0135EDB2D7E7BAF1D7
:10523000010F7FF43DAF4FF0020AD0E77DB9B9F11D
:10524000000F7FF438AF226802F4E061B1F5E06F3F
:1052500040F0088122F4F06222600125BFE7032DAF
:10526000E2D0052DDEE7022D7FF422AF0325B6E75D
:10527000062D7FF41DAF0725B1E7226891057FF564
:1052800017AF22F420722260CDF80890A7E72268B9
:1052900002F4A061B1F5806F06D050057FF508AF2C
:1052A000B9F1000F00F0DE80910558BF029922F499
:1052B000F06258BFA9EB010142F4C07258BFCDE9BA
:1052C000041622604FF0000989E74FF0030A86E7D1
:1052D000D4F8803139464046984700283FF4DBAE89
:1052E000E6E6D4F87C3116F8011D3A464046984768
:1052F0002369013B2361E8E66B1E062B24D8022DAF
:1053000036D8019B9E427FF6E4AED4F87C3116F885
:10531000011D3A46404698472369013B2361F0E767
:10532000D4F87C311BF8011D3A4640469847236962
:10533000013B23610AF1FF3A5FFA8AFABAF1020FE0
:10534000EED1033DEDB2761B2368DA0530D55B055F
:1053500011D5019B9E427FF6BCAED4F87C3116F885
:10536000011D3A46404698472369013B2361F0E717
:10537000AA46B346DEE716F8011C2369652903F146
:10538000FF3306F1FF3523610CD045290AD0D4F84C
:105390007C313A4640469847236916F8021C013B87
:1053A000B51E2361D4F87C313A46404698472E46D4
:1053B000226812F0100201D000208BE632702368C0
:1053C00003F4C063B3F5806F1CD1029B4B45A3EB84
:1053D000090223D101990022404600F011FF039BEE
:1053E00021681B6811F0020F57EC106B03F10402E7
:1053F0001FD003990A601B68C3E90067E3680133A3
:10540000E360D9E7049B002BE4D005990A2301311E
:10541000404600F075FF049B059EC21A04F26F130C
:105420009E4228BF04F5B7761049304600F022F8B6
:10543000D0E711F0040F03990A60DCD11D683246F1
:105440003B4630463946FBF771FB28B1084801F06E
:105450002FF885ED000AD1E730463946FBF7C4FB4B
:105460002860CBE74FF0000929E600BF3E90000816
:10547000448F00080EB400B59CB01DAB029006909E
:105480006FF00041094807910491094953F8042B32
:1054900005910068019302A902F03CFA029B0022E8
:1054A0001A701CB05DF804EB03B07047880100204F
:1054B0000802FFFF002310B50446C0E90033C0E92D
:1054C0000433836081814366C28183611946082267
:1054D0005C3000F047FF0D4B63620D4BA3620D4B38
:1054E000E3620D4B23630D4B24629C4206D003F113
:1054F0006802944202D0D0339C4205D104F1580096
:10550000BDE8104000F0BABF10BD00BF59870008C9
:105510007B870008B3870008D7870008741C002029
:10552000024A0349034800F0EDBE00BF100000200E
:105530008D7D00088C01002041680C4B994210B50C
:10554000044601D002F022FCA168094B994202D026
:10555000204602F01BFCE168064B994204D020462D
:10556000BDE8104002F012BC10BD00BF741C00204A
:10557000DC1C0020441D002010B50B4B0B4C0C4ACA
:105580001A60204600220421FFF794FF04F168000E
:1055900001220921FFF78EFF04F1D0000222BDE8AD
:1055A00010401221FFF786BFAC1D0020741C0020A4
:1055B00021550008014800F062BF00BFB51D002062
:1055C000014800F05DBF00BFB51D002010B50446C6
:1055D000FFF7F0FF236A1BB1BDE81040FFF7F0BFF3
:1055E000044B2362044B1B68002BF5D1FFF7C4FF6B
:1055F000F2E700BF39550008AC1D002070B5044625
:105600000D4645EC104B164602F068FF51EC100BAE
:105610007EB1C5F30A53C3F16B03002B09DD1B05F3
:1056200003F17F55002405F5401522462B46FAF775
:10563000E3FF41EC100B70BD2DE9F04F9FB00C461D
:10564000179200221A9205904FF0000A4FF0000BBB
:105650000A46199211782B294AD038D80D2932D808
:10566000082932D800293BD000220B92199D2A78B4
:10567000302A40F0B3806A7802F0DF02582A6ED1F7
:1056800002930B9B01931AAB00938E4A05981BABB8
:1056900019A901F013FE10F00F06044605D0062EDE
:1056A00028D10135002319950B93179B002B40F04F
:1056B0008E850B9BCBB152460BF1004343EC102B74
:1056C0001FB0BDE8F08F2029CED10132C1E72D29CE
:1056D000CAD101210B91511C19915278002AC5D1D0
:1056E000179B1994002B40F0708552465B46E5E706
:1056F0000021EFE71A9A3AB135211CA802F0E8FF21
:105700001A99059802F0B6FB013E1B9A042E06D8A2
:10571000DFE806F014031D201400DDE91CABE105F1
:1057200048BF4BF0004B2BF000431B0D1B05002B1B
:10573000BBD100F079FE22230360B6E7DDE91CA3AC
:1057400002F2334223F4801343EA025BE7E7DFF817
:105750007CB1E4E76FF0004B4FF0FF3ADFE7199BB5
:105760005A1C19925B78302BF9D0002B9DD0012365
:105770000993199B0C93002308930A931F460A224E
:1057800019980578A5F13003D9B2092928D94E49CD
:10579000012200F0D5FD002832D000202A468146A3
:1057A0003D460346652A01D0452A14D11DB9099A00
:1057B000024395D00025199C621C199262782B2A0D
:1057C00077D02D2A7BD04FF0000CA2F130010929AF
:1057D00040F2828019944FF00008A2E00023C7E74E
:1057E000082FD5BF0A99089902FB013302FB013348
:1057F00000F10100D4BF0A93089301371990BFE765
:10580000199B5A1C19925A787FB381463D46A2F1E2
:105810003003092B12D90123C4E7199B5A1C199292
:105820005A780130302AF8D0A2F13103082B00F267
:10583000D384199B0C93814600200546303A00F131
:1058400001032AD0994400EB050C2B460A2163453D
:105850000DD1691C01442844082816DC0A980A2343
:1058600003FB00230A93002318E03846DAE7082BED
:1058700003F1010303DC0A9E4E430A96E7E7102B6F
:10588000DEBF089E4E430896E1E70F28EBDC089840
:105890000A2303FB00230893E5E72946199A501CC5
:1058A0001990527818460D46B1E74FF000090123D0
:1058B0007DE74FF0000CA21C1992A27885E74FF00B
:1058C000010CF8E75C900008439000080000F07FAE
:1058D000199A511C19915278302AF9D0A2F131014C
:1058E00008293FF678AF303A0E92199A0F924FF08E
:1058F0000A08199A561C19965278A2F1300EBEF178
:10590000090F39D90F99761A082E44F61F6803DC5F
:105910000E998845A8BF8846BCF1000F01D0C8F198
:105920000008002D4ED1099908437FF4BEAE002B2C
:105930007FF4D6AE692A28D025DC492A25D04E2A04
:105940007FF4CEAE9B4919A801F0DAFE00283FF49F
:10595000C7AE199B1B78282B2ED197491CAA19A8D2
:1059600001F0E2FE052827D11D9BDDF870A043F071
:10597000FF4B4BF4E00B98E60E9908FB0121A1F1D7
:1059800030020E92B5E76E2ADAE78C4919A801F0C9
:10599000B7FE00283FF4A4AE199B8949013B19A822
:1059A000199301F0ADFE10B9199B01331993DFF87B
:1059B00020B24FF0000A78E6824800F071FD5BECFF
:1059C00010AB72E6A8EB09030A980993002F08BFF1
:1059D0002F46102D2C46A8BF1024FAF793FD092D51
:1059E00082468B4613DC099B002B3FF45EAE099B7D
:1059F00078DD162B5FDC744901EBC301D1E90001AE
:105A000052465B46FAF7F8FD82468B464DE66E4BF2
:105A100003EBC40353E91223FAF7EEFD824608981C
:105A20008B46FAF76FFD02460B4650465946FAF789
:105A30002DFC0F2D82468B46D5DD099B2C1B1C446B
:105A4000002C40F3968014F00F030AD05E4901EB5E
:105A5000C30152465B46D1E90001FAF7CDFD82460B
:105A60008B4634F00F0473D0B4F59A7F48DD0024E0
:105A7000A0460A94A146059ADFF854B12223136088
:105A80004FF0000A0A9B002B3FF40FAE1A990598BD
:105A900002F0F0F90598494602F0ECF90598414604
:105AA00002F0E8F90A99059802F0E4F90598214610
:105AB00002F0E0F9F9E5099AC5F125039342BCDB50
:105AC000414CC5F10F0504EBC50152465B46D1E9D7
:105AD0000001FAF791FD099B5D1B04EBC504D4E9B5
