:020000040810E2
:100000000080041041111008550F10085D0F1008F2
:10001000650F10086D0F1008750F10080000000024
:100020000000000000000000000000007D0F10082C
:100030008B0F100800000000990F1008A70F100880
:1000400091111008911110089111100891111008C8
:1000500091111008911110089111100891111008B8
:1000600091111008911110089111100891111008A8
:100070009111100891111008911110089111100898
:100080009111100891111008911110089111100888
:100090009111100891111008911110089111100878
:1000A0009111100891111008911110089111100868
:1000B0009111100891111008911110089111100858
:1000C0009111100891111008911110089111100848
:1000D0009111100891111008911110089111100838
:1000E00091111008911110080000000091111008E2
:1000F0009111100891111008911110089111100818
:100100009111100891111008911110089111100807
:1001100091111008911110089111100891111008F7
:1001200091111008911110089111100891111008E7
:1001300091111008911110089111100891111008D7
:10014000911110089111100800000000000000003B
:1001500091111008911110089111100891111008B7
:1001600091111008911110089111100891111008A7
:100170009111100891111008911110089111100897
:100180009111100891111008911110089111100887
:100190009111100891111008911110089111100877
:1001A0009111100891111008911110089111100867
:1001B0009111100891111008911110089111100857
:1001C0009111100891111008911110089111100847
:1001D0009111100891111008911110089111100837
:1001E0009111100891111008911110089111100827
:1001F0009111100891111008911110089111100817
:100200009111100891111008911110089111100806
:1002100091111008911110089111100891111008F6
:1002200091111008911110089111100800000000A0
:1002300091111008911110089111100891111008D6
:1002400091111008911110089111100891111008C6
:1002500091111008911110089111100891111008B6
:1002600091111008911110089111100891111008A6
:100270009111100891111008911110089111100896
:100280009111100891111008911110080000000040
:080290009111100891111008F2
:1002A00010B5054C237833B9044B13B10448AFF3B0
:1002B00000800123237010BDD80100100000000051
:1002C0007466100808B5034B1BB103490348AFF32C
:1002D000008008BD00000000DC01001074661008FA
:1002E00001F0FF01102A2BDB10F0070F08D010F8E7
:1002F000013B013A8B422DD010F0070F42B3F6D1EB
:10030000F0B441EA012141EA014122F007047FF003
:1003100000070023F0E80256083C85EA010586EA5A
:10032000010685FA47F5A3FA87F586FA47F6A5FA96
:1003300087F68EB9EED1F0BC01F0FF0102F00702A2
:1003400032B110F8013B013A83EA010313B1F8D14D
:100350000020704701387047002D06BF354603382E
:10036000073815F0010F07D1013015F4807F02BF67
:10037000013015F4C03F0130F0BC0138704700BFB8
:10038000034613F8012B002AFBD1181A01387047D5
:1003900081F0004102E000BF83F0004330B54FEA36
:1003A00041044FEA430594EA050F08BF90EA020FA3
:1003B0001FBF54EA000C55EA020C7FEA645C7FEA36
:1003C000655C00F0E2804FEA5454D4EB5555B8BF59
:1003D0006D420CDD2C4480EA020281EA030382EACA
:1003E000000083EA010180EA020281EA0303362D5C
:1003F00088BF30BD11F0004F4FEA01314FF4801C2F
:100400004CEA113102D0404261EB410113F0004F40
:100410004FEA03334CEA133302D0524263EB4303F7
:1004200094EA050F00F0A780A4F10104D5F1200E95
:100430000DDB02FA0EFC22FA05F2801841F10001F0
:1004400003FA0EF2801843FA05F359410EE0A5F1C4
:1004500020050EF1200E012A03FA0EFC28BF4CF0F5
:10046000020C43FA05F3C01851EBE37101F00045AB
:1004700007D54FF0000EDCF1000C7EEB00006EEBB8
:100480000101B1F5801F1BD3B1F5001F0CD3490842
:100490005FEA30004FEA3C0C04F101044FEA445299
:1004A00012F5800F80F09A80BCF1004F08BF5FEA20
:1004B000500C50F1000041EB045141EA050130BD00
:1004C0005FEA4C0C404141EB0101013C28BFB1F512
:1004D000801FE9D291F0000F04BF01460020B1FA5D
:1004E00081F308BF2033A3F10B03B3F120020CDA30
:1004F0000C3208DD02F1140CC2F10C0201FA0CF00E
:1005000021FA02F10CE002F11402D8BFC2F1200C72
:1005100001FA02F120FA0CFCDCBF41EA0C01904028
:10052000E41AA2BF01EB0451294330BD6FEA040471
:100530001F3C1CDA0C340EDC04F11404C4F120025C
:1005400020FA04F001FA02F340EA030021FA04F36E
:1005500045EA030130BDC4F10C04C4F1200220FAC5
:1005600002F001FA04F340EA0300294630BD21FA03
:1005700004F0294630BD94F0000F83F4801306BFC9
:1005800081F480110134013D4EE77FEA645C18BFBD
:100590007FEA655C29D094EA050F08BF90EA020F54
:1005A00005D054EA000C04BF1946104630BD91EA4C
:1005B000030F1EBF0021002030BD5FEA545C05D14F
:1005C0004000494128BF41F0004130BD14F580048E
:1005D0003CBF01F5801130BD01F0004545F0FE4102
:1005E00041F470014FF0000030BD7FEA645C1ABF37
:1005F000194610467FEA655C1CBF0B46024650EA6E
:10060000013406BF52EA033591EA030F41F4002199
:1006100030BD00BF90F0000F04BF0021704730B51F
:100620004FF4806404F132044FF000054FF00001F4
:1006300050E700BF90F0000F04BF0021704730B5B5
:100640004FF4806404F1320410F0004548BF40428A
:100650004FF000013EE700BF42004FEAE2014FEADF
:1006600031014FEA02701FBF12F07F4393F07F4FBA
:1006700081F06051704732F07F4208BF704793F0BD
:100680007F4F04BF41F40021704730B54FF46074D0
:1006900001F0004521F000411CE700BF50EA0102D3
:1006A00008BF704730B54FF000050AE050EA01027C
:1006B00008BF704730B511F0004502D5404261EBEC
:1006C00041014FF4806404F132045FEA915C3FF42D
:1006D000D8AE4FF003025FEADC0C18BF03325FEACA
:1006E000DC0C18BF033202EBDC02C2F1200300FA7B
:1006F00003FC20FA02F001FA03FE40EA0E0021FAA0
:1007000002F11444BDE600BF70B54FF0FF0C4CF48D
:10071000E06C1CEA11541DBF1CEA135594EA0C0F3F
:1007200095EA0C0F00F0DEF82C4481EA030621EA7A
:100730004C5123EA4C5350EA013518BF52EA0335B5
:1007400041F4801143F4801338D0A0FB02CE4FF067
:100750000005E1FB02E506F00042E0FB03E54FF097
:100760000006E1FB03569CF0000F18BF4EF0010E8F
:10077000A4F1FF04B6F5007F64F5407404D25FEA8B
:100780004E0E6D4146EB060642EAC62141EA55513E
:100790004FEAC52040EA5E504FEACE2EB4F1FD0C80
:1007A00088BFBCF5E06F1ED8BEF1004F08BF5FEAFE
:1007B000500E50F1000041EB045170BD06F00046B0
:1007C00046EA010140EA020081EA0301B4EB5C045D
:1007D000C2BFD4EB0C0541EA045170BD41F4801155
:1007E0004FF0000E013C00F3AB8014F1360FDEBF7A
:1007F000002001F0004170BDC4F10004203C35DA56
:100800000C341BDC04F11404C4F1200500FA05F3D8
:1008100020FA04F001FA05F240EA020001F0004279
:1008200021F0004110EBD37021FA04F642EB0601EF
:100830005EEA430E08BF20EAD37070BDC4F10C0419
:10084000C4F1200500FA04F320FA05F001FA04F2DD
:1008500040EA020001F0004110EBD37041F10001C9
:100860005EEA430E08BF20EAD37070BDC4F12005D4
:1008700000FA05F24EEA020E20FA04F301FA05F23C
:1008800043EA020321FA04F001F0004121FA04F2E4
:1008900020EA020000EBD3705EEA430E08BF20EAB4
:1008A000D37070BD94F0000F0FD101F000464000EE
:1008B00041EB010111F4801F08BF013CF7D041EA70
:1008C000060195F0000F18BF704703F00046520074
:1008D00043EB030313F4801F08BF013DF7D043EA45
:1008E0000603704794EA0C0F0CEA135518BF95EAFB
:1008F0000C0F0CD050EA410618BF52EA4306D1D182
:1009000081EA030101F000414FF0000070BD50EAA0
:10091000410606BF1046194652EA430619D094EA2A
:100920000C0F02D150EA013613D195EA0C0F05D114
:1009300052EA03361CBF104619460AD181EA030168
:1009400001F0004141F0FE4141F470014FF0000020
:1009500070BD41F0FE4141F4780170BD70B54FF0BB
:10096000FF0C4CF4E06C1CEA11541DBF1CEA13553B
:1009700094EA0C0F95EA0C0F00F0A7F8A4EB05041D
:1009800081EA030E52EA03354FEA013100F0888014
:100990004FEA03334FF0805545EA131343EA1263DD
:1009A0004FEA022245EA111545EA10654FEA002692
:1009B0000EF000419D4208BF964244F1FD0404F54B
:1009C000407402D25B084FEA3202B61A65EB0305A7
:1009D0005B084FEA32024FF480104FF4002CB6EB64
:1009E000020E75EB030E22BFB61A754640EA0C00E4
:1009F0005B084FEA3202B6EB020E75EB030E22BF24
:100A0000B61A754640EA5C005B084FEA3202B6EB64
:100A1000020E75EB030E22BFB61A754640EA9C0023
:100A20005B084FEA3202B6EB020E75EB030E22BFF3
:100A3000B61A754640EADC0055EA060E18D04FEAB1
:100A4000051545EA16754FEA06164FEAC30343EA51
:100A500052734FEAC2025FEA1C1CC0D111F4801F1E
:100A60000BD141EA00014FF000004FF0004CB6E717
:100A700011F4801F04BF01430020B4F1FD0C88BFB6
:100A8000BCF5E06F3FF6AFAEB5EB030C04BFB6EBC1
:100A9000020C5FEA500C50F1000041EB045170BDB4
:100AA0000EF0004E4EEA113114EB5C04C2BFD4EBE1
:100AB0000C0541EA045170BD41F480114FF0000E65
:100AC000013C90E645EA060E8DE60CEA135594EAE1
:100AD0000C0F08BF95EA0C0F3FF43BAF94EA0C0FE4
:100AE0000AD150EA01347FF434AF95EA0C0F7FF459
:100AF00025AF104619462CE795EA0C0F06D152EAAD
:100B000003353FF4FDAE1046194622E750EA410690
:100B100018BF52EA43067FF4C5AE50EA41047FF4A1
:100B20000DAF52EA43057FF4EBAE12E74FF0FF3C06
:100B300006E000BF4FF0010C02E000BF4FF0010CD7
:100B40004DF804CD4FEA410C7FEA6C5C4FEA430C50
:100B500018BF7FEA6C5C1BD001B050EA410C0CBF9F
:100B600052EA430C91EA030F02BF90EA020F002001
:100B7000704710F1000F91EA030F58BF994208BF68
:100B800090422CBFD8176FEAE37040F00100704725
:100B90004FEA410C7FEA6C5C02D150EA013C07D17C
:100BA0004FEA430C7FEA6C5CD6D152EA033CD3D0C7
:100BB0005DF8040B704700BF8446104662468C46C1
:100BC0001946634600E000BF01B5FFF7B7FF0028F4
:100BD00048BF10F1000F01BD4DF808EDFFF7F4FF1D
:100BE0000CBF012000205DF808FB00BF4DF808EDA8
:100BF000FFF7EAFF34BF012000205DF808FB00BFCB
:100C00004DF808EDFFF7E0FF94BF012000205DF8EC
:100C100008FB00BF4DF808EDFFF7CEFF94BF0120A1
:100C200000205DF808FB00BF4DF808EDFFF7C4FF9A
:100C300034BF012000205DF808FB00BF4FEA410CE3
:100C40007FEA6C5C02D150EA013C0AD14FEA430CC6
:100C50007FEA6C5C02D152EA033C02D14FF0000003
:100C600070474FF0010070474FEA410212F5001241
:100C700015D211D56FF47873B3EB625212D94FEAE3
:100C8000C12343F0004343EA505311F0004F23FACD
:100C900002F018BF404270474FF00000704750EA22
:100CA000013005D111F0004008BF6FF000407047DF
:100CB0004FF00000704700BF4A0011D212F5001239
:100CC00011D20DD56FF47873B3EB62520ED44FEAA4
:100CD000C12343F0004343EA505323FA02F0704724
:100CE0004FF00000704750EA013002D14FF0FF3062
:100CF00070474FF0000070474FEA4102B2F1E04305
:100D000024BFB3F5001CDCF1FE5C0DD901F0004CF2
:100D10004FEAC0024CEA5070B2F1004F40EB830042
:100D200008BF20F00100704711F0804F21D113F16E
:100D30003872BCBF01F00040704741F480114FEAA7
:100D40005252C2F11802C2F1200C10FA0CF320FA30
:100D500002F018BF40F001004FEAC1234FEAD3234D
:100D600003FA0CFC40EA0C0023FA02F34FEA4303B7
:100D7000CCE77FEA625307D150EA01331EBF4FF040
:100D8000FE4040F44000704701F0004040F0FE405B
:100D900040F40000704700BF38B50022002304462D
:100DA0000D46FFF723FF28B920462946BDE8384005
:100DB00000F00AB8204605F1004100F005F8404275
:100DC00061EB410138BD00BFD0B50C4B0022064697
:100DD0000F46FFF799FCFFF76FFF0446FFF71AFC79
:100DE000074B0022FFF790FC02460B46304639467F
:100DF000FFF7D2FAFFF760FF2146D0BD0000F03DBB
:100E00000000F04180B400AF094BD3F88830084AA5
:100E100043F47003C2F88830054B1B69044A43F061
:100E20001003136100BFBD465DF8047B704700BF2F
:100E300000ED00E080B582B000AF1B4BD3F8E0308E
:100E4000194A43F00073C2F8E030174BD3F8E03092
:100E500003F000737B607B68012000F02DFD00F043
:100E6000B7FD01220221002000F038FD0F4B1B6866
:100E70001B0903F00F03072B08D10D4BD3F80431E6
:100E80000B4A43F00103C2F8043107E0084BD3F8E2
:100E90001431074A43F00103C2F8143100F096F907
:100EA00000F008F800BFFDE70044025800ED00E044
:100EB0000064025880B586B000AF3B1D00221A6066
:100EC0005A609A60DA601A61134BD3F8E030124A24
:100ED00043F00403C2F8E0300F4BD3F8E03003F0E6
:100EE00004033B603B6800224FF440710B4800F064
:100EF000C9FC4FF440737B600123BB600023FB609F
:100F000000233B613B1D1946044800F00BFB00BF6A
:100F10001837BD4680BD00BF004402580008025883
:100F200080B483B000AF0A4BD3F8F430084A43F0E2
:100F30000203C2F8F430064BD3F8F43003F0020396
:100F40007B607B6800BF0C37BD465DF8047B704753
:100F50000044025880B400AF00BFFDE780B400AF8A
:100F600000BFFDE780B400AF00BFFDE780B400AF75
:100F700000BFFDE780B400AF00BFFDE780B400AF65
:100F800000BFBD465DF8047B704780B400AF00BF72
:100F9000BD465DF8047B704780B400AF00BFBD461E
:100FA0005DF8047B704780B500AF00F0A3F900BF87
:100FB00080BD80B400AF01231846BD465DF8047BB8
:100FC000704780B582B000AF7860396002F0DAFD1A
:100FD000034616221A604FF0FF3318460837BD4605
:100FE00080BD80B582B000AF78604FF0FF31786887
:100FF000FFF7E7FF00BFFDE780B586B000AFF86000
:10100000B9607A6000237B610AE0AFF3008001469B
:10101000BB685A1CBA60CAB21A707B6901337B6123
:101020007A697B689A42F0DB7B6818461837BD46C0
:1010300080BD80B586B000AFF860B9607A600023EB
:101040007B6109E0BB685A1CBA601B78184600F047
:10105000A1F87B6901337B617A697B689A42F1DB95
:101060007B6818461837BD4680BD80B483B000AF9A
:1010700078604FF0FF3318460C37BD465DF8047BAF
:10108000704780B483B000AF786039603B684FF43C
:1010900000525A60002318460C37BD465DF8047BA9
:1010A000704780B483B000AF7860012318460C37D6
:1010B000BD465DF8047B704780B485B000AFF86032
:1010C000B9607A60002318461437BD465DF8047B8A
:1010D0007047000080B586B000AF7860144A154BA9
:1010E000D31A7B617B693B61134B1B68002B02D1D8
:1010F000114B124A1A60104B1A687B6813443A6904
:101100009A4207D202F03EFD03460C221A604FF0CD
:10111000FF3309E0084B1B68FB60074B1A687B68CC
:101120001344054A1360FB6818461837BD4680BD56
:101130000080041000040000F4010010E00300101F
:10114000DFF834D0FFF75EFE0C480D490D4A00234E
:1011500002E0D458C4500433C4188C42F9D30A4A6C
:101160000A4C002301E013600432A242FBD302F0D8
:101170000FFDFFF75FFE70470080041000000010B5
:10118000D8010010DC6A1008D8010010E00300103C
:10119000FEE7000080B582B000AF7860094B1B7895
:1011A0001A46942302FB03F3074A9818391D4FF49B
:1011B0007A73012200F094FD7B6818460837BD461B
:1011C00080BD00BF8C020010F801001080B582B015
:1011D00000AF284BD3F8D830264A43F48043C2F8F6
:1011E000D830244BD3F8D83003F480433B603B68BD
:1011F000214B1B6823F47F2323F470631E4A43F4BE
:10120000014313601C4B1B681B4A43F0010313602E
:10121000032000F041F900F0E9FB0246154B9B6901
:101220001B0A03F00F031549CB5C03F01F0322FADE
:1012300003F37B600F4B9B6903F00F030F4AD35CF2
:1012400003F01F037A6822FA03F30D4A13600C4B74
:101250001B680C4A1360002000F016F80346002BB0
:1012600001D0012302E0FFF75BFE00231846083798
:10127000BD4680BD004402580044024090661008FC
:10128000040000100000001080B582B000AF78604C
:10129000154B1B78002B01D1012321E0134B1A6859
:1012A000114B1B7819464FF47A73B3FBF1F3B2FB81
:1012B000F3F3184600F015F90346002B01D0012383
:1012C0000EE07B680F2B0AD8002279684FF0FF30C0
:1012D00000F0EDF8064A7B681360002300E001236C
:1012E00018460837BD4680BD0C00001000000010F5
:1012F0000800001080B400AF064B1B781A46064B5E
:101300001B681344044A136000BFBD465DF8047BAC
:10131000704700BF0C0000109002001080B400AFB6
:10132000034B1B681846BD465DF8047B704700BF41
:101330009002001080B485B000AF78607B6803F045
:101340000703FB600C4BDB68BB60BA684FF6FF031A
:101350001340BB60FB681A02BB68134343F0BF63D2
:1013600043F40033BB60044ABB68D36000BF14374A
:10137000BD465DF8047B704700ED00E080B400AF2F
:10138000044BDB681B0A03F007031846BD465DF8F3
:10139000047B704700ED00E080B483B000AF0346EB
:1013A0003960FB80B7F90630002B0ADB3B68DAB204
:1013B0000C49B7F906301201D2B20B4483F800236E
:1013C0000AE03B68DAB20849FB8803F00F03043BEC
:1013D0001201D2B20B441A7600BF0C37BD465DF83D
:1013E000047B704700E100E000ED00E080B489B0CC
:1013F00000AFF860B9607A60FB6803F00703FB6137
:10140000FB69C3F10703042B28BF0423BB61FB69FD
:101410000433062B02D9FB69033B00E000237B6108
:101420004FF0FF32BB6902FA03F3DA43BB681A409C
:101430007B699A404FF0FF317B6901FA03F3D9438E
:101440007B680B40134318462437BD465DF8047B88
:101450007047000080B582B000AF78607B68013BC8
:10146000B3F1807F01D301230FE00A4A7B68013B7F
:1014700053600F214FF0FF30FFF78EFF054B002226
:101480009A60044B07221A60002318460837BD46AD
:1014900080BD00BF10E000E080B582B000AF786092
:1014A0007868FFF747FF00BF0837BD4680BD80B5AD
:1014B00086B000AF0346B9607A60FB81FFF75EFF3C
:1014C00078617A68B9687869FFF790FF0246B7F9E2
:1014D0000E3011461846FFF75FFF00BF1837BD46B4
:1014E00080BD80B582B000AF78607868FFF7B2FF4A
:1014F000034618460837BD4680BD000080B400AFE3
:10150000074B1B681B0903F00F03072B01D10323B3
:1015100000E001231846BD465DF8047B704700BF1C
:1015200000ED00E080B489B000AF7860396000233E
:10153000FB61894B7B6194E13B681A680121FB697F
:1015400001FA03F313403B613B69002B00F08681F5
:101550003B685B6803F00303012B05D03B685B68C5
:1015600003F00303022B30D17B689B68BB61FB69EE
:101570005B00032202FA03F3DB43BA691340BB6149
:101580003B68DA68FB695B0002FA03F3BA6913434C
:10159000BB617B68BA699A607B685B68BB6101224A
:1015A000FB6902FA03F3DB43BA691340BB613B6892
:1015B0005B681B0903F00102FB6902FA03F3BA69D5
:1015C0001343BB617B68BA695A603B685B6803F090
:1015D0000303032B17D07B68DB68BB61FB695B00EF
:1015E000032202FA03F3DB43BA691340BB613B6891
:1015F0009A68FB695B0002FA03F3BA691343BB61A3
:101600007B68BA69DA603B685B6803F00303022B0E
:1016100023D1FB69DA087B68083253F82230BB61BA
:10162000FB6903F007039B000F2202FA03F3DB437D
:10163000BA691340BB613B681A69FB6903F0070391
:101640009B0002FA03F3BA691343BB61FB69DA0832
:101650007B680832B96943F822107B681B68BB615C
:10166000FB695B00032202FA03F3DB43BA69134010
:10167000BB613B685B6803F00302FB695B0002FA35
:1016800003F3BA691343BB617B68BA691A603B68AC
:101690005B6803F44033002B00F0E0802F4BD3F85D
:1016A000F4302E4A43F00203C2F8F4302B4BD3F847
:1016B000F43003F00203FB60FB68294AFB699B08D6
:1016C000023352F82330BB61FB6903F003039B0034
:1016D0000F2202FA03F3DB43BA691340BB617B6854
:1016E000204A934252D07B681F4A934231D07B6894
:1016F0001E4A93422BD07B681D4A934225D07B68BB
:101700001C4A93421FD07B681B4A934219D07B68C6
:101710001A4A934213D07B68194A93420DD07B68D2
:10172000184A934207D07B68174A934201D1092394
:101730002DE00A232BE0082329E0072327E00623D6
:1017400025E0052323E0042321E003231FE00223F7
:101750001DE001231BE000BFC000005800440258F8
:101760000004005800000258000402580008025803
:10177000000C0258001002580014025800180258B9
:10178000001C025800200258002402580023FA6965
:1017900002F0030292009340BA691343BB613849D7
:1017A000FB699B080233BA6941F823204FF0B0432C
:1017B0001B68BB613B69DB43BA691340BB613B6893
:1017C0005B6803F48013002B03D0BA693B691343B1
:1017D000BB614FF0B042BB6913604FF0B0435B6830
:1017E000BB613B69DB43BA691340BB613B685B6823
:1017F00003F40013002B03D0BA693B691343BB61A8
:101800004FF0B042BB6953607B695B68BB613B6969
:10181000DB43BA691340BB613B685B6803F4003388
:10182000002B03D0BA693B691343BB617B69BA697A
:101830005A607B691B68BB613B69DB43BA69134033
:10184000BB613B685B6803F48033002B03D0BA694B
:101850003B691343BB617B69BA691A60FB69013359
:10186000FB613B681A68FB6922FA03F3002B7FF4E3
:1018700063AE00BF00BF2437BD465DF8047B7047F0
:101880000004005880B483B000AF78600B467B80C2
:1018900013467B707B78002B03D07A887B689A6133
:1018A00003E07B881A047B689A6100BF0C37BD4651
:1018B0005DF8047B7047000080B483B000AF7860AF
:1018C000054B1A6804497B6813430B6000BF0C3753
:1018D000BD465DF8047B70471065025880B584B042
:1018E00000AFF8600B467A60FB72374B1B6823F041
:1018F00001023549FB6813430B607B68002B23D141
:10190000FFF7FCFD0346032B58D12F4B1B692E4AD2
:1019100023F0010313612D4B1B692C4A43F0040390
:101920001361BFF34F8F00BFBFF36F8F00BFFB7A10
:10193000012B01D130BF00E020BF244B1B69234A9B
:1019400023F0040313613CE07B68012B23D1FFF7F4
:10195000D5FD0346012B33D11B4B5B691A4A23F09B
:1019600002035361194B1B69184A43F004031361C6
:10197000BFF34F8F00BFBFF36F8F00BFFB7A012B08
:1019800001D130BF00E020BF104B1B690F4A23F08C
:101990000403136115E0FFF7B1FD0346032B06D1E5
:1019A000094B1B69084A23F00403136109E0064B45
:1019B0005B69054A23F00403536102E000BF00E0C5
:1019C00000BF1037BD4680BD0048025800ED00E062
:1019D00080B500AFFFF792FD0346032B01D120BF76
:1019E00001E040BF20BF00BF80BD000080B489B0CF
:1019F00000AFB34B1B6903F03803182B00F255817D
:101A000001A252F823F000BF6D1A1008AB1C100899
:101A1000AB1C1008AB1C1008AB1C1008AB1C10084A
:101A2000AB1C1008AB1C1008931A1008AB1C100854
:101A3000AB1C1008AB1C1008AB1C1008AB1C10082A
:101A4000AB1C1008AB1C1008991A1008AB1C10082E
:101A5000AB1C1008AB1C1008AB1C1008AB1C10080A
:101A6000AB1C1008AB1C10089F1A1008944B1B6885
:101A700003F02003002B09D0914B1B68DB0803F017
:101A80000303904A22FA03F3BB6111E18D4BBB6162
:101A90000EE18D4BBB610BE18C4BBB6108E1884BC8
:101AA0009B6A03F003037B61854B9B6A1B0903F070
:101AB0003F033B61824BDB6A03F00103FB60804B19
:101AC0005B6BDB08C3F30C03FA6802FB03F307EE5E
:101AD000903AF8EE677AC7ED027A3B69002B00F086
:101AE000E1807B69022B00F083807B69022B00F28E
:101AF000A1807B69002B03D07B69012B56D099E034
:101B00006F4B1B6803F02003002B2DD06C4B1B6820
:101B1000DB0803F003036B4A22FA03F37B607B6864
:101B200007EE903AF8EE676A3B6907EE903AF8EEF6
:101B3000677A86EEA77A624B1B6BC3F3080307EE46
:101B4000903AF8EE676A97ED026ADFED615AC6EEE9
:101B5000257A76EEA77AF7EE006A77EEA67A67EE38
:101B6000277AC7ED077A87E03B6907EE903AF8EEEF
:101B7000677ADFED586A86EEA77A514B1B6BC3F389
:101B8000080307EE903AF8EE676A97ED026ADFED18
:101B9000505AC6EE257A76EEA77AF7EE006A77EE0F
:101BA000A67A67EE277AC7ED077A65E03B6907EE0C
:101BB000903AF8EE677ADFED486A86EEA77A404BF6
:101BC0001B6BC3F3080307EE903AF8EE676A97EDD4
:101BD000026ADFED3F5AC6EE257A76EEA77AF7EE77
:101BE000006A77EEA67A67EE277AC7ED077A43E0B8
:101BF0003B6907EE903AF8EE677ADFED386A86EED9
:101C0000A77A2F4B1B6BC3F3080307EE903AF8EE4D
:101C1000676A97ED026ADFED2E5AC6EE257A76EEF8
:101C2000A77AF7EE006A77EEA67A67EE277AC7ED15
:101C3000077A21E03B6907EE903AF8EE677ADFED2C
:101C4000266A86EEA77A1E4B1B6BC3F3080307EECA
:101C5000903AF8EE676A97ED026ADFED1D5AC6EE1C
:101C6000257A76EEA77AF7EE006A77EEA67A67EE27
:101C7000277AC7ED077A00BF114B1B6B5B0A03F095
:101C80007F0301333B603B6807EE903AB8EE677A1A
:101C9000D7ED076AC6EE877AFCEEE77A17EE903A40
:101CA000BB6105E00023BB6102E0074BBB6100BFE5
:101CB000BB6918462437BD465DF8047B704700BFFA
:101CC000004402580090D00300093D0040787D0197
:101CD000000000460024744C0024744A20BCBE4B13
:101CE00080B58AB002AFF860B9603B601346FB80F4
:101CF000FB68D3F88830202B7BD1BB68002B02D047
:101D0000FB88002B01D1012374E0FB680022C3F89B
:101D10009020FB682122C3F88820FFF7FFFA786142
:101D2000FB68FA88A3F85420FB68FA88A3F85620C9
:101D3000FB689B68B3F5805F08D1FB681B69002BCB
:101D400004D10023FB61BB68BB6103E0BB68FB619E
:101D50000023BB6130E03B6800937B690022802157
:101D6000F86800F04BF80346002B05D0FB682022F2
:101D7000C3F8882003233DE0FB69002B0BD1BB692E
:101D80001B881A46FB681B68C2F308029A62BB698B
:101D90000233BB6107E0FB691A78FB681B689A6233
:101DA000FB690133FB61FB68B3F856309BB2013B22
:101DB0009AB2FB68A3F85620FB68B3F856309BB282
:101DC000002BC8D13B6800937B6900224021F86852
:101DD00000F014F80346002B05D0FB682022C3F85E
:101DE0008820032306E0FB682022C3F88820002314
:101DF00000E0022318462037BD4680BD80B584B080
:101E000000AFF860B9603B601346FB714FE0BB69FF
:101E1000B3F1FF3F4BD0FFF781FA02463B68D31A7C
:101E2000BA699A4202D3BB69002B01D103234EE069
:101E3000FB681B681B6803F00403002B37D0BB68EA
:101E4000802B34D0BB68402B31D0FB681B68DB692A
:101E500003F00803082B10D1FB681B6808221A62E4
:101E6000F86800F038F8FB680822C3F89020FB6897
:101E7000002283F88420012329E0FB681B68DB69CA
:101E800003F40063B3F5006F11D1FB681B684FF4D6
:101E900000621A62F86800F01EF8FB682022C3F89E
:101EA0009020FB68002283F8842003230FE0FB6866
:101EB0001B68DA69BB681340BA689A420CBF0123F9
:101EC0000023DBB21A46FB799A42A0D000231846C1
:101ED0001037BD4680BD80B495B000AF78607B6898
:101EE0001B687B637B6B53E8003F3B633B6B23F4D6
:101EF0009073FB647B681B681A46FB6C3B64FA6357
:101F0000F96B3A6C41E80023BB63BB6B002BE6D155
:101F10007B681B6808333B623B6A53E8003FFB6108
:101F2000FB6923F0805323F00103BB647B681B68CB
:101F30000833BA6CFA62BB62B96AFA6A41E80023F4
:101F40007B627B6A002BE3D17B68DB6E012B18D1AF
:101F50007B681B68FB60FB6853E8003FBB60BB68A5
:101F600023F010037B647B681B681A467B6CBB61A3
:101F70007A617969BA6941E800233B613B69002BCA
:101F8000E6D17B682022C3F88C207B680022DA66C9
:101F90007B6800225A6700BF5437BD465DF8047B5A
:101FA00070472DE9FF4757EC106B002F0C46194680
:101FB0003B46BBBF07F100431F4600232D230B7098
:101FC0000D9BDDF830A0914623F02008BCBF3246BF
:101FD0001646B8F1460F05D0B8F1450F00D10134CF
:101FE000022100E0032103AB019302AB009347EC15
:101FF000106B5346224601F09BFEB8F1470F054691
:1020000019D119F0010F0ED000EB040900220023B2
:1020100030463946FEF7E0FD08B1CDF80C9030228D
:10202000039B4B451ED3039B0E9A5B1B28461360F4
:1020300004B0BDE8F087B8F1460F00EB0409E5D124
:102040000378302B0AD10022002330463946FEF7B0
:10205000C3FD18B9C4F10104CAF80040DAF8003031
:102060009944D3E7591C03911A70D9E7F7B50029B1
:10207000BABF49422D232B2309290270437029DD61
:102080000DF107031D460A271A46B1FBF7F607FBB9
:102090001614303402F8014C0C46632C03F1FF3364
:1020A0003146F1DC3031941E03F8011C411C2346FB
:1020B000AB420AD30DF109039B1AAC4288BF00233F
:1020C00002330344181A03B0F0BD13F8016B01F892
:1020D000016FEDE7302330318370C170031DF1E7EC
:1020E0002DE9F04F8DB00C46DDF8588016461F469E
:1020F000054601F043FD036804931846FEF740F9D6
:1021000000230A93D8F800300590073323F0070323
:1021100003F1080294F818A0D4F800B0C8F8002021
:10212000D3E9008929F000430793CDF81880C4E96A
:102130001289DDE906019C4B4FF0FF32FEF77EFD70
:1021400070BBDDE90601984B4FF0FF32FEF758FDFA
:1021500030BB0022002340464946FEF747FD10B140
:102160002D2384F84330914A914BBAF1470F94BF25
:1021700090469846032323612BF0040323604FF01D
:102180000009009733460BAA2146284600F0D2F9F1
:10219000013040F08D804FF0FF300DB0BDE8F08F82
:1021A00042464B4640464946FEF748FD40B14B4645
:1021B000002BBCBF2D2384F843307E4A7E4BD4E7EE
:1021C00063680AF0DF0206925A1C3BD10623636063
:1021D0004BF480620023226003930AABCDE901A394
:1021E00009AB0093616849EC108B0DF1230328467D
:1021F000FFF7D7FE069B0999472B804629D1C81CBB
:1022000002DB6368994241DDAAF1020A5FFA8AFAA9
:102210000139524604F150000991FFF727FF0A9A4D
:102220001318012A8146236102DC2268D20701D5F6
:10223000013323619DF82330002BA2D02D2384F895
:1022400043309EE7069A472AC2D1002BC0D1012312
:10225000BDE7BAF1650FDBD9BAF1660F18D10029D5
:1022600063680BDD216113B92268D00702D5013301
:102270000B442361A1654FF00009DBE713B9226825
:10228000D20701D50233F4E70123F2E74FF0670AE2
:102290000A9B994205DB23682161D807EAD54B1CCC
:1022A000E7E70029D4BFC1F1020201221344E0E7AD
:1022B00023685A0507D42369424631462846B84761
:1022C00001302BD167E7BAF1650F40F2DD80D4E928
:1022D000120100220023FEF77FFC002833D0374A8A
:1022E000012331462846B84701303FF454AFDDE9B9
:1022F0000938434502DB2368D8070FD5DDE90423FD
:1023000031462846B84701303FF445AF4FF0000949
:1023100008F1FF3804F11A0AC84509DC23689B0755
:1023200000F10381E0680B9B9842B8BF184634E780
:102330000123524631462846B84701303FF42BAFBF
:1023400009F10109E8E7099B002B39DC1B4A01234D
:1023500031462846B84701303FF41DAFDDE9093961
:1023600059EA030302D12368D907D7D5DDE904234D
:1023700031462846B84701303FF40DAF4FF0000A10
:1023800004F11A0B099B5B42534501DC4B4693E772
:1023900001235A4631462846B84701303FF4FBAE88
:1023A0000AF1010AEEE700BFFFFFEF7FA066100809
:1023B000A4661008A8661008AC661008B06610087D
:1023C000A36DDDF828A05345A8BF5346002B9946BE
:1023D00036DC4FF0000B29EAE97904F11A02A36D0B
:1023E0000693A3EB09035B4531DC099B9A453ADC74
:1023F0002368DA0737D4099BAAEB0309069BAAEBEB
:1024000003039945A8BF9946B9F1000F33DC4FF09B
:10241000000829EAE97904F11A0B099BAAEB0303E6
:10242000A3EB090343457FF779AF01235A463146B1
:102430002846B84701303FF4AEAE08F10108ECE79A
:10244000424631462846B8470130C2D1A3E60123AF
:10245000314628460692B84701303FF49CAE069AB2
:102460000BF1010BBBE7DDE9042331462846B847F1
:102470000130C0D18FE6069A4B4642443146284689
:10248000B8470130C3D186E6DDF828A0BAF1010FC4
:1024900001DCDB0736D50123424631462846B847E2
:1024A00001303FF478AEDDE9042331462846B847D1
:1024B00001303FF470AED4E91201002200230AF18A
:1024C000FF3AFEF789FBC0B9534608F101023146D5
:1024D0002846B84701300CD15DE601235A46314603
:1024E0002846B84701303FF456AE08F10108D04500
:1024F000F3DB4B4604F15002DFE64FF0000804F135
:102500001A0BF4E701234246E1E701234A4631462C
:102510002846B84701303FF43EAE08F10108E368B1
:102520000B995B1A4345F0DCFCE64FF0000804F120
:102530001909F4E72DE9F047164698468A680B69B1
:10254000DDF820909342B8BF1346336091F84320E2
:1025500007460C460AB1013333602368990642BF2F
:10256000336802333360256815F0060506D104F19F
:10257000190AE36832689B1AAB4226DC94F84330B0
:102580002268003B18BF012392062BD404F14302BA
:1025900041463846C84701301ED02368226903F0FF
:1025A0000603042B02BFE5683368ED1AA3680CBF6D
:1025B00025EAE57500259342C4BF9B1AED18002655
:1025C0001A34B5421AD1002008E001235246414690
:1025D0003846C847013003D14FF0FF30BDE8F087DF
:1025E0000135C6E7E1185A1C302081F84300224427
:1025F00094F8451082F843100233C7E701232246BE
:1026000041463846C8470130E6D00136D9E70000D8
:102610002DE9FF470F7E0C9E782F914680460C4691
:102620009A4601F1430207D8622F0AD8002F00F022
:10263000D280582F00F0B98004F1420684F842702D
:102640003AE0A7F16303152BF6D801A151F823F066
:10265000A9261008BD2610083926100839261008AA
:102660003926100839261008BD261008392610080A
:10267000392610083926100839261008BD271008F9
:10268000E726100877271008392610083926100881
:10269000DF27100839261008E72610083926100809
:1026A000392610087F27100833681A1D1B6832600E
:1026B00004F1420684F8423001239DE0336820682B
:1026C000191D3160060601D51D6803E04506FBD5DE
:1026D000B3F90050002D03DA2D236D4284F8433006
:1026E00059480A2311E021683368080653F8045B4F
:1026F00002D4490648BFADB26F2F5348336014BFB0
:102700000A230823002184F843106668A660002E7F
:10271000A2BF216821F0040121600DB9002E4BD029
:102720001646B5FBF3F103FB1157C75D06F8017DB3
:102730002F46BB420D46F4D9082B0BD12368DF0787
:1027400008D5236961689942DEBF302306F8013C51
:1027500006F1FF36921B2261CDF800A04B4603AA7A
:1027600021464046FFF7E6FE01304AD14FF0FF30E8
:1027700004B0BDE8F087236843F0200323603348AA
:10278000782784F84570236831681F0651F8045B88
:1027900002D45F0648BFADB23160D90744BF43F0F1
:1027A000200323601DB11023ACE72748E9E7236825
:1027B00023F020032360F6E71646BDE7336825685B
:1027C0006169181D30602E061B6801D5196002E092
:1027D0006806FBD51980002323611646BCE73368E1
:1027E0001A1D32601E68626800213046FDF778FDD0
:1027F00008B1801B606063682361002384F8433064
:10280000AAE72369324649464046D0470130ADD059
:1028100023689B0713D4E068039B9842B8BF18460F
:10282000A6E70123324649464046D04701309DD0B5
:102830000135E36803995B1AAB42F2DCEBE7002554
:1028400004F11906F5E700BFB2661008C366100868
:102850002DE9F04F87B0174603938B685A1EB2F5E7
:10286000AE7F81BF6FF4AE7503EB050B40F25D13D5
:102870008B600B680A464FF0000543F4F06342F8A2
:102880001C3BCDE9045580460C4698BF4FF0000B29
:1028900001921646AA46A9460295A26852B13B6823
:1028A0001B784E2B64D8402B3CD8A3F12B01C8B227
:1028B0000E283AD9B9F1000F03D0236823F48073AE
:1028C00023600AF1FF3ABAF1010F00F21781019B70
:1028D0009E4200F20881012007B0BDE8F08FA3F10D
:1028E00061020D2AE6D801A151F822F0332A10081E
:1028F000B5281008B5281008B5281008932A100824
:102900006B2A1008B5281008B5281008412A1008AD
:10291000B5281008B5281008B5281008B5281008E3
:10292000F9291008A3F14102DBE70E29C2D801A062
:1029300050F821F0E9291008B5281008E9291008F5
:102940007F2A1008B528100891291008CF291008EF
:10295000CF291008CF291008CF291008CF29100837
:10296000CF291008CF291008CF291008CF29100827
:102970006E2B09D8602BB2D8542B7BD0592B99D110
:10298000072D97D108252CE0742B73D0792BF6E70F
:102990002168C8051BD521F08001216009F10109DA
:1029A000BBF1000F03D001320BF1FF3BA260A36823
:1029B000013BA3602369013323617B68013B002B4A
:1029C0007B6040F387803B6801333B6065E71AEB2F
:1029D00005017FF46FAF226822F4C07222600D46B9
:1029E0008A4606F8013BE2E7226810067FF562AFEF
:1029F00022F080022260F4E7BAF1000F0ED1B9F1A3
:102A0000000F0ED1226802F4E061B1F5E06F08D149
:102A100022F4F06222604FF0010AE2E7BAF1020FFD
:102A200055D0012D02D0042D7FF444AF0135EDB215
:102A3000D7E7BAF1010F7FF43DAF4FF0020AD0E7BC
:102A40007DB9B9F1000F7FF438AF226802F4E0617C
:102A5000B1F5E06F40F0088122F4F06222600125B8
:102A6000BFE7032DE2D0052DDEE7022D7FF422AF74
:102A70000325B6E7062D7FF41DAF0725B1E72268D1
:102A800091057FF517AF22F420722260CDF80890EF
:102A9000A7E7226802F4A061B1F5806F06D0500567
:102AA0007FF508AFB9F1000F00F0DE80910558BF47
:102AB000029922F4F06258BFA9EB010142F4C072FE
:102AC00058BFCDE9041622604FF0000989E74FF0A6
:102AD000030A86E7D4F880313946404698470028F3
:102AE0003FF4DBAEE6E6D4F87C3116F8011D3A4639
:102AF000404698472369013B2361E8E66B1E062B9D
:102B000024D8022D36D8019B9E427FF6E4AED4F83D
:102B10007C3116F8011D3A46404698472369013B2F
:102B20002361F0E7D4F87C311BF8011D3A4640469A
:102B300098472369013B23610AF1FF3A5FFA8AFA59
:102B4000BAF1020FEED1033DEDB2761B2368DA0530
:102B500030D55B0511D5019B9E427FF6BCAED4F803
:102B60007C3116F8011D3A46404698472369013BDF
:102B70002361F0E7AA46B346DEE716F8011C236995
:102B8000652903F1FF3306F1FF3523610CD0452998
:102B90000AD0D4F87C313A4640469847236916F863
:102BA000021C013BB51E2361D4F87C313A464046F5
:102BB00098472E46226812F0100201D000208BE6C2
:102BC0003270236803F4C063B3F5806F1CD1029B9D
:102BD0004B45A3EB090223D101990022404600F0A6
:102BE00013FF039B21681B6811F0020F57EC106B59
:102BF00003F104021FD003990A601B68C3E9006750
:102C0000E3680133E360D9E7049B002BE4D0059926
:102C10000A230131404600F077FF049B059EC21A4B
:102C200004F26F139E4228BF04F5B7761049304670
:102C300000F022F8D0E711F0040F03990A60DCD10C
:102C40001D6832463B4630463946FDF7F7FF28B14E
:102C5000084800F0DDFF85ED000AD1E7304639462F
:102C6000FEF74AF82860CBE74FF0000929E600BFDD
:102C7000D4661008CB6A10080EB400B59CB01DAB2A
:102C8000029006906FF000410948079104910949AC
:102C900053F8042B05910068019302A902F0A0F9F2
:102CA000029B00221A701CB05DF804EB03B0704761
:102CB000880100100802FFFF002310B50446C0E998
:102CC0000033C0E90433836081814366C28183613C
:102CD000194608225C3000F049FF0D4B63620D4B32
:102CE000A3620D4BE3620D4B23630D4B24629C42A8
:102CF00006D003F16802944202D0D0339C4205D141
:102D000004F15800BDE8104000F066BF10BD00BFE0
:102D1000255E1008475E10087F5E1008A35E10084D
:102D200094020010024A0349034800F0EFBE00BFBE
:102D300010000010595410088C01001041680C4B11
:102D4000994210B5044601D002F086FBA168094BF8
:102D5000994202D0204602F07FFBE168064B99427F
:102D600004D02046BDE8104002F076BB10BD00BF85
:102D700094020010FC0200106403001010B50B4B0D
:102D80000B4C0C4A1A60204600220421FFF794FFE6
:102D900004F1680001220921FFF78EFF04F1D00041
:102DA0000222BDE810401221FFF786BFCC030010BD
:102DB00094020010252D1008014800F00EBF00BF3E
:102DC000D1030010014800F009BF00BFD10300107B
:102DD00010B50446FFF7F0FF236A1BB1BDE81040B1
:102DE000FFF7F0BF044B2362044B1B68002BF5D1A7
:102DF000FFF7C4FFF2E700BF3D2D1008CC03001021
:102E000070B504460D4645EC104B164602F0CCFE5C
:102E100051EC100B7EB1C5F30A53C3F16B03002BC9
:102E200009DD1B0503F17F55002405F540152246F9
:102E30002B46FDF769FC41EC100B70BD0000000053
:102E40002DE9F04F9FB00C46179200221A92059080
:102E50004FF0000A4FF0000B0A46199211782B2907
:102E60004AD038D80D2932D8082932D800293BD089
:102E700000220B92199D2A78302A40F0B3806A789C
:102E800002F0DF02582A6ED102930B9B01931AAB1A
:102E900000938E4A05981BAB19A901F075FD10F03F
:102EA0000F06044605D0062E28D1013500231995BA
:102EB0000B93179B002B40F08E850B9BCBB152469A
:102EC0000BF1004343EC102B1FB0BDE8F08F20291D
:102ED000CED10132C1E72D29CAD101210B91511C5C
:102EE00019915278002AC5D1179B1994002B40F0F4
:102EF000708552465B46E5E70021EFE71A9A3AB142
:102F000035211CA802F04AFF1A99059802F018FB17
:102F1000013E1B9A042E06D8DFE806F014031D209C
:102F20001400DDE91CABE10548BF4BF0004B2BF072
:102F300000431B0D1B05002BBBD100F023FE2223F9
:102F40000360B6E7DDE91CA302F2334223F48013E9
:102F500043EA025BE7E7DFF87CB1E4E76FF0004BA0
:102F60004FF0FF3ADFE7199B5A1C19925B78302B20
:102F7000F9D0002B9DD001230993199B0C930023BA
:102F800008930A931F460A2219980578A5F1300381
:102F9000D9B2092928D94E49012200F0D5FD0028CF
:102FA00032D000202A4681463D460346652A01D09C
:102FB000452A14D11DB9099A024395D00025199CC0
:102FC000621C199262782B2A77D02D2A7BD04FF081
:102FD000000CA2F13001092940F2828019944FF0CF
:102FE0000008A2E00023C7E7082FD5BF0A99089977
:102FF00002FB013302FB013300F10100D4BF0A934D
:10300000089301371990BFE7199B5A1C19925A78F7
:103010007FB381463D46A2F13003092B12D901232B
:10302000C4E7199B5A1C19925A780130302AF8D0FB
:10303000A2F13103082B00F2D384199B0C93814633
:1030400000200546303A00F101032AD0994400EBF4
:10305000050C2B460A2163450DD1691C0144284407
:10306000082816DC0A980A2303FB00230A9300238E
:1030700018E03846DAE7082B03F1010303DC0A9E67
:103080004E430A96E7E7102BDEBF089E4E43089694
:10309000E1E70F28EBDC08980A2303FB00230893E1
:1030A000E5E72946199A501C1990527818460D46A2
:1030B000B1E74FF0000901237DE74FF0000CA21C9F
:1030C0001992A27885E74FF0010CF8E7F066100836
:1030D000D96610080000F07F199A511C1991527896
:1030E000302AF9D0A2F1310108293FF678AF303A01
:1030F0000E92199A0F924FF00A08199A561C1996B7
:103100005278A2F1300EBEF1090F39D90F99761A13
:10311000082E44F61F6803DC0E998845A8BF884630
:10312000BCF1000F01D0C8F10008002D4ED1099963
:1031300008437FF4BEAE002B7FF4D6AE692A28D0B8
:1031400025DC492A25D04E2A7FF4CEAE9B4919A80A
:1031500001F03CFE00283FF4C7AE199B1B78282BDA
:103160002ED197491CAA19A801F044FE052827D1A1
:103170001D9BDDF870A043F0FF4B4BF4E00B98E68D
:103180000E9908FB0121A1F130020E92B5E76E2ADB
:10319000DAE78C4919A801F019FE00283FF4A4AE23
:1031A000199B8949013B19A8199301F00FFE10B929
:1031B000199B01331993DFF820B24FF0000A78E62B
:1031C000824800F01DFD5BEC10AB72E6A8EB090332
:1031D0000A980993002F08BF2F46102D2C46A8BF30
:1031E0001024FDF717FA092D82468B4613DC099B44
:1031F000002B3FF45EAE099B78DD162B5FDC744933
:1032000001EBC301D1E9000152465B46FDF77CFAB0
:1032100082468B464DE66E4B03EBC40353E9122303
:10322000FDF772FA824608988B46FDF7F3F90246DD
:103230000B4650465946FDF7B1F80F2D82468B4696
:10324000D5DD099B2C1B1C44002C40F3968014F008
:103250000F030AD05E4901EBC30152465B46D1E938
:103260000001FDF751FA82468B4634F00F0473D00B
:10327000B4F59A7F48DD0024A0460A94A146059A39
:10328000DFF854B1222313604FF0000A0A9B002B91
:103290003FF40FAE1A99059802F052F90598494685
:1032A00002F04EF90598414602F04AF90A9905984C
:1032B00002F046F90598214602F042F9F9E5099A2B
:1032C000C5F125039342BCDB414CC5F10F0504EB6E
:1032D000C50152465B46D1E90001FDF715FA099B8D
:1032E0005D1B04EBC504D4E900238FE71633A8DB8C
:1032F000374BA9EB080803EBC808D8E90023504670
:103300005946FDF72BFB83E7324B0893002324112A
:10331000504659461E46012C21DC0BB182468B4695
:103320002C49ABF1547B01EBC60152465B46D1E917
:103330000001FDF7E9F9284B0A460B4027498B426B
:10334000824698D8A1F580118B4286BFDFF890B0F5
:103350004FF0FF3A02F1547B002308937AE0E20732
:1033600005D5089BD3E90023FDF7CEF90123089A80
:103370000832013664100892CDE7EDD0644214F0B3
:103380000F020AD0124B03EBC20350465946D3E951
:103390000023FDF7E3FA82468B462411DCD01F2C74
:1033A00020DD0024A0460A94A146059A22234FF06E
:1033B000000A4FF0000B136068E700BFAD6610080D
:1033C000DC661008A56610083C681008CB6A100877
:1033D000C8691008A06910080000F07F0000A07CF8
:1033E000FFFFEF7F14F0100318BF6A23A94E089364
:1033F000504659460023E20704D5D6E90023FDF7DD
:1034000083F90123641006F10806F4D10BB182465A
:103410008B46089BB3B1CBF30A52C2F16B03002B6E
:1034200059460FDD1F2B55DD342BDEBF4FF0FF3328
:10343000C2F14B0293404FF0000ACCBF4FF05C7BCF
:1034400003EA010B0022002350465946FDF7C4FB56
:103450000028A6D10A9B00930C9905982B463A4662
:1034600002F0D6F80A9000283FF405AF099A002A26
:10347000A9EB0803A8BF00231293002422EAE273F9
:103480001693A0460A9B0598596802F019F88146E0
:1034900000283FF4F4AE0A9B1A69023203F10C01D2
:1034A00092000C3000F09BFB4BEC10AB05981CAA73
:1034B0001BA9CDE90CAB02F0E7FB1A9000283FF402
:1034C000DEAE0598012102F039F9804648B94FF087
:1034D0000008D4E64FF0FF3202FA03F303EA0A0AC7
:1034E000B0E71B9D1C9A002DABBF129B169B169E2E
:1034F000129FACBFEF185E1B089BED1A1544664B7C
:10350000013D9D42C2F1360250DA5B1B1F2BA2EB3C
:1035100003024FF001013DDC01FA03F31393002392
:103520001093BD18089BAF4216441E443B46A8BFEB
:103530002B46B342A8BF3346002BC2BFED1AF61A82
:10354000FF1A129B002B16DD414605981A4602F021
:10355000B5F980460028BAD001461A9A059802F0BB
:1035600003F90E9000283FF48AAE1A99059801F0ED
:10357000E7FF0E9B1A93002D1DDC099B002B23DD1A
:103580004946169A059802F099F98146E0B94FF03C
:10359000000974E6C5F17F4505F57F0505F57B4516
:1035A000E23501FA05F310931391BAE70023109363
:1035B00001231393B5E71A9905982A4602F0D8F922
:1035C0001A900028D9D15AE6002E07DD4946059801
:1035D000324602F0CDF981460028D8D0002F08DD10
:1035E000414605983A4602F0C3F9804600283FF468
:1035F00046AE1A9905984A4602F042FA0446002857
:103600003FF43DAEC3680F930023C360414602F010
:103610001BFA002846DA0F9B53EA0A036CD1CBF35E
:103620001303002B68D12BF000431B0D1B05B3F1D6
:10363000D66F61D9636913B92369012B5CDD21461B
:103640000122059802F094F94146044602F0FCF983
:10365000002851DD2BF00043089A1B0D1B05002AA2
:103660006BD0B3F1D66F68D8B3F15C7F7FF69DAEB7
:103670000A4B504659460022FDF746F8084B0B40CE
:1036800082468B46002B7FF405AE059A22231360F9
:1036900000E600BF0867100802FCFFFF0000503979
:1036A0000000F07FCDF838B065D10F9ACBF313034B
:1036B0005AB39F4A93422BD1089B514603B39D4B6B
:1036C0005A461340B3F1D46F4FF0FF321BD81B0D95
:1036D000C3F16B0302FA03F3994219D1964B0E9A88
:1036E0009A4202D101313FF4CAAD924B0E9A1A4070
:1036F00002F5801B4FF0000A089B002BB8D1C9E5EA
:103700004FF0FF33E8E71346E6E753EA0A03A1D098
:10371000109BDBB10E9A1342EED00F9B089A5046D5
:103720005946BBB1FFF76CFBDDE90C0153EC102BE4
:10373000FCF734FE82468B46DEE7A3F580136FEA82
:10374000135B6FEA0B5B4FF0FF3AD5E7139B13EA6D
:103750000A0FE1E7FFF754FBDDE90C0153EC102BF6
:10376000FCF71AFE0022002382468B46FDF734FA4E
:103770000028C1D019E64146204602F0DDFA57EC98
:10378000106B00224FF0804330463946FDF738FA7F
:1037900000286FD00F9B002B7AD1BAF1000F58D1BF
:1037A0000E9BC3F31303002B5AD1644B0022304607
:1037B0003946FDF71BFA002859D130463946604B8F
:1037C0000022FCF7A1FF06460F4607F100430696CC
:1037D0000793DDE90623574DCDE910230E9B1D40CD
:1037E000584B9D4240F0B2800E9BA3F1547B4BECB2
:1037F00010AB02F0D9F9DDE9062351EC100BFCF710
:1038000083FF52465B46FCF7C9FD0B4649494E4AC9
:1038100019409142824642D90D9A474B9A4203D1B0
:103820000C9B01333FF42BADDFF80CB14FF0FF3AA6
:103830001A99059801F084FE0598494601F080FE2A
:103840000598414601F07CFE0598214601F078FE7E
:1038500018E6BAF1010F03D10E9B002B3FF4A5AD82
:103860009FED2B7B354F8DED067B0026B1E7344F66
:103870000026AAE7324B304639460022FCF744FFC7
:103880000F9B06460F46002B9FD0CDE90667A0E7A9
:103890009FED217B8DED067B57EC176B99E703F1CC
:1038A000547B089BCDF838B0002BC1D12BF00043DE
:1038B0001B0D1B059D42BBD130463946FDF76CFA06
:1038C000FCF7F4FE02460B4630463946FCF764FD31
:1038D0000B460246CDE90C23CBF313060F9B46EAB9
:1038E0000A061E436FD00EA3D3E90023FDF77EF92D
:1038F00000287FF4CFAC0CA3D3E90023DDE90C0151
:10390000FDF792F9002893D0C4E400BFAFF3008024
:10391000000000000000F0BF000000000000F03FC9
:103920009535A094FFFFDF3F35E5AF350000E03F60
:10393000FFFF0F000000F07FFFFFEF7F0000F03F70
:103940000000E03F0000E07FFFFF9F7C089B23B367
:10395000B5F1D46F21D828A3D3E9002330463946E6
:10396000FDF74EF9A0B139463046FDF7A5F901281B
:1039700038BF0120FCF74EFE0F9B06460F46FBB9F1
:1039800001F1004314901593DDE91423CDE91023D0
:10399000119B03F1D6635B1B11939DED0C0BDDE9CD
:1039A00010AB02F001F9504653EC102B5946FCF7CE
:1039B000ABFEDDE90C23FCF7F1FC82468B4670E799
:1039C000CDE91467E0E70EA3D3E90023FDF70EF974
:1039D00098E700230B93179A199B1360FFF76DBAB2
:1039E000652A3FF466AB452A3FF463AB0123FFF73A
:1039F0009EBB00BFAFF300800000C0FFFFFFDF41B0
:103A00009535A094FFFFCF3F014BFFF719BA00BFD8
:103A10001C000010242B2DE9F0478646904601D863
:103A2000012B06D100F0AEF8162303600020BDE89C
:103A3000F08734480D462A4615F8014B065D16F00E
:103A40000806F8D12D2C2DD12C780126951C33F0A9
:103A5000100209D1302C2AD12A7802F0DF02582A2C
:103A600025D16C781023023506F1004C0CF1FF3C97
:103A70000022BCFBF3F9104603FB19CAA4F130077E
:103A8000092F1BD83C46A34227DD571C07D0814590
:103A900020D301D1A2451DDB00FB0340012215F814
:103AA000014BEBE72B2C04BF2C78951CCFE7002BA8
:103AB000DAD1302C0CBF08230A23D5E7A4F1410743
:103AC000192F01D8373CDEE7A4F16107192F04D87C
:103AD000573CD8E74FF0FF32E1E7531C08D12223CF
:103AE000CEF800306046B8F1000FA0D0691E06E0A5
:103AF00006B14042B8F1000F99D0002AF6D1C8F8BB
:103B0000001094E739671008FFF784BF2DE9F843E8
:103B10000746884614460026D4E90195B9F1010903
:103B200005D52468002CF7D13046BDE8F883AB8971
:103B3000012B07D9B5F90E30013303D02946384699
:103B4000C04706436835E9E710B56AB10139841802
:103B500010F8012B11F8013F9A4203D1A04201D085
:103B6000002AF5D1D01A10BD1046FCE702440346E6
:103B7000934200D1704703F8011BF9E700487047F2
:103B80000C010010014B1868704700BF880100103D
:103B900070B50D4D0D4C641BA4100026A64209D132
:103BA0000B4D0C4C02F066FD641BA4100026A642CF
:103BB00005D170BD55F8043B98470136EEE755F83E
:103BC000043B98470136F2E7D46A1008D46A10081B
:103BD000D46A1008D86A10087047704770470A44C2
:103BE000914200F1FF3300D1704710B511F8014B3D
:103BF00003F8014F9142F9D110BD00000000000010
:103C00009FED010B704700BF000000000000F87F2F
:103C10009FED010A704700BF0000C07F2DE9F74FFC
:103C200003690C69A34207467EDB013C01F11408DD
:103C3000A30000F11405009305EB8403019358F8E9
:103C4000243055F8242001339A4208EB8409B2FB52
:103C5000F3F62ED34FF0000AC446AE46D3465CF8C6
:103C6000043B98B206FB00A0020C1B0C06FB0323CE
:103C7000DEF8002080B292B2121A5A44DEF8000038
:103C80004FEA134A9BB2C3EB224303EB104392B2B9
:103C900042EA0342E1454EF8042B4FEA234BDED2C1
:103CA000009BEB582BB9019B043B9D421A462FD336
:103CB0003C61384601F0C8FE002825DB294600207B
:103CC00058F8042BD1F800C01FFA82FE1FFA8CF3BB
:103CD000A3EB0E030344120CC2EB234202EB1C4283
:103CE0009BB243EA0243C14541F8043B4FEA2240FC
:103CF000E6D255F8242005EB840322B9043B9D420B
:103D00001A460BD33C610136304603B0BDE8F08F54
:103D10001268043B002ACBD1013CC6E71268043B81
:103D2000002AEFD1013CEAE70020EEE700000000A6
:103D30002DE9F04FC76999B08DED020B55EC104B92
:103D4000229E099183460E9213937FB9102001F0B1
:103D500043FA0246CBF81C0020B9A74BEF21A74835
:103D600002F04EF9C0E901770760C760DBF81C304C
:103D7000196859B15A684A60012393408B605846CC
:103D800001F0DEFBDBF81C3000221A602B1EB9BFED
:103D900023F00043039300233360039F984BBCBF81
:103DA00001223260BB4312D1139A42F20F731360A7
:103DB000C7F31303234300F04D85239BDFF854A280
:103DC000002B00F04F850AF1030300F049BD9DED83
:103DD000027B002251EC170B00238DED0C7BFCF7CE
:103DE000FBFE804658B1139A01231360239B13B145
:103DF000239A844B1360DFF820A200F033BD9DEDC1
:103E00000C0B16AA17A9584601F03EFFC7F30A5635
:103E10008146002E77D00D9BCDF85080C3F313035D
:103E2000DDE90C0143F07F5343F44013A6F2FF3663
:103E300019460022744BFCF7AFFA69A3D3E90023BB
:103E4000FCF762FC68A3D3E90023FCF7A7FA044659
:103E500030460D46FCF7EEFB65A3D3E90023FCF7E3
:103E600053FC02460B4620462946FCF797FA0446C7
:103E70000D46FCF7F9FE002207460023204629469E
:103E8000FCF7B4FE40B13846FCF7D4FB22462B4683
:103E9000FCF7A2FE00B9013F162F51D85B4B03EB94
:103EA000C703D3E90023DDE90C01FCF79FFE0028DE
:103EB00048D0013F00231293169B9B1B5A1E44BF00
:103EC000C3F101080023089254BF4FF00008089383
:103ED000002F39DB089B0F973B44089300230A937C
:103EE000099B092B64D8052BC4BF043B0993099B8C
:103EF000A3F10203CCBF00240124032B63D8DFE825
:103F000003F02A373555DDE916631E4406F23243C5
:103F1000202BC1BFC3F140039F4006F2124324FA95
:103F200003F3D6BFC3F1200347EA030004FA03F00A
:103F3000FCF770FB0122A1F1F873013E149277E7C0
:103F40000123B8E71290B7E77B420A930023A8EB5E
:103F500007080F93C4E700230B930E9B002B35DC5F
:103F60000123009307931A460E920BE00123F3E717
:103F700000230B930E9BFB1800930133012B079337
:103F8000B8BF0123DBF81C000021042202F1140554
:103F90009D421FD94160584601F092FA824600289E
:103FA0003CD11B4B024640F2AF11D8E60123E0E7BB
:103FB0000124002309930B944FF0FF3300930793E0
:103FC00000221223D0E701230B93F5E70E9B009309
:103FD0000793D7E701315200D8E700BFAFF3008065
:103FE00061436F63A787D23FB3C8608B288AC63FFF
:103FF000FB799F501344D33F466810085D68100852
:104000000000F07FB16610080000F83FC869100892
:10401000B568100842681008B0661008DBF81C305C
:104020001860079B0E2B00F2A480002C00F0A180EA
:10403000002F33DDAD4B07F00F0203EBC20393ED0E
:10404000007BF8058DED047B4FEA271416D5A84BAD
:10405000DDE90C01D3E90823FCF780FCCDE902017E
:1040600004F00F040326A24D54B9DDE90423DDE971
:104070000201FCF773FCCDE9020128E00226F2E719
:10408000E10708D5DDE90401D5E90023FCF73CFB95
:10409000CDE90401013664100835E5E700F0D2806F
:1040A0007C42924B924D04F00F0203EBC203D3E922
:1040B0000023DDE90C01FCF727FBCDE90201241107
:1040C00000230226002C40F0B280002BD3D1129B9B
:1040D000DDE90245002B00F0B780864B0022204628
:1040E0002946FCF783FD002800F0AE80079B002BDB
:1040F00000F0AA80009B002B37DD7B1E0493204636
:104100007D4B00222946FCF7FFFACDE90201009C15
:1041100001363046FCF78EFADDE90223FCF7F4FAAB
:10412000764B0022FCF73AF90546A1F15076002CB7
:1041300040F08D80DDE90201714B0022FCF72CF983
:1041400002460B46CDE902232A463346FCF76CFDB6
:10415000002840F08B82DDE902012A4606F1004387
:10416000FCF744FD002840F02881DDE90C34CDE95E
:104170000234179B002BC0F25A810E2F00F3578197
:104180005A4B03EBC70393ED007B0E9B002B8DED89
:10419000007B03DA079B002B40F30181DDE9024538
:1041A0005646DDE9002320462946FCF7D7FBFCF7FD
:1041B0005BFD8046FCF73EFADDE90023FCF7A4FA3C
:1041C00002460B462046294608F13004FCF7E4F885
:1041D00006F8014B079DA6EB0A04A54202460B46D2
:1041E00040F01781FCF7DAF8DDE9002304460D46BC
:1041F000FCF71AFD002840F0F980DDE90023204695
:104200002946FCF7E9FC18B118F0010F40F0EE80E8
:104210004946584601F094F900233370139B013747
:104220001F60239B002B00F01D831E601AE3E20732
:1042300005D5D5E90023FCF767FA013601236410A0
:1042400008353FE7022642E7079C049761E7274BC2
:104250000B9903EBC40353E902235444002953D0C0
:1042600028490020FCF77AFB33462A46FCF794F8ED
:10427000CDE910015646DDE90201FCF7F5FC0546E3
:10428000FCF7D8F902460B46DDE90201FCF784F899
:10429000303502460B46CDE9022306F8015BDDE925
:1042A0001023FCF7A3FC002871D1DDE9022311499A
:1042B0000020FCF771F8DDE91023FCF797FC0028DB
:1042C00040F09580A6423FF450AFDDE910010A4B63
:1042D0000022FCF719FA084BCDE910010022DDE9B4
:1042E0000201FCF711FACDE90201C4E7C869100820
:1042F000A06910080000F03F0000244000001C40AE
:10430000000014400000E03F31462846FCF7FCF96D
:10431000CDE9100115945646DDE90201FCF7A4FC35
:104320000546FCF787F902460B46DDE90201FCF77A
:1043300033F8303506F8015B02460B46A642CDE95C
:1043400002234FF0000224D1AC4BDDE91001FCF751
:1043500025F802460B46DDE90201FCF765FC002862
:1043600045D1DDE91023A5490020FCF715F80246E8
:104370000B46DDE90201FCF739FC00283FF4F5AEFD
:10438000159E731E159316F8013C302BF8D0049F30
:104390003EE79B4BFCF7B8F9CDE90201BCE70CD135
:1043A000984B0022DDE90001FCF7AEF9DDE90223BC
:1043B000FCF730FC002800F05781002425460E9BB6
:1043C000DB430493564600272146584601F0B8F8CF
:1043D000002DDCD02FB1AF4203D03946584601F052
:1043E000AFF82946584601F0ABF8D0E704973346BA
:1043F0001E4613F8012D392A07D19A45F8D1049A9F
:104400000132049230228AF800201A7801321A70A0
:10441000BDE77B4B0022FCF777F90022002304461E
:104420000D46FCF7D9FB00283FF4BBAEF0E60B9A33
:10443000002A00F0DB80099A012A00F3BF80149A59
:10444000002A00F0B78003F233430A9C4646089ADC
:1044500001211A4458469844089201F06FF9054624
:104460005EB1089B002B08DDB342089AA8BF334613
:10447000A8EB0308F61AD31A08930A9BF3B10B9B17
:10448000002B00F0B7808CB129462246584601F037
:1044900015FA4A4601460546584601F065F949466F
:1044A0000490584601F04CF8049B99460A9B1A1B4D
:1044B00004D04946584601F001FA81460121584688
:1044C00001F03CF90F9B0446002B00F0CF811A4607
:1044D0000146584601F0F2F9099B012B044600F30E
:1044E0009580029B002B40F08780039BC3F313034E
:1044F000002B40F08980039B23F000431B0D1B051C
:104500002BB1089B0133089308F1010801230A939A
:104510000F9B002B00F0B081236904EB8303186923
:1045200001F0C0F8C0F12000089B184410F01F00F3
:1045300077D0C0F12003042B6BDD089BC0F11C0079
:104540000344804406440893B8F1000F05DD494652
:104550004246584601F00CFA8146089B002B05DDC7
:1045600021461A46584601F003FA0446129B002BD6
:1045700059D02146484601F067FA002853DA7B1EDD
:104580000493494600230A22584600F0FBFF0B9B88
:104590008146002B00F07281002329460A225846EA
:1045A00000F0F0FF009B002B054667DC099B022B07
:1045B00041DC63E0169BC3F1360346E7079B5C1EB4
:1045C0000A9BA342BFBF0A9B0F9A0A94E31AB4BF87
:1045D000D2181C1B079BBCBF0F920024002BB5BF39
:1045E000A8EB0306079B0023464630E70A9C0B9D79
:1045F000464635E70A9A5CE7002388E70000E03F7B
:104600000000244000001440029B80E700230A932E
:1046100082E799D0089A1C331A4498441E440892A1
:1046200092E70346F6E7079B0497002B20DC0093F4
:10463000099B022B1EDD009B002B7FF4C0AE2146A0
:104640000522584600F09EFF01460446484601F008
:10465000FBF900287FF7B3AE5646312306F8013B3D
:10466000049B01330493AEE6079C04972546F3E7C9
:10467000079B00930B9B002B00F00481002E05DDAF
:1046800029463246584601F073F905460A9B002B2D
:104690005AD06968584600F013FF064628B9844B83
:1046A000024640F2EF21FFF75ABB2A69023292001C
:1046B00005F10C010C30FFF792FA01223146584601
:1046C00001F056F90AF101030793009B53440B9341
:1046D000029B03F001032F460A930546079B2146E0
:1046E000013B48460093FFF799FA3946029000F1E2
:1046F0003008484601F0A8F92A4608902146584655
:1047000001F0BEF9C268064602BB0146484601F008
:104710009BF90246314658460E9200F011FF099B64
:104720000E9A079E43EA02010A9B194310D1B8F181
:10473000390F29D0089B002B02DD029B03F13108C1
:10474000009B83F800803FE62846BBE70122E1E7B3
:10475000089B002B04DB09990B430A990B4320D1DA
:10476000002AEDDD49460122584601F001F92146B3
:10477000814601F069F9002803DCE1D118F0010F4E
:10478000DED0B8F1390FD8D1009A392313703346EF
:104790001E46013B16F8012C392A52D001321A70FC
:1047A00012E6002A07DDB8F1390FEDD0009A08F1C2
:1047B0000103137008E6079B079A03F8018C0B9B13
:1047C000934228D0494600230A22584600F0DAFED8
:1047D000AF4281464FF000034FF00A023946584677
:1047E00007D100F0CFFE07460546079B013307932C
:1047F00074E700F0C7FE2946074600230A22584600
:1048000000F0C0FE0546F0E7009B002BCCBF1E4623
:1048100001265644002749460122584601F0A8F8CF
:104820002146814601F010F90028B0DC02D118F0D1
:10483000010FACD133461E4613F8012D302AFAD0B1
:10484000C2E59A45A4D1049B0133049331238AF82D
:104850000030B9E5239BDFF85CA01BB10AF1080327
:10486000239A1360504619B0BDE8F08F099B012BC5
:104870007FF737AE0F9B0A93012055E6009B002B74
:104880007FF7D6AE564621464846FFF7C7F900F1F6
:10489000300806F8018B009BA6EB0A029342B3DDB9
:1048A000494600230A22584600F06CFE8146EAE79A
:1048B000B5681008396810080369B3EB611F2DE96A
:1048C000F0434FEA611200F1140445DD11F01F01BD
:1048D00004EB830604EB82050CD100F11007294696
:1048E000B14234D39B1A9B00EA1E964238BF002384
:1048F000234415E054F82270C1F12008CF4005F19F
:10490000040EA1467645F44615D89A1A9200043A48
:104910000135AE4238BF0022A318A75007B10433B7
:104920001A1BA3424FEAA20208BF0023026108BF7C
:104930004361BDE8F083DCF800C00CFA08FC4CEAE7
:10494000070749F8047B5EF8047BCF40DAE751F8AB
:1049500004CB47F804CFC3E72346E1E7A0F13003D7
:10496000092B02D82038C0B27047A0F16103052B93
:1049700001D84738F7E7A0F14103052B01D82738C4
:10498000F1E70020704700002DE9F04F85B08A461E
:1049900002930B68019090469C1CA14614F8010BF1
:1049A0003028FAD0A9EB0303A3F1020BFFF7D6FFDF
:1049B0000546002868D1A04901224846FFF7C4F8FF
:1049C0000746002867D199F801002646FFF7C6FF81
:1049D000002862D0234618783028994603F1010355
:1049E000F9D0FFF7BBFFB0FA80F56D094FF0010B6E
:1049F0004A46164601323078FFF7B0FF0028F8D15A
:104A00008D4901223046FFF79FF800283FD144B975
:104A1000741C2246164601323078FFF79FFF0028AB
:104A2000F8D1A41BA700337803F0DF03502B3ED14D
:104A300073782B2B33D02D2B34D0711C00240878A5
:104A4000FFF78CFF431EDBB2182B30D8A0F1100209
:104A500011F8010FFFF782FF00F1FF3C5FFA8CFCB9
:104A6000BCF1180F4FF00A031ED904B1524217448B
:104A7000CAF80010EDB1BBF1000F0CBF06250025F0
:104A8000284605B0BDE8F08F00252C46B0E7002C85
:104A9000C7D12746C7E74E462F460125C3E7002466
:104AA000B11CCCE70124FBE703FB0200CEE7314653
:104AB000DEE7A6EB0903013B2946072B0ADC019838
:104AC00000F0FEFC044640B95C4B0246E4215C4821
:104AD00001F096FA01315B10EFE700F1140A0023B0
:104AE00055469B46B14537D345F804BBA5EB0A05AF
:104AF000AD102561584600F0D5FD6D01D8F8006075
:104B00002D1AB54254DDAD1B2946204601F069F946
:104B1000814678B16B1E591103F01F025AF821101B
:104B20004FF0010909FA02F20A4203D04B4536DC84
:104B30004FF0020929462046FFF7BEFE2F44D8F861
:104B40000830BB4242DA0198214600F0F9FC0E9A87
:104B500000231360A32593E716F8012D2E2A12D007
:104B6000202B04D145F804BB4FF0000B5B46307896
:104B70000393FFF7F3FE039B00F00F0098404BEA0E
:104B8000000B0433AEE7B145EAD82B490393012269
:104B90003046FEF7D9FF039B0028E1D1A2E7A91E0A
:104BA000204601F01EF90028C2D04FF00309C1E7EA
:104BB00009DA751B214601982A4600F0D9FE7F1BB1
:104BC000044600F1140A4FF00009B8E7D8F8045081
:104BD000BD426FDDED1BAE4234DCD8F80C30022B49
:104BE00022D0032B24D0012B15D1AE4213D1012E9C
:104BF0000BD1029AD8F80430136001232361CAF85C
:104C000000300E9B62251C603AE7711E204601F0C1
:104C1000E8F80028EDD10198214600F091FC0E9AA9
:104C20000023136050252BE70F9B002BF3D1E0E707
:104C30000F9B002BDDD1EEE7D9661008B568100890
:104C4000C66810086F1EB9F1000F30D127B1394680
:104C5000204601F0C6F881467A1101235AF8222035
:104C600007F01F07BB4013422946204618BF49F0F2
:104C70000209FFF721FED8F80470761B0225B9F16E
:104C8000000F47D0D8F80C30022B15D0032B17D0CB
:104C9000012B09D119F0020F06D0DAF8003049EAE9
:104CA000030919F0010F0ED145F0100532E04FF065
:104CB0000109D1E70125E2E70F9BC3F101030F933F
:104CC0000F9B002BF0D0D4F810B004F114034FEA7E
:104CD0008B0A03EB8B014FF0000C184653F8042BA2
:104CE000B2F1FF3F1BD001320260022D04F1140328
:104CF0003CD1D8F80020013AB24209D17111012209
:104D000053F8213006F01F0602FA06F61E423AD189
:104D100045F020050E9B1C60029B1F60B0E6994287
:104D200043F804CCD9D8A3689B4517DB6168019888
:104D3000013100F0C5FB814618B91A4B02468421A7
:104D4000C5E62269023204F10C0192000C30FEF734
:104D500046FF2146019800F0F3FB4C4623695A1C9C
:104D600004EB8303226101225A61BEE722695A459E
:104D70000BDD01212046FFF79FFDD8F808300137F1
:104D8000BB42FFF6E0AE0125C2E716F01F06FAD0DF
:104D90005344C6F1200653F8040C00F083FCB042E3
:104DA000E7DBF0E7B5681008C2F10802920070B5C1
:104DB000C2F120064368046803FA06F52C43D34089
:104DC000046040F8043F8842F4D370BD30B50368F6
:104DD000013311F8014B14B90360012030BD13F801
:104DE000012BA2F14105192D98BF2032A242F0D02B
:104DF0000020F3E72DE9F04F0B6801685E1102EB2C
:104E0000860613F01F0387B018BF04360025371F2E
:104E100082469046019346F8045CB9463C460295AA
:104E2000AB464A784B1C039342B31046059104925B
:104E3000FFF794FD002851D1049A0599202A18D82B
:104E4000029B9B4513DD4C4506D2072D04DC2A4608
:104E500049462046FFF7A8FF444552D90023A4F154
:104E6000040944F8043CCDF808B04C461D460399AB
:104E7000D7E7292A57D10231CAF80010BBF1000F39
:104E800051D04C4506D2072D04DC2A46494620461F
:104E9000FFF78AFF444536D9A8F10402234653F8A8
:104EA000041B42F8041F9F42F9D23B1B23F003036B
:104EB00004330134033EB44288BF04234344002238
:104EC00043F8042B9F42FBD23B681BB9474528D1CE
:104ED00001233B60052007B0BDE8F08F0135082DA8
:104EE0000BF1010B06DD4445C1D9002344F8043C15
:104EF0000125043C226800F00F0040EA0210206007
:104F0000B5E70825B3E7019B002BDDD0C3F12003F3
:104F10004FF0FF32DA4056F8043C134046F8043CA8
:104F2000D2E7043FD0E70420D5E72DE9F0478E68AB
:104F30001F46BE420B6882460C4690462DD8B1F9FA
:104F40000C2012F4906F26D06569096905EB4505C0
:104F5000A3EB010905EBD5757B1C4B446D109D42FD
:104F600038BF1D46530527D5294600F05FF9064690
:104F700060B321694A46FEF732FEA38923F49063A9
:104F800043F08003A381266165614E44A5EB0905CA
:104F90002660A5603E46BE4200D93E4620683246A5
:104FA000414600F0BDFFA3689B1BA3602368334408
:104FB00023600020BDE8F0872A4600F076FF064611
:104FC0000028E0D12169504601F04CF80C23CAF8C2
:104FD0000030A38943F04003A3814FF0FF30E9E79D
:104FE0002DE9F04F98468B891B069DB007460D466C
:104FF000144610D50B6973B9402100F017F92860E9
:10500000286130B90C233B604FF0FF301DB0BDE884
:10501000F08F40236B610023099320238DF8293002
:10502000CDF80C803023DFF89C818DF82A304FF0CA
:10503000010923469A4613F8012B0AB1252AF9D112
:10504000BAEB040B0BD05B46224629463846FFF7E5
:105050006CFF013000F0A780099A5A4409929AF82F
:105060000030002B00F09F8000234FF0FF32CDE98D
:1050700005230AF1010A049307938DF853301A931C
:105080005446052214F8011B4E48FBF729F9049AEF
:10509000D8B9D00644BF20238DF85330110744BF40
:1050A0002B238DF853309AF800302A2B15D0079A0D
:1050B000544600204FF00A0C214611F8013B303BCA
:1050C000092B4BD9B0B1079214E0A0EB080309FA01
:1050D00003F313430493A246D2E7039B191D1B68F5
:1050E0000391002BBBBF5B4242F002020793079380
:1050F000B8BF049223782E2B0AD163782A2B32D1A1
:10510000039B1A1D1B68039243EAE3730234059361
:10511000DFF8C0A0217803225046FBF7E1F838B150
:10512000049BA0EB0A004022824013430134049305
:1051300014F8011B24488DF828100622FBF7D0F83C
:10514000002836D0214B1BBB039B073323F00703FA
:1051500008330393099B334409936AE70CFB02323B
:105160000C460120A8E700230134059319464FF0AF
:105170000A0C204610F8012B303A092A03D9002BDB
:10518000C6D00591C4E70CFB012104460123F0E7DA
:1051900003AB00932A460E4B04A93846FCF7A0FF48
:1051A000421C0646D6D1AB895B063FF52DAF099868
:1051B0002CE703AB00932A46054B04A93846FDF7BC
:1051C00027FAEDE72669100830691008E120100879
:1051D0002B4F10082C691008024B0146186800F08C
:1051E00025B800BF8801001070B50F4E0C4631681D
:1051F000054611B900F0E2FE30602146284600F075
:10520000DDFE431C03D14FF0FF34204670BDC41CAB
:1052100024F00304A042F8D0211A284600F0CEFE64
:105220000130F2D1EFE700BFD40300102DE9F843BD
:10523000CD1C25F0030508350C2D38BF0C25002D9D
:10524000064601DBA94204D90C2333600020BDE8E7
:10525000F883DFF8D48000F027F9D8F800301C4636
:1052600044BB29463046FFF7BFFF431C044658D1D4
:10527000D8F800402746002F43D1002C4BD023689C
:105280003946304604EB030900F098FE814542D1CF
:1052900021686D1A29463046FFF7A6FF01303AD043
:1052A00023682B442360D8F800305A6862BBC8F8E2
:1052B00000700FE02268521B20D40B2A17D9611905
:1052C000A342256018BF5960636808BFC8F8001082
:1052D00062514B60304600F0EDF804F10B00231DE5
:1052E00020F00700C21A1CBF1B1AA350AFE7626868
:1052F000A3420CBFC8F800205A60EBE7234664685D
:10530000AEE73C467F68B6E71A465B68A342FBD12E
:1053100000235360DEE70C233360304600F0CAF808
:1053200094E70560D6E700BFD803001082B001B94A
:1053300001A942B14BB113780B601278101E18BF4F
:10534000012002B070471046FBE76FF00100F8E75C
:10535000B1F90C202DE9F041160705460C4654D44E
:105360004B68002B02DC0B6C002B48DDE66A002E3C
:1053700045D0002312F480522F68216A2B6030D070
:10538000626DA389590705D56368D21A636B0BB1A7
:10539000236CD21A0023E66A216A2846B047431CD0
:1053A000A38906D129681D292BD82A4A0A41D60784
:1053B00027D400226260D9042269226004D5421CED
:1053C00001D12B6803B96065616B2F60B9B104F13D
:1053D0004403994202D0284600F044FE0023636350
:1053E0000DE001232846B0470246501CC9D12B6866
:1053F000002BC6D01D2B01D0162B1ED12F600020F4
:1054000022E043F040031BB21BE00F69002FF6D0EF
:1054100093070E6808BF4B690F6018BF0023A6EB07
:1054200007088B60B8F1000FE9DD216AA66A4346E0
:105430003A462846B047002808DCB4F90C3043F05F
:105440004003A3814FF0FF30BDE8F0810744A8EB93
:105450000008E7E7FEFFBFDF38B50B6905460C46DD
:1054600013B90025284638BD18B1036A0BB9FDF7FA
:10547000AFFCB4F90C30002BF3D0626ED00704D42B
:10548000990502D4A06DFEF7A8FB28462146FFF738
:105490005FFF636EDA070546E4D4A3899B05E1D478
:1054A000A06DFEF79BFBDDE70148FEF796BB00BF52
:1054B000D00300100148FEF791BB00BFD0030010DD
:1054C00070B5C66904460D4676B91020FFF784FE14
:1054D0000246E06120B9184B18486B2100F090FD9E
:1054E000C0E901660660C660E669F36883B1E369F6
:1054F000DB6853F82500B8B9012101FA05F6721DE1
:105500009200204600F09AFD60B1C0E901560EE01D
:1055100021220421204600F091FDE369F060DB6860
:10552000002BE4D1002070BD026843F82520002341
:10553000C0E90333F7E700BF466810083769100871
:1055400070B5C66905460C4676B91020FFF744FED3
:105550000246E86120B9094B09488F2100F050FD4F
:10556000C0E901660660C6603CB1EB696268DB6851
:1055700053F82210216043F8224070BD466810089D
:10558000376910082DE9F0410D6907460C461E46A3
:1055900001F1140C0020DCF8003099B202FB01612B
:1055A0001E0C0B0C02FB063389B2013001EB0341E8
:1055B00085424CF8041B4FEA1346ECDC0EB3A3689B
:1055C000AB4219DC616838460131FFF779FF80464C
:1055D00028B902460C4B0D48BA2100F011FD226992
:1055E000023204F10C0192000C30FEF7F8FA214669
:1055F0003846FFF7A5FF444604EB850301355E619D
:1056000025612046BDE8F081B568100837691008AB
:105610002DE9F8430C4615461F4609220833064675
:1056200093FBF2F3002101229A4209DB3046FFF797
:1056300047FF40B90246194B1948D32100F0E0FC5E
:1056400052000131F0E7089B4361092D4FF001033F
:10565000036116DD04F10909C8462C4418F8013B22
:105660000146303B0A223046FFF78CFFA045F5D1BA
:10567000A5F108044C442D1B6319BB4204DBBDE8B3
:10568000F8830A340925F6E714F8013B0146303B5C
:105690000A223046FFF776FFEEE700BFB568100834
:1056A00037691008B0F5803F034636BF0304002079
:1056B0001020B3F1807F3CBF1B020830B3F1805F44
:1056C0003CBF1B010430B3F1804F3CBF9B00023054
:1056D000002B05DB13F0804F00F1010008BF2020F4
:1056E00070470368024613F007000BD0D90721D496
:1056F000980749BF5B089B08012013605CBF1360DB
:105700000220704799B209B91B0C1020D9B209B90F
:1057100008301B0A190704BF1B090430990704BF8E
:105720009B080230D90703D45B0800F1010003D0C5
:1057300013607047002070472020704710B50C465A
:105740000121FFF7BDFE024628B9054B054840F28E
:10575000451100F055FC01234461036110BD00BFF9
:10576000B5681008376910082DE9F04F14460A692A
:1057700023699A42A8BF23460F46A4BF0C461F4682
:10578000D4F810A0D7F81090A36861680AEB090656
:10579000B34285B0B8BF0131FFF792FE30B902467F
:1057A000444B45484FF4B17100F02AFC00F1140558
:1057B00005EB86082B460022434521D307F114014F
:1057C00004F1140202EB8A0201EB89030293131B1A
:1057D000153B23F00303043304F11507BA4238BF25
:1057E00004230193029B03918B420CD8002E03DD0E
:1057F00058F8043D002B5BD0066105B0BDE8F08F82
:1058000043F8042BD8E7B1F800A0BAF1000F24D078
:1058100004F1140EA9464FF0000C5EF8047BD9F891
:1058200000301FFA87FB9BB20AFB0B334FEA174B82
:10583000D9F8007063444FEA174C0AFB0BC707EB1B
:1058400013479BB243EA0743724549F8043B4FEACA
:10585000174CE2D8019B45F803C0039BB3F80290B4
:105860000431B9F1000F21D02B6804F1140CAE46BD
:105870004FF0000ABCF800B0BEF8027009FB0B77CD
:1058800057449BB243EA07434EF8043B5CF8043BA1
:105890004FEA134ABEF8003009FB0A3303EB174303
:1058A00062454FEA134AE5D8019FEB51043599E769
:1058B000013E9BE7B5681008376910082DE9F843E9
:1058C000154612F0030207460E4607D0254C013A52
:1058D000002354F82220FFF755FE0646AD103DD0B8
:1058E000FC697CB91020FFF777FC0246F86128B903
:1058F0001D4B1E4840F2B31100F082FBC0E9014489
:105900000460C460D7F81C80D8F808404CB940F255
:1059100071213846FFF712FF0023C8F8080004463B
:1059200003604FF00009EB070AD53146224638469E
:10593000FFF71AFF314680463846FFF701FE46461C
:105940006D100BD0206838B9224621463846FFF743
:105950000BFF2060C0F800900446E4E73046BDE845
:10596000F88300BF9069100846681008376910086E
:105970002DE9F0470C464968236903EB6218A368D8
:10598000074691464FEA621A08F10106B3420BDB63
:105990003846FFF795FD054648B90246284B294889
:1059A0004FF4EF7100F02CFB01315B00EEE70023B8
:1059B00000F1140100F110021846534533DB206951
:1059C0002AEAEA7A04F1140319F01F0901EB8A01AB
:1059D00003EB800C2BD0C9F1200E8A4600221868F8
:1059E00000FA09F010434AF8040B53F8042B9C45C5
:1059F00022FA0EF2F3D8ACEB0403153B23F00303B9
:105A0000043304F11500844538BF0423CA500AB199
:105A100008F10206013E38462E612146FFF790FD4F
:105A20002846BDE8F08742F8040F0133C5E7043982
:105A300053F8042B41F8042F9C45F9D8EAE700BF3E
:105A4000B5681008376910080A6903460069801AAA
:105A500030B50ED11433143103EB820401EB820113
:105A600054F8045D51F8042D954203D005D24FF04F
:105A7000FF3030BDA342F3D3FBE70120F9E700007C
:105A80002DE9F74F89460646114648461446FFF76A
:105A9000DBFF051E12D129463046FFF711FD0246F5
:105AA00028B93F4B40F237213E4800F0A9FA0123C4
:105AB000C0E90435104603B0BDE8F08FBCBF4B46CB
:105AC000A1463046D9F80410BABF1C46012500256E
:105AD000FFF7F6FC024618B9314B40F24521E3E7E7
