:020000040810E2
:1000000000800410091C10081D1A1008251A100879
:100010002D1A1008351A10083D1A100800000000AB
:10002000000000000000000000000000451A100859
:10003000531A100800000000611A10086F1A100807
:10004000591C1008591C1008591C1008591C10087C
:10005000591C1008591C1008591C1008591C10086C
:10006000591C1008591C1008591C1008591C10085C
:10007000591C1008591C1008591C1008591C10084C
:10008000591C1008591C1008591C1008591C10083C
:10009000591C1008591C1008591C1008591C10082C
:1000A000591C1008591C1008591C1008591C10081C
:1000B000591C1008591C1008591C1008591C10080C
:1000C000591C1008591C1008591C1008591C1008FC
:1000D000591C1008591C1008591C1008591C1008EC
:1000E000591C1008591C100800000000591C100869
:1000F000591C1008591C1008591C1008591C1008CC
:10010000591C1008591C1008591C1008591C1008BB
:10011000591C1008591C1008591C1008591C1008AB
:10012000591C1008591C1008591C1008591C10089B
:10013000591C1008591C1008591C1008591C10088B
:10014000591C1008591C1008000000000000000095
:10015000591C1008591C1008591C1008591C10086B
:10016000591C1008591C1008591C1008591C10085B
:10017000591C1008591C1008591C1008591C10084B
:10018000591C1008591C1008591C1008591C10083B
:10019000591C1008591C1008591C1008591C10082B
:1001A000591C1008591C1008591C1008591C10081B
:1001B000591C1008591C1008591C1008591C10080B
:1001C000591C1008591C1008591C1008591C1008FB
:1001D000591C1008591C1008591C1008591C1008EB
:1001E000591C1008591C1008591C1008591C1008DB
:1001F000591C1008591C1008591C1008591C1008CB
:10020000591C1008591C1008591C1008591C1008BA
:10021000591C1008591C1008591C1008591C1008AA
:10022000591C1008591C1008591C10080000000027
:10023000591C1008591C1008591C1008591C10088A
:10024000591C1008591C1008591C1008591C10087A
:10025000591C1008591C1008591C1008591C10086A
:10026000591C1008591C1008591C1008591C10085A
:10027000591C1008591C1008591C1008591C10084A
:10028000591C1008591C1008591C100800000000C7
:08029000591C1008591C10084C
:1002A00010B5054C237833B9044B13B10448AFF3B0
:1002B00000800123237010BDE80100100000000041
:1002C0008C9B100808B5034B1BB103490348AFF3DF
:1002D000008008BD00000000EC0100108C9B10089D
:1002E00001F0FF01102A2BDB10F0070F08D010F8E7
:1002F000013B013A8B422DD010F0070F42B3F6D1EB
:10030000F0B441EA012141EA014122F007047FF003
:1003100000070023F0E80256083C85EA010586EA5A
:10032000010685FA47F5A3FA87F586FA47F6A5FA96
:1003300087F68EB9EED1F0BC01F0FF0102F00702A2
:1003400032B110F8013B013A83EA010313B1F8D14D
:100350000020704701387047002D06BF354603382E
:10036000073815F0010F07D1013015F4807F02BF67
:10037000013015F4C03F0130F0BC0138704700BFB8
:10038000034613F8012B002AFBD1181A01387047D5
:1003900081F0004102E000BF83F0004330B54FEA36
:1003A00041044FEA430594EA050F08BF90EA020FA3
:1003B0001FBF54EA000C55EA020C7FEA645C7FEA36
:1003C000655C00F0E2804FEA5454D4EB5555B8BF59
:1003D0006D420CDD2C4480EA020281EA030382EACA
:1003E000000083EA010180EA020281EA0303362D5C
:1003F00088BF30BD11F0004F4FEA01314FF4801C2F
:100400004CEA113102D0404261EB410113F0004F40
:100410004FEA03334CEA133302D0524263EB4303F7
:1004200094EA050F00F0A780A4F10104D5F1200E95
:100430000DDB02FA0EFC22FA05F2801841F10001F0
:1004400003FA0EF2801843FA05F359410EE0A5F1C4
:1004500020050EF1200E012A03FA0EFC28BF4CF0F5
:10046000020C43FA05F3C01851EBE37101F00045AB
:1004700007D54FF0000EDCF1000C7EEB00006EEBB8
:100480000101B1F5801F1BD3B1F5001F0CD3490842
:100490005FEA30004FEA3C0C04F101044FEA445299
:1004A00012F5800F80F09A80BCF1004F08BF5FEA20
:1004B000500C50F1000041EB045141EA050130BD00
:1004C0005FEA4C0C404141EB0101013C28BFB1F512
:1004D000801FE9D291F0000F04BF01460020B1FA5D
:1004E00081F308BF2033A3F10B03B3F120020CDA30
:1004F0000C3208DD02F1140CC2F10C0201FA0CF00E
:1005000021FA02F10CE002F11402D8BFC2F1200C72
:1005100001FA02F120FA0CFCDCBF41EA0C01904028
:10052000E41AA2BF01EB0451294330BD6FEA040471
:100530001F3C1CDA0C340EDC04F11404C4F120025C
:1005400020FA04F001FA02F340EA030021FA04F36E
:1005500045EA030130BDC4F10C04C4F1200220FAC5
:1005600002F001FA04F340EA0300294630BD21FA03
:1005700004F0294630BD94F0000F83F4801306BFC9
:1005800081F480110134013D4EE77FEA645C18BFBD
:100590007FEA655C29D094EA050F08BF90EA020F54
:1005A00005D054EA000C04BF1946104630BD91EA4C
:1005B000030F1EBF0021002030BD5FEA545C05D14F
:1005C0004000494128BF41F0004130BD14F580048E
:1005D0003CBF01F5801130BD01F0004545F0FE4102
:1005E00041F470014FF0000030BD7FEA645C1ABF37
:1005F000194610467FEA655C1CBF0B46024650EA6E
:10060000013406BF52EA033591EA030F41F4002199
:1006100030BD00BF90F0000F04BF0021704730B51F
:100620004FF4806404F132044FF000054FF00001F4
:1006300050E700BF90F0000F04BF0021704730B5B5
:100640004FF4806404F1320410F0004548BF40428A
:100650004FF000013EE700BF42004FEAE2014FEADF
:1006600031014FEA02701FBF12F07F4393F07F4FBA
:1006700081F06051704732F07F4208BF704793F0BD
:100680007F4F04BF41F40021704730B54FF46074D0
:1006900001F0004521F000411CE700BF50EA0102D3
:1006A00008BF704730B54FF000050AE050EA01027C
:1006B00008BF704730B511F0004502D5404261EBEC
:1006C00041014FF4806404F132045FEA915C3FF42D
:1006D000D8AE4FF003025FEADC0C18BF03325FEACA
:1006E000DC0C18BF033202EBDC02C2F1200300FA7B
:1006F00003FC20FA02F001FA03FE40EA0E0021FAA0
:1007000002F11444BDE600BF70B54FF0FF0C4CF48D
:10071000E06C1CEA11541DBF1CEA135594EA0C0F3F
:1007200095EA0C0F00F0DEF82C4481EA030621EA7A
:100730004C5123EA4C5350EA013518BF52EA0335B5
:1007400041F4801143F4801338D0A0FB02CE4FF067
:100750000005E1FB02E506F00042E0FB03E54FF097
:100760000006E1FB03569CF0000F18BF4EF0010E8F
:10077000A4F1FF04B6F5007F64F5407404D25FEA8B
:100780004E0E6D4146EB060642EAC62141EA55513E
:100790004FEAC52040EA5E504FEACE2EB4F1FD0C80
:1007A00088BFBCF5E06F1ED8BEF1004F08BF5FEAFE
:1007B000500E50F1000041EB045170BD06F00046B0
:1007C00046EA010140EA020081EA0301B4EB5C045D
:1007D000C2BFD4EB0C0541EA045170BD41F4801155
:1007E0004FF0000E013C00F3AB8014F1360FDEBF7A
:1007F000002001F0004170BDC4F10004203C35DA56
:100800000C341BDC04F11404C4F1200500FA05F3D8
:1008100020FA04F001FA05F240EA020001F0004279
:1008200021F0004110EBD37021FA04F642EB0601EF
:100830005EEA430E08BF20EAD37070BDC4F10C0419
:10084000C4F1200500FA04F320FA05F001FA04F2DD
:1008500040EA020001F0004110EBD37041F10001C9
:100860005EEA430E08BF20EAD37070BDC4F12005D4
:1008700000FA05F24EEA020E20FA04F301FA05F23C
:1008800043EA020321FA04F001F0004121FA04F2E4
:1008900020EA020000EBD3705EEA430E08BF20EAB4
:1008A000D37070BD94F0000F0FD101F000464000EE
:1008B00041EB010111F4801F08BF013CF7D041EA70
:1008C000060195F0000F18BF704703F00046520074
:1008D00043EB030313F4801F08BF013DF7D043EA45
:1008E0000603704794EA0C0F0CEA135518BF95EAFB
:1008F0000C0F0CD050EA410618BF52EA4306D1D182
:1009000081EA030101F000414FF0000070BD50EAA0
:10091000410606BF1046194652EA430619D094EA2A
:100920000C0F02D150EA013613D195EA0C0F05D114
:1009300052EA03361CBF104619460AD181EA030168
:1009400001F0004141F0FE4141F470014FF0000020
:1009500070BD41F0FE4141F4780170BD70B54FF0BB
:10096000FF0C4CF4E06C1CEA11541DBF1CEA13553B
:1009700094EA0C0F95EA0C0F00F0A7F8A4EB05041D
:1009800081EA030E52EA03354FEA013100F0888014
:100990004FEA03334FF0805545EA131343EA1263DD
:1009A0004FEA022245EA111545EA10654FEA002692
:1009B0000EF000419D4208BF964244F1FD0404F54B
:1009C000407402D25B084FEA3202B61A65EB0305A7
:1009D0005B084FEA32024FF480104FF4002CB6EB64
:1009E000020E75EB030E22BFB61A754640EA0C00E4
:1009F0005B084FEA3202B6EB020E75EB030E22BF24
:100A0000B61A754640EA5C005B084FEA3202B6EB64
:100A1000020E75EB030E22BFB61A754640EA9C0023
:100A20005B084FEA3202B6EB020E75EB030E22BFF3
:100A3000B61A754640EADC0055EA060E18D04FEAB1
:100A4000051545EA16754FEA06164FEAC30343EA51
:100A500052734FEAC2025FEA1C1CC0D111F4801F1E
:100A60000BD141EA00014FF000004FF0004CB6E717
:100A700011F4801F04BF01430020B4F1FD0C88BFB6
:100A8000BCF5E06F3FF6AFAEB5EB030C04BFB6EBC1
:100A9000020C5FEA500C50F1000041EB045170BDB4
:100AA0000EF0004E4EEA113114EB5C04C2BFD4EBE1
:100AB0000C0541EA045170BD41F480114FF0000E65
:100AC000013C90E645EA060E8DE60CEA135594EAE1
:100AD0000C0F08BF95EA0C0F3FF43BAF94EA0C0FE4
:100AE0000AD150EA01347FF434AF95EA0C0F7FF459
:100AF00025AF104619462CE795EA0C0F06D152EAAD
:100B000003353FF4FDAE1046194622E750EA410690
:100B100018BF52EA43067FF4C5AE50EA41047FF4A1
:100B20000DAF52EA43057FF4EBAE12E74FF0FF3C06
:100B300006E000BF4FF0010C02E000BF4FF0010CD7
:100B40004DF804CD4FEA410C7FEA6C5C4FEA430C50
:100B500018BF7FEA6C5C1BD001B050EA410C0CBF9F
:100B600052EA430C91EA030F02BF90EA020F002001
:100B7000704710F1000F91EA030F58BF994208BF68
:100B800090422CBFD8176FEAE37040F00100704725
:100B90004FEA410C7FEA6C5C02D150EA013C07D17C
:100BA0004FEA430C7FEA6C5CD6D152EA033CD3D0C7
:100BB0005DF8040B704700BF8446104662468C46C1
:100BC0001946634600E000BF01B5FFF7B7FF0028F4
:100BD00048BF10F1000F01BD4DF808EDFFF7F4FF1D
:100BE0000CBF012000205DF808FB00BF4DF808EDA8
:100BF000FFF7EAFF34BF012000205DF808FB00BFCB
:100C00004DF808EDFFF7E0FF94BF012000205DF8EC
:100C100008FB00BF4DF808EDFFF7CEFF94BF0120A1
:100C200000205DF808FB00BF4DF808EDFFF7C4FF9A
:100C300034BF012000205DF808FB00BF4FEA410CE3
:100C40007FEA6C5C02D150EA013C0AD14FEA430CC6
:100C50007FEA6C5C02D152EA033C02D14FF0000003
:100C600070474FF0010070474FEA410212F5001241
:100C700015D211D56FF47873B3EB625212D94FEAE3
:100C8000C12343F0004343EA505311F0004F23FACD
:100C900002F018BF404270474FF00000704750EA22
:100CA000013005D111F0004008BF6FF000407047DF
:100CB0004FF00000704700BF4A0011D212F5001239
:100CC00011D20DD56FF47873B3EB62520ED44FEAA4
:100CD000C12343F0004343EA505323FA02F0704724
:100CE0004FF00000704750EA013002D14FF0FF3062
:100CF00070474FF0000070474FEA4102B2F1E04305
:100D000024BFB3F5001CDCF1FE5C0DD901F0004CF2
:100D10004FEAC0024CEA5070B2F1004F40EB830042
:100D200008BF20F00100704711F0804F21D113F16E
:100D30003872BCBF01F00040704741F480114FEAA7
:100D40005252C2F11802C2F1200C10FA0CF320FA30
:100D500002F018BF40F001004FEAC1234FEAD3234D
:100D600003FA0CFC40EA0C0023FA02F34FEA4303B7
:100D7000CCE77FEA625307D150EA01331EBF4FF040
:100D8000FE4040F44000704701F0004040F0FE405B
:100D900040F40000704700BF38B50022002304462D
:100DA0000D46FFF723FF28B920462946BDE8384005
:100DB00000F00AB8204605F1004100F005F8404275
:100DC00061EB410138BD00BFD0B50C4B0022064697
:100DD0000F46FFF799FCFFF76FFF0446FFF71AFC79
:100DE000074B0022FFF790FC02460B46304639467F
:100DF000FFF7D2FAFFF760FF2146D0BD0000F03DBB
:100E00000000F04180B400AF094BD3F88830084AA5
:100E100043F47003C2F88830054B1B69044A43F061
:100E20001003136100BFBD465DF8047B704700BF2F
:100E300000ED00E080B582B000AF78600B467B80AB
:100E400013463B80542279682F4805F0F9FF2F4A5A
:100E50007B8813802E4A3B8813802D4B1B880E2BDA
:100E60003ED801A252F823F0A50E1008E10E10089A
:100E7000AF0E1008E10E1008B90E1008E10E1008B0
:100E8000C30E1008E10E1008CD0E1008E10E100878
:100E9000E10E1008E10E1008E10E1008E10E100836
:100EA000D70E10081B4B4FF079521A6018E0194BFF
:100EB0004FF078521A6013E0164B4FF076521A60DA
:100EC0000EE0144B4FF074521A6009E0114B4FF0D2
:100ED00072521A6004E00F4B4FF070521A6000BF5C
:100EE0000D4B1B785B0099B201230522064801F0E7
:100EF00045FE0346002B01D1002300E001231846E4
:100F00000837BD4680BD00BF040200100A00001073
:100F10000C000010600200100800001080B588B0BE
:100F200004AF03463960FB80FB88DAB2424B1B8872
:100F3000DBB21343DBB263F07E03DAB23F4B1A70CD
:100F40003F4B1B88DBB243F00303DAB23B4B5A70D2
:100F50000123FB730023BB813A4B1B785B0099B2E2
:100F60000123029302230193344B009301230122B6
:100F7000354801F0D5FB0346002B57D127E0314B14
:100F80001B785B001BB243F001031BB299B2012333
:100F9000029302230193294B0093012301222A4843
:100FA00001F0D2FC0346002B07D1244B1B785BB227
:100FB000002B04DA0023FB7301E0012337E0BB8937
:100FC0000133BB81BB89642B01D101232FE0FB7B63
:100FD000002BD4D11B4B1B785B001BB243F00103E9
:100FE0001BB299B20123029302230193174B009382
:100FF00001230022144801F0A7FC0346002B15D161
:10100000124B1B781B021BB21A46104B5B78134322
:1010100007EE903AB8EEE77A0D4BD3ED007A67EE23
:10102000277A3B68C3ED007A002300E001231846CD
:101030001037BD4680BD00BF0C00001058020010E4
:101040000A00001008000010040200105C020010EA
:1010500060020010B0B588B000AF504BD3F8E0305C
:101060004E4A43F00073C2F8E0304C4BD3F8E03006
:1010700003F000737B607B68012001F08BF902F0C4
:101080003DFA01220221002002F0BEF9444B1B6808
:101090001B0903F00F03072B08D1424BD3F804318F
:1010A000404A43F00103C2F8043107E03D4BD3F856
:1010B00014313C4A43F00103C2F8143100F0EAFD58
:1010C00000F0FCF800F07AF800F0B8F800F016F93B
:1010D0000021002000F07CFA01223349334800F05F
:1010E0000BFB00F0CFF91421002000F071FA01226F
:1010F0002D492F4800F000FB2821002000F068FA5D
:10110000012229492B4800F0F7FA00F0BBF902222E
:1011100060212948FFF78EFE0346002B07D140F2DD
:10112000DC5000F06BFE4FF00003FB6100E0FEE7D7
:1011300007F11C0319464020FFF7F0FEFB69184633
:10114000FFF78AFA04460D4607F108031946042002
:1011500045EC104B05F048FE07F108031846FFF771
:101160000FF903469AB207F108014FF0FF33002050
:1011700003F0BAFE2821282000F02AFA07F108031C
:1011800001220949184600F0B7FA00F07BF94FF444
:101190007A7000F033FE00BFCAE700BF0044025877
:1011A00000ED00E00064025810000010A89B100839
:1011B000B09B1008B89B1008B802001080B500AFB3
:1011C0001B4B1C4A1A601A4B1B4A5A60184B0022D0
:1011D0009A60174B0122DA60154B00221A61144BFA
:1011E00000225A61124B00229A61114B0022DA61EF
:1011F0000F4B00221A620E4801F0DEF80346002B66
:1012000001D000F075F80021094802F065F80346A6
:10121000002B01D000F06CF80021054802F0A7F87F
:101220000346002B01D000F063F800BF80BD00BF73
:101230006402001000540040BB7C700080B500AF19
:101240001B4B1C4A1A601A4B1B4A5A60184B00224F
:101250009A60174B0122DA60154B00221A61144B79
:1012600000225A61124B00229A61114B0022DA616E
:101270000F4B00221A620E4801F09EF80346002B25
:1012800001D000F035F80021094802F025F80346A6
:10129000002B01D000F02CF80021054802F067F87F
:1012A0000346002B01D000F023F800BF80BD00BF33
:1012B000B802001000580040BB7C700080B483B0BE
:1012C00000AF0A4BD3F8E030084A43F00203C2F8FB
:1012D000E030064BD3F8E03003F002037B607B681C
:1012E00000BF0C37BD465DF8047B704700440258D0
:1012F00080B400AF72B600BF00BFFDE780B582B01A
:1013000000AF00F01FFA44F62063012278215B4809
:1013100001F034FC0346002B01D00023A9E040F685
:10132000C4137B6002E07B68013B7B607B68002B21
:10133000F9D1AE220021782000F080FA202200218D
:10134000782000F07BFA10220021782000F076FA55
:10135000B0220021782000F071FAC8220021782004
:1013600000F06CFA00220021782000F067FA1022C9
:101370000021782000F062FA40220021782000F05D
:101380005DFA81220021782000F058FAFF22002126
:10139000782000F053FAA1220021782000F04EFAC4
:1013A000A6220021782000F049FAA8220021782006
:1013B00000F044FA3F220021782000F03FFAA422F6
:1013C0000021782000F03AFAD3220021782000F0A2
:1013D00035FA00220021782000F030FAD5220021D1
:1013E000782000F02BFAF0220021782000F026FA75
:1013F000D9220021782000F021FA22220021782031
:1014000000F01CFADA220021782000F017FA1222EC
:101410000021782000F012FADB220021782000F071
:101420000DFA20220021782000F008FA8D220021F8
:10143000782000F003FA14220021782000F0FEF951
:10144000AF220021782000F0F9F92E220021782027
:1014500000F0F4F9002000F043F800F013F8084B16
:1014600000221A80064B00225A80054B01225A7135
:10147000012318460837BD4680BD00BF6402001036
:101480000C07001080B582B000AF0023FB711DE097
:10149000FB79503BDBB21A460021782000F0CEF9F0
:1014A00000220021782000F0C9F9102200217820C4
:1014B00000F0C4F9FB79DB01084A1A44802340217B
:1014C000782000F055F9FB790133FB71FB79072B8C
:1014D000DED900BF00BF0837BD4680BD0C03001039
:1014E00080B582B000AF0346FB71FB79002B01D1C0
:1014F000002300E0FF234FF480621946034805F003
:1015000039FC00BF0837BD4680BD00BF0C0300108A
:1015100080B483B000AF0346FB800B46BB8013460C
:10152000FB70FB887F2B48D8BB883F2B45D8264BC8
:101530001B79002B06D0FB78002B0CBF0123002366
:10154000DBB2FB70FB78012B1AD1FA88BB88DB0871
:1015500098B20346DB0113441C4AD35C5AB2BB88E1
:1015600003F00703012101FA03F35BB2134359B2FD
:10157000FA880346DB011344C9B2144AD1541DE072
:10158000FA88BB88DB0898B20346DB0113440F4A94
:10159000D35C5AB2BB8803F00703012101FA03F3BD
:1015A0005BB2DB435BB2134059B2FA880346DB01FE
:1015B0001344C9B2054AD15400E000BF0C37BD4600
:1015C0005DF8047B704700BF0C0700100C0300108F
:1015D00080B483B000AF03460A46FB801346BB804D
:1015E000054AFB881380044ABB88538000BF0C3730
:1015F000BD465DF8047B70470C07001080B586B0CF
:1016000000AF03463960FB711346BB71394B1B8831
:101610001A463B681B7813447F2B07DC354B5B88ED
:101620001A463B685B7813443F2B01DD00235DE0E5
:1016300000237B614BE03B685A68FB79203B3968AB
:10164000497801FB03F319467B690B445B001344A3
:101650001B88FB6000233B6130E0FA683B6902FABB
:1016600003F303F40043002B10D0224B1A883B698C
:101670009BB2134498B21F4B5A887B699BB21344A8
:101680009BB2BA791946FFF743FF14E0194B1A8849
:101690003B699BB2134498B2164B5A887B699BB244
:1016A000134499B2BB79002B0CBF01230023DBB29A
:1016B0001A46FFF72DFF3B6901333B613B681B78FE
:1016C0001A463B699342C8D37B6901337B613B680F
:1016D0005B781A467B699342ADD3064B1B883A6808
:1016E000127813449AB2034B1A80FB7918461837C4
:1016F000BD4680BD0C07001080B584B000AFF86017
:10170000B9601346FB7112E0FB681B78FA79B9687F
:101710001846FFF773FF03461A46FB681B789A4288
:1017200002D0FB681B7808E0FB680133FB60FB68B4
:101730001B78002BE8D1FB681B7818461037BD4694
:1017400080BD000080B483B000AF084B7B6002E036
:101750007B68013B7B607B68002BF9D100BF00BF39
:101760000C37BD465DF8047B704700BF90D0030086
:1017700090B5C7B002AF0446084607F58871A1F5D9
:1017800088710A60194607F58873A3F20913224687
:101790001A7007F58873A3F5857302461A7007F56A
:1017A0008873A3F586730A461A8007F58873A3F534
:1017B000827307F58872A2F5857212781A70002379
:1017C00087F80F3115E097F80F3107F58872A2F509
:1017D000887212681A4497F80F310133117807F5AF
:1017E0008872A2F58272D15497F80F31013387F8CD
:1017F0000F3197F80F319BB207F58872A2F5867208
:1018000012889A42DFD807F58873A3F209131B7870
:1018100099B207F58873A3F586731B8801339BB2D1
:1018200007F10C020A200090034800F061FE00BF9F
:1018300007F58A77BD4690BD6402001080B586B07A
:1018400002AF0346FB710B46BB7113467B71BB793C
:101850003B737B797B73FB7999B207F10C020A2306
:1018600000930223034800F043FE00BF1037BD463B
:1018700080BD00BF6402001080B483B000AF0A4B8B
:10188000D3F8F430084A43F00203C2F8F430064BB0
:10189000D3F8F43003F002037B607B6800BF0C37A1
:1018A000BD465DF8047B70470044025880B5BCB06B
:1018B00000AF786007F1DC0300221A605A609A607A
:1018C000DA601A6107F11803C0220021184605F0FA
:1018D00051FA7B681B684D4A934246D14FF008028B
:1018E0004FF00003C7E906230023C7F89C3007F137
:1018F0001803184601F08AFF0346002B01D0FFF7BA
:10190000F7FC434BD3F8E030414A43F00203C2F8FE
:10191000E0303F4BD3F8E03003F002037B617B699A
:10192000C023C7F8DC301223C7F8E0300023C7F823
:10193000E4300023C7F8E8300423C7F8EC3007F19F
:10194000DC031946334800F075FB314BD3F8E8301F
:101950002F4A43F40013C2F8E8302D4BD3F8E83097
:1019600003F400133B613B694BE07B681B682A4A28
:10197000934246D14FF008024FF00003C7E9062317
:101980000023C7F89C3007F11803184601F03EFF0A
:101990000346002B01D0FFF7ABFC1D4BD3F8E03022
:1019A0001B4A43F00203C2F8E030194BD3F8E03091
:1019B00003F00203FB60FB684FF44063C7F8DC30C0
:1019C0001223C7F8E0300023C7F8E4300023C7F83B
:1019D000E8300423C7F8EC3007F1DC0319460D4862
:1019E00000F028FB0A4BD3F8E830094A43F480039F
:1019F000C2F8E830064BD3F8E83003F48003BB604C
:101A0000BB6800BFF037BD4680BD00BF005400403A
:101A100000440258000402580058004080B400AF4F
:101A200000BFFDE780B400AF00BFFDE780B400AFAA
:101A300000BFFDE780B400AF00BFFDE780B400AF9A
:101A400000BFFDE780B400AF00BFBD465DF8047B7A
:101A5000704780B400AF00BFBD465DF8047B70479F
:101A600080B400AF00BFBD465DF8047B704780B511
:101A700000AF00F0A3F900BF80BD80B400AF012328
:101A80001846BD465DF8047B704780B582B000AF54
:101A90007860396005F07AF9034616221A604FF033
:101AA000FF3318460837BD4680BD80B582B000AF11
:101AB00078604FF0FF317868FFF7E7FF00BFFDE780
:101AC00080B586B000AFF860B9607A6000237B61B2
:101AD0000AE0AFF300800146BB685A1CBA60CAB284
:101AE0001A707B6901337B617A697B689A42F0DB0B
:101AF0007B6818461837BD4680BD80B586B000AFFC
:101B0000F860B9607A6000237B6109E0BB685A1C09
:101B1000BA601B78184600F0A1F87B6901337B613D
:101B20007A697B689A42F1DB7B6818461837BD46B4
:101B300080BD80B483B000AF78604FF0FF331846AB
:101B40000C37BD465DF8047B704780B483B000AFAE
:101B5000786039603B684FF400525A6000231846A1
:101B60000C37BD465DF8047B704780B483B000AF8E
:101B70007860012318460C37BD465DF8047B70473A
:101B800080B485B000AFF860B9607A600023184671
:101B90001437BD465DF8047B7047000080B586B001
:101BA00000AF7860144A154BD31A7B617B693B61A7
:101BB000134B1B68002B02D1114B124A1A60104BB9
:101BC0001A687B6813443A699A4207D205F0DEF836
:101BD00003460C221A604FF0FF3309E0084B1B68E4
:101BE000FB60074B1A687B681344054A1360FB6867
:101BF00018461837BD4680BD008004100004000060
:101C00001407001000090010DFF834D0FFF7FAF8CD
:101C10000C480D490D4A002302E0D458C450043347
:101C2000C4188C42F9D30A4A0A4C002301E013601D
:101C30000432A242FBD305F0AFF8FFF70BFA70476E
:101C40000080041000000010E801001064AD1008CE
:101C5000E801001000090010FEE7000080B582B026
:101C600000AF7860094B1B781A46942302FB03F3FC
:101C7000074A9818391D4FF47A73012203F034F99A
:101C80007B6818460837BD4680BD00BFAC07001012
:101C90001807001080B582B000AF284BD3F8D830B9
:101CA000264A43F48043C2F8D830244BD3F8D830C6
:101CB00003F480433B603B68214B1B6823F47F2384
:101CC00023F470631E4A43F4014313601C4B1B68EA
:101CD0001B4A43F001031360032000F065F901F093
:101CE0001BFC0246154B9B691B0A03F00F031549A9
:101CF000CB5C03F01F0322FA03F37B600F4B9B695D
:101D000003F00F030F4AD35C03F01F037A6822FA33
:101D100003F30D4A13600C4B1B680C4A1360002040
:101D200000F016F80346002B01D0012302E0FFF774
:101D3000A3FD002318460837BD4680BD0044025865
:101D400000440240C09B1008040000100000001076
:101D500080B582B000AF7860154B1B78002B01D1A5
:101D6000012321E0134B1A68114B1B7819464FF4DD
:101D70007A73B3FBF1F3B2FBF3F3184600F039F9D1
:101D80000346002B01D001230EE07B680F2B0AD8FD
:101D9000002279684FF0FF3000F011F9064A7B68A5
:101DA0001360002300E0012318460837BD4680BDBC
:101DB0001C000010000000101800001080B400AFDC
:101DC000064B1B781A46064B1B681344044A1360E3
:101DD00000BFBD465DF8047B704700BF1C000010CB
:101DE000B007001080B400AF034B1B681846BD4617
:101DF0005DF8047B704700BFB007001080B584B069
:101E000000AF7860FFF7EEFFB8607B68FB60FB68AF
:101E1000B3F1FF3F05D00A4B1B781A46FB68134409
:101E2000FB6000BFFFF7DEFF0246BB68D31AFA680B
:101E30009A42F7D800BF00BF1037BD4680BD00BF33
:101E40001C00001080B485B000AF78607B6803F0A0
:101E50000703FB600C4BDB68BB60BA684FF6FF03FF
:101E60001340BB60FB681A02BB68134343F0BF63B7
:101E700043F40033BB60044ABB68D36000BF14372F
:101E8000BD465DF8047B704700ED00E080B400AF14
:101E9000044BDB681B0A03F007031846BD465DF8D8
:101EA000047B704700ED00E080B483B000AF0346D0
:101EB0003960FB80B7F90630002B0ADB3B68DAB2E9
:101EC0000C49B7F906301201D2B20B4483F8002353
:101ED0000AE03B68DAB20849FB8803F00F03043BD1
:101EE0001201D2B20B441A7600BF0C37BD465DF822
:101EF000047B704700E100E000ED00E080B489B0B1
:101F000000AFF860B9607A60FB6803F00703FB611B
:101F1000FB69C3F10703042B28BF0423BB61FB69E2
:101F20000433062B02D9FB69033B00E000237B61ED
:101F30004FF0FF32BB6902FA03F3DA43BB681A4081
:101F40007B699A404FF0FF317B6901FA03F3D94373
:101F50007B680B40134318462437BD465DF8047B6D
:101F60007047000080B582B000AF78607B68013BAD
:101F7000B3F1807F01D301230FE00A4A7B68013B64
:101F800053600F214FF0FF30FFF78EFF054B00220B
:101F90009A60044B07221A60002318460837BD4692
:101FA00080BD00BF10E000E080B582B000AF786077
:101FB0007868FFF747FF00BF0837BD4680BD80B592
:101FC00086B000AF0346B9607A60FB81FFF75EFF21
:101FD00078617A68B9687869FFF790FF0246B7F9C7
:101FE0000E3011461846FFF75FFF00BF1837BD4699
:101FF00080BD80B582B000AF78607868FFF7B2FF2F
:10200000034618460837BD4680BD000080B400AFC7
:10201000074B1B681B0903F00F03072B01D1032398
:1020200000E001231846BD465DF8047B704700BF01
:1020300000ED00E080B489B000AF78603960002323
:10204000FB61894B7B6194E13B681A680121FB6964
:1020500001FA03F313403B613B69002B00F08681DA
:102060003B685B6803F00303012B05D03B685B68AA
:1020700003F00303022B30D17B689B68BB61FB69D3
:102080005B00032202FA03F3DB43BA691340BB612E
:102090003B68DA68FB695B0002FA03F3BA69134331
:1020A000BB617B68BA699A607B685B68BB6101222F
:1020B000FB6902FA03F3DB43BA691340BB613B6877
:1020C0005B681B0903F00102FB6902FA03F3BA69BA
:1020D0001343BB617B68BA695A603B685B6803F075
:1020E0000303032B17D07B68DB68BB61FB695B00D4
:1020F000032202FA03F3DB43BA691340BB613B6876
:102100009A68FB695B0002FA03F3BA691343BB6187
:102110007B68BA69DA603B685B6803F00303022BF3
:1021200023D1FB69DA087B68083253F82230BB619F
:10213000FB6903F007039B000F2202FA03F3DB4362
:10214000BA691340BB613B681A69FB6903F0070376
:102150009B0002FA03F3BA691343BB61FB69DA0817
:102160007B680832B96943F822107B681B68BB6141
:10217000FB695B00032202FA03F3DB43BA691340F5
:10218000BB613B685B6803F00302FB695B0002FA1A
:1021900003F3BA691343BB617B68BA691A603B6891
:1021A0005B6803F44033002B00F0E0802F4BD3F842
:1021B000F4302E4A43F00203C2F8F4302B4BD3F82C
:1021C000F43003F00203FB60FB68294AFB699B08BB
:1021D000023352F82330BB61FB6903F003039B0019
:1021E0000F2202FA03F3DB43BA691340BB617B6839
:1021F000204A934252D07B681F4A934231D07B6879
:102200001E4A93422BD07B681D4A934225D07B689F
:102210001C4A93421FD07B681B4A934219D07B68AB
:102220001A4A934213D07B68194A93420DD07B68B7
:10223000184A934207D07B68174A934201D1092379
:102240002DE00A232BE0082329E0072327E00623BB
:1022500025E0052323E0042321E003231FE00223DC
:102260001DE001231BE000BFC000005800440258DD
:1022700000040058000002580004025800080258E8
:10228000000C02580010025800140258001802589E
:10229000001C025800200258002402580023FA694A
:1022A00002F0030292009340BA691343BB613849BC
:1022B000FB699B080233BA6941F823204FF0B04311
:1022C0001B68BB613B69DB43BA691340BB613B6878
:1022D0005B6803F48013002B03D0BA693B69134396
:1022E000BB614FF0B042BB6913604FF0B0435B6815
:1022F000BB613B69DB43BA691340BB613B685B6808
:1023000003F40013002B03D0BA693B691343BB618C
:102310004FF0B042BB6953607B695B68BB613B694E
:10232000DB43BA691340BB613B685B6803F400336D
:10233000002B03D0BA693B691343BB617B69BA695F
:102340005A607B691B68BB613B69DB43BA69134018
:10235000BB613B685B6803F48033002B03D0BA6930
:102360003B691343BB617B69BA691A60FB6901333E
:10237000FB613B681A68FB6922FA03F3002B7FF4C8
:1023800063AE00BF00BF2437BD465DF8047B7047D5
:102390000004005880B483B000AF7860054B1A6821
:1023A00004497B6813430B6000BF0C37BD465DF8E2
:1023B000047B70471065025880B582B000AF78602A
:1023C0007B68002B01D101238DE07B6893F84130BD
:1023D000DBB2002B06D17B68002283F840207868AE
:1023E000FFF764FA7B68242283F841207B681B682E
:1023F0001A687B681B6822F001021A607B685A68C1
:102400007B681B6822F070621A617B681B689A689F
:102410007B681B6822F400429A607B68DB68012BB2
:1024200007D17B689A687B681B6842F400429A6017
:1024300006E07B689A687B681B6842F404429A60F5
:102440007B68DB68022B08D17B681B685A687B6855
:102450001B6842F400625A6007E07B681B685A6898
:102460007B681B6822F400625A607B681B685B68AB
:102470007A68126843F0007343F4004353607B684A
:102480001B68DA687B681B6822F40042DA607B68AC
:102490001A697B685B6942EA03017B689B691A02DF
:1024A0007B681B680A43DA607B68D9697B681A6AB3
:1024B0007B681B680A431A607B681B681A687B6824
:1024C0001B6842F001021A607B6800225A647B6834
:1024D000202283F841207B6800221A637B68002257
:1024E00083F84220002318460837BD4680BD00000F
:1024F00080B588B002AFF8607A601A460B467B81DF
:1025000013463B81FB6893F84130DBB2202B40F04F
:10251000FD80FB6893F84030012B01D10223F6E0E7
:10252000FB68012283F84020FFF75CFC38613B69BF
:102530000093192301224FF40041F86800F0D6FC03
:102540000346002B01D00123E1E0FB68212283F840
:102550004120FB68102283F84220FB6800225A6465
:10256000FB687A685A62FB683A895A85FB680022E0
:102570005A63FB685B8D9BB2FF2B06D9FB68FF2279
:102580001A854FF080737B6107E0FB685B8D9AB220
:10259000FB681A854FF000737B61FB681B8D002B75
:1025A00024D0FB685B6A1A78FB681B689A62FB6838
:1025B0005B6A5A1CFB685A62FB685B8D9BB2013BED
:1025C0009AB2FB685A85FB681B8D013B9AB2FB6887
:1025D0001A85FB681B8DDBB20133DAB279894E4B69
:1025E00000937B69F86800F045FE66E0FB681B8D90
:1025F000DAB27989484B00937B69F86800F03AFEBB
:102600005BE03A69396AF86800F0C9FC0346002BC0
:1026100001D001237BE0FB685B6A1A78FB681B68CA
:102620009A62FB685B6A5A1CFB685A62FB685B8DA6
:102630009BB2013B9AB2FB685A85FB681B8D013B3C
:102640009AB2FB681A85FB685B8D9BB2002B34D075
:10265000FB681B8D002B30D13B6900933B6A002245
:102660008021F86800F042FC0346002B01D00123D2
:102670004DE0FB685B8D9BB2FF2B0ED9FB68FF2200
:102680001A85FB681B8DDAB27989002300934FF01D
:102690008073F86800F0EEFD0FE0FB685B8D9AB286
:1026A000FB681A85FB681B8DDAB2798900230093D9
:1026B0004FF00073F86800F0DDFDFB685B8D9BB2A6
:1026C000002B9ED13A69396AF86800F0AFFC0346E6
:1026D000002B01D001231AE0FB681B682022DA617D
:1026E000FB681B685968FB681A680C4B0B40536009
:1026F000FB68202283F84120FB68002283F84220F7
:10270000FB68002283F84020002300E002231846E3
:102710001837BD4680BD00BF0020008000E800FEE5
:1027200080B588B002AFF860084611461A460346E5
:102730007B810B463B811346FB80FB6893F841305D
:10274000DBB2202B40F0F9803B6A002B02D0BB8C1F
:10275000002B05D1FB684FF400725A640123EDE0B1
:10276000FB6893F84030012B01D10223E6E0FB68BF
:10277000012283F84020FFF735FB78617B690093E5
:10278000192301224FF40041F86800F0AFFB034623
:10279000002B01D00123D1E0FB68212283F84120E6
:1027A000FB68402283F84220FB6800225A64FB68E1
:1027B0003A6A5A62FB68BA8C5A85FB6800225A63EF
:1027C000F8883A8979897B690193BB6A009303464B
:1027D000F86800F0BFFA0346002B05D0FB68002222
:1027E00083F840200123A9E0FB685B8D9BB2FF2B9F
:1027F0000ED9FB68FF221A85FB681B8DDAB2798936
:10280000002300934FF08073F86800F033FD0FE071
:10281000FB685B8D9AB2FB681A85FB681B8DDAB288
:102820007989002300934FF00073F86800F022FDCF
:102830007A69B96AF86800F0B2FB0346002B01D050
:1028400001237BE0FB685B6A1A78FB681B689A626D
:10285000FB685B6A5A1CFB685A62FB685B8D9BB223
:10286000013B9AB2FB685A85FB681B8D013B9AB20B
:10287000FB681A85FB685B8D9BB2002B34D0FB682C
:102880001B8D002B30D17B690093BB6A0022802115
:10289000F86800F02BFB0346002B01D001234DE02C
:1028A000FB685B8D9BB2FF2B0ED9FB68FF221A855C
:1028B000FB681B8DDAB27989002300934FF0807397
:1028C000F86800F0D7FC0FE0FB685B8D9AB2FB68FC
:1028D0001A85FB681B8DDAB27989002300934FF0CB
:1028E0000073F86800F0C6FCFB685B8D9BB2002BA0
:1028F0009ED17A69B96AF86800F098FB0346002B0C
:1029000001D001231AE0FB681B682022DA61FB6812
:102910001B685968FB681A680A4B0B405360FB68D8
:10292000202283F84120FB68002283F84220FB68C4
:10293000002283F84020002300E0022318461837C5
:10294000BD4680BD00E800FE80B588B002AFF860EB
:10295000084611461A4603467B810B463B811346C7
:10296000FB80FB6893F84130DBB2202B40F0FD8008
:102970003B6A002B02D0BB8C002B05D1FB684FF4C7
:1029800000725A640123F1E0FB6893F84030012B98
:1029900001D10223EAE0FB68012283F84020FFF71F
:1029A00021FA78617B690093192301224FF40041D9
:1029B000F86800F09BFA0346002B01D00123D5E014
:1029C000FB68222283F84120FB68402283F84220E2
:1029D000FB6800225A64FB683A6A5A62FB68BA8C48
:1029E0005A85FB6800225A63F8883A8979897B699D
:1029F0000193BB6A00930346F86800F0FFF90346B1
:102A0000002B05D0FB68002283F840200123ADE0B5
:102A1000FB685B8D9BB2FF2B0ED9FB68FF221A85EA
:102A2000FB681B8DDAB27989524B00934FF08073AB
:102A3000F86800F01FFC0FE0FB685B8D9AB2FB6842
:102A40001A85FB681B8DDAB279894A4B00934FF0E7
:102A50000073F86800F00EFC7B690093BB6A0022EB
:102A60000421F86800F042FA0346002B01D001234C
:102A70007CE0FB681B685A6AFB685B6AD2B21A701A
:102A8000FB685B6A5A1CFB685A62FB681B8D013B42
:102A90009AB2FB681A85FB685B8D9BB2013B9AB2C8
:102AA000FB685A85FB685B8D9BB2002B34D0FB68BA
:102AB0001B8D002B30D17B690093BB6A00228021E3
:102AC000F86800F013FA0346002B01D001234DE013
:102AD000FB685B8D9BB2FF2B0ED9FB68FF221A852A
:102AE000FB681B8DDAB27989002300934FF0807365
:102AF000F86800F0BFFB0FE0FB685B8D9AB2FB68E3
:102B00001A85FB681B8DDAB27989002300934FF098
:102B10000073F86800F0AEFBFB685B8D9BB2002B86
:102B20009AD17A69B96AF86800F080FA0346002BF6
:102B300001D001231AE0FB681B682022DA61FB68E0
:102B40001B685968FB681A680B4B0B405360FB68A5
:102B5000202283F84120FB68002283F84220FB6892
:102B6000002283F84020002300E002231846183793
:102B7000BD4680BD0024008000E800FE80B58AB01C
:102B800002AFF8607A603B600B467B8100237B617B
:102B9000FB6893F84130DBB2202B40F0D680FB6815
:102BA0001B689B6903F40043B3F5004F01D1022376
:102BB000CCE0FB6893F84030012B01D10223C5E043
:102BC000FB68012283F84020FB68242283F841201F
:102BD000FB6800225A64FB68DB68012B07D17B8904
:102BE000C3F3090343F0007343F4005306E07B8909
:102BF000C3F3090343F0007343F42053FA681268E7
:102C00005360FFF7EFF8B861FB681B689B6903F03E
:102C10002003202B0CBF01230023DBB2FB77FB68D2
:102C20001B689B6903F01003102B0CBF01230023CA
:102C3000DBB2BB7734E03B68B3F1FF3F1AD0FFF75C
:102C4000D1F80246BB69D31A3A689A4202D33B686C
:102C5000002B0FD1FB68202283F84120FB685B6CBE
:102C600043F02002FB685A64FB68002283F840208E
:102C700001236BE0FB681B689B6903F02003202B9A
:102C80000CBF01230023DBB2FB77FB681B689B6949
:102C900003F01003102B0CBF01230023DBB2BB7722
:102CA000FB7F002B02D1BB7F002BC4D0FB681B68CD
:102CB0009B6903F01003102B1AD0BB6900933B688B
:102CC00000222021F86800F011F90346002B01D002
:102CD00001233BE0FB681B682022DA61FB682022AD
:102CE00083F84120FB68002283F8402000232DE078
:102CF000BB6900933B6800222021F86800F0F6F8D9
:102D00000346002B01D0012320E0FB681B68102242
:102D1000DA61FB681B682022DA617B6901337B6121
:102D20007B697A689A423FF656AFFB68202283F8A7
:102D30004120FB685B6C43F02002FB685A64FB682F
:102D4000002283F84020012300E0022318462037A8
:102D5000BD4680BD80B586B002AFF860084611461A
:102D60001A4603467B810B463B811346FB80FB885A
:102D7000DAB27989204B00934FF08073F86800F045
:102D800079FAFA69B969F86800F009F90346002B85
:102D900001D001232CE0FB88012B05D13B89DAB25D
:102DA000FB681B689A6215E03B891B0A9BB2DAB28A
:102DB000FB681B689A62FA69B969F86800F0EFF875
:102DC0000346002B01D0012312E03B89DAB2FB68F5
:102DD0001B689A62FB690093BB6900228021F86836
:102DE00000F084F80346002B01D0012300E000230B
:102DF00018461037BD4680BD0020008080B586B0E3
:102E000002AFF860084611461A4603467B810B461E
:102E10003B811346FB80FB88DAB27989204B009313
:102E20000023F86800F026FAFA69B969F86800F03A
:102E3000B6F80346002B01D001232CE0FB88012BC0
:102E400005D13B89DAB2FB681B689A6215E03B89C1
:102E50001B0A9BB2DAB2FB681B689A62FA69B9690D
:102E6000F86800F09CF80346002B01D0012312E023
:102E70003B89DAB2FB681B689A62FB690093BB6905
:102E800000224021F86800F031F80346002B01D001
:102E9000012300E0002318461037BD4680BD00BF67
:102EA0000020008080B483B000AF78607B681B682E
:102EB0009B6903F00203022B03D17B681B6800228D
:102EC0009A627B681B689B6903F00103012B07D0A2
:102ED0007B681B689A697B681B6842F001029A61F3
:102EE00000BF0C37BD465DF8047B704780B584B0E9
:102EF00000AFF860B9603B601346FB713BE0BA6914
:102F00003968F86800F0D6F80346002B01D0012399
:102F100041E03B68B3F1FF3F2DD0FEF763FF02466F
:102F2000BB69D31A3A689A4202D33B68002B22D17C
:102F3000FB681B689A69BB681340BA689A420CBF69
:102F400001230023DBB21A46FB799A4213D1FB68B6
:102F50005B6C43F02002FB685A64FB68202283F814
:102F60004120FB68002283F84220FB68002283F89E
:102F7000402001230FE0FB681B689A69BB6813407F
:102F8000BA689A420CBF01230023DBB21A46FB79D0
:102F90009A42B4D0002318461037BD4680BD80B594
:102FA00084B000AFF860B9607A6033E07A68B968DD
:102FB000F86800F07FF80346002B01D0012331E0D0
:102FC000BB68B3F1FF3F25D0FEF70CFF02467B68DC
:102FD000D31ABA689A4202D3BB68002B1AD1FB6895
:102FE0001B689B6903F00203022B13D0FB685B6C28
:102FF00043F02002FB685A64FB68202283F84120DA
:10300000FB68002283F84220FB68002283F84020FE
:10301000012307E0FB681B689B6903F00203022B96
:10302000C4D1002318461037BD4680BD80B584B09A
:1030300000AFF860B9607A602FE07A68B968F86824
:1030400000F038F80346002B01D001232DE0FEF7F5
:10305000C9FE02467B68D31ABA689A4202D3BB689B
:10306000002B1AD1FB681B689B6903F02003202BFF
:1030700013D0FB685B6C43F02002FB685A64FB686A
:10308000202283F84120FB68002283F84220FB685D
:10309000002283F84020012307E0FB681B689B693E
:1030A00003F02003202BC8D1002318461037BD465B
:1030B00080BD000080B58AB000AFF860B9607A606A
:1030C000002387F82730FB681B689B69BB610023DE
:1030D0003B627B68FB61BB6903F01003002B68D087
:1030E000FB681B681022DA6149E0BB68B3F1FF3F5F
:1030F00045D0FEF777FE0246FB69D31ABA689A42BA
:1031000002D3BB68002B3AD1FB681B685B6803F4F1
:1031100080437B61FB6893F84230FB74FB681B685B
:103120009B6903F40043B3F5004F21D17B69B3F5EC
:10313000804F1DD0FB7C202B1AD0FB681B685A687F
:10314000FB681B6842F480425A60FEF74BFEF86150
:103150000EE0FEF747FE0246FB69D31A192B07D98A
:103160003B6A43F020033B62012387F8273006E0E7
:10317000FB681B689B6903F02003202BE9D1FB68E7
:103180001B689B6903F02003202B03D097F827309E
:10319000002BAAD097F82730002B03D1FB681B68BF
:1031A0002022DA613B6A43F004033B62012387F883
:1031B0002730FB681B689B69BB61BB6903F48073A4
:1031C000002B0BD03B6A43F001033B62FB681B689A
:1031D0004FF48072DA61012387F82730BB6903F46A
:1031E0008063002B0BD03B6A43F008033B62FB6813
:1031F0001B684FF48062DA61012387F82730BB69CE
:1032000003F40073002B0BD03B6A43F002033B62D4
:10321000FB681B684FF40072DA61012387F82730DE
:1032200097F82730002B1CD0F868FFF73BFEFB68AF
:103230001B685968FB681A680D4B0B405360FB68AC
:103240005A6C3B6A1A43FB685A64FB68202283F875
:103250004120FB68002283F84220FB68002283F8AB
:10326000402097F8273018462837BD4680BD00BF5C
:1032700000E800FE80B487B000AFF8607B600B46CA
:103280007B8113467B727B89C3F309027B7A1B0423
:1032900003F47F031A437B681A433B6A134323F00A
:1032A00000437B61FB681B685A683B6A5B0D03F453
:1032B0008061084B0B43DB4302EA0301FB681B6898
:1032C0007A690A435A6000BF1C37BD465DF8047B2B
:1032D000704700BFFF63FF0380B483B000AF786026
:1032E00039607B6893F84130DBB2202B38D17B68A2
:1032F00093F84030012B01D1022332E07B68012298
:1033000083F840207B68242283F841207B681B6877
:103310001A687B681B6822F001021A607B681B68D0
:103320001A687B681B6822F480521A607B681B68ED
:1033300019687B681B683A680A431A607B681B68D7
:103340001A687B681B6842F001021A607B682022C1
:1033500083F841207B68002283F84020002300E0AE
:10336000022318460C37BD465DF8047B704780B4D5
:1033700085B000AF786039607B6893F84130DBB28C
:10338000202B39D17B6893F84030012B01D10223E7
:1033900033E07B68012283F840207B68242283F895
:1033A00041207B681B681A687B681B6822F0010259
:1033B0001A607B681B681B68FB60FB6823F4706302
:1033C000FB603B681B02FA681343FB607B681B6869
:1033D000FA681A607B681B681A687B681B6842F091
:1033E00001021A607B68202283F841207B6800225A
:1033F00083F84020002300E0022318461437BD461E
:103400005DF8047B7047000080B584B000AFF860C1
:103410000B467A60FB72374B1B6823F0010235497B
:10342000FB6813430B607B68002B23D1FEF7EEFD96
:103430000346032B58D12F4B1B692E4A23F001035F
:1034400013612D4B1B692C4A43F004031361BFF336
:103450004F8F00BFBFF36F8F00BFFB7A012B01D1ED
:1034600030BF00E020BF244B1B69234A23F0040334
:1034700013613CE07B68012B23D1FEF7C7FD0346B7
:10348000012B33D11B4B5B691A4A23F002035361B2
:10349000194B1B69184A43F004031361BFF34F8FA4
:1034A00000BFBFF36F8F00BFFB7A012B01D130BF8C
:1034B00000E020BF104B1B690F4A23F00403136187
:1034C00015E0FEF7A3FD0346032B06D1094B1B694C
:1034D000084A23F00403136109E0064B5B69054ABF
:1034E00023F00403536102E000BF00E000BF103787
:1034F000BD4680BD0048025800ED00E080B500AF39
:10350000FEF784FD0346032B01D120BF01E040BF3D
:1035100020BF00BF80BD000080B489B000AFB34BB6
:103520001B6903F03803182B00F2558101A252F8F1
:1035300023F000BF99351008D7371008D737100887
:10354000D7371008D7371008D7371008D7371008E3
:10355000D7371008BF351008D7371008D7371008ED
:10356000D7371008D7371008D7371008D7371008C3
:10357000D7371008C5351008D7371008D7371008C7
:10358000D7371008D7371008D7371008D7371008A3
:10359000D7371008CB351008944B1B6803F0200375
:1035A000002B09D0914B1B68DB0803F00303904A02
:1035B00022FA03F3BB6111E18D4BBB610EE18D4B30
:1035C000BB610BE18C4BBB6108E1884B9B6A03F04C
:1035D00003037B61854B9B6A1B0903F03F033B613F
:1035E000824BDB6A03F00103FB60804B5B6BDB0803
:1035F000C3F30C03FA6802FB03F307EE903AF8EE0C
:10360000677AC7ED027A3B69002B00F0E1807B69A5
:10361000022B00F083807B69022B00F2A1807B6982
:10362000002B03D07B69012B56D099E06F4B1B68B0
:1036300003F02003002B2DD06C4B1B68DB0803F03C
:1036400003036B4A22FA03F37B607B6807EE903A30
:10365000F8EE676A3B6907EE903AF8EE677A86EE15
:10366000A77A624B1B6BC3F3080307EE903AF8EEA0
:10367000676A97ED026ADFED615AC6EE257A76EE4B
:10368000A77AF7EE006A77EEA67A67EE277AC7ED9B
:10369000077A87E03B6907EE903AF8EE677ADFED4C
:1036A000586A86EEA77A514B1B6BC3F3080307EEEB
:1036B000903AF8EE676A97ED026ADFED505AC6EE6F
:1036C000257A76EEA77AF7EE006A77EEA67A67EEAD
:1036D000277AC7ED077A65E03B6907EE903AF8EE86
:1036E000677ADFED486A86EEA77A404B1B6BC3F31F
:1036F000080307EE903AF8EE676A97ED026ADFED8D
:103700003F5AC6EE257A76EEA77AF7EE006A77EE94
:10371000A67A67EE277AC7ED077A43E03B6907EEA2
:10372000903AF8EE677ADFED386A86EEA77A2F4B8B
:103730001B6BC3F3080307EE903AF8EE676A97ED48
:10374000026ADFED2E5AC6EE257A76EEA77AF7EEFC
:10375000006A77EEA67A67EE277AC7ED077A21E04E
:103760003B6907EE903AF8EE677ADFED266A86EE5F
:10377000A77A1E4B1B6BC3F3080307EE903AF8EED3
:10378000676A97ED026ADFED1D5AC6EE257A76EE7E
:10379000A77AF7EE006A77EEA67A67EE277AC7ED8A
:1037A000077A00BF114B1B6B5B0A03F07F030133E9
:1037B0003B603B6807EE903AB8EE677AD7ED076A50
:1037C000C6EE877AFCEEE77A17EE903ABB6105E029
:1037D0000023BB6102E0074BBB6100BFBB69184619
:1037E0002437BD465DF8047B704700BF0044025893
:1037F0000090D00300093D0040787D0100000046A4
:103800000024744C0024744A20BCBE4B2DE9B04FF8
:10381000CAB000AFC7F81401002387F8273100238E
:1038200087F82631D7F81431D3E9002302F0006479
:10383000002554EA050349D0D7F814319B6EB3F53F
:10384000401F2FD0B3F5401F28D8B3F5001F1AD062
:10385000B3F5001F22D8002B03D0B3F5801F07D08B
:103860001CE0B84BDB6AB74A43F40033D3621AE07A
:10387000D7F8143108330221184601F0D1F9034674
:1038800087F827310FE0D7F8143128330221184682
:1038900001F078FA034687F8273104E0012387F81E
:1038A000273100E000BF97F82731002B0AD1A54B44
:1038B0001B6D23F44011D7F814319B6EA14A0B43C2
:1038C000136503E097F8273187F82631D7F81431CC
:1038D000D3E9002302F480784FF0000958EA090385
:1038E00047D0D7F814319B6D042B2AD801A252F887
:1038F00023F000BF09391008173910082D391008B6
:103900004B3910084B3910088E4BDB6A8D4A43F453
:103910000033D3621AE0D7F8143108330021184677
:1039200001F07EF9034687F827310FE0D7F814310C
:1039300028330021184601F025FA034687F827317D
:1039400004E0012387F8273100E000BF97F8273112
:10395000002B0AD17B4B1B6D23F00701D7F81431E4
:103960009B6D784A0B43136503E097F8273187F87E
:103970002631D7F81431D3E9002302F4007A4FF04E
:10398000000B5AEA0B034CD0D7F81431DB6DB3F5BA
:10399000807F30D0B3F5807F29D8C02B2DD0C02BAD
:1039A00025D8802B18D0802B21D8002B02D0402B7B
:1039B00007D01CE0634BDB6A624A43F40033D362F6
:1039C0001CE0D7F8143108330021184601F028F91B
:1039D000034687F8273111E0D7F814312833002146
:1039E000184601F0CFF9034687F8273106E0012396
:1039F00087F8273102E000BF00E000BF97F82731C9
:103A0000002B0AD14F4B1B6D23F4E071D7F8143112
:103A1000DB6D4C4A0B43136503E097F8273187F8B9
:103A20002631D7F81431D3E9002302F48063C7F8B4
:103A300008310023C7F80C31D7E942120B46134373
:103A400053D0D7F81431D3F8A830B3F5000F35D0E0
:103A5000B3F5000F2ED8B3F5C00F31D0B3F5C00FBA
:103A600028D8B3F5800F1AD0B3F5800F22D8002BD9
:103A700003D0B3F5001F07D01CE0324BDB6A314A9C
:103A800043F40033D3621CE0D7F81431083300212B
:103A9000184601F0C5F8034687F8273111E0D7F83A
:103AA000143128330021184601F06CF9034687F8D9
:103AB000273106E0012387F8273102E000BF00E04C
:103AC00000BF97F82731002B0BD11E4B9B6D23F4C1
:103AD0006001D7F81431D3F8A8301A4A0B43936524
:103AE00003E097F8273187F82631D7F81431D3E966
:103AF000002302F40063C7F800310023C7F8043143
:103B0000D7E940120B46134356D0D7F81431D3F8F7
:103B1000AC30B3F1806F38D0B3F1806F31D8B3F1EE
:103B2000407F34D0B3F1407F2BD8B3F1007F1DD05C
:103B3000B3F1007F25D8002B06D0B3F1807F0AD0E7
:103B40001FE000BF00440258A24BDB6AA14A43F4C5
:103B50000033D3621CE0D7F8143108330021184633
:103B600001F05EF8034687F8273111E0D7F81431E9
:103B700028330021184601F005F9034687F827315C
:103B800006E0012387F8273102E000BF00E000BF14
:103B900097F82731002B0BD18E4B9B6D23F0E06102
:103BA000D7F81431D3F8AC308A4A0B43936503E05D
:103BB00097F8273187F82631D7F81431D3E9002355
:103BC00002F00073C7F8F8300023C7F8FC30D7E9DB
:103BD0003E120B4613433AD0D7F81431DB6C302B2E
:103BE0001FD0302B19D8202B0CD0202B15D8002B10
:103BF00019D0102B11D1774BDB6A764A43F400338E
:103C0000D36211E0D7F8143108330221184601F0CD
:103C100007F8034687F8273106E0012387F82731A4
:103C200002E000BF00E000BF97F82731002B0AD167
:103C3000684BDB6C23F03001D7F81431DB6C654A3C
:103C40000B43D36403E097F8273187F82631D7F880
:103C50001431D3E9002302F48053C7F8F030002375
:103C6000C7F8F430D7E93C120B46134351D0D7F8CC
:103C700014311B6EB3F5804F35D0B3F5804F2ED87D
:103C8000B3F5405F31D0B3F5405F28D8B3F5005F9E
:103C90001AD0B3F5005F22D8002B03D0B3F5805FB4
:103CA00007D01CE04B4BDB6A4A4A43F40033D36233
:103CB0001CE0D7F8143108330021184600F0B0FF9B
:103CC000034687F8273111E0D7F814312833002153
:103CD000184601F057F8034687F8273106E001231C
:103CE00087F8273102E000BF00E000BF97F82731D6
:103CF000002B0AD1374B1B6D23F4E041D7F8143168
:103D00001B6E344A0B43136503E097F8273187F89D
:103D10002631D7F81431D3E9002302F40053C7F851
:103D2000E8300023C7F8EC30D7E93A120B461343CA
:103D300056D0D7F814315B6EB3F5A02F33D0B3F55E
:103D4000A02F2CD8B3F5802F2FD0B3F5802F26D8F5
:103D5000B3F5403F2BD0B3F5403F20D8B3F5003F3B
:103D600012D0B3F5003F1AD8002B22D0B3F5803F14
:103D700015D1D7F8143108330121184600F050FF4F
:103D8000034687F8273115E0D7F81431283301218D
:103D9000184600F0F7FF034687F827310AE00123B1
:103DA00087F8273106E000BF04E000BF02E000BF53
:103DB00000E000BF97F82731002B0DD1054B1B6D9C
:103DC00023F4E021D7F814315B6E024A0B431365EC
:103DD00006E000BF0044025897F8273187F82631E3
:103DE000D7F81431D3E9002302F48043C7F8E03058
:103DF0000023C7F8E430D7E938120B46134355D0F7
:103E0000D7F81431D3F8B030B3F1A04F33D0B3F1B9
:103E1000A04F2CD8B3F1804F2FD0B3F1804F26D8CC
:103E2000B3F1405F2BD0B3F1405F20D8B3F1005F16
:103E300012D0B3F1005F1AD8002B22D0B3F1805F0B
:103E400015D1D7F8143108330121184600F0E8FEE7
:103E5000034687F8273115E0D7F8143128330121BC
:103E6000184600F08FFF034687F827310AE0012348
:103E700087F8273106E000BF04E000BF02E000BF82
:103E800000E000BF97F82731002B0BD1A44B9B6DAE
:103E900023F0E041D7F81431D3F8B030A04A0B43F7
:103EA000936503E097F8273187F82631D7F8143166
:103EB000D3E9002302F40043C7F8D8300023C7F841
:103EC000DC30D7E936120B46134337D0D7F814311C
:103ED0001B6FB3F1005F0ED0B3F1005F16D8002B5B
:103EE00018D0B3F1805F11D18D4BDB6A8C4A43F45B
:103EF0000033D3620FE0D7F814310833012118469C
:103F000000F08EFE034687F8273104E0012387F88E
:103F1000273100E000BF97F82731002B0AD1804BF2
:103F20001B6D23F04051D7F814311B6F7C4A0B43B3
:103F3000136503E097F8273187F82631D7F8143155
:103F4000D3E9002302F08073C7F8D0300023C7F80C
:103F5000D430D7E934120B46134339D0D7F8143193
:103F60009B6C032B1CD801A252F823F0A93F100828
:103F70007D3F10088B3F1008A93F1008684BDB6A93
:103F8000674A43F40033D3620FE0D7F814310833A3
:103F90000221184600F044FE034687F8273104E06A
:103FA000012387F8273100E000BF97F82731002B65
:103FB0000AD15B4BDB6C23F00301D7F814319B6C07
:103FC000574A0B43D36403E097F8273187F826312B
:103FD000D7F81431D3E9002302F48003C7F8C830BE
:103FE0000023C7F8CC30D7E932120B46134300F058
:103FF0009F804C4B1B684B4A43F480731360FDF762
:10400000F1FEC7F820010BE0FDF7ECFE0246D7F801
:104010002031D31A642B03D9032387F8273105E015
:10402000404B1B6803F48073002BEDD097F82731C9
:10403000002B79D13A4B1A6FD7F81431D3F8B4303A
:10404000534003F44073002B15D0354B1B6F23F402
:104050004073C7F81C31324B1B6F314A43F4803335
:1040600013672F4B1B6F2E4A23F4803313672C4AA0
:10407000D7F81C311367D7F81431D3F8B430B3F53F
:10408000807F18D1FDF7AEFEC7F820010DE0FDF7E7
:10409000A9FE0246D7F82031D21A41F288339A425B
:1040A00003D9032387F8273105E01D4B1B6F03F06D
:1040B0000203002BEBD097F82731002B2BD1D7F838
:1040C0001431D3F8B43003F44073B3F5407F10D10A
:1040D000134B1B6923F47C51D7F81431D3F8B43057
:1040E0001B0923F07F4323F030030D4A0B43136178
:1040F00005E00B4B1B690A4A23F47C531361084B00
:10410000196FD7F81431D3F8B430C3F30B03044A52
:104110000B4313670CE097F8273187F8263107E047
:10412000004402580048025897F8273187F8263192
:10413000D7F81431D3E9002302F00103C7F8C030E7
:104140000023C7F8C430D7E930120B46134300F000
:104150008980D7F81431DB6F282B6BD801A252F875
:1041600023F000BF3D4210083542100835421008C8
:104170003542100835421008354210083542100803
:10418000354210080942100835421008354210081F
:1041900035421008354210083542100835421008E3
:1041A000354210081F4210083542100835421008E9
:1041B00035421008354210083542100835421008C3
:1041C000354210083D4210083542100835421008AB
:1041D00035421008354210083542100835421008A3
:1041E000354210083D42100835421008354210088B
:1041F0003542100835421008354210083542100883
:10420000354210083D421008D7F814310833012117
:10421000184600F005FD034687F827310FE0D7F870
:10422000143128330121184600F0ACFD034687F80D
:10423000273104E0012387F8273100E000BF97F819
:104240002731002B0AD1BF4B5B6D23F03801D7F823
:104250001431DB6FBB4A0B43536503E097F82731FA
:1042600087F82631D7F81431D3E9002302F002038E
:10427000C7F8B8300023C7F8BC30D7E92E120B4678
:10428000134341D0D7F814319B6F052B24D801A2DA
:1042900052F823F0E1421008AD421008C342100862
:1042A000E1421008E1421008E1421008D7F8143149
:1042B00008330121184600F0B3FC034687F8273184
:1042C0000FE0D7F8143128330121184600F05AFDC9
:1042D000034687F8273104E0012387F8273100E0FF
:1042E00000BF97F82731002B0AD1964B5B6D23F066
:1042F0000701D7F814319B6F924A0B43536503E0D3
:1043000097F8273187F82631D7F81431D3E90023FD
:1043100002F00403C7F8B0300023C7F8B430D7E97F
:104320002C120B46134344D0D7F81431D3F89430F1
:10433000052B25D801A252F823F000BF89431008AD
:10434000554310086B43100889431008894310082F
:1043500089431008D7F8143108330121184600F0BA
:104360005FFC034687F827310FE0D7F81431283374
:104370000121184600F006FD034687F8273104E0C6
:10438000012387F8273100E000BF97F82731002B81
:104390000BD16C4B9B6D23F00701D7F81431D3F888
:1043A0009430684A0B43936503E097F8273187F808
:1043B0002631D7F81431D3E9002302F02003C7F8DF
:1043C000A8300023C7F8AC30D7E92A120B461343B4
:1043D00055D0D7F81431D3F89030B3F1A04F33D083
:1043E000B3F1A04F2CD8B3F1804F2FD0B3F1804F51
:1043F00026D8B3F1405F2BD0B3F1405F20D8B3F1A2
:10440000005F12D0B3F1005F1AD8002B22D0B3F1B5
:10441000805F15D1D7F8143108330021184600F019
:10442000FFFB034687F8273115E0D7F8143128330E
:104430000221184600F0A6FC034687F827310AE05F
:10444000012387F8273106E000BF04E000BF02E047
:1044500000BF00E000BF97F82731002B0BD1394B8C
:104460005B6D23F0E041D7F81431D3F89030354A32
:104470000B43536503E097F8273187F82631D7F8C7
:104480001431D3E9002302F04003C7F8A030002321
:10449000C7F8A430D7E928120B46134358D0D7F8F1
:1044A0001431D3F89C30B3F5A05F33D0B3F5A05FDF
:1044B0002CD8B3F5805F2FD0B3F5805F26D8B3F545
:1044C000406F2BD0B3F5406F20D8B3F5006F12D0FA
:1044D000B3F5006F1AD8002B22D0B3F5806F15D139
:1044E000D7F8143108330021184600F099FB034631
:1044F00087F8273115E0D7F8143128330221184600
:1045000000F040FC034687F827310AE0012387F8D2
:10451000273106E000BF04E000BF02E000BF00E07A
:1045200000BF97F82731002B0ED1064B9B6D23F46B
:10453000E051D7F81431D3F89C30024A0B4393650D
:1045400006E000BF0044025897F8273187F826316B
:10455000D7F81431D3E9002302F08003C7F898306C
:104560000023C7F89C30D7E926120B46134355D0D9
:10457000D7F81431D3F8A030B3F5204F33D0B3F5CA
:10458000204F2CD8B3F5004F2FD0B3F5004F26D8CD
:10459000B3F5C04F2BD0B3F5C04F20D8B3F5804F43
:1045A00012D0B3F5804F1AD8002B22D0B3F5005F9C
:1045B00015D1D7F8143108330021184600F030FB2C
:1045C000034687F8273115E0D7F814312833022144
:1045D000184600F0D7FB034687F827310AE001238D
:1045E00087F8273106E000BF04E000BF02E000BF0B
:1045F00000E000BF97F82731002B0BD1A14B9B6D3A
:1046000023F46041D7F81431D3F8A0309D4A0B430E
:10461000936503E097F8273187F82631D7F81431EE
:10462000D3E9002302F00803C7F890300023C7F84D
:104630009430D7E924120B4613431ED0D7F8143117
:10464000D3F88430B3F5805F0CD1D7F81431283318
:104650000221184600F096FB0346002B02D00123EE
:1046600087F82631874B5B6D23F44051D7F814311E
:10467000D3F88430834A0B435365D7F81431D3E918
:10468000002302F01003C7F888300023C7F88C30ED
:10469000D7E922120B4613431ED0D7F81431D3F8B2
:1046A0009830B3F5807F0CD1D7F81431283302212C
:1046B000184600F067FB0346002B02D0012387F861
:1046C0002631704B9B6D23F44071D7F81431D3F829
:1046D00098306C4A0B439365D7F81431D3E9002323
:1046E00002F40023C7F880300023C7F88430D7E9EC
:1046F00020120B4613433ED0D7F81431D3F8A43020
:10470000B3F5003F22D0B3F5003F1BD8002B03D0F8
:10471000B3F5803F0BD015E0D7F8143108330021F2
:10472000184600F07DFA034687F827310FE0D7F8E6
:10473000143128330221184600F024FB034687F881
:10474000273104E0012387F8273100E000BF97F804
:104750002731002B0BD14B4B9B6D23F44031D7F805
:104760001431D3F8A430474A0B43936503E097F81C
:10477000273187F82631D7F81431D3E9002302F422
:104780008023BB670023FB67D7E91E120B46134348
:104790003BD0D7F81431D3F88830B3F5401F1FD081
:1047A000B3F5401F18D8B3F5801F03D0B3F5001F31
:1047B00007D011E0334BDB6A324A43F40033D36253
:1047C0000FE0D7F8143128330121184600F0DAFA47
:1047D000034687F8273104E0012387F8273100E0FA
:1047E00000BF97F82731002B0BD1264B5B6D23F4CC
:1047F0004011D7F81431D3F88830224A0B4353655F
:1048000003E097F8273187F82631D7F81431D3E938
:10481000002302F480333B6700237B67D7E91C1237
:104820000B46134334D0D7F814311B6D002B03D043
:10483000B3F5803F07D011E0124BDB6A114A43F415
:104840000033D3620EE0D7F8143108330221184642
:1048500000F0E6F9034687F8273103E0012387F8E3
:10486000273100BF97F82731002B0DD1054BDB6CAA
:1048700023F48031D7F814311B6D024A0B43D36403
:1048800006E000BF0044025897F8273187F8263128
:10489000D7F81431D3E9002302F00053BB6600239C
:1048A000FB66D7E91A120B4613430CD0D7F8143124
:1048B00028330221184600F065FA0346002B02D087
:1048C000012387F82631D7F81431D3E9002302F405
:1048D00000333B6600237B66D7E918120B4613436F
:1048E00038D0D7F81431D3F88030B3F5407F18D0E2
:1048F000B3F5407F11D8B3F5007F14D0B3F5007F36
:104900000BD8002B11D0B3F5807F06D1C34BDB6AE7
:10491000C24A43F40033D36208E0012387F8273109
:1049200004E000BF02E000BF00E000BF97F82731BD
:10493000002B0BD1B94B5B6D23F44071D7F81431C8
:10494000D3F88030B54A0B43536503E097F827311D
:1049500087F82631D7F81431D3E9002302F4801305
:10496000BB650023FB65D7E916120B46134309D03C
:10497000AA4B1B6D23F00041D7F814315B6FA74A97
:104980000B431365D7F81431D3E9002302F08053A9
:104990003B6500237B65D7E914120B4613430AD00D
:1049A0009E4B1B6923F48041D7F81431D3F8B830FB
:1049B0009A4A0B431361D7F81431D3E9002302F468
:1049C0000013BB640023FB64D7E912120B461343A8
:1049D00009D0924B1B6D23F08071D7F81431DB6E38
:1049E0008E4A0B431365D7F81431D3E9002302F044
:1049F00080433B6400237B64D7E910120B461343CA
:104A00000ED0864B1B69854A23F400431361834B08
:104A10001969D7F81431D3F8BC30804A0B431361BD
:104A2000D7F81431D3E9002302F00043BB6300231D
:104A3000FB63D7E90E120B46134309D0774BDB6CAF
:104A400023F04051D7F814315B6D744A0B43D364A3
:104A5000D7F81431D3E9002302F400033B630023A9
:104A60007B63D7E90C120B4613430AD06B4B5B6D8B
:104A700023F44001D7F81431D3F88C30674A0B4344
:104A80005365D7F81431D3E900230021B96203F04C
:104A90000103FB62D7E90A120B46134311D0D7F882
:104AA000143108330021184600F0BAF8034687F89D
:104AB000273197F82731002B03D097F8273187F853
:104AC0002631D7F81431D3E900230021396203F0ED
:104AD00002037B62D7E908120B46134311D0D7F8C3
:104AE000143108330121184600F09AF8034687F87C
:104AF000273197F82731002B03D097F8273187F813
:104B00002631D7F81431D3E900230021B96103F02D
:104B10000403FB61D7E906120B46134311D0D7F803
:104B2000143108330221184600F07AF8034687F85A
:104B3000273197F82731002B03D097F8273187F8D2
:104B40002631D7F81431D3E900230021396103F06D
:104B500008037B61D7E904120B46134311D0D7F841
:104B6000143128330021184600F00CF9034687F869
:104B7000273197F82731002B03D097F8273187F892
:104B80002631D7F81431D3E900230021B96003F0AE
:104B90001003FB60D7E902120B46134311D0D7F87C
:104BA000143128330121184600F0ECF8034687F849
:104BB000273197F82731002B03D097F8273187F852
:104BC0002631D7F81431D3E900230021396003F0EE
:104BD00020037B60D7E900120B46134311D0D7F8AE
:104BE000143128330221184600F0CCF8034687F828
:104BF000273197F82731002B03D097F8273187F812
:104C0000263197F82631002B01D1002300E0012343
:104C1000184607F59477BD46BDE8B08F00440258AA
:104C200080B584B000AF786039600023FB73544BCB
:104C30009B6A03F00303032B01D101239BE0504B3C
:104C40001B684F4A23F080631360FDF7CBF8B86010
:104C500008E0FDF7C7F80246BB68D31A022B01D95A
:104C6000032388E0464B1B6803F00063002BF0D160
:104C7000434B9B6A23F47C327B681B681B034049CF
:104C800013438B627B685B68013BC3F308027B685C
:104C90009B68013B5B029BB21A437B68DB68013B6C
:104CA0001B0403F4FE031A437B681B69013B1B06CC
:104CB00003F0FE43324913438B63314BDB6A23F02D
:104CC000C0027B685B692E491343CB622C4BDB6AC5
:104CD00023F020027B689B6929491343CB62284B50
:104CE000DB6A274A23F01003D362254BDB6B23F4E6
:104CF0007F4323F0F8037A68D269D2002049134336
:104D0000CB631F4BDB6A1E4A43F01003D3623B6840
:104D1000002B06D11A4BDB6A194A43F40023D362F5
:104D20000FE03B68012B06D1154BDB6A144A43F4B4
:104D30008013D36205E0124BDB6A114A43F400137F
:104D4000D3620F4B1B680E4A43F080631360FDF77C
:104D500049F8B86008E0FDF745F80246BB68D31A89
:104D6000022B01D9032306E0054B1B6803F0006307
:104D7000002BF0D0FB7B18461037BD4680BD00BF2E
:104D80000044025880B584B000AF786039600023D9
:104D9000FB73544B9B6A03F00303032B01D10123E4
:104DA0009BE0504B1B684F4A23F080531360FDF784
:104DB00019F8B86008E0FDF715F80246BB68D31A89
:104DC000022B01D9032388E0464B1B6803F00053F4
:104DD000002BF0D1434B9B6A23F07C727B681B68ED
:104DE0001B05404913438B627B685B68013BC3F33F
:104DF00008027B689B68013B5B029BB21A437B689D
:104E0000DB68013B1B0403F4FE031A437B681B6948
:104E1000013B1B0603F0FE43324913430B64314B45
:104E2000DB6A23F440627B685B692E491343CB62E3
:104E30002C4BDB6A23F400727B689B69294913437E
:104E4000CB62284BDB6A274A23F48073D362254B5D
:104E50005B6C23F47F4323F0F8037A68D269D200B5
:104E6000204913434B641F4BDB6A1E4A43F4807393
:104E7000D3623B68002B06D11A4BDB6A194A43F414
:104E80008003D3620FE03B68012B06D1154BDB6A30
:104E9000144A43F40003D36205E0124BDB6A114A63
:104EA00043F08073D3620F4B1B680E4A43F080536C
:104EB0001360FCF797FFB86008E0FCF793FF024629
:104EC000BB68D31A022B01D9032306E0054B1B68EC
:104ED00003F00053002BF0D0FB7B18461037BD4683
:104EE00080BD00BF0044025880B58AB002AFF860B0
:104EF000B9603B601346FB80FB68D3F88830202BF9
:104F00007BD1BB68002B02D0FB88002B01D1012391
:104F100074E0FB680022C3F89020FB682122C3F8EC
:104F20008820FCF75FFF7861FB68FA88A3F85420BB
:104F3000FB68FA88A3F85620FB689B68B3F5805F8E
:104F400008D1FB681B69002B04D10023FB61BB68FF
:104F5000BB6103E0BB68FB610023BB6130E03B68E1
:104F600000937B6900228021F86800F04BF803462B
:104F7000002B05D0FB682022C3F8882003233DE0E6
:104F8000FB69002B0BD1BB691B881A46FB681B68A9
:104F9000C2F308029A62BB690233BB6107E0FB6996
:104FA0001A78FB681B689A62FB690133FB61FB6836
:104FB000B3F856309BB2013B9AB2FB68A3F8562077
:104FC000FB68B3F856309BB2002BC8D13B68009306
:104FD0007B6900224021F86800F014F80346002B9A
:104FE00005D0FB682022C3F88820032306E0FB6875
:104FF0002022C3F88820002300E00223184620372F
:10500000BD4680BD80B584B000AFF860B9603B603C
:105010001346FB714FE0BB69B3F1FF3F4BD0FCF788
:10502000E1FE02463B68D31ABA699A4202D3BB69D1
:10503000002B01D103234EE0FB681B681B6803F0C3
:105040000403002B37D0BB68802B34D0BB68402BC7
:1050500031D0FB681B68DB6903F00803082B10D113
:10506000FB681B6808221A62F86800F038F8FB68D1
:105070000822C3F89020FB68002283F884200123D3
:1050800029E0FB681B68DB6903F40063B3F5006F7C
:1050900011D1FB681B684FF400621A62F86800F0D7
:1050A0001EF8FB682022C3F89020FB68002283F8DA
:1050B000842003230FE0FB681B68DA69BB68134098
:1050C000BA689A420CBF01230023DBB21A46FB796F
:1050D0009A42A0D0002318461037BD4680BD80B448
:1050E00095B000AF78607B681B687B637B6B53E88F
:1050F000003F3B633B6B23F49073FB647B681B684E
:105100001A46FB6C3B64FA63F96B3A6C41E8002386
:10511000BB63BB6B002BE6D17B681B6808333B622B
:105120003B6A53E8003FFB61FB6923F0805323F0A7
:105130000103BB647B681B680833BA6CFA62BB620C
:10514000B96AFA6A41E800237B627B6A002BE3D1EB
:105150007B68DB6E012B18D17B681B68FB60FB68EA
:1051600053E8003FBB60BB6823F010037B647B689F
:105170001B681A467B6CBB617A617969BA6941E840
:1051800000233B613B69002BE6D17B682022C3F8FA
:105190008C207B680022DA667B6800225A6700BF99
:1051A0005437BD465DF8047B70472DE9FF4757EC47
:1051B000106B002F0C4619463B46BBBF07F100435E
:1051C0001F4600232D230B700D9BDDF830A0914668
:1051D00023F02008BCBF32461646B8F1460F05D072
:1051E000B8F1450F00D10134022100E0032103ABE7
:1051F000019302AB009347EC106B5346224601F03B
:10520000C7FEB8F1470F054619D119F0010F0ED0AE
:1052100000EB04090022002330463946FBF7DCFC92
:1052200008B1CDF80C903022039B4B451ED3039B55
:105230000E9A5B1B2846136004B0BDE8F087B8F1F6
:10524000460F00EB0409E5D10378302B0AD1002288
:10525000002330463946FBF7BFFC18B9C4F10104FE
:10526000CAF80040DAF800309944D3E7591C03919A
:105270001A70D9E7F7B50029BABF49422D232B236D
:1052800009290270437029DD0DF107031D460A2725
:105290001A46B1FBF7F607FB1614303402F8014C3E
:1052A0000C46632C03F1FF333146F1DC3031941EA0
:1052B00003F8011C411C2346AB420AD30DF109033C
:1052C0009B1AAC4288BF002302330344181A03B070
:1052D000F0BD13F8016B01F8016FEDE730233031B9
:1052E0008370C170031DF1E72DE9F04F8DB00C46BE
:1052F000DDF8588016461F46054601F043FD036859
:1053000004931846FBF73CF800230A93D8F80030C2
:105310000590073323F0070303F1080294F818A05F
:10532000D4F800B0C8F80020D3E9008929F0004380
:105330000793CDF81880C4E91289DDE906019C4B7A
:105340004FF0FF32FBF77AFC70BBDDE90601984BAA
:105350004FF0FF32FBF754FC30BB002200234046E5
:105360004946FBF743FC10B12D2384F84330914AA2
:10537000914BBAF1470F94BF90469846032323619F
:105380002BF0040323604FF00009009733460BAA6B
:105390002146284600F0D2F9013040F08D804FF0D0
:1053A000FF300DB0BDE8F08F42464B4640464946BF
:1053B000FBF744FC40B14B46002BBCBF2D2384F8C7
:1053C00043307E4A7E4BD4E763680AF0DF020692E0
:1053D0005A1C3BD1062363604BF480620023226099
:1053E00003930AABCDE901A309AB0093616849ECD3
:1053F000108B0DF123032846FFF7D7FE069B099972
:10540000472B804629D1C81C02DB6368994241DDE5
:10541000AAF1020A5FFA8AFA0139524604F15000F1
:105420000991FFF727FF0A9A1318012A8146236181
:1054300002DC2268D20701D5013323619DF82330B5
:10544000002BA2D02D2384F843309EE7069A472AEA
:10545000C2D1002BC0D10123BDE7BAF1650FDBD962
:10546000BAF1660F18D1002963680BDD216113B909
:105470002268D00702D501330B442361A1654FF0A8
:105480000009DBE713B92268D20701D50233F4E73C
:105490000123F2E74FF0670A0A9B994205DB236874
:1054A0002161D807EAD54B1CE7E70029D4BFC1F139
:1054B000020201221344E0E723685A0507D4236956
:1054C000424631462846B84701302BD167E7BAF14A
:1054D000650F40F2DD80D4E9120100220023FBF7C2
:1054E0007BFB002833D0374A012331462846B84792
:1054F00001303FF454AFDDE90938434502DB23684E
:10550000D8070FD5DDE9042331462846B8470130D6
:105510003FF445AF4FF0000908F1FF3804F11A0AD3
:10552000C84509DC23689B0700F10381E0680B9BF9
:105530009842B8BF184634E7012352463146284600
:10554000B84701303FF42BAF09F10109E8E7099BA7
:10555000002B39DC1B4A012331462846B84701306D
:105560003FF41DAFDDE9093959EA030302D123688D
:10557000D907D7D5DDE9042331462846B84701309D
:105580003FF40DAF4FF0000A04F11A0B099B5B4288
:10559000534501DC4B4693E701235A4631462846E2
:1055A000B84701303FF4FBAE0AF1010AEEE700BF55
:1055B000FFFFEF7F2CA9100830A9100834A91008AC
:1055C00038A910083CA91008A36DDDF828A05345A0
:1055D000A8BF5346002B994636DC4FF0000B29EA52
:1055E000E97904F11A02A36D0693A3EB09035B4565
:1055F00031DC099B9A453ADC2368DA0737D4099BEA
:10560000AAEB0309069BAAEB03039945A8BF994699
:10561000B9F1000F33DC4FF0000829EAE97904F111
:105620001A0B099BAAEB0303A3EB090343457FF77E
:1056300079AF01235A4631462846B84701303FF436
:10564000AEAE08F10108ECE7424631462846B847BD
:105650000130C2D1A3E60123314628460692B8475D
:1056600001303FF49CAE069A0BF1010BBBE7DDE97C
:10567000042331462846B8470130C0D18FE6069A48
:105680004B46424431462846B8470130C3D186E6EE
:10569000DDF828A0BAF1010F01DCDB0736D50123C4
:1056A000424631462846B84701303FF478AEDDE93E
:1056B000042331462846B84701303FF470AED4E9A0
:1056C0001201002200230AF1FF3AFBF785FAC0B964
:1056D000534608F1010231462846B84701300CD143
:1056E0005DE601235A4631462846B84701303FF46B
:1056F00056AE08F10108D045F3DB4B4604F15002E9
:10570000DFE64FF0000804F11A0BF4E701234246EC
:10571000E1E701234A4631462846B84701303FF4C5
:105720003EAE08F10108E3680B995B1A4345F0DCD3
:10573000FCE64FF0000804F11909F4E72DE9F04701
:10574000164698468A680B69DDF820909342B8BFE8
:105750001346336091F8432007460C460AB10133E3
:1057600033602368990642BF33680233336025688B
:1057700015F0060506D104F1190AE36832689B1A90
:10578000AB4226DC94F843302268003B18BF01236B
:1057900092062BD404F1430241463846C8470130F3
:1057A0001ED02368226903F00603042B02BFE568BC
:1057B0003368ED1AA3680CBF25EAE575002593420E
:1057C000C4BF9B1AED1800261A34B5421AD1002026
:1057D00008E00123524641463846C847013003D10C
:1057E0004FF0FF30BDE8F0870135C6E7E1185A1CDD
:1057F000302081F84300224494F8451082F8431089
:105800000233C7E70123224641463846C8470130E4
:10581000E6D00136D9E700002DE9FF470F7E0C9E48
:10582000782F914680460C469A4601F1430207D8EC
:10583000622F0AD8002F00F0D280582F00F0B980D4
:1058400004F1420684F842703AE0A7F16303152B95
:10585000F6D801A151F823F0B1581008C558100826
:105860004158100841581008415810084158100874
:10587000C5581008415810084158100841581008E0
:1058800041581008C5591008EF5810087F591008E2
:105890004158100841581008E7591008415810089D
:1058A000EF5810084158100841581008875910083F
:1058B00033681A1D1B68326004F1420684F84230D6
:1058C00001239DE033682068191D3160060601D56B
:1058D0001D6803E04506FBD5B3F90050002D03DA3F
:1058E0002D236D4284F8433059480A2311E0216882
:1058F0003368080653F8045B02D4490648BFADB2CA
:105900006F2F5348336014BF0A230823002184F803
:1059100043106668A660002EA2BF216821F0040132
:1059200021600DB9002E4BD01646B5FBF3F103FBF9
:105930001157C75D06F8017D2F46BB420D46F4D9CD
:10594000082B0BD12368DF0708D5236961689942CA
:10595000DEBF302306F8013C06F1FF36921B2261C0
:10596000CDF800A04B4603AA21464046FFF7E6FECD
:1059700001304AD14FF0FF3004B0BDE8F087236812
:1059800043F0200323603348782784F84570236868
:1059900031681F0651F8045B02D45F0648BFADB200
:1059A0003160D90744BF43F0200323601DB11023A9
:1059B000ACE72748E9E7236823F020032360F6E7F4
:1059C0001646BDE7336825686169181D30602E06EC
:1059D0001B6801D5196002E06806FBD51980002319
:1059E00023611646BCE733681A1D32601E68626880
:1059F00000213046FAF774FC08B1801B60606368D0
:105A00002361002384F84330AAE7236932464946DC
:105A10004046D0470130ADD023689B0713D4E068DF
:105A2000039B9842B8BF1846A6E701233246494671
:105A30004046D04701309DD00135E36803995B1A99
:105A4000AB42F2DCEBE7002504F11906F5E700BFF5
:105A50003EA910084FA910082DE9F04F87B017464E
:105A600003938B685A1EB2F5AE7F81BF6FF4AE759B
:105A700003EB050B40F25D138B600B680A464FF099
:105A8000000543F4F06342F81C3BCDE90455804621
:105A90000C4698BF4FF0000B01921646AA46A94645
:105AA0000295A26852B13B681B784E2B64D8402BFC
:105AB0003CD8A3F12B01C8B20E283AD9B9F1000F96
:105AC00003D0236823F4807323600AF1FF3ABAF10C
:105AD000010F00F21781019B9E4200F20881012014
